{
  "_format": "hh-sol-artifact-1",
  "contractName": "Bitsave",
  "sourceName": "contracts/Bitsave.sol",
  "abi": [
    {
      "inputs": [
        {
          "internalType": "address",
          "name": "_stableCoin",
          "type": "address"
        },
        {
          "internalType": "address",
          "name": "systemContractAddress",
          "type": "address"
        }
      ],
      "stateMutability": "payable",
      "type": "constructor"
    },
    {
      "inputs": [],
      "name": "AmountNotEnough",
      "type": "error"
    },
    {
      "inputs": [],
      "name": "CantBeIdenticalAddresses",
      "type": "error"
    },
    {
      "inputs": [],
      "name": "CantBeZeroAddress",
      "type": "error"
    },
    {
      "inputs": [],
      "name": "InvalidTime",
      "type": "error"
    },
    {
      "inputs": [],
      "name": "NotEnoughToPayGasFee",
      "type": "error"
    },
    {
      "inputs": [],
      "name": "NotEnoughToPayGasFee",
      "type": "error"
    },
    {
      "inputs": [],
      "name": "UserNotRegistered",
      "type": "error"
    },
    {
      "inputs": [],
      "name": "WrongGasContract",
      "type": "error"
    },
    {
      "inputs": [],
      "name": "WrongGasContract",
      "type": "error"
    },
    {
      "inputs": [],
      "name": "CRT",
      "outputs": [
        {
          "internalType": "string",
          "name": "",
          "type": "string"
        }
      ],
      "stateMutability": "view",
      "type": "function"
    },
    {
      "inputs": [],
      "name": "INC",
      "outputs": [
        {
          "internalType": "string",
          "name": "",
          "type": "string"
        }
      ],
      "stateMutability": "view",
      "type": "function"
    },
    {
      "inputs": [],
      "name": "JON",
      "outputs": [
        {
          "internalType": "string",
          "name": "",
          "type": "string"
        }
      ],
      "stateMutability": "view",
      "type": "function"
    },
    {
      "inputs": [],
      "name": "WTD",
      "outputs": [
        {
          "internalType": "string",
          "name": "",
          "type": "string"
        }
      ],
      "stateMutability": "view",
      "type": "function"
    },
    {
      "inputs": [],
      "name": "getStableCoin",
      "outputs": [
        {
          "internalType": "address",
          "name": "",
          "type": "address"
        }
      ],
      "stateMutability": "view",
      "type": "function"
    },
    {
      "inputs": [],
      "name": "getUserChildContractAddress",
      "outputs": [
        {
          "internalType": "address payable",
          "name": "",
          "type": "address"
        }
      ],
      "stateMutability": "view",
      "type": "function"
    },
    {
      "inputs": [
        {
          "internalType": "uint256",
          "name": "joining_fee",
          "type": "uint256"
        }
      ],
      "name": "joinBitsave",
      "outputs": [
        {
          "internalType": "address",
          "name": "",
          "type": "address"
        }
      ],
      "stateMutability": "payable",
      "type": "function"
    },
    {
      "inputs": [
        {
          "internalType": "address",
          "name": "zrc20",
          "type": "address"
        },
        {
          "internalType": "uint256",
          "name": "amount",
          "type": "uint256"
        },
        {
          "internalType": "bytes",
          "name": "message",
          "type": "bytes"
        }
      ],
      "name": "onCrossChainCall",
      "outputs": [],
      "stateMutability": "nonpayable",
      "type": "function"
    },
    {
      "inputs": [],
      "name": "poolFee",
      "outputs": [
        {
          "internalType": "uint24",
          "name": "",
          "type": "uint24"
        }
      ],
      "stateMutability": "view",
      "type": "function"
    },
    {
      "inputs": [
        {
          "internalType": "address",
          "name": "originalToken",
          "type": "address"
        },
        {
          "internalType": "uint256",
          "name": "amount",
          "type": "uint256"
        },
        {
          "internalType": "address",
          "name": "ownerAddress",
          "type": "address"
        }
      ],
      "name": "sendAsOriginalToken",
      "outputs": [],
      "stateMutability": "payable",
      "type": "function"
    },
    {
      "inputs": [],
      "name": "stableCoin",
      "outputs": [
        {
          "internalType": "address",
          "name": "",
          "type": "address"
        }
      ],
      "stateMutability": "view",
      "type": "function"
    },
    {
      "inputs": [],
      "name": "systemContract",
      "outputs": [
        {
          "internalType": "contract SystemContract",
          "name": "",
          "type": "address"
        }
      ],
      "stateMutability": "view",
      "type": "function"
    },
    {
      "inputs": [
        {
          "internalType": "string",
          "name": "nameOfSavings",
          "type": "string"
        }
      ],
      "name": "withdrawSaving",
      "outputs": [
        {
          "internalType": "bool",
          "name": "",
          "type": "bool"
        }
      ],
      "stateMutability": "nonpayable",
      "type": "function"
    },
    {
      "stateMutability": "payable",
      "type": "receive"
    }
  ],
  "bytecode": "0x60a060405260405162005c1d38038062005c1d8339818101604052810190620000299190620000bf565b816000806101000a81548173ffffffffffffffffffffffffffffffffffffffff021916908373ffffffffffffffffffffffffffffffffffffffff1602179055508073ffffffffffffffffffffffffffffffffffffffff1660808173ffffffffffffffffffffffffffffffffffffffff1660601b81525050505062000159565b600081519050620000b9816200013f565b92915050565b60008060408385031215620000d957620000d86200013a565b5b6000620000e985828601620000a8565b9250506020620000fc85828601620000a8565b9150509250929050565b600062000113826200011a565b9050919050565b600073ffffffffffffffffffffffffffffffffffffffff82169050919050565b600080fd5b6200014a8162000106565b81146200015657600080fd5b50565b60805160601c615a8962000194600039600081816106c30152818161136401528181611415015281816114b701526115590152615a896000f3fe608060405260043610620000d95760003560e01c8063b88ab348116200008b578063de35c3721162000061578063de35c37214620002e3578063e4932abe1462000303578063e4e224fa1462000333578063ea4136721462000369576200011c565b8063b88ab3481462000255578063bb88b7691462000285578063c852269114620002b5576200011c565b8063089fe6aa14620001215780631bd817c914620001515780632aa0a5c81462000181578063372f910114620001b15780634cc431e214620001f5578063992642e51462000225576200011c565b366200011c577f88a5966d370b9919b20f3e2c13ff65706f196a4e32cc2c12bf57088f8852587433346040516200011292919062002c55565b60405180910390a1005b600080fd5b3480156200012e57600080fd5b506200013962000399565b60405162000148919062002dcc565b60405180910390f35b3480156200015e57600080fd5b50620001696200039f565b60405162000178919062002bb1565b60405180910390f35b3480156200018e57600080fd5b5062000199620003c8565b604051620001a8919062002cf0565b60405180910390f35b348015620001be57600080fd5b50620001dd6004803603810190620001d7919062002802565b62000401565b604051620001ec919062002c82565b60405180910390f35b3480156200020257600080fd5b506200020d6200062b565b6040516200021c919062002cf0565b60405180910390f35b3480156200023257600080fd5b506200023d62000664565b6040516200024c919062002bb1565b60405180910390f35b3480156200026257600080fd5b506200026d62000688565b6040516200027c919062002cf0565b60405180910390f35b3480156200029257600080fd5b506200029d620006c1565b604051620002ac919062002cd3565b60405180910390f35b348015620002c257600080fd5b50620002e16004803603810190620002db919062002625565b620006e5565b005b620003016004803603810190620002fb9190620025c9565b62000843565b005b3480156200031057600080fd5b506200031b6200097c565b6040516200032a919062002cf0565b60405180910390f35b6200035160048036038101906200034b9190620028a4565b620009b5565b60405162000360919062002bb1565b60405180910390f35b3480156200037657600080fd5b506200038162000ade565b60405162000390919062002bce565b60405180910390f35b610bb881565b60008060009054906101000a900473ffffffffffffffffffffffffffffffffffffffff16905090565b6040518060400160405280600381526020017f435254000000000000000000000000000000000000000000000000000000000081525081565b60008073ffffffffffffffffffffffffffffffffffffffff16600260003373ffffffffffffffffffffffffffffffffffffffff1673ffffffffffffffffffffffffffffffffffffffff16815260200190815260200160002060009054906101000a900473ffffffffffffffffffffffffffffffffffffffff1673ffffffffffffffffffffffffffffffffffffffff161415620004c9576040517f2163950f00000000000000000000000000000000000000000000000000000000815260040160405180910390fd5b600260003373ffffffffffffffffffffffffffffffffffffffff1673ffffffffffffffffffffffffffffffffffffffff16815260200190815260200160002060009054906101000a900473ffffffffffffffffffffffffffffffffffffffff16600360006101000a81548173ffffffffffffffffffffffffffffffffffffffff021916908373ffffffffffffffffffffffffffffffffffffffff160217905550600360009054906101000a900473ffffffffffffffffffffffffffffffffffffffff1673ffffffffffffffffffffffffffffffffffffffff1663372f9101836040518263ffffffff1660e01b8152600401620005c6919062002cf0565b600060405180830381600087803b158015620005e157600080fd5b505af1158015620005f6573d6000803e3d6000fd5b505050506040513d6000823e3d601f19601f8201168201806040525081019062000621919062002853565b5060019050919050565b6040518060400160405280600381526020017f575444000000000000000000000000000000000000000000000000000000000081525081565b60008054906101000a900473ffffffffffffffffffffffffffffffffffffffff1681565b6040518060400160405280600381526020017f4a4f4e000000000000000000000000000000000000000000000000000000000081525081565b7f000000000000000000000000000000000000000000000000000000000000000081565b6000806000806000808787810190620006ff919062002728565b955095509550955095509550620007178a8a62000b45565b62000758866040518060400160405280600381526020017f4a4f4e000000000000000000000000000000000000000000000000000000000081525062000bdf565b1562000770576200076989620009b5565b5062000837565b620007b1866040518060400160405280600381526020017f435254000000000000000000000000000000000000000000000000000000000081525062000bdf565b15620007ce57620007c885858585858f8f62000cc9565b62000836565b6200080f866040518060400160405280600381526020017f494e43000000000000000000000000000000000000000000000000000000000081525062000bdf565b15620008285762000822858b8b62000f5c565b62000835565b620008338562000401565b505b5b5b50505050505050505050565b610bb862ffffff1682101562000885576040517fcb6e851c00000000000000000000000000000000000000000000000000000000815260040160405180910390fd5b620008b160008054906101000a900473ffffffffffffffffffffffffffffffffffffffff168362000b45565b6000620008e060008054906101000a900473ffffffffffffffffffffffffffffffffffffffff1685856200135c565b90508373ffffffffffffffffffffffffffffffffffffffff1663a9059cbb83836040518363ffffffff1660e01b81526004016200091f92919062002c55565b602060405180830381600087803b1580156200093a57600080fd5b505af11580156200094f573d6000803e3d6000fd5b505050506040513d601f19601f82011682018060405250810190620009759190620026f6565b5050505050565b6040518060400160405280600381526020017f494e43000000000000000000000000000000000000000000000000000000000081525081565b6000806127109050808311620009f7576040517fcb6e851c00000000000000000000000000000000000000000000000000000000815260040160405180910390fd5b60003360008054906101000a900473ffffffffffffffffffffffffffffffffffffffff1660405162000a29906200221a565b62000a3692919062002beb565b604051809103906000f08015801562000a53573d6000803e3d6000fd5b50905080600260003373ffffffffffffffffffffffffffffffffffffffff1673ffffffffffffffffffffffffffffffffffffffff16815260200190815260200160002060006101000a81548173ffffffffffffffffffffffffffffffffffffffff021916908373ffffffffffffffffffffffffffffffffffffffff1602179055508092505050919050565b6000600260003373ffffffffffffffffffffffffffffffffffffffff1673ffffffffffffffffffffffffffffffffffffffff16815260200190815260200160002060009054906101000a900473ffffffffffffffffffffffffffffffffffffffff16905090565b8173ffffffffffffffffffffffffffffffffffffffff166323b872dd3330846040518463ffffffff1660e01b815260040162000b849392919062002c18565b602060405180830381600087803b15801562000b9f57600080fd5b505af115801562000bb4573d6000803e3d6000fd5b505050506040513d601f19601f8201168201806040525081019062000bda9190620026f6565b505050565b6000808290506000845190508151811462000c005760009250505062000cc3565b60005b8181101562000cbb5782818151811062000c225762000c2162003270565b5b602001015160f81c60f81b7effffffffffffffffffffffffffffffffffffffffffffffffffffffffffffff191686828151811062000c655762000c6462003270565b5b602001015160f81c60f81b7effffffffffffffffffffffffffffffffffffffffffffffffffffffffffffff19161462000ca5576000935050505062000cc3565b808062000cb290620031c1565b91505062000c03565b506001925050505b92915050565b600073ffffffffffffffffffffffffffffffffffffffff16600260003373ffffffffffffffffffffffffffffffffffffffff1673ffffffffffffffffffffffffffffffffffffffff16815260200190815260200160002060009054906101000a900473ffffffffffffffffffffffffffffffffffffffff1673ffffffffffffffffffffffffffffffffffffffff16141562000d90576040517f2163950f00000000000000000000000000000000000000000000000000000000815260040160405180910390fd5b8542111562000dcb576040517f6f7eac2600000000000000000000000000000000000000000000000000000000815260040160405180910390fd5b60008290506000829050841562000e2f5762000e098260008054906101000a900473ffffffffffffffffffffffffffffffffffffffff16856200135c565b905060008054906101000a900473ffffffffffffffffffffffffffffffffffffffff1691505b600062000e3b62000ade565b905080600360006101000a81548173ffffffffffffffffffffffffffffffffffffffff021916908373ffffffffffffffffffffffffffffffffffffffff160217905550600062000e8d8284866200162e565b9050600360009054906101000a900473ffffffffffffffffffffffffffffffffffffffff1673ffffffffffffffffffffffffffffffffffffffff166313aa65398c8c8c8c8b878e6040518863ffffffff1660e01b815260040162000ef8979695949392919062002d48565b602060405180830381600087803b15801562000f1357600080fd5b505af115801562000f28573d6000803e3d6000fd5b505050506040513d601f19601f8201168201806040525081019062000f4e9190620028d6565b505050505050505050505050565b600073ffffffffffffffffffffffffffffffffffffffff16600260003373ffffffffffffffffffffffffffffffffffffffff1673ffffffffffffffffffffffffffffffffffffffff16815260200190815260200160002060009054906101000a900473ffffffffffffffffffffffffffffffffffffffff1673ffffffffffffffffffffffffffffffffffffffff16141562001023576040517f2163950f00000000000000000000000000000000000000000000000000000000815260040160405180910390fd5b6000600260003373ffffffffffffffffffffffffffffffffffffffff1673ffffffffffffffffffffffffffffffffffffffff16815260200190815260200160002060009054906101000a900473ffffffffffffffffffffffffffffffffffffffff16905080600360006101000a81548173ffffffffffffffffffffffffffffffffffffffff021916908373ffffffffffffffffffffffffffffffffffffffff16021790555060008290506000600360009054906101000a900473ffffffffffffffffffffffffffffffffffffffff1673ffffffffffffffffffffffffffffffffffffffff16631bb862a5876040518263ffffffff1660e01b81526004016200112c919062002cf0565b60206040518083038186803b1580156200114557600080fd5b505afa1580156200115a573d6000803e3d6000fd5b505050506040513d601f19601f82011682018060405250810190620011809190620026f6565b905080156200128c5762001266600360009054906101000a900473ffffffffffffffffffffffffffffffffffffffff1673ffffffffffffffffffffffffffffffffffffffff1663e18f5f65886040518263ffffffff1660e01b8152600401620011ea919062002cf0565b60206040518083038186803b1580156200120357600080fd5b505afa15801562001218573d6000803e3d6000fd5b505050506040513d601f19601f820116820180604052508101906200123e919062002550565b60008054906101000a900473ffffffffffffffffffffffffffffffffffffffff16846200135c565b915060008054906101000a900473ffffffffffffffffffffffffffffffffffffffff1694505b60006200129b8484886200162e565b9050600360009054906101000a900473ffffffffffffffffffffffffffffffffffffffff1673ffffffffffffffffffffffffffffffffffffffff166346718f1a88836040518363ffffffff1660e01b8152600401620012fc92919062002d14565b602060405180830381600087803b1580156200131757600080fd5b505af11580156200132c573d6000803e3d6000fd5b505050506040513d601f19601f82011682018060405250810190620013529190620028d6565b5050505050505050565b60006200140c7f000000000000000000000000000000000000000000000000000000000000000073ffffffffffffffffffffffffffffffffffffffff1663569541b96040518163ffffffff1660e01b815260040160206040518083038186803b158015620013c957600080fd5b505afa158015620013de573d6000803e3d6000fd5b505050506040513d601f19601f8201168201806040525081019062001404919062002550565b83866200162e565b506000620016047f000000000000000000000000000000000000000000000000000000000000000073ffffffffffffffffffffffffffffffffffffffff1663569541b96040518163ffffffff1660e01b815260040160206040518083038186803b1580156200147a57600080fd5b505afa1580156200148f573d6000803e3d6000fd5b505050506040513d601f19601f82011682018060405250810190620014b5919062002550565b7f000000000000000000000000000000000000000000000000000000000000000073ffffffffffffffffffffffffffffffffffffffff1663d936a0126040518163ffffffff1660e01b815260040160206040518083038186803b1580156200151c57600080fd5b505afa15801562001531573d6000803e3d6000fd5b505050506040513d601f19601f8201168201806040525081019062001557919062002550565b7f000000000000000000000000000000000000000000000000000000000000000073ffffffffffffffffffffffffffffffffffffffff1663842da36d6040518163ffffffff1660e01b815260040160206040518083038186803b158015620015be57600080fd5b505afa158015620015d3573d6000803e3d6000fd5b505050506040513d601f19601f82011682018060405250810190620015f9919062002550565b8887896000620018b0565b90506000620016133062001c91565b90506200162285838362001cb4565b81925050509392505050565b60008060008373ffffffffffffffffffffffffffffffffffffffff1663d9eeebed6040518163ffffffff1660e01b8152600401604080518083038186803b1580156200167957600080fd5b505afa1580156200168e573d6000803e3d6000fd5b505050506040513d601f19601f82011682018060405250810190620016b4919062002582565b91509150600281620016c7919062002fea565b90508373ffffffffffffffffffffffffffffffffffffffff168273ffffffffffffffffffffffffffffffffffffffff16146200172f576040517fcaaa35e700000000000000000000000000000000000000000000000000000000815260040160405180910390fd5b84811062001769576040517fd0c279a200000000000000000000000000000000000000000000000000000000815260040160405180910390fd5b600081866200177991906200304b565b90508473ffffffffffffffffffffffffffffffffffffffff1663095ea7b386846040518363ffffffff1660e01b8152600401620017b892919062002c55565b602060405180830381600087803b158015620017d357600080fd5b505af1158015620017e8573d6000803e3d6000fd5b505050506040513d601f19601f820116820180604052508101906200180e9190620026f6565b508473ffffffffffffffffffffffffffffffffffffffff1663095ea7b388836040518363ffffffff1660e01b81526004016200184c92919062002c55565b602060405180830381600087803b1580156200186757600080fd5b505af11580156200187c573d6000803e3d6000fd5b505050506040513d601f19601f82011682018060405250810190620018a29190620026f6565b508093505050509392505050565b600080620018c088878662001f39565b905060608115620019c557600267ffffffffffffffff811115620018e957620018e86200329f565b5b604051908082528060200260200182016040528015620019185781602001602082028036833780820191505090505b509050868160008151811062001933576200193262003270565b5b602002602001019073ffffffffffffffffffffffffffffffffffffffff16908173ffffffffffffffffffffffffffffffffffffffff1681525050848160018151811062001985576200198462003270565b5b602002602001019073ffffffffffffffffffffffffffffffffffffffff16908173ffffffffffffffffffffffffffffffffffffffff168152505062001b0c565b600367ffffffffffffffff811115620019e357620019e26200329f565b5b60405190808252806020026020018201604052801562001a125781602001602082028036833780820191505090505b509050868160008151811062001a2d5762001a2c62003270565b5b602002602001019073ffffffffffffffffffffffffffffffffffffffff16908173ffffffffffffffffffffffffffffffffffffffff1681525050898160018151811062001a7f5762001a7e62003270565b5b602002602001019073ffffffffffffffffffffffffffffffffffffffff16908173ffffffffffffffffffffffffffffffffffffffff1681525050848160028151811062001ad15762001ad062003270565b5b602002602001019073ffffffffffffffffffffffffffffffffffffffff16908173ffffffffffffffffffffffffffffffffffffffff16815250505b8673ffffffffffffffffffffffffffffffffffffffff1663095ea7b389886040518363ffffffff1660e01b815260040162001b4992919062002c55565b602060405180830381600087803b15801562001b6457600080fd5b505af115801562001b79573d6000803e3d6000fd5b505050506040513d601f19601f8201168201806040525081019062001b9f9190620026f6565b5060008873ffffffffffffffffffffffffffffffffffffffff166338ed17398887853060c861ffff164262001bd5919062002f8d565b6040518663ffffffff1660e01b815260040162001bf795949392919062002de9565b600060405180830381600087803b15801562001c1257600080fd5b505af115801562001c27573d6000803e3d6000fd5b505050506040513d6000823e3d601f19601f8201168201806040525081019062001c529190620026a5565b9050806001835162001c6591906200304b565b8151811062001c795762001c7862003270565b5b60200260200101519350505050979650505050505050565b60008173ffffffffffffffffffffffffffffffffffffffff1660001b9050919050565b6000808473ffffffffffffffffffffffffffffffffffffffff1663d9eeebed6040518163ffffffff1660e01b8152600401604080518083038186803b15801562001cfd57600080fd5b505afa15801562001d12573d6000803e3d6000fd5b505050506040513d601f19601f8201168201806040525081019062001d38919062002582565b915091508473ffffffffffffffffffffffffffffffffffffffff168273ffffffffffffffffffffffffffffffffffffffff161462001da2576040517fcaaa35e700000000000000000000000000000000000000000000000000000000815260040160405180910390fd5b83811062001ddc576040517fd0c279a200000000000000000000000000000000000000000000000000000000815260040160405180910390fd5b8473ffffffffffffffffffffffffffffffffffffffff1663095ea7b386836040518363ffffffff1660e01b815260040162001e1992919062002c55565b602060405180830381600087803b15801562001e3457600080fd5b505af115801562001e49573d6000803e3d6000fd5b505050506040513d601f19601f8201168201806040525081019062001e6f9190620026f6565b508473ffffffffffffffffffffffffffffffffffffffff1663c70126268460405160200162001e9f919062002b4a565b604051602081830303815290604052838762001ebc91906200304b565b6040518363ffffffff1660e01b815260040162001edb92919062002c9f565b602060405180830381600087803b15801562001ef657600080fd5b505af115801562001f0b573d6000803e3d6000fd5b505050506040513d601f19601f8201168201806040525081019062001f319190620026f6565b505050505050565b60008062001f4985858562002082565b905060008473ffffffffffffffffffffffffffffffffffffffff166370a08231836040518263ffffffff1660e01b815260040162001f88919062002bb1565b60206040518083038186803b15801562001fa157600080fd5b505afa15801562001fb6573d6000803e3d6000fd5b505050506040513d601f19601f8201168201806040525081019062001fdc9190620028d6565b11801562002078575060008373ffffffffffffffffffffffffffffffffffffffff166370a08231836040518263ffffffff1660e01b815260040162002022919062002bb1565b60206040518083038186803b1580156200203b57600080fd5b505afa15801562002050573d6000803e3d6000fd5b505050506040513d601f19601f82011682018060405250810190620020769190620028d6565b115b9150509392505050565b6000806000620020938585620020fa565b91509150858282604051602001620020ad92919062002b1a565b60405160208183030381529060405280519060200120604051602001620020d692919062002b67565b6040516020818303038152906040528051906020012060001c925050509392505050565b6000808273ffffffffffffffffffffffffffffffffffffffff168473ffffffffffffffffffffffffffffffffffffffff16141562002164576040517fcb1e7cfe00000000000000000000000000000000000000000000000000000000815260040160405180910390fd5b8273ffffffffffffffffffffffffffffffffffffffff168473ffffffffffffffffffffffffffffffffffffffff1610620021a0578284620021a3565b83835b8092508193505050600073ffffffffffffffffffffffffffffffffffffffff168273ffffffffffffffffffffffffffffffffffffffff16141562002213576040517f78b507da00000000000000000000000000000000000000000000000000000000815260040160405180910390fd5b9250929050565b61268f80620033c583390190565b60006200223f620022398462002e76565b62002e4d565b90508083825260208201905082856020860282011115620022655762002264620032d8565b5b60005b858110156200229957816200227e888262002522565b84526020840193506020830192505060018101905062002268565b5050509392505050565b6000620022ba620022b48462002ea5565b62002e4d565b905082815260208101848484011115620022d957620022d8620032dd565b5b620022e684828562003146565b509392505050565b600062002305620022ff8462002edb565b62002e4d565b905082815260208101848484011115620023245762002323620032dd565b5b6200233184828562003146565b509392505050565b6000620023506200234a8462002edb565b62002e4d565b9050828152602081018484840111156200236f576200236e620032dd565b5b6200237c84828562003155565b509392505050565b60008135905062002395816200335c565b92915050565b600081519050620023ac816200335c565b92915050565b600082601f830112620023ca57620023c9620032d3565b5b8151620023dc84826020860162002228565b91505092915050565b600081359050620023f68162003376565b92915050565b6000815190506200240d8162003376565b92915050565b60008083601f8401126200242c576200242b620032d3565b5b8235905067ffffffffffffffff8111156200244c576200244b620032ce565b5b6020830191508360018202830111156200246b576200246a620032d8565b5b9250929050565b600082601f8301126200248a5762002489620032d3565b5b81356200249c848260208601620022a3565b91505092915050565b600082601f830112620024bd57620024bc620032d3565b5b8135620024cf848260208601620022ee565b91505092915050565b600082601f830112620024f057620024ef620032d3565b5b81516200250284826020860162002339565b91505092915050565b6000813590506200251c8162003390565b92915050565b600081519050620025338162003390565b92915050565b6000813590506200254a81620033aa565b92915050565b600060208284031215620025695762002568620032e7565b5b600062002579848285016200239b565b91505092915050565b600080604083850312156200259c576200259b620032e7565b5b6000620025ac858286016200239b565b9250506020620025bf8582860162002522565b9150509250929050565b600080600060608486031215620025e557620025e4620032e7565b5b6000620025f58682870162002384565b935050602062002608868287016200250b565b92505060406200261b8682870162002384565b9150509250925092565b60008060008060608587031215620026425762002641620032e7565b5b6000620026528782880162002384565b945050602062002665878288016200250b565b935050604085013567ffffffffffffffff811115620026895762002688620032e2565b5b620026978782880162002413565b925092505092959194509250565b600060208284031215620026be57620026bd620032e7565b5b600082015167ffffffffffffffff811115620026df57620026de620032e2565b5b620026ed84828501620023b2565b91505092915050565b6000602082840312156200270f576200270e620032e7565b5b60006200271f84828501620023fc565b91505092915050565b60008060008060008060c08789031215620027485762002747620032e7565b5b600087013567ffffffffffffffff811115620027695762002768620032e2565b5b6200277789828a0162002472565b965050602087013567ffffffffffffffff8111156200279b576200279a620032e2565b5b620027a989828a01620024a5565b9550506040620027bc89828a016200250b565b9450506060620027cf89828a016200250b565b9350506080620027e289828a0162002539565b92505060a0620027f589828a01620023e5565b9150509295509295509295565b6000602082840312156200281b576200281a620032e7565b5b600082013567ffffffffffffffff8111156200283c576200283b620032e2565b5b6200284a84828501620024a5565b91505092915050565b6000602082840312156200286c576200286b620032e7565b5b600082015167ffffffffffffffff8111156200288d576200288c620032e2565b5b6200289b84828501620024d8565b91505092915050565b600060208284031215620028bd57620028bc620032e7565b5b6000620028cd848285016200250b565b91505092915050565b600060208284031215620028ef57620028ee620032e7565b5b6000620028ff8482850162002522565b91505092915050565b600062002916838362002933565b60208301905092915050565b6200292d816200309a565b82525050565b6200293e8162003086565b82525050565b6200294f8162003086565b82525050565b6200296a620029648262003086565b6200320f565b82525050565b60006200297d8262002f21565b62002989818562002f4f565b9350620029968362002f11565b8060005b83811015620029cd578151620029b1888262002908565b9750620029be8362002f42565b9250506001810190506200299a565b5085935050505092915050565b620029e581620030ae565b82525050565b62002a00620029fa82620030ba565b62003223565b82525050565b600062002a138262002f2c565b62002a1f818562002f60565b935062002a3181856020860162003155565b62002a3c81620032ec565b840191505092915050565b62002a52816200310a565b82525050565b600062002a658262002f37565b62002a71818562002f71565b935062002a8381856020860162003155565b62002a8e81620032ec565b840191505092915050565b600062002aa860208362002f82565b915062002ab5826200330a565b602082019050919050565b600062002acf60018362002f82565b915062002adc8262003333565b600182019050919050565b62002af281620030e4565b82525050565b62002b0381620030f3565b82525050565b62002b1481620030fd565b82525050565b600062002b28828562002955565b60148201915062002b3a828462002955565b6014820191508190509392505050565b600062002b588284620029eb565b60208201915081905092915050565b600062002b748262002ac0565b915062002b82828562002955565b60148201915062002b948284620029eb565b60208201915062002ba58262002a99565b91508190509392505050565b600060208201905062002bc8600083018462002944565b92915050565b600060208201905062002be5600083018462002922565b92915050565b600060408201905062002c02600083018562002944565b62002c11602083018462002944565b9392505050565b600060608201905062002c2f600083018662002944565b62002c3e602083018562002944565b62002c4d604083018462002af8565b949350505050565b600060408201905062002c6c600083018562002944565b62002c7b602083018462002af8565b9392505050565b600060208201905062002c996000830184620029da565b92915050565b6000604082019050818103600083015262002cbb818562002a06565b905062002ccc602083018462002af8565b9392505050565b600060208201905062002cea600083018462002a47565b92915050565b6000602082019050818103600083015262002d0c818462002a58565b905092915050565b6000604082019050818103600083015262002d30818562002a58565b905062002d41602083018462002af8565b9392505050565b600060e082019050818103600083015262002d64818a62002a58565b905062002d75602083018962002af8565b62002d84604083018862002af8565b62002d93606083018762002b09565b62002da2608083018662002944565b62002db160a083018562002af8565b62002dc060c0830184620029da565b98975050505050505050565b600060208201905062002de3600083018462002ae7565b92915050565b600060a08201905062002e00600083018862002af8565b62002e0f602083018762002af8565b818103604083015262002e23818662002970565b905062002e34606083018562002944565b62002e43608083018462002af8565b9695505050505050565b600062002e5962002e6c565b905062002e6782826200318b565b919050565b6000604051905090565b600067ffffffffffffffff82111562002e945762002e936200329f565b5b602082029050602081019050919050565b600067ffffffffffffffff82111562002ec35762002ec26200329f565b5b62002ece82620032ec565b9050602081019050919050565b600067ffffffffffffffff82111562002ef95762002ef86200329f565b5b62002f0482620032ec565b9050602081019050919050565b6000819050602082019050919050565b600081519050919050565b600081519050919050565b600081519050919050565b6000602082019050919050565b600082825260208201905092915050565b600082825260208201905092915050565b600082825260208201905092915050565b600081905092915050565b600062002f9a82620030f3565b915062002fa783620030f3565b9250827fffffffffffffffffffffffffffffffffffffffffffffffffffffffffffffffff0382111562002fdf5762002fde62003241565b5b828201905092915050565b600062002ff782620030f3565b91506200300483620030f3565b9250817fffffffffffffffffffffffffffffffffffffffffffffffffffffffffffffffff048311821515161562003040576200303f62003241565b5b828202905092915050565b60006200305882620030f3565b91506200306583620030f3565b9250828210156200307b576200307a62003241565b5b828203905092915050565b60006200309382620030c4565b9050919050565b6000620030a782620030c4565b9050919050565b60008115159050919050565b6000819050919050565b600073ffffffffffffffffffffffffffffffffffffffff82169050919050565b600062ffffff82169050919050565b6000819050919050565b600060ff82169050919050565b600062003117826200311e565b9050919050565b60006200312b8262003132565b9050919050565b60006200313f82620030c4565b9050919050565b82818337600083830152505050565b60005b838110156200317557808201518184015260208101905062003158565b8381111562003185576000848401525b50505050565b6200319682620032ec565b810181811067ffffffffffffffff82111715620031b857620031b76200329f565b5b80604052505050565b6000620031ce82620030f3565b91507fffffffffffffffffffffffffffffffffffffffffffffffffffffffffffffffff82141562003204576200320362003241565b5b600182019050919050565b60006200321c826200322d565b9050919050565b6000819050919050565b60006200323a82620032fd565b9050919050565b7f4e487b7100000000000000000000000000000000000000000000000000000000600052601160045260246000fd5b7f4e487b7100000000000000000000000000000000000000000000000000000000600052603260045260246000fd5b7f4e487b7100000000000000000000000000000000000000000000000000000000600052604160045260246000fd5b600080fd5b600080fd5b600080fd5b600080fd5b600080fd5b600080fd5b6000601f19601f8301169050919050565b60008160601b9050919050565b7f96e8ac4277198ff8b6f785478aa9a39f403cb768dd02cbee326c3e7da348845f600082015250565b7fff00000000000000000000000000000000000000000000000000000000000000600082015250565b620033678162003086565b81146200337357600080fd5b50565b6200338181620030ae565b81146200338d57600080fd5b50565b6200339b81620030f3565b8114620033a757600080fd5b50565b620033b581620030fd565b8114620033c157600080fd5b5056fe60806040526040516200268f3803806200268f83398181016040528101906200002991906200010a565b336000806101000a81548173ffffffffffffffffffffffffffffffffffffffff021916908373ffffffffffffffffffffffffffffffffffffffff16021790555081600160006101000a81548173ffffffffffffffffffffffffffffffffffffffff021916908373ffffffffffffffffffffffffffffffffffffffff16021790555080600260006101000a81548173ffffffffffffffffffffffffffffffffffffffff021916908373ffffffffffffffffffffffffffffffffffffffff1602179055505050620001a4565b60008151905062000104816200018a565b92915050565b6000806040838503121562000124576200012362000185565b5b60006200013485828601620000f3565b92505060206200014785828601620000f3565b9150509250929050565b60006200015e8262000165565b9050919050565b600073ffffffffffffffffffffffffffffffffffffffff82169050919050565b600080fd5b620001958162000151565b8114620001a157600080fd5b50565b6124db80620001b46000396000f3fe6080604052600436106100955760003560e01c80634282a572116100595780634282a572146101e657806346718f1a14610223578063992642e514610253578063d1ece7901461027e578063e18f5f65146102a9576100d5565b806313203929146100da57806313aa65391461011e5780631bb862a51461014e5780632ae3c90f1461018b578063372f9101146101b6576100d5565b366100d5577f88a5966d370b9919b20f3e2c13ff65706f196a4e32cc2c12bf57088f8852587433346040516100cb929190611dec565b60405180910390a1005b600080fd5b3480156100e657600080fd5b5061010160048036038101906100fc919061192a565b6102e6565b604051610115989796959493929190611e67565b60405180910390f35b610138600480360381019061013391906119cf565b61037e565b6040516101459190611fff565b60405180910390f35b34801561015a57600080fd5b506101756004803603810190610170919061192a565b6106ae565b6040516101829190611e4c565b60405180910390f35b34801561019757600080fd5b506101a06106e6565b6040516101ad9190611d9a565b60405180910390f35b6101d060048036038101906101cb919061192a565b61070a565b6040516101dd9190611f15565b60405180910390f35b3480156101f257600080fd5b5061020d6004803603810190610208919061192a565b610afc565b60405161021a9190611fc1565b60405180910390f35b61023d60048036038101906102389190611973565b610bf3565b60405161024a9190611fff565b60405180910390f35b34801561025f57600080fd5b50610268610f59565b6040516102759190611d9a565b60405180910390f35b34801561028a57600080fd5b50610293610f7f565b6040516102a09190611fdd565b60405180910390f35b3480156102b557600080fd5b506102d060048036038101906102cb919061192a565b611072565b6040516102dd9190611d7f565b60405180910390f35b6003818051602081018201805184825260208301602085012081835280955050505050506000915090508060000160009054906101000a900460ff16908060010154908060020160009054906101000a900473ffffffffffffffffffffffffffffffffffffffff16908060030154908060040154908060050154908060060154908060070160009054906101000a900460ff16905088565b60008060009054906101000a900473ffffffffffffffffffffffffffffffffffffffff1673ffffffffffffffffffffffffffffffffffffffff163373ffffffffffffffffffffffffffffffffffffffff1614610406576040517f8481e97e00000000000000000000000000000000000000000000000000000000815260040160405180910390fd5b6003886040516104169190611d68565b908152602001604051809103902060000160009054906101000a900460ff161561046c576040517fd63d1e4800000000000000000000000000000000000000000000000000000000815260040160405180910390fd5b858710156104a6576040517f6f7eac2600000000000000000000000000000000000000000000000000000000815260040160405180910390fd5b428710156104e0576040517f6f7eac2600000000000000000000000000000000000000000000000000000000815260040160405180910390fd5b600060039050821561051d57610518600260009054906101000a900473ffffffffffffffffffffffffffffffffffffffff16856110bd565b610528565b61052785856110bd565b5b6040518061010001604052806001151581526020018581526020018673ffffffffffffffffffffffffffffffffffffffff1681526020018281526020018881526020018760ff16815260200189815260200184151581525060038a6040516105909190611d68565b908152602001604051809103902060008201518160000160006101000a81548160ff0219169083151502179055506020820151816001015560408201518160020160006101000a81548173ffffffffffffffffffffffffffffffffffffffff021916908373ffffffffffffffffffffffffffffffffffffffff160217905550606082015181600301556080820151816004015560a0820151816005015560c0820151816006015560e08201518160070160006101000a81548160ff0219169083151502179055509050506106638961113c565b7f4ad85a69286191006ea05981ae1848070dbf232e5e00ffdda4b857c16097f0d789858760405161069693929190611f37565b60405180910390a16001915050979650505050505050565b60006003826040516106c09190611d68565b908152602001604051809103902060070160009054906101000a900460ff169050919050565b60008054906101000a900473ffffffffffffffffffffffffffffffffffffffff1681565b606060008054906101000a900473ffffffffffffffffffffffffffffffffffffffff1673ffffffffffffffffffffffffffffffffffffffff163373ffffffffffffffffffffffffffffffffffffffff1614610791576040517f8481e97e00000000000000000000000000000000000000000000000000000000815260040160405180910390fd5b60006003836040516107a39190611d68565b908152602001604051809103902090508060000160009054906101000a900460ff166107fb576040517fd63d1e4800000000000000000000000000000000000000000000000000000000815260040160405180910390fd5b6000816006015442101561083c5760648260050154606461081c91906121de565b836001015461082b9190612184565b6108359190612153565b90506108aa565b600160009054906101000a900473ffffffffffffffffffffffffffffffffffffffff1673ffffffffffffffffffffffffffffffffffffffff166108fc83600301549081150290604051600060405180830381858888f193505050501580156108a8573d6000803e3d6000fd5b505b60008260020160009054906101000a900473ffffffffffffffffffffffffffffffffffffffff1690508260070160009054906101000a900460ff16156109f957600061093960008054906101000a900473ffffffffffffffffffffffffffffffffffffffff1684600260009054906101000a900473ffffffffffffffffffffffffffffffffffffffff1661117e565b905060008060009054906101000a900473ffffffffffffffffffffffffffffffffffffffff1690508073ffffffffffffffffffffffffffffffffffffffff1663de35c3728484600160009054906101000a900473ffffffffffffffffffffffffffffffffffffffff166040518463ffffffff1660e01b81526004016109c093929190611e15565b600060405180830381600087803b1580156109da57600080fd5b505af11580156109ee573d6000803e3d6000fd5b505050505050610a4b565b610a4a8360020160009054906101000a900473ffffffffffffffffffffffffffffffffffffffff16600160009054906101000a900473ffffffffffffffffffffffffffffffffffffffff16846113ea565b5b6000600386604051610a5d9190611d68565b908152602001604051809103902060000160006101000a81548160ff0219169083151502179055507f5b059b7fe1fea38d4de595079621498a365a8f1fa13e49af9f1e4b7197ab049a85604051610ab49190611f15565b60405180910390a16040518060400160405280601e81526020017f736176696e67732077697468647261776e207375636365737366756c6c7900008152509350505050919050565b610b046116a5565b600382604051610b149190611d68565b9081526020016040518091039020604051806101000160405290816000820160009054906101000a900460ff16151515158152602001600182015481526020016002820160009054906101000a900473ffffffffffffffffffffffffffffffffffffffff1673ffffffffffffffffffffffffffffffffffffffff1673ffffffffffffffffffffffffffffffffffffffff168152602001600382015481526020016004820154815260200160058201548152602001600682015481526020016007820160009054906101000a900460ff1615151515815250509050919050565b60008060009054906101000a900473ffffffffffffffffffffffffffffffffffffffff1673ffffffffffffffffffffffffffffffffffffffff163373ffffffffffffffffffffffffffffffffffffffff1614610c7b576040517f8481e97e00000000000000000000000000000000000000000000000000000000815260040160405180910390fd5b6000600384604051610c8d9190611d68565b908152602001604051809103902090508060000160009054906101000a900460ff16610ce5576040517fd63d1e4800000000000000000000000000000000000000000000000000000000815260040160405180910390fd5b8060060154421115610d23576040517f6f7eac2600000000000000000000000000000000000000000000000000000000815260040160405180910390fd5b8060070160009054906101000a900460ff1615610d6b57610d66600260009054906101000a900473ffffffffffffffffffffffffffffffffffffffff16846110bd565b610d9a565b610d998160020160009054906101000a900473ffffffffffffffffffffffffffffffffffffffff16846110bd565b5b600060019050808260030154610db091906120fd565b8260030181905550838260010154610dc891906120fd565b826001018190555081600386604051610de19190611d68565b90815260200160405180910390206000820160009054906101000a900460ff168160000160006101000a81548160ff021916908315150217905550600182015481600101556002820160009054906101000a900473ffffffffffffffffffffffffffffffffffffffff168160020160006101000a81548173ffffffffffffffffffffffffffffffffffffffff021916908373ffffffffffffffffffffffffffffffffffffffff160217905550600382015481600301556004820154816004015560058201548160050155600682015481600601556007820160009054906101000a900460ff168160070160006101000a81548160ff0219169083151502179055509050507ff6b98d8e0d83f8b1d1ff03a2fa36aba2c77ccf20e4ff035c0cf4aa92762e9eec858584600101548560020160009054906101000a900473ffffffffffffffffffffffffffffffffffffffff16604051610f429493929190611f75565b60405180910390a181600301549250505092915050565b600260009054906101000a900473ffffffffffffffffffffffffffffffffffffffff1681565b610f87611704565b600460405180602001604052908160008201805480602002602001604051908101604052809291908181526020016000905b82821015611065578382906000526020600020018054610fd8906122fb565b80601f0160208091040260200160405190810160405280929190818152602001828054611004906122fb565b80156110515780601f1061102657610100808354040283529160200191611051565b820191906000526020600020905b81548152906001019060200180831161103457829003601f168201915b505050505081526020019060010190610fb9565b5050505081525050905090565b60006003826040516110849190611d68565b908152602001604051809103902060020160009054906101000a900473ffffffffffffffffffffffffffffffffffffffff169050919050565b60004790506110ed60008054906101000a900473ffffffffffffffffffffffffffffffffffffffff1684846115be565b60004790508083836110ff91906120fd565b11611136576040517fcb6e851c00000000000000000000000000000000000000000000000000000000815260040160405180910390fd5b50505050565b60046000018190806001815401808255809150506001900390600052602060002001600090919091909150908051906020019061117a929190611717565b5050565b60008060008373ffffffffffffffffffffffffffffffffffffffff1663d9eeebed6040518163ffffffff1660e01b8152600401604080518083038186803b1580156111c857600080fd5b505afa1580156111dc573d6000803e3d6000fd5b505050506040513d601f19601f8201168201806040525081019061120091906118bd565b915091506002816112119190612184565b90508373ffffffffffffffffffffffffffffffffffffffff168273ffffffffffffffffffffffffffffffffffffffff1614611278576040517fcaaa35e700000000000000000000000000000000000000000000000000000000815260040160405180910390fd5b8481106112b1576040517fd0c279a200000000000000000000000000000000000000000000000000000000815260040160405180910390fd5b600081866112bf91906121de565b90508473ffffffffffffffffffffffffffffffffffffffff1663095ea7b386846040518363ffffffff1660e01b81526004016112fc929190611dec565b602060405180830381600087803b15801561131657600080fd5b505af115801561132a573d6000803e3d6000fd5b505050506040513d601f19601f8201168201806040525081019061134e91906118fd565b508473ffffffffffffffffffffffffffffffffffffffff1663095ea7b388836040518363ffffffff1660e01b815260040161138a929190611dec565b602060405180830381600087803b1580156113a457600080fd5b505af11580156113b8573d6000803e3d6000fd5b505050506040513d601f19601f820116820180604052508101906113dc91906118fd565b508093505050509392505050565b60008390506000808273ffffffffffffffffffffffffffffffffffffffff1663d9eeebed6040518163ffffffff1660e01b8152600401604080518083038186803b15801561143757600080fd5b505afa15801561144b573d6000803e3d6000fd5b505050506040513d601f19601f8201168201806040525081019061146f91906118bd565b915091506002816114809190612184565b9050838111156114bc576040517fd0c279a200000000000000000000000000000000000000000000000000000000815260040160405180910390fd5b60006114c786611659565b905060006114d48261167c565b90508473ffffffffffffffffffffffffffffffffffffffff1663c701262682886040518363ffffffff1660e01b8152600401611511929190611ee5565b602060405180830381600087803b15801561152b57600080fd5b505af115801561153f573d6000803e3d6000fd5b505050506040513d601f19601f8201168201806040525081019061156391906118fd565b503073ffffffffffffffffffffffffffffffffffffffff167f5a728b1f316a097ec4f8a742082e66f5c4721e46906f187be4de14736518715282886040516115ac929190611ee5565b60405180910390a25050505050505050565b60003090508273ffffffffffffffffffffffffffffffffffffffff166323b872dd8583856040518463ffffffff1660e01b815260040161160093929190611db5565b602060405180830381600087803b15801561161a57600080fd5b505af115801561162e573d6000803e3d6000fd5b505050506040513d601f19601f8201168201806040525081019061165291906118fd565b5050505050565b60008173ffffffffffffffffffffffffffffffffffffffff1660001b9050919050565b60608160405160200161168f9190611d4d565b6040516020818303038152906040529050919050565b60405180610100016040528060001515815260200160008152602001600073ffffffffffffffffffffffffffffffffffffffff168152602001600081526020016000815260200160008152602001600081526020016000151581525090565b6040518060200160405280606081525090565b828054611723906122fb565b90600052602060002090601f016020900481019282611745576000855561178c565b82601f1061175e57805160ff191683800117855561178c565b8280016001018555821561178c579182015b8281111561178b578251825591602001919060010190611770565b5b509050611799919061179d565b5090565b5b808211156117b657600081600090555060010161179e565b5090565b60006117cd6117c88461203f565b61201a565b9050828152602081018484840111156117e9576117e8612429565b5b6117f48482856122b9565b509392505050565b60008135905061180b81612449565b92915050565b60008151905061182081612449565b92915050565b60008135905061183581612460565b92915050565b60008151905061184a81612460565b92915050565b600082601f83011261186557611864612424565b5b81356118758482602086016117ba565b91505092915050565b60008135905061188d81612477565b92915050565b6000815190506118a281612477565b92915050565b6000813590506118b78161248e565b92915050565b600080604083850312156118d4576118d3612433565b5b60006118e285828601611811565b92505060206118f385828601611893565b9150509250929050565b60006020828403121561191357611912612433565b5b60006119218482850161183b565b91505092915050565b6000602082840312156119405761193f612433565b5b600082013567ffffffffffffffff81111561195e5761195d61242e565b5b61196a84828501611850565b91505092915050565b6000806040838503121561198a57611989612433565b5b600083013567ffffffffffffffff8111156119a8576119a761242e565b5b6119b485828601611850565b92505060206119c58582860161187e565b9150509250929050565b600080600080600080600060e0888a0312156119ee576119ed612433565b5b600088013567ffffffffffffffff811115611a0c57611a0b61242e565b5b611a188a828b01611850565b9750506020611a298a828b0161187e565b9650506040611a3a8a828b0161187e565b9550506060611a4b8a828b016118a8565b9450506080611a5c8a828b016117fc565b93505060a0611a6d8a828b0161187e565b92505060c0611a7e8a828b01611826565b91505092959891949750929550565b6000611a998383611bc0565b905092915050565b611aaa81612283565b82525050565b611ab981612224565b82525050565b611ac881612212565b82525050565b611ad781612212565b82525050565b6000611ae882612080565b611af281856120ae565b935083602082028501611b0485612070565b8060005b85811015611b405784840389528151611b218582611a8d565b9450611b2c836120a1565b925060208a01995050600181019050611b08565b50829750879550505050505092915050565b611b5b81612236565b82525050565b611b6a81612236565b82525050565b611b81611b7c82612242565b61235e565b82525050565b6000611b928261208b565b611b9c81856120bf565b9350611bac8185602086016122c8565b611bb581612438565b840191505092915050565b6000611bcb82612096565b611bd581856120d0565b9350611be58185602086016122c8565b611bee81612438565b840191505092915050565b6000611c0482612096565b611c0e81856120e1565b9350611c1e8185602086016122c8565b611c2781612438565b840191505092915050565b6000611c3d82612096565b611c4781856120f2565b9350611c578185602086016122c8565b80840191505092915050565b61010082016000820151611c7a6000850182611b52565b506020820151611c8d6020850182611d2f565b506040820151611ca06040850182611abf565b506060820151611cb36060850182611d2f565b506080820151611cc66080850182611d2f565b5060a0820151611cd960a0850182611d2f565b5060c0820151611cec60c0850182611d2f565b5060e0820151611cff60e0850182611b52565b50505050565b60006020830160008301518482036000860152611d228282611add565b9150508091505092915050565b611d388161226c565b82525050565b611d478161226c565b82525050565b6000611d598284611b70565b60208201915081905092915050565b6000611d748284611c32565b915081905092915050565b6000602082019050611d946000830184611ace565b92915050565b6000602082019050611daf6000830184611ab0565b92915050565b6000606082019050611dca6000830186611ace565b611dd76020830185611ace565b611de46040830184611d3e565b949350505050565b6000604082019050611e016000830185611ace565b611e0e6020830184611d3e565b9392505050565b6000606082019050611e2a6000830186611ace565b611e376020830185611d3e565b611e446040830184611aa1565b949350505050565b6000602082019050611e616000830184611b61565b92915050565b600061010082019050611e7d600083018b611b61565b611e8a602083018a611d3e565b611e976040830189611ace565b611ea46060830188611d3e565b611eb16080830187611d3e565b611ebe60a0830186611d3e565b611ecb60c0830185611d3e565b611ed860e0830184611b61565b9998505050505050505050565b60006040820190508181036000830152611eff8185611b87565b9050611f0e6020830184611d3e565b9392505050565b60006020820190508181036000830152611f2f8184611bf9565b905092915050565b60006060820190508181036000830152611f518186611bf9565b9050611f606020830185611d3e565b611f6d6040830184611ace565b949350505050565b60006080820190508181036000830152611f8f8187611bf9565b9050611f9e6020830186611d3e565b611fab6040830185611d3e565b611fb86060830184611ace565b95945050505050565b600061010082019050611fd76000830184611c63565b92915050565b60006020820190508181036000830152611ff78184611d05565b905092915050565b60006020820190506120146000830184611d3e565b92915050565b6000612024612035565b9050612030828261232d565b919050565b6000604051905090565b600067ffffffffffffffff82111561205a576120596123f5565b5b61206382612438565b9050602081019050919050565b6000819050602082019050919050565b600081519050919050565b600081519050919050565b600081519050919050565b6000602082019050919050565b600082825260208201905092915050565b600082825260208201905092915050565b600082825260208201905092915050565b600082825260208201905092915050565b600081905092915050565b60006121088261226c565b91506121138361226c565b9250827fffffffffffffffffffffffffffffffffffffffffffffffffffffffffffffffff0382111561214857612147612368565b5b828201905092915050565b600061215e8261226c565b91506121698361226c565b92508261217957612178612397565b5b828204905092915050565b600061218f8261226c565b915061219a8361226c565b9250817fffffffffffffffffffffffffffffffffffffffffffffffffffffffffffffffff04831182151516156121d3576121d2612368565b5b828202905092915050565b60006121e98261226c565b91506121f48361226c565b92508282101561220757612206612368565b5b828203905092915050565b600061221d8261224c565b9050919050565b600061222f8261224c565b9050919050565b60008115159050919050565b6000819050919050565b600073ffffffffffffffffffffffffffffffffffffffff82169050919050565b6000819050919050565b600060ff82169050919050565b600061228e82612295565b9050919050565b60006122a0826122a7565b9050919050565b60006122b28261224c565b9050919050565b82818337600083830152505050565b60005b838110156122e65780820151818401526020810190506122cb565b838111156122f5576000848401525b50505050565b6000600282049050600182168061231357607f821691505b60208210811415612327576123266123c6565b5b50919050565b61233682612438565b810181811067ffffffffffffffff82111715612355576123546123f5565b5b80604052505050565b6000819050919050565b7f4e487b7100000000000000000000000000000000000000000000000000000000600052601160045260246000fd5b7f4e487b7100000000000000000000000000000000000000000000000000000000600052601260045260246000fd5b7f4e487b7100000000000000000000000000000000000000000000000000000000600052602260045260246000fd5b7f4e487b7100000000000000000000000000000000000000000000000000000000600052604160045260246000fd5b600080fd5b600080fd5b600080fd5b600080fd5b6000601f19601f8301169050919050565b61245281612212565b811461245d57600080fd5b50565b61246981612236565b811461247457600080fd5b50565b6124808161226c565b811461248b57600080fd5b50565b61249781612276565b81146124a257600080fd5b5056fea2646970667358221220be87091ea1114ab4b1fd6e664603de0760412c1919f1a1544c9db50bc905d39e64736f6c63430008070033a264697066735822122000f85e3df50b02348385c2c576516f26eb14b1b4287bfdee003ea6911d023bda64736f6c63430008070033",
  "linkReferences": {},
  "deployedLinkReferences": {}
}