{
  "_format": "hh-sol-artifact-1",
  "contractName": "Bitsave",
  "sourceName": "contracts/Bitsave.sol",
  "abi": [
    {
      "inputs": [
        {
          "internalType": "address",
          "name": "_stableCoin",
          "type": "address"
        },
        {
          "internalType": "address",
          "name": "systemContractAddress",
          "type": "address"
        }
      ],
      "stateMutability": "payable",
      "type": "constructor"
    },
    {
      "inputs": [],
      "name": "AmountNotEnough",
      "type": "error"
    },
    {
      "inputs": [],
      "name": "CantBeIdenticalAddresses",
      "type": "error"
    },
    {
      "inputs": [],
      "name": "CantBeZeroAddress",
      "type": "error"
    },
    {
      "inputs": [],
      "name": "InvalidTime",
      "type": "error"
    },
    {
      "inputs": [],
      "name": "NotEnoughToPayGasFee",
      "type": "error"
    },
    {
      "inputs": [],
      "name": "NotEnoughToPayGasFee",
      "type": "error"
    },
    {
      "inputs": [],
      "name": "UserNotRegistered",
      "type": "error"
    },
    {
      "inputs": [],
      "name": "WrongGasContract",
      "type": "error"
    },
    {
      "inputs": [],
      "name": "WrongGasContract",
      "type": "error"
    },
    {
      "inputs": [],
      "name": "CRT",
      "outputs": [
        {
          "internalType": "string",
          "name": "",
          "type": "string"
        }
      ],
      "stateMutability": "view",
      "type": "function"
    },
    {
      "inputs": [],
      "name": "INC",
      "outputs": [
        {
          "internalType": "string",
          "name": "",
          "type": "string"
        }
      ],
      "stateMutability": "view",
      "type": "function"
    },
    {
      "inputs": [],
      "name": "JON",
      "outputs": [
        {
          "internalType": "string",
          "name": "",
          "type": "string"
        }
      ],
      "stateMutability": "view",
      "type": "function"
    },
    {
      "inputs": [],
      "name": "WTD",
      "outputs": [
        {
          "internalType": "string",
          "name": "",
          "type": "string"
        }
      ],
      "stateMutability": "view",
      "type": "function"
    },
    {
      "inputs": [],
      "name": "getStableCoin",
      "outputs": [
        {
          "internalType": "address",
          "name": "",
          "type": "address"
        }
      ],
      "stateMutability": "view",
      "type": "function"
    },
    {
      "inputs": [],
      "name": "getUserChildContractAddress",
      "outputs": [
        {
          "internalType": "address payable",
          "name": "",
          "type": "address"
        }
      ],
      "stateMutability": "view",
      "type": "function"
    },
    {
      "inputs": [
        {
          "internalType": "uint256",
          "name": "joining_fee",
          "type": "uint256"
        }
      ],
      "name": "joinBitsave",
      "outputs": [
        {
          "internalType": "address",
          "name": "",
          "type": "address"
        }
      ],
      "stateMutability": "payable",
      "type": "function"
    },
    {
      "inputs": [
        {
          "internalType": "address",
          "name": "zrc20",
          "type": "address"
        },
        {
          "internalType": "uint256",
          "name": "amount",
          "type": "uint256"
        },
        {
          "internalType": "bytes",
          "name": "message",
          "type": "bytes"
        }
      ],
      "name": "onCrossChainCall",
      "outputs": [],
      "stateMutability": "nonpayable",
      "type": "function"
    },
    {
      "inputs": [],
      "name": "poolFee",
      "outputs": [
        {
          "internalType": "uint24",
          "name": "",
          "type": "uint24"
        }
      ],
      "stateMutability": "view",
      "type": "function"
    },
    {
      "inputs": [
        {
          "internalType": "address",
          "name": "originalToken",
          "type": "address"
        },
        {
          "internalType": "uint256",
          "name": "amount",
          "type": "uint256"
        },
        {
          "internalType": "address",
          "name": "ownerAddress",
          "type": "address"
        }
      ],
      "name": "sendAsOriginalToken",
      "outputs": [],
      "stateMutability": "payable",
      "type": "function"
    },
    {
      "inputs": [],
      "name": "stableCoin",
      "outputs": [
        {
          "internalType": "address",
          "name": "",
          "type": "address"
        }
      ],
      "stateMutability": "view",
      "type": "function"
    },
    {
      "inputs": [],
      "name": "systemContract",
      "outputs": [
        {
          "internalType": "contract SystemContract",
          "name": "",
          "type": "address"
        }
      ],
      "stateMutability": "view",
      "type": "function"
    },
    {
      "inputs": [
        {
          "internalType": "string",
          "name": "nameOfSavings",
          "type": "string"
        }
      ],
      "name": "withdrawSaving",
      "outputs": [
        {
          "internalType": "bool",
          "name": "",
          "type": "bool"
        }
      ],
      "stateMutability": "nonpayable",
      "type": "function"
    },
    {
      "stateMutability": "payable",
      "type": "receive"
    }
  ],
  "bytecode": "0x60a060405260405162005de138038062005de18339818101604052810190620000299190620000bf565b816000806101000a81548173ffffffffffffffffffffffffffffffffffffffff021916908373ffffffffffffffffffffffffffffffffffffffff1602179055508073ffffffffffffffffffffffffffffffffffffffff1660808173ffffffffffffffffffffffffffffffffffffffff1660601b81525050505062000159565b600081519050620000b9816200013f565b92915050565b60008060408385031215620000d957620000d86200013a565b5b6000620000e985828601620000a8565b9250506020620000fc85828601620000a8565b9150509250929050565b600062000113826200011a565b9050919050565b600073ffffffffffffffffffffffffffffffffffffffff82169050919050565b600080fd5b6200014a8162000106565b81146200015657600080fd5b50565b60805160601c615c4d62000194600039600081816106c301528181611341015281816113f20152818161149401526115360152615c4d6000f3fe608060405260043610620000d95760003560e01c8063b88ab348116200008b578063de35c3721162000061578063de35c37214620002e3578063e4932abe1462000303578063e4e224fa1462000333578063ea4136721462000369576200011c565b8063b88ab3481462000255578063bb88b7691462000285578063c852269114620002b5576200011c565b8063089fe6aa14620001215780631bd817c914620001515780632aa0a5c81462000181578063372f910114620001b15780634cc431e214620001f5578063992642e51462000225576200011c565b366200011c577f88a5966d370b9919b20f3e2c13ff65706f196a4e32cc2c12bf57088f8852587433346040516200011292919062002c32565b60405180910390a1005b600080fd5b3480156200012e57600080fd5b506200013962000399565b60405162000148919062002da9565b60405180910390f35b3480156200015e57600080fd5b50620001696200039f565b60405162000178919062002b8e565b60405180910390f35b3480156200018e57600080fd5b5062000199620003c8565b604051620001a8919062002ccd565b60405180910390f35b348015620001be57600080fd5b50620001dd6004803603810190620001d79190620027df565b62000401565b604051620001ec919062002c5f565b60405180910390f35b3480156200020257600080fd5b506200020d6200062b565b6040516200021c919062002ccd565b60405180910390f35b3480156200023257600080fd5b506200023d62000664565b6040516200024c919062002b8e565b60405180910390f35b3480156200026257600080fd5b506200026d62000688565b6040516200027c919062002ccd565b60405180910390f35b3480156200029257600080fd5b506200029d620006c1565b604051620002ac919062002cb0565b60405180910390f35b348015620002c257600080fd5b50620002e16004803603810190620002db919062002602565b620006e5565b005b620003016004803603810190620002fb9190620025a6565b62000843565b005b3480156200031057600080fd5b506200031b6200097c565b6040516200032a919062002ccd565b60405180910390f35b6200035160048036038101906200034b919062002881565b620009b5565b60405162000360919062002b8e565b60405180910390f35b3480156200037657600080fd5b506200038162000ade565b60405162000390919062002bab565b60405180910390f35b610bb881565b60008060009054906101000a900473ffffffffffffffffffffffffffffffffffffffff16905090565b6040518060400160405280600381526020017f435254000000000000000000000000000000000000000000000000000000000081525081565b60008073ffffffffffffffffffffffffffffffffffffffff16600260003373ffffffffffffffffffffffffffffffffffffffff1673ffffffffffffffffffffffffffffffffffffffff16815260200190815260200160002060009054906101000a900473ffffffffffffffffffffffffffffffffffffffff1673ffffffffffffffffffffffffffffffffffffffff161415620004c9576040517f2163950f00000000000000000000000000000000000000000000000000000000815260040160405180910390fd5b600260003373ffffffffffffffffffffffffffffffffffffffff1673ffffffffffffffffffffffffffffffffffffffff16815260200190815260200160002060009054906101000a900473ffffffffffffffffffffffffffffffffffffffff16600360006101000a81548173ffffffffffffffffffffffffffffffffffffffff021916908373ffffffffffffffffffffffffffffffffffffffff160217905550600360009054906101000a900473ffffffffffffffffffffffffffffffffffffffff1673ffffffffffffffffffffffffffffffffffffffff1663372f9101836040518263ffffffff1660e01b8152600401620005c6919062002ccd565b600060405180830381600087803b158015620005e157600080fd5b505af1158015620005f6573d6000803e3d6000fd5b505050506040513d6000823e3d601f19601f8201168201806040525081019062000621919062002830565b5060019050919050565b6040518060400160405280600381526020017f575444000000000000000000000000000000000000000000000000000000000081525081565b60008054906101000a900473ffffffffffffffffffffffffffffffffffffffff1681565b6040518060400160405280600381526020017f4a4f4e000000000000000000000000000000000000000000000000000000000081525081565b7f000000000000000000000000000000000000000000000000000000000000000081565b6000806000806000808787810190620006ff919062002705565b955095509550955095509550620007178a8a62000b45565b62000758866040518060400160405280600381526020017f4a4f4e000000000000000000000000000000000000000000000000000000000081525062000bdf565b1562000770576200076989620009b5565b5062000837565b620007b1866040518060400160405280600381526020017f435254000000000000000000000000000000000000000000000000000000000081525062000bdf565b15620007ce57620007c885858585858f8f62000cc9565b62000836565b6200080f866040518060400160405280600381526020017f494e43000000000000000000000000000000000000000000000000000000000081525062000bdf565b15620008285762000822858b8b62000f5c565b62000835565b620008338562000401565b505b5b5b50505050505050505050565b610bb862ffffff1682101562000885576040517fcb6e851c00000000000000000000000000000000000000000000000000000000815260040160405180910390fd5b620008b160008054906101000a900473ffffffffffffffffffffffffffffffffffffffff168362000b45565b6000620008e060008054906101000a900473ffffffffffffffffffffffffffffffffffffffff16858562001339565b90508373ffffffffffffffffffffffffffffffffffffffff1663a9059cbb83836040518363ffffffff1660e01b81526004016200091f92919062002c32565b602060405180830381600087803b1580156200093a57600080fd5b505af11580156200094f573d6000803e3d6000fd5b505050506040513d601f19601f82011682018060405250810190620009759190620026d3565b5050505050565b6040518060400160405280600381526020017f494e43000000000000000000000000000000000000000000000000000000000081525081565b6000806127109050808311620009f7576040517fcb6e851c00000000000000000000000000000000000000000000000000000000815260040160405180910390fd5b60003360008054906101000a900473ffffffffffffffffffffffffffffffffffffffff1660405162000a2990620021f7565b62000a3692919062002bc8565b604051809103906000f08015801562000a53573d6000803e3d6000fd5b50905080600260003373ffffffffffffffffffffffffffffffffffffffff1673ffffffffffffffffffffffffffffffffffffffff16815260200190815260200160002060006101000a81548173ffffffffffffffffffffffffffffffffffffffff021916908373ffffffffffffffffffffffffffffffffffffffff1602179055508092505050919050565b6000600260003373ffffffffffffffffffffffffffffffffffffffff1673ffffffffffffffffffffffffffffffffffffffff16815260200190815260200160002060009054906101000a900473ffffffffffffffffffffffffffffffffffffffff16905090565b8173ffffffffffffffffffffffffffffffffffffffff166323b872dd3330846040518463ffffffff1660e01b815260040162000b849392919062002bf5565b602060405180830381600087803b15801562000b9f57600080fd5b505af115801562000bb4573d6000803e3d6000fd5b505050506040513d601f19601f8201168201806040525081019062000bda9190620026d3565b505050565b6000808290506000845190508151811462000c005760009250505062000cc3565b60005b8181101562000cbb5782818151811062000c225762000c216200324d565b5b602001015160f81c60f81b7effffffffffffffffffffffffffffffffffffffffffffffffffffffffffffff191686828151811062000c655762000c646200324d565b5b602001015160f81c60f81b7effffffffffffffffffffffffffffffffffffffffffffffffffffffffffffff19161462000ca5576000935050505062000cc3565b808062000cb2906200319e565b91505062000c03565b506001925050505b92915050565b600073ffffffffffffffffffffffffffffffffffffffff16600260003373ffffffffffffffffffffffffffffffffffffffff1673ffffffffffffffffffffffffffffffffffffffff16815260200190815260200160002060009054906101000a900473ffffffffffffffffffffffffffffffffffffffff1673ffffffffffffffffffffffffffffffffffffffff16141562000d90576040517f2163950f00000000000000000000000000000000000000000000000000000000815260040160405180910390fd5b8542111562000dcb576040517f6f7eac2600000000000000000000000000000000000000000000000000000000815260040160405180910390fd5b60008290506000829050841562000e2f5762000e098260008054906101000a900473ffffffffffffffffffffffffffffffffffffffff168562001339565b905060008054906101000a900473ffffffffffffffffffffffffffffffffffffffff1691505b600062000e3b62000ade565b905080600360006101000a81548173ffffffffffffffffffffffffffffffffffffffff021916908373ffffffffffffffffffffffffffffffffffffffff160217905550600062000e8d8284866200160b565b9050600360009054906101000a900473ffffffffffffffffffffffffffffffffffffffff1673ffffffffffffffffffffffffffffffffffffffff166313aa65398c8c8c8c8b878e6040518863ffffffff1660e01b815260040162000ef8979695949392919062002d25565b602060405180830381600087803b15801562000f1357600080fd5b505af115801562000f28573d6000803e3d6000fd5b505050506040513d601f19601f8201168201806040525081019062000f4e9190620028b3565b505050505050505050505050565b600073ffffffffffffffffffffffffffffffffffffffff16600260003373ffffffffffffffffffffffffffffffffffffffff1673ffffffffffffffffffffffffffffffffffffffff16815260200190815260200160002060009054906101000a900473ffffffffffffffffffffffffffffffffffffffff1673ffffffffffffffffffffffffffffffffffffffff16141562001023576040517f2163950f00000000000000000000000000000000000000000000000000000000815260040160405180910390fd5b6000600260003373ffffffffffffffffffffffffffffffffffffffff1673ffffffffffffffffffffffffffffffffffffffff16815260200190815260200160002060009054906101000a900473ffffffffffffffffffffffffffffffffffffffff16905080600360006101000a81548173ffffffffffffffffffffffffffffffffffffffff021916908373ffffffffffffffffffffffffffffffffffffffff16021790555060008290506000600360009054906101000a900473ffffffffffffffffffffffffffffffffffffffff1673ffffffffffffffffffffffffffffffffffffffff16631bb862a5876040518263ffffffff1660e01b81526004016200112c919062002ccd565b60206040518083038186803b1580156200114557600080fd5b505afa1580156200115a573d6000803e3d6000fd5b505050506040513d601f19601f82011682018060405250810190620011809190620026d3565b90508015620012695762001266600360009054906101000a900473ffffffffffffffffffffffffffffffffffffffff1673ffffffffffffffffffffffffffffffffffffffff1663e18f5f65886040518263ffffffff1660e01b8152600401620011ea919062002ccd565b60206040518083038186803b1580156200120357600080fd5b505afa15801562001218573d6000803e3d6000fd5b505050506040513d601f19601f820116820180604052508101906200123e91906200252d565b60008054906101000a900473ffffffffffffffffffffffffffffffffffffffff168462001339565b91505b6000620012788484886200160b565b9050600360009054906101000a900473ffffffffffffffffffffffffffffffffffffffff1673ffffffffffffffffffffffffffffffffffffffff166346718f1a88836040518363ffffffff1660e01b8152600401620012d992919062002cf1565b602060405180830381600087803b158015620012f457600080fd5b505af115801562001309573d6000803e3d6000fd5b505050506040513d601f19601f820116820180604052508101906200132f9190620028b3565b5050505050505050565b6000620013e97f000000000000000000000000000000000000000000000000000000000000000073ffffffffffffffffffffffffffffffffffffffff1663569541b96040518163ffffffff1660e01b815260040160206040518083038186803b158015620013a657600080fd5b505afa158015620013bb573d6000803e3d6000fd5b505050506040513d601f19601f82011682018060405250810190620013e191906200252d565b83866200160b565b506000620015e17f000000000000000000000000000000000000000000000000000000000000000073ffffffffffffffffffffffffffffffffffffffff1663569541b96040518163ffffffff1660e01b815260040160206040518083038186803b1580156200145757600080fd5b505afa1580156200146c573d6000803e3d6000fd5b505050506040513d601f19601f820116820180604052508101906200149291906200252d565b7f000000000000000000000000000000000000000000000000000000000000000073ffffffffffffffffffffffffffffffffffffffff1663d936a0126040518163ffffffff1660e01b815260040160206040518083038186803b158015620014f957600080fd5b505afa1580156200150e573d6000803e3d6000fd5b505050506040513d601f19601f820116820180604052508101906200153491906200252d565b7f000000000000000000000000000000000000000000000000000000000000000073ffffffffffffffffffffffffffffffffffffffff1663842da36d6040518163ffffffff1660e01b815260040160206040518083038186803b1580156200159b57600080fd5b505afa158015620015b0573d6000803e3d6000fd5b505050506040513d601f19601f82011682018060405250810190620015d691906200252d565b88878960006200188d565b90506000620015f03062001c6e565b9050620015ff85838362001c91565b81925050509392505050565b60008060008373ffffffffffffffffffffffffffffffffffffffff1663d9eeebed6040518163ffffffff1660e01b8152600401604080518083038186803b1580156200165657600080fd5b505afa1580156200166b573d6000803e3d6000fd5b505050506040513d601f19601f820116820180604052508101906200169191906200255f565b91509150600281620016a4919062002fc7565b90508373ffffffffffffffffffffffffffffffffffffffff168273ffffffffffffffffffffffffffffffffffffffff16146200170c576040517fcaaa35e700000000000000000000000000000000000000000000000000000000815260040160405180910390fd5b84811062001746576040517fd0c279a200000000000000000000000000000000000000000000000000000000815260040160405180910390fd5b6000818662001756919062003028565b90508473ffffffffffffffffffffffffffffffffffffffff1663095ea7b386846040518363ffffffff1660e01b81526004016200179592919062002c32565b602060405180830381600087803b158015620017b057600080fd5b505af1158015620017c5573d6000803e3d6000fd5b505050506040513d601f19601f82011682018060405250810190620017eb9190620026d3565b508473ffffffffffffffffffffffffffffffffffffffff1663095ea7b388836040518363ffffffff1660e01b81526004016200182992919062002c32565b602060405180830381600087803b1580156200184457600080fd5b505af115801562001859573d6000803e3d6000fd5b505050506040513d601f19601f820116820180604052508101906200187f9190620026d3565b508093505050509392505050565b6000806200189d88878662001f16565b905060608115620019a257600267ffffffffffffffff811115620018c657620018c56200327c565b5b604051908082528060200260200182016040528015620018f55781602001602082028036833780820191505090505b509050868160008151811062001910576200190f6200324d565b5b602002602001019073ffffffffffffffffffffffffffffffffffffffff16908173ffffffffffffffffffffffffffffffffffffffff168152505084816001815181106200196257620019616200324d565b5b602002602001019073ffffffffffffffffffffffffffffffffffffffff16908173ffffffffffffffffffffffffffffffffffffffff168152505062001ae9565b600367ffffffffffffffff811115620019c057620019bf6200327c565b5b604051908082528060200260200182016040528015620019ef5781602001602082028036833780820191505090505b509050868160008151811062001a0a5762001a096200324d565b5b602002602001019073ffffffffffffffffffffffffffffffffffffffff16908173ffffffffffffffffffffffffffffffffffffffff1681525050898160018151811062001a5c5762001a5b6200324d565b5b602002602001019073ffffffffffffffffffffffffffffffffffffffff16908173ffffffffffffffffffffffffffffffffffffffff1681525050848160028151811062001aae5762001aad6200324d565b5b602002602001019073ffffffffffffffffffffffffffffffffffffffff16908173ffffffffffffffffffffffffffffffffffffffff16815250505b8673ffffffffffffffffffffffffffffffffffffffff1663095ea7b389886040518363ffffffff1660e01b815260040162001b2692919062002c32565b602060405180830381600087803b15801562001b4157600080fd5b505af115801562001b56573d6000803e3d6000fd5b505050506040513d601f19601f8201168201806040525081019062001b7c9190620026d3565b5060008873ffffffffffffffffffffffffffffffffffffffff166338ed17398887853060c861ffff164262001bb2919062002f6a565b6040518663ffffffff1660e01b815260040162001bd495949392919062002dc6565b600060405180830381600087803b15801562001bef57600080fd5b505af115801562001c04573d6000803e3d6000fd5b505050506040513d6000823e3d601f19601f8201168201806040525081019062001c2f919062002682565b9050806001835162001c42919062003028565b8151811062001c565762001c556200324d565b5b60200260200101519350505050979650505050505050565b60008173ffffffffffffffffffffffffffffffffffffffff1660001b9050919050565b6000808473ffffffffffffffffffffffffffffffffffffffff1663d9eeebed6040518163ffffffff1660e01b8152600401604080518083038186803b15801562001cda57600080fd5b505afa15801562001cef573d6000803e3d6000fd5b505050506040513d601f19601f8201168201806040525081019062001d1591906200255f565b915091508473ffffffffffffffffffffffffffffffffffffffff168273ffffffffffffffffffffffffffffffffffffffff161462001d7f576040517fcaaa35e700000000000000000000000000000000000000000000000000000000815260040160405180910390fd5b83811062001db9576040517fd0c279a200000000000000000000000000000000000000000000000000000000815260040160405180910390fd5b8473ffffffffffffffffffffffffffffffffffffffff1663095ea7b386836040518363ffffffff1660e01b815260040162001df692919062002c32565b602060405180830381600087803b15801562001e1157600080fd5b505af115801562001e26573d6000803e3d6000fd5b505050506040513d601f19601f8201168201806040525081019062001e4c9190620026d3565b508473ffffffffffffffffffffffffffffffffffffffff1663c70126268460405160200162001e7c919062002b27565b604051602081830303815290604052838762001e99919062003028565b6040518363ffffffff1660e01b815260040162001eb892919062002c7c565b602060405180830381600087803b15801562001ed357600080fd5b505af115801562001ee8573d6000803e3d6000fd5b505050506040513d601f19601f8201168201806040525081019062001f0e9190620026d3565b505050505050565b60008062001f268585856200205f565b905060008473ffffffffffffffffffffffffffffffffffffffff166370a08231836040518263ffffffff1660e01b815260040162001f65919062002b8e565b60206040518083038186803b15801562001f7e57600080fd5b505afa15801562001f93573d6000803e3d6000fd5b505050506040513d601f19601f8201168201806040525081019062001fb99190620028b3565b11801562002055575060008373ffffffffffffffffffffffffffffffffffffffff166370a08231836040518263ffffffff1660e01b815260040162001fff919062002b8e565b60206040518083038186803b1580156200201857600080fd5b505afa1580156200202d573d6000803e3d6000fd5b505050506040513d601f19601f82011682018060405250810190620020539190620028b3565b115b9150509392505050565b6000806000620020708585620020d7565b915091508582826040516020016200208a92919062002af7565b60405160208183030381529060405280519060200120604051602001620020b392919062002b44565b6040516020818303038152906040528051906020012060001c925050509392505050565b6000808273ffffffffffffffffffffffffffffffffffffffff168473ffffffffffffffffffffffffffffffffffffffff16141562002141576040517fcb1e7cfe00000000000000000000000000000000000000000000000000000000815260040160405180910390fd5b8273ffffffffffffffffffffffffffffffffffffffff168473ffffffffffffffffffffffffffffffffffffffff16106200217d57828462002180565b83835b8092508193505050600073ffffffffffffffffffffffffffffffffffffffff168273ffffffffffffffffffffffffffffffffffffffff161415620021f0576040517f78b507da00000000000000000000000000000000000000000000000000000000815260040160405180910390fd5b9250929050565b61287680620033a283390190565b60006200221c620022168462002e53565b62002e2a565b90508083825260208201905082856020860282011115620022425762002241620032b5565b5b60005b858110156200227657816200225b8882620024ff565b84526020840193506020830192505060018101905062002245565b5050509392505050565b600062002297620022918462002e82565b62002e2a565b905082815260208101848484011115620022b657620022b5620032ba565b5b620022c384828562003123565b509392505050565b6000620022e2620022dc8462002eb8565b62002e2a565b905082815260208101848484011115620023015762002300620032ba565b5b6200230e84828562003123565b509392505050565b60006200232d620023278462002eb8565b62002e2a565b9050828152602081018484840111156200234c576200234b620032ba565b5b6200235984828562003132565b509392505050565b600081359050620023728162003339565b92915050565b600081519050620023898162003339565b92915050565b600082601f830112620023a757620023a6620032b0565b5b8151620023b984826020860162002205565b91505092915050565b600081359050620023d38162003353565b92915050565b600081519050620023ea8162003353565b92915050565b60008083601f840112620024095762002408620032b0565b5b8235905067ffffffffffffffff811115620024295762002428620032ab565b5b602083019150836001820283011115620024485762002447620032b5565b5b9250929050565b600082601f830112620024675762002466620032b0565b5b81356200247984826020860162002280565b91505092915050565b600082601f8301126200249a5762002499620032b0565b5b8135620024ac848260208601620022cb565b91505092915050565b600082601f830112620024cd57620024cc620032b0565b5b8151620024df84826020860162002316565b91505092915050565b600081359050620024f9816200336d565b92915050565b60008151905062002510816200336d565b92915050565b600081359050620025278162003387565b92915050565b600060208284031215620025465762002545620032c4565b5b6000620025568482850162002378565b91505092915050565b60008060408385031215620025795762002578620032c4565b5b6000620025898582860162002378565b92505060206200259c85828601620024ff565b9150509250929050565b600080600060608486031215620025c257620025c1620032c4565b5b6000620025d28682870162002361565b9350506020620025e586828701620024e8565b9250506040620025f88682870162002361565b9150509250925092565b600080600080606085870312156200261f576200261e620032c4565b5b60006200262f8782880162002361565b94505060206200264287828801620024e8565b935050604085013567ffffffffffffffff811115620026665762002665620032bf565b5b6200267487828801620023f0565b925092505092959194509250565b6000602082840312156200269b576200269a620032c4565b5b600082015167ffffffffffffffff811115620026bc57620026bb620032bf565b5b620026ca848285016200238f565b91505092915050565b600060208284031215620026ec57620026eb620032c4565b5b6000620026fc84828501620023d9565b91505092915050565b60008060008060008060c08789031215620027255762002724620032c4565b5b600087013567ffffffffffffffff811115620027465762002745620032bf565b5b6200275489828a016200244f565b965050602087013567ffffffffffffffff811115620027785762002777620032bf565b5b6200278689828a0162002482565b95505060406200279989828a01620024e8565b9450506060620027ac89828a01620024e8565b9350506080620027bf89828a0162002516565b92505060a0620027d289828a01620023c2565b9150509295509295509295565b600060208284031215620027f857620027f7620032c4565b5b600082013567ffffffffffffffff811115620028195762002818620032bf565b5b620028278482850162002482565b91505092915050565b600060208284031215620028495762002848620032c4565b5b600082015167ffffffffffffffff8111156200286a5762002869620032bf565b5b6200287884828501620024b5565b91505092915050565b6000602082840312156200289a5762002899620032c4565b5b6000620028aa84828501620024e8565b91505092915050565b600060208284031215620028cc57620028cb620032c4565b5b6000620028dc84828501620024ff565b91505092915050565b6000620028f3838362002910565b60208301905092915050565b6200290a8162003077565b82525050565b6200291b8162003063565b82525050565b6200292c8162003063565b82525050565b62002947620029418262003063565b620031ec565b82525050565b60006200295a8262002efe565b62002966818562002f2c565b9350620029738362002eee565b8060005b83811015620029aa5781516200298e8882620028e5565b97506200299b8362002f1f565b92505060018101905062002977565b5085935050505092915050565b620029c2816200308b565b82525050565b620029dd620029d78262003097565b62003200565b82525050565b6000620029f08262002f09565b620029fc818562002f3d565b935062002a0e81856020860162003132565b62002a1981620032c9565b840191505092915050565b62002a2f81620030e7565b82525050565b600062002a428262002f14565b62002a4e818562002f4e565b935062002a6081856020860162003132565b62002a6b81620032c9565b840191505092915050565b600062002a8560208362002f5f565b915062002a9282620032e7565b602082019050919050565b600062002aac60018362002f5f565b915062002ab98262003310565b600182019050919050565b62002acf81620030c1565b82525050565b62002ae081620030d0565b82525050565b62002af181620030da565b82525050565b600062002b05828562002932565b60148201915062002b17828462002932565b6014820191508190509392505050565b600062002b358284620029c8565b60208201915081905092915050565b600062002b518262002a9d565b915062002b5f828562002932565b60148201915062002b718284620029c8565b60208201915062002b828262002a76565b91508190509392505050565b600060208201905062002ba5600083018462002921565b92915050565b600060208201905062002bc26000830184620028ff565b92915050565b600060408201905062002bdf600083018562002921565b62002bee602083018462002921565b9392505050565b600060608201905062002c0c600083018662002921565b62002c1b602083018562002921565b62002c2a604083018462002ad5565b949350505050565b600060408201905062002c49600083018562002921565b62002c58602083018462002ad5565b9392505050565b600060208201905062002c766000830184620029b7565b92915050565b6000604082019050818103600083015262002c988185620029e3565b905062002ca9602083018462002ad5565b9392505050565b600060208201905062002cc7600083018462002a24565b92915050565b6000602082019050818103600083015262002ce9818462002a35565b905092915050565b6000604082019050818103600083015262002d0d818562002a35565b905062002d1e602083018462002ad5565b9392505050565b600060e082019050818103600083015262002d41818a62002a35565b905062002d52602083018962002ad5565b62002d61604083018862002ad5565b62002d70606083018762002ae6565b62002d7f608083018662002921565b62002d8e60a083018562002ad5565b62002d9d60c0830184620029b7565b98975050505050505050565b600060208201905062002dc0600083018462002ac4565b92915050565b600060a08201905062002ddd600083018862002ad5565b62002dec602083018762002ad5565b818103604083015262002e0081866200294d565b905062002e11606083018562002921565b62002e20608083018462002ad5565b9695505050505050565b600062002e3662002e49565b905062002e44828262003168565b919050565b6000604051905090565b600067ffffffffffffffff82111562002e715762002e706200327c565b5b602082029050602081019050919050565b600067ffffffffffffffff82111562002ea05762002e9f6200327c565b5b62002eab82620032c9565b9050602081019050919050565b600067ffffffffffffffff82111562002ed65762002ed56200327c565b5b62002ee182620032c9565b9050602081019050919050565b6000819050602082019050919050565b600081519050919050565b600081519050919050565b600081519050919050565b6000602082019050919050565b600082825260208201905092915050565b600082825260208201905092915050565b600082825260208201905092915050565b600081905092915050565b600062002f7782620030d0565b915062002f8483620030d0565b9250827fffffffffffffffffffffffffffffffffffffffffffffffffffffffffffffffff0382111562002fbc5762002fbb6200321e565b5b828201905092915050565b600062002fd482620030d0565b915062002fe183620030d0565b9250817fffffffffffffffffffffffffffffffffffffffffffffffffffffffffffffffff04831182151516156200301d576200301c6200321e565b5b828202905092915050565b60006200303582620030d0565b91506200304283620030d0565b9250828210156200305857620030576200321e565b5b828203905092915050565b60006200307082620030a1565b9050919050565b60006200308482620030a1565b9050919050565b60008115159050919050565b6000819050919050565b600073ffffffffffffffffffffffffffffffffffffffff82169050919050565b600062ffffff82169050919050565b6000819050919050565b600060ff82169050919050565b6000620030f482620030fb565b9050919050565b600062003108826200310f565b9050919050565b60006200311c82620030a1565b9050919050565b82818337600083830152505050565b60005b838110156200315257808201518184015260208101905062003135565b8381111562003162576000848401525b50505050565b6200317382620032c9565b810181811067ffffffffffffffff821117156200319557620031946200327c565b5b80604052505050565b6000620031ab82620030d0565b91507fffffffffffffffffffffffffffffffffffffffffffffffffffffffffffffffff821415620031e157620031e06200321e565b5b600182019050919050565b6000620031f9826200320a565b9050919050565b6000819050919050565b60006200321782620032da565b9050919050565b7f4e487b7100000000000000000000000000000000000000000000000000000000600052601160045260246000fd5b7f4e487b7100000000000000000000000000000000000000000000000000000000600052603260045260246000fd5b7f4e487b7100000000000000000000000000000000000000000000000000000000600052604160045260246000fd5b600080fd5b600080fd5b600080fd5b600080fd5b600080fd5b600080fd5b6000601f19601f8301169050919050565b60008160601b9050919050565b7f96e8ac4277198ff8b6f785478aa9a39f403cb768dd02cbee326c3e7da348845f600082015250565b7fff00000000000000000000000000000000000000000000000000000000000000600082015250565b620033448162003063565b81146200335057600080fd5b50565b6200335e816200308b565b81146200336a57600080fd5b50565b6200337881620030d0565b81146200338457600080fd5b50565b6200339281620030da565b81146200339e57600080fd5b5056fe6080604052604051620028763803806200287683398181016040528101906200002991906200010a565b336000806101000a81548173ffffffffffffffffffffffffffffffffffffffff021916908373ffffffffffffffffffffffffffffffffffffffff16021790555081600160006101000a81548173ffffffffffffffffffffffffffffffffffffffff021916908373ffffffffffffffffffffffffffffffffffffffff16021790555080600260006101000a81548173ffffffffffffffffffffffffffffffffffffffff021916908373ffffffffffffffffffffffffffffffffffffffff1602179055505050620001a4565b60008151905062000104816200018a565b92915050565b6000806040838503121562000124576200012362000185565b5b60006200013485828601620000f3565b92505060206200014785828601620000f3565b9150509250929050565b60006200015e8262000165565b9050919050565b600073ffffffffffffffffffffffffffffffffffffffff82169050919050565b600080fd5b620001958162000151565b8114620001a157600080fd5b50565b6126c280620001b46000396000f3fe6080604052600436106100955760003560e01c80634282a572116100595780634282a572146101e657806346718f1a14610223578063992642e514610253578063d1ece7901461027e578063e18f5f65146102a9576100d5565b806313203929146100da57806313aa65391461011e5780631bb862a51461014e5780632ae3c90f1461018b578063372f9101146101b6576100d5565b366100d5577f88a5966d370b9919b20f3e2c13ff65706f196a4e32cc2c12bf57088f8852587433346040516100cb929190611fd3565b60405180910390a1005b600080fd5b3480156100e657600080fd5b5061010160048036038101906100fc9190611b11565b6102e6565b60405161011598979695949392919061204e565b60405180910390f35b61013860048036038101906101339190611bb6565b61037e565b60405161014591906121e6565b60405180910390f35b34801561015a57600080fd5b5061017560048036038101906101709190611b11565b610742565b6040516101829190612033565b60405180910390f35b34801561019757600080fd5b506101a061077a565b6040516101ad9190611f81565b60405180910390f35b6101d060048036038101906101cb9190611b11565b61079e565b6040516101dd91906120fc565b60405180910390f35b3480156101f257600080fd5b5061020d60048036038101906102089190611b11565b610b90565b60405161021a91906121a8565b60405180910390f35b61023d60048036038101906102389190611b5a565b610c87565b60405161024a91906121e6565b60405180910390f35b34801561025f57600080fd5b50610268610fed565b6040516102759190611f81565b60405180910390f35b34801561028a57600080fd5b50610293611013565b6040516102a091906121c4565b60405180910390f35b3480156102b557600080fd5b506102d060048036038101906102cb9190611b11565b611106565b6040516102dd9190611f66565b60405180910390f35b6003818051602081018201805184825260208301602085012081835280955050505050506000915090508060000160009054906101000a900460ff16908060010154908060020160009054906101000a900473ffffffffffffffffffffffffffffffffffffffff16908060030154908060040154908060050154908060060154908060070160009054906101000a900460ff16905088565b60008060009054906101000a900473ffffffffffffffffffffffffffffffffffffffff1673ffffffffffffffffffffffffffffffffffffffff163373ffffffffffffffffffffffffffffffffffffffff1614610406576040517f8481e97e00000000000000000000000000000000000000000000000000000000815260040160405180910390fd5b6003886040516104169190611f4f565b908152602001604051809103902060000160009054906101000a900460ff161561046c576040517fd63d1e4800000000000000000000000000000000000000000000000000000000815260040160405180910390fd5b858710156104a6576040517f6f7eac2600000000000000000000000000000000000000000000000000000000815260040160405180910390fd5b428710156104e0576040517f6f7eac2600000000000000000000000000000000000000000000000000000000815260040160405180910390fd5b60006003905082156105b15761052a6040518060400160405280600e81526020017f63726561746520736176696e6773000000000000000000000000000000000000815250611151565b610555600260009054906101000a900473ffffffffffffffffffffffffffffffffffffffff166111ea565b610580600160009054906101000a900473ffffffffffffffffffffffffffffffffffffffff166111ea565b6105ac600260009054906101000a900473ffffffffffffffffffffffffffffffffffffffff1685611283565b6105bc565b6105bb8585611283565b5b6040518061010001604052806001151581526020018581526020018673ffffffffffffffffffffffffffffffffffffffff1681526020018281526020018881526020018760ff16815260200189815260200184151581525060038a6040516106249190611f4f565b908152602001604051809103902060008201518160000160006101000a81548160ff0219169083151502179055506020820151816001015560408201518160020160006101000a81548173ffffffffffffffffffffffffffffffffffffffff021916908373ffffffffffffffffffffffffffffffffffffffff160217905550606082015181600301556080820151816004015560a0820151816005015560c0820151816006015560e08201518160070160006101000a81548160ff0219169083151502179055509050506106f789611302565b7f4ad85a69286191006ea05981ae1848070dbf232e5e00ffdda4b857c16097f0d789858760405161072a9392919061211e565b60405180910390a16001915050979650505050505050565b60006003826040516107549190611f4f565b908152602001604051809103902060070160009054906101000a900460ff169050919050565b60008054906101000a900473ffffffffffffffffffffffffffffffffffffffff1681565b606060008054906101000a900473ffffffffffffffffffffffffffffffffffffffff1673ffffffffffffffffffffffffffffffffffffffff163373ffffffffffffffffffffffffffffffffffffffff1614610825576040517f8481e97e00000000000000000000000000000000000000000000000000000000815260040160405180910390fd5b60006003836040516108379190611f4f565b908152602001604051809103902090508060000160009054906101000a900460ff1661088f576040517fd63d1e4800000000000000000000000000000000000000000000000000000000815260040160405180910390fd5b600081600601544210156108d0576064826005015460646108b091906123c5565b83600101546108bf919061236b565b6108c9919061233a565b905061093e565b600160009054906101000a900473ffffffffffffffffffffffffffffffffffffffff1673ffffffffffffffffffffffffffffffffffffffff166108fc83600301549081150290604051600060405180830381858888f1935050505015801561093c573d6000803e3d6000fd5b505b60008260020160009054906101000a900473ffffffffffffffffffffffffffffffffffffffff1690508260070160009054906101000a900460ff1615610a8d5760006109cd60008054906101000a900473ffffffffffffffffffffffffffffffffffffffff1684600260009054906101000a900473ffffffffffffffffffffffffffffffffffffffff16611344565b905060008060009054906101000a900473ffffffffffffffffffffffffffffffffffffffff1690508073ffffffffffffffffffffffffffffffffffffffff1663de35c3728484600160009054906101000a900473ffffffffffffffffffffffffffffffffffffffff166040518463ffffffff1660e01b8152600401610a5493929190611ffc565b600060405180830381600087803b158015610a6e57600080fd5b505af1158015610a82573d6000803e3d6000fd5b505050505050610adf565b610ade8360020160009054906101000a900473ffffffffffffffffffffffffffffffffffffffff16600160009054906101000a900473ffffffffffffffffffffffffffffffffffffffff16846115b0565b5b6000600386604051610af19190611f4f565b908152602001604051809103902060000160006101000a81548160ff0219169083151502179055507f5b059b7fe1fea38d4de595079621498a365a8f1fa13e49af9f1e4b7197ab049a85604051610b4891906120fc565b60405180910390a16040518060400160405280601e81526020017f736176696e67732077697468647261776e207375636365737366756c6c7900008152509350505050919050565b610b9861188c565b600382604051610ba89190611f4f565b9081526020016040518091039020604051806101000160405290816000820160009054906101000a900460ff16151515158152602001600182015481526020016002820160009054906101000a900473ffffffffffffffffffffffffffffffffffffffff1673ffffffffffffffffffffffffffffffffffffffff1673ffffffffffffffffffffffffffffffffffffffff168152602001600382015481526020016004820154815260200160058201548152602001600682015481526020016007820160009054906101000a900460ff1615151515815250509050919050565b60008060009054906101000a900473ffffffffffffffffffffffffffffffffffffffff1673ffffffffffffffffffffffffffffffffffffffff163373ffffffffffffffffffffffffffffffffffffffff1614610d0f576040517f8481e97e00000000000000000000000000000000000000000000000000000000815260040160405180910390fd5b6000600384604051610d219190611f4f565b908152602001604051809103902090508060000160009054906101000a900460ff16610d79576040517fd63d1e4800000000000000000000000000000000000000000000000000000000815260040160405180910390fd5b8060060154421115610db7576040517f6f7eac2600000000000000000000000000000000000000000000000000000000815260040160405180910390fd5b8060070160009054906101000a900460ff1615610dff57610dfa600260009054906101000a900473ffffffffffffffffffffffffffffffffffffffff1684611283565b610e2e565b610e2d8160020160009054906101000a900473ffffffffffffffffffffffffffffffffffffffff1684611283565b5b600060019050808260030154610e4491906122e4565b8260030181905550838260010154610e5c91906122e4565b826001018190555081600386604051610e759190611f4f565b90815260200160405180910390206000820160009054906101000a900460ff168160000160006101000a81548160ff021916908315150217905550600182015481600101556002820160009054906101000a900473ffffffffffffffffffffffffffffffffffffffff168160020160006101000a81548173ffffffffffffffffffffffffffffffffffffffff021916908373ffffffffffffffffffffffffffffffffffffffff160217905550600382015481600301556004820154816004015560058201548160050155600682015481600601556007820160009054906101000a900460ff168160070160006101000a81548160ff0219169083151502179055509050507ff6b98d8e0d83f8b1d1ff03a2fa36aba2c77ccf20e4ff035c0cf4aa92762e9eec858584600101548560020160009054906101000a900473ffffffffffffffffffffffffffffffffffffffff16604051610fd6949392919061215c565b60405180910390a181600301549250505092915050565b600260009054906101000a900473ffffffffffffffffffffffffffffffffffffffff1681565b61101b6118eb565b600460405180602001604052908160008201805480602002602001604051908101604052809291908181526020016000905b828210156110f957838290600052602060002001805461106c906124e2565b80601f0160208091040260200160405190810160405280929190818152602001828054611098906124e2565b80156110e55780601f106110ba576101008083540402835291602001916110e5565b820191906000526020600020905b8154815290600101906020018083116110c857829003601f168201915b50505050508152602001906001019061104d565b5050505081525050905090565b60006003826040516111189190611f4f565b908152602001604051809103902060020160009054906101000a900473ffffffffffffffffffffffffffffffffffffffff169050919050565b6111e78160405160240161116591906120fc565b6040516020818303038152906040527f41304fac000000000000000000000000000000000000000000000000000000007bffffffffffffffffffffffffffffffffffffffffffffffffffffffff19166020820180517bffffffffffffffffffffffffffffffffffffffffffffffffffffffff8381831617835250505050611784565b50565b611280816040516024016111fe9190611f66565b6040516020818303038152906040527f2c2ecbc2000000000000000000000000000000000000000000000000000000007bffffffffffffffffffffffffffffffffffffffffffffffffffffffff19166020820180517bffffffffffffffffffffffffffffffffffffffffffffffffffffffff8381831617835250505050611784565b50565b60004790506112b360008054906101000a900473ffffffffffffffffffffffffffffffffffffffff1684846117a5565b60004790508083836112c591906122e4565b116112fc576040517fcb6e851c00000000000000000000000000000000000000000000000000000000815260040160405180910390fd5b50505050565b6004600001819080600181540180825580915050600190039060005260206000200160009091909190915090805190602001906113409291906118fe565b5050565b60008060008373ffffffffffffffffffffffffffffffffffffffff1663d9eeebed6040518163ffffffff1660e01b8152600401604080518083038186803b15801561138e57600080fd5b505afa1580156113a2573d6000803e3d6000fd5b505050506040513d601f19601f820116820180604052508101906113c69190611aa4565b915091506002816113d7919061236b565b90508373ffffffffffffffffffffffffffffffffffffffff168273ffffffffffffffffffffffffffffffffffffffff161461143e576040517fcaaa35e700000000000000000000000000000000000000000000000000000000815260040160405180910390fd5b848110611477576040517fd0c279a200000000000000000000000000000000000000000000000000000000815260040160405180910390fd5b6000818661148591906123c5565b90508473ffffffffffffffffffffffffffffffffffffffff1663095ea7b386846040518363ffffffff1660e01b81526004016114c2929190611fd3565b602060405180830381600087803b1580156114dc57600080fd5b505af11580156114f0573d6000803e3d6000fd5b505050506040513d601f19601f820116820180604052508101906115149190611ae4565b508473ffffffffffffffffffffffffffffffffffffffff1663095ea7b388836040518363ffffffff1660e01b8152600401611550929190611fd3565b602060405180830381600087803b15801561156a57600080fd5b505af115801561157e573d6000803e3d6000fd5b505050506040513d601f19601f820116820180604052508101906115a29190611ae4565b508093505050509392505050565b60008390506000808273ffffffffffffffffffffffffffffffffffffffff1663d9eeebed6040518163ffffffff1660e01b8152600401604080518083038186803b1580156115fd57600080fd5b505afa158015611611573d6000803e3d6000fd5b505050506040513d601f19601f820116820180604052508101906116359190611aa4565b91509150600281611646919061236b565b905083811115611682576040517fd0c279a200000000000000000000000000000000000000000000000000000000815260040160405180910390fd5b600061168d86611840565b9050600061169a82611863565b90508473ffffffffffffffffffffffffffffffffffffffff1663c701262682886040518363ffffffff1660e01b81526004016116d79291906120cc565b602060405180830381600087803b1580156116f157600080fd5b505af1158015611705573d6000803e3d6000fd5b505050506040513d601f19601f820116820180604052508101906117299190611ae4565b503073ffffffffffffffffffffffffffffffffffffffff167f5a728b1f316a097ec4f8a742082e66f5c4721e46906f187be4de14736518715282886040516117729291906120cc565b60405180910390a25050505050505050565b60006a636f6e736f6c652e6c6f679050600080835160208501845afa505050565b60003090508273ffffffffffffffffffffffffffffffffffffffff166323b872dd8583856040518463ffffffff1660e01b81526004016117e793929190611f9c565b602060405180830381600087803b15801561180157600080fd5b505af1158015611815573d6000803e3d6000fd5b505050506040513d601f19601f820116820180604052508101906118399190611ae4565b5050505050565b60008173ffffffffffffffffffffffffffffffffffffffff1660001b9050919050565b6060816040516020016118769190611f34565b6040516020818303038152906040529050919050565b60405180610100016040528060001515815260200160008152602001600073ffffffffffffffffffffffffffffffffffffffff168152602001600081526020016000815260200160008152602001600081526020016000151581525090565b6040518060200160405280606081525090565b82805461190a906124e2565b90600052602060002090601f01602090048101928261192c5760008555611973565b82601f1061194557805160ff1916838001178555611973565b82800160010185558215611973579182015b82811115611972578251825591602001919060010190611957565b5b5090506119809190611984565b5090565b5b8082111561199d576000816000905550600101611985565b5090565b60006119b46119af84612226565b612201565b9050828152602081018484840111156119d0576119cf612610565b5b6119db8482856124a0565b509392505050565b6000813590506119f281612630565b92915050565b600081519050611a0781612630565b92915050565b600081359050611a1c81612647565b92915050565b600081519050611a3181612647565b92915050565b600082601f830112611a4c57611a4b61260b565b5b8135611a5c8482602086016119a1565b91505092915050565b600081359050611a748161265e565b92915050565b600081519050611a898161265e565b92915050565b600081359050611a9e81612675565b92915050565b60008060408385031215611abb57611aba61261a565b5b6000611ac9858286016119f8565b9250506020611ada85828601611a7a565b9150509250929050565b600060208284031215611afa57611af961261a565b5b6000611b0884828501611a22565b91505092915050565b600060208284031215611b2757611b2661261a565b5b600082013567ffffffffffffffff811115611b4557611b44612615565b5b611b5184828501611a37565b91505092915050565b60008060408385031215611b7157611b7061261a565b5b600083013567ffffffffffffffff811115611b8f57611b8e612615565b5b611b9b85828601611a37565b9250506020611bac85828601611a65565b9150509250929050565b600080600080600080600060e0888a031215611bd557611bd461261a565b5b600088013567ffffffffffffffff811115611bf357611bf2612615565b5b611bff8a828b01611a37565b9750506020611c108a828b01611a65565b9650506040611c218a828b01611a65565b9550506060611c328a828b01611a8f565b9450506080611c438a828b016119e3565b93505060a0611c548a828b01611a65565b92505060c0611c658a828b01611a0d565b91505092959891949750929550565b6000611c808383611da7565b905092915050565b611c918161246a565b82525050565b611ca08161240b565b82525050565b611caf816123f9565b82525050565b611cbe816123f9565b82525050565b6000611ccf82612267565b611cd98185612295565b935083602082028501611ceb85612257565b8060005b85811015611d275784840389528151611d088582611c74565b9450611d1383612288565b925060208a01995050600181019050611cef565b50829750879550505050505092915050565b611d428161241d565b82525050565b611d518161241d565b82525050565b611d68611d6382612429565b612545565b82525050565b6000611d7982612272565b611d8381856122a6565b9350611d938185602086016124af565b611d9c8161261f565b840191505092915050565b6000611db28261227d565b611dbc81856122b7565b9350611dcc8185602086016124af565b611dd58161261f565b840191505092915050565b6000611deb8261227d565b611df581856122c8565b9350611e058185602086016124af565b611e0e8161261f565b840191505092915050565b6000611e248261227d565b611e2e81856122d9565b9350611e3e8185602086016124af565b80840191505092915050565b61010082016000820151611e616000850182611d39565b506020820151611e746020850182611f16565b506040820151611e876040850182611ca6565b506060820151611e9a6060850182611f16565b506080820151611ead6080850182611f16565b5060a0820151611ec060a0850182611f16565b5060c0820151611ed360c0850182611f16565b5060e0820151611ee660e0850182611d39565b50505050565b60006020830160008301518482036000860152611f098282611cc4565b9150508091505092915050565b611f1f81612453565b82525050565b611f2e81612453565b82525050565b6000611f408284611d57565b60208201915081905092915050565b6000611f5b8284611e19565b915081905092915050565b6000602082019050611f7b6000830184611cb5565b92915050565b6000602082019050611f966000830184611c97565b92915050565b6000606082019050611fb16000830186611cb5565b611fbe6020830185611cb5565b611fcb6040830184611f25565b949350505050565b6000604082019050611fe86000830185611cb5565b611ff56020830184611f25565b9392505050565b60006060820190506120116000830186611cb5565b61201e6020830185611f25565b61202b6040830184611c88565b949350505050565b60006020820190506120486000830184611d48565b92915050565b600061010082019050612064600083018b611d48565b612071602083018a611f25565b61207e6040830189611cb5565b61208b6060830188611f25565b6120986080830187611f25565b6120a560a0830186611f25565b6120b260c0830185611f25565b6120bf60e0830184611d48565b9998505050505050505050565b600060408201905081810360008301526120e68185611d6e565b90506120f56020830184611f25565b9392505050565b600060208201905081810360008301526121168184611de0565b905092915050565b600060608201905081810360008301526121388186611de0565b90506121476020830185611f25565b6121546040830184611cb5565b949350505050565b600060808201905081810360008301526121768187611de0565b90506121856020830186611f25565b6121926040830185611f25565b61219f6060830184611cb5565b95945050505050565b6000610100820190506121be6000830184611e4a565b92915050565b600060208201905081810360008301526121de8184611eec565b905092915050565b60006020820190506121fb6000830184611f25565b92915050565b600061220b61221c565b90506122178282612514565b919050565b6000604051905090565b600067ffffffffffffffff821115612241576122406125dc565b5b61224a8261261f565b9050602081019050919050565b6000819050602082019050919050565b600081519050919050565b600081519050919050565b600081519050919050565b6000602082019050919050565b600082825260208201905092915050565b600082825260208201905092915050565b600082825260208201905092915050565b600082825260208201905092915050565b600081905092915050565b60006122ef82612453565b91506122fa83612453565b9250827fffffffffffffffffffffffffffffffffffffffffffffffffffffffffffffffff0382111561232f5761232e61254f565b5b828201905092915050565b600061234582612453565b915061235083612453565b9250826123605761235f61257e565b5b828204905092915050565b600061237682612453565b915061238183612453565b9250817fffffffffffffffffffffffffffffffffffffffffffffffffffffffffffffffff04831182151516156123ba576123b961254f565b5b828202905092915050565b60006123d082612453565b91506123db83612453565b9250828210156123ee576123ed61254f565b5b828203905092915050565b600061240482612433565b9050919050565b600061241682612433565b9050919050565b60008115159050919050565b6000819050919050565b600073ffffffffffffffffffffffffffffffffffffffff82169050919050565b6000819050919050565b600060ff82169050919050565b60006124758261247c565b9050919050565b60006124878261248e565b9050919050565b600061249982612433565b9050919050565b82818337600083830152505050565b60005b838110156124cd5780820151818401526020810190506124b2565b838111156124dc576000848401525b50505050565b600060028204905060018216806124fa57607f821691505b6020821081141561250e5761250d6125ad565b5b50919050565b61251d8261261f565b810181811067ffffffffffffffff8211171561253c5761253b6125dc565b5b80604052505050565b6000819050919050565b7f4e487b7100000000000000000000000000000000000000000000000000000000600052601160045260246000fd5b7f4e487b7100000000000000000000000000000000000000000000000000000000600052601260045260246000fd5b7f4e487b7100000000000000000000000000000000000000000000000000000000600052602260045260246000fd5b7f4e487b7100000000000000000000000000000000000000000000000000000000600052604160045260246000fd5b600080fd5b600080fd5b600080fd5b600080fd5b6000601f19601f8301169050919050565b612639816123f9565b811461264457600080fd5b50565b6126508161241d565b811461265b57600080fd5b50565b61266781612453565b811461267257600080fd5b50565b61267e8161245d565b811461268957600080fd5b5056fea2646970667358221220884e6227fc78bf8d06d82d92df0c24d551a7536a11a5b7350c9c4225be4c0f4164736f6c63430008070033a2646970667358221220e0f1f3a3a3cb93de86037cc2f1a2c279c81cd902e89b2b1d573c9731e455168364736f6c63430008070033",
  "linkReferences": {},
  "deployedLinkReferences": {}
}