{
  "_format": "hh-sol-artifact-1",
  "contractName": "UserContract",
  "sourceName": "contracts/userContract.bitsave.sol",
  "abi": [
    {
      "inputs": [
        {
          "internalType": "address",
          "name": "_ownerAddress",
          "type": "address"
        },
        {
          "internalType": "address",
          "name": "_stableCoin",
          "type": "address"
        }
      ],
      "stateMutability": "payable",
      "type": "constructor"
    },
    {
      "inputs": [],
      "name": "AmountNotEnough",
      "type": "error"
    },
    {
      "inputs": [],
      "name": "InvalidSaving",
      "type": "error"
    },
    {
      "inputs": [],
      "name": "InvalidTime",
      "type": "error"
    },
    {
      "inputs": [],
      "name": "NotEnoughToPayGasFee",
      "type": "error"
    },
    {
      "inputs": [],
      "name": "WrongGasContract",
      "type": "error"
    },
    {
      "inputs": [],
      "name": "callNotFromBitsave",
      "type": "error"
    },
    {
      "inputs": [],
      "name": "bitsaveAddress",
      "outputs": [
        {
          "internalType": "address payable",
          "name": "",
          "type": "address"
        }
      ],
      "stateMutability": "view",
      "type": "function"
    },
    {
      "inputs": [
        {
          "internalType": "string",
          "name": "name",
          "type": "string"
        },
        {
          "internalType": "uint256",
          "name": "maturityTime",
          "type": "uint256"
        },
        {
          "internalType": "uint256",
          "name": "startTime",
          "type": "uint256"
        },
        {
          "internalType": "uint8",
          "name": "penaltyPercentage",
          "type": "uint8"
        },
        {
          "internalType": "address",
          "name": "tokenId",
          "type": "address"
        },
        {
          "internalType": "uint256",
          "name": "amountToRetrieve",
          "type": "uint256"
        },
        {
          "internalType": "bool",
          "name": "isSafeMode",
          "type": "bool"
        }
      ],
      "name": "createSaving",
      "outputs": [
        {
          "internalType": "uint256",
          "name": "",
          "type": "uint256"
        }
      ],
      "stateMutability": "payable",
      "type": "function"
    },
    {
      "inputs": [
        {
          "internalType": "string",
          "name": "nameOfSaving",
          "type": "string"
        }
      ],
      "name": "getSavingMode",
      "outputs": [
        {
          "internalType": "bool",
          "name": "",
          "type": "bool"
        }
      ],
      "stateMutability": "view",
      "type": "function"
    },
    {
      "inputs": [
        {
          "internalType": "string",
          "name": "nameOfSaving",
          "type": "string"
        }
      ],
      "name": "getSavingTokenId",
      "outputs": [
        {
          "internalType": "address",
          "name": "",
          "type": "address"
        }
      ],
      "stateMutability": "view",
      "type": "function"
    },
    {
      "inputs": [
        {
          "internalType": "string",
          "name": "nameOfSaving",
          "type": "string"
        }
      ],
      "name": "getSavings",
      "outputs": [
        {
          "components": [
            {
              "internalType": "bool",
              "name": "isValid",
              "type": "bool"
            },
            {
              "internalType": "uint256",
              "name": "amount",
              "type": "uint256"
            },
            {
              "internalType": "address",
              "name": "tokenId",
              "type": "address"
            },
            {
              "internalType": "uint256",
              "name": "interestAccumulated",
              "type": "uint256"
            },
            {
              "internalType": "uint256",
              "name": "startTime",
              "type": "uint256"
            },
            {
              "internalType": "uint256",
              "name": "penaltyPercentage",
              "type": "uint256"
            },
            {
              "internalType": "uint256",
              "name": "maturityTime",
              "type": "uint256"
            },
            {
              "internalType": "bool",
              "name": "isSafeMode",
              "type": "bool"
            }
          ],
          "internalType": "struct UserContract.SavingDataStruct",
          "name": "",
          "type": "tuple"
        }
      ],
      "stateMutability": "view",
      "type": "function"
    },
    {
      "inputs": [],
      "name": "getSavingsNames",
      "outputs": [
        {
          "components": [
            {
              "internalType": "string[]",
              "name": "savingsNames",
              "type": "string[]"
            }
          ],
          "internalType": "struct UserContract.SavingsNamesObj",
          "name": "",
          "type": "tuple"
        }
      ],
      "stateMutability": "view",
      "type": "function"
    },
    {
      "inputs": [
        {
          "internalType": "string",
          "name": "name",
          "type": "string"
        },
        {
          "internalType": "uint256",
          "name": "savingPlusAmount",
          "type": "uint256"
        }
      ],
      "name": "incrementSaving",
      "outputs": [
        {
          "internalType": "uint256",
          "name": "",
          "type": "uint256"
        }
      ],
      "stateMutability": "payable",
      "type": "function"
    },
    {
      "inputs": [
        {
          "internalType": "string",
          "name": "",
          "type": "string"
        }
      ],
      "name": "savings",
      "outputs": [
        {
          "internalType": "bool",
          "name": "isValid",
          "type": "bool"
        },
        {
          "internalType": "uint256",
          "name": "amount",
          "type": "uint256"
        },
        {
          "internalType": "address",
          "name": "tokenId",
          "type": "address"
        },
        {
          "internalType": "uint256",
          "name": "interestAccumulated",
          "type": "uint256"
        },
        {
          "internalType": "uint256",
          "name": "startTime",
          "type": "uint256"
        },
        {
          "internalType": "uint256",
          "name": "penaltyPercentage",
          "type": "uint256"
        },
        {
          "internalType": "uint256",
          "name": "maturityTime",
          "type": "uint256"
        },
        {
          "internalType": "bool",
          "name": "isSafeMode",
          "type": "bool"
        }
      ],
      "stateMutability": "view",
      "type": "function"
    },
    {
      "inputs": [],
      "name": "stableCoin",
      "outputs": [
        {
          "internalType": "address payable",
          "name": "",
          "type": "address"
        }
      ],
      "stateMutability": "view",
      "type": "function"
    },
    {
      "inputs": [
        {
          "internalType": "string",
          "name": "name",
          "type": "string"
        }
      ],
      "name": "withdrawSaving",
      "outputs": [
        {
          "internalType": "string",
          "name": "",
          "type": "string"
        }
      ],
      "stateMutability": "payable",
      "type": "function"
    },
    {
      "stateMutability": "payable",
      "type": "receive"
    }
  ],
  "bytecode": "0x60806040526040516200268f3803806200268f83398181016040528101906200002991906200010a565b336000806101000a81548173ffffffffffffffffffffffffffffffffffffffff021916908373ffffffffffffffffffffffffffffffffffffffff16021790555081600160006101000a81548173ffffffffffffffffffffffffffffffffffffffff021916908373ffffffffffffffffffffffffffffffffffffffff16021790555080600260006101000a81548173ffffffffffffffffffffffffffffffffffffffff021916908373ffffffffffffffffffffffffffffffffffffffff1602179055505050620001a4565b60008151905062000104816200018a565b92915050565b6000806040838503121562000124576200012362000185565b5b60006200013485828601620000f3565b92505060206200014785828601620000f3565b9150509250929050565b60006200015e8262000165565b9050919050565b600073ffffffffffffffffffffffffffffffffffffffff82169050919050565b600080fd5b620001958162000151565b8114620001a157600080fd5b50565b6124db80620001b46000396000f3fe6080604052600436106100955760003560e01c80634282a572116100595780634282a572146101e657806346718f1a14610223578063992642e514610253578063d1ece7901461027e578063e18f5f65146102a9576100d5565b806313203929146100da57806313aa65391461011e5780631bb862a51461014e5780632ae3c90f1461018b578063372f9101146101b6576100d5565b366100d5577f88a5966d370b9919b20f3e2c13ff65706f196a4e32cc2c12bf57088f8852587433346040516100cb929190611dec565b60405180910390a1005b600080fd5b3480156100e657600080fd5b5061010160048036038101906100fc919061192a565b6102e6565b604051610115989796959493929190611e67565b60405180910390f35b610138600480360381019061013391906119cf565b61037e565b6040516101459190611fff565b60405180910390f35b34801561015a57600080fd5b506101756004803603810190610170919061192a565b6106ae565b6040516101829190611e4c565b60405180910390f35b34801561019757600080fd5b506101a06106e6565b6040516101ad9190611d9a565b60405180910390f35b6101d060048036038101906101cb919061192a565b61070a565b6040516101dd9190611f15565b60405180910390f35b3480156101f257600080fd5b5061020d6004803603810190610208919061192a565b610afc565b60405161021a9190611fc1565b60405180910390f35b61023d60048036038101906102389190611973565b610bf3565b60405161024a9190611fff565b60405180910390f35b34801561025f57600080fd5b50610268610f59565b6040516102759190611d9a565b60405180910390f35b34801561028a57600080fd5b50610293610f7f565b6040516102a09190611fdd565b60405180910390f35b3480156102b557600080fd5b506102d060048036038101906102cb919061192a565b611072565b6040516102dd9190611d7f565b60405180910390f35b6003818051602081018201805184825260208301602085012081835280955050505050506000915090508060000160009054906101000a900460ff16908060010154908060020160009054906101000a900473ffffffffffffffffffffffffffffffffffffffff16908060030154908060040154908060050154908060060154908060070160009054906101000a900460ff16905088565b60008060009054906101000a900473ffffffffffffffffffffffffffffffffffffffff1673ffffffffffffffffffffffffffffffffffffffff163373ffffffffffffffffffffffffffffffffffffffff1614610406576040517f8481e97e00000000000000000000000000000000000000000000000000000000815260040160405180910390fd5b6003886040516104169190611d68565b908152602001604051809103902060000160009054906101000a900460ff161561046c576040517fd63d1e4800000000000000000000000000000000000000000000000000000000815260040160405180910390fd5b858710156104a6576040517f6f7eac2600000000000000000000000000000000000000000000000000000000815260040160405180910390fd5b428710156104e0576040517f6f7eac2600000000000000000000000000000000000000000000000000000000815260040160405180910390fd5b600060039050821561051d57610518600260009054906101000a900473ffffffffffffffffffffffffffffffffffffffff16856110bd565b610528565b61052785856110bd565b5b6040518061010001604052806001151581526020018581526020018673ffffffffffffffffffffffffffffffffffffffff1681526020018281526020018881526020018760ff16815260200189815260200184151581525060038a6040516105909190611d68565b908152602001604051809103902060008201518160000160006101000a81548160ff0219169083151502179055506020820151816001015560408201518160020160006101000a81548173ffffffffffffffffffffffffffffffffffffffff021916908373ffffffffffffffffffffffffffffffffffffffff160217905550606082015181600301556080820151816004015560a0820151816005015560c0820151816006015560e08201518160070160006101000a81548160ff0219169083151502179055509050506106638961113c565b7f4ad85a69286191006ea05981ae1848070dbf232e5e00ffdda4b857c16097f0d789858760405161069693929190611f37565b60405180910390a16001915050979650505050505050565b60006003826040516106c09190611d68565b908152602001604051809103902060070160009054906101000a900460ff169050919050565b60008054906101000a900473ffffffffffffffffffffffffffffffffffffffff1681565b606060008054906101000a900473ffffffffffffffffffffffffffffffffffffffff1673ffffffffffffffffffffffffffffffffffffffff163373ffffffffffffffffffffffffffffffffffffffff1614610791576040517f8481e97e00000000000000000000000000000000000000000000000000000000815260040160405180910390fd5b60006003836040516107a39190611d68565b908152602001604051809103902090508060000160009054906101000a900460ff166107fb576040517fd63d1e4800000000000000000000000000000000000000000000000000000000815260040160405180910390fd5b6000816006015442101561083c5760648260050154606461081c91906121de565b836001015461082b9190612184565b6108359190612153565b90506108aa565b600160009054906101000a900473ffffffffffffffffffffffffffffffffffffffff1673ffffffffffffffffffffffffffffffffffffffff166108fc83600301549081150290604051600060405180830381858888f193505050501580156108a8573d6000803e3d6000fd5b505b60008260020160009054906101000a900473ffffffffffffffffffffffffffffffffffffffff1690508260070160009054906101000a900460ff16156109f957600061093960008054906101000a900473ffffffffffffffffffffffffffffffffffffffff1684600260009054906101000a900473ffffffffffffffffffffffffffffffffffffffff1661117e565b905060008060009054906101000a900473ffffffffffffffffffffffffffffffffffffffff1690508073ffffffffffffffffffffffffffffffffffffffff1663de35c3728484600160009054906101000a900473ffffffffffffffffffffffffffffffffffffffff166040518463ffffffff1660e01b81526004016109c093929190611e15565b600060405180830381600087803b1580156109da57600080fd5b505af11580156109ee573d6000803e3d6000fd5b505050505050610a4b565b610a4a8360020160009054906101000a900473ffffffffffffffffffffffffffffffffffffffff16600160009054906101000a900473ffffffffffffffffffffffffffffffffffffffff16846113ea565b5b6000600386604051610a5d9190611d68565b908152602001604051809103902060000160006101000a81548160ff0219169083151502179055507f5b059b7fe1fea38d4de595079621498a365a8f1fa13e49af9f1e4b7197ab049a85604051610ab49190611f15565b60405180910390a16040518060400160405280601e81526020017f736176696e67732077697468647261776e207375636365737366756c6c7900008152509350505050919050565b610b046116a5565b600382604051610b149190611d68565b9081526020016040518091039020604051806101000160405290816000820160009054906101000a900460ff16151515158152602001600182015481526020016002820160009054906101000a900473ffffffffffffffffffffffffffffffffffffffff1673ffffffffffffffffffffffffffffffffffffffff1673ffffffffffffffffffffffffffffffffffffffff168152602001600382015481526020016004820154815260200160058201548152602001600682015481526020016007820160009054906101000a900460ff1615151515815250509050919050565b60008060009054906101000a900473ffffffffffffffffffffffffffffffffffffffff1673ffffffffffffffffffffffffffffffffffffffff163373ffffffffffffffffffffffffffffffffffffffff1614610c7b576040517f8481e97e00000000000000000000000000000000000000000000000000000000815260040160405180910390fd5b6000600384604051610c8d9190611d68565b908152602001604051809103902090508060000160009054906101000a900460ff16610ce5576040517fd63d1e4800000000000000000000000000000000000000000000000000000000815260040160405180910390fd5b8060060154421115610d23576040517f6f7eac2600000000000000000000000000000000000000000000000000000000815260040160405180910390fd5b8060070160009054906101000a900460ff1615610d6b57610d66600260009054906101000a900473ffffffffffffffffffffffffffffffffffffffff16846110bd565b610d9a565b610d998160020160009054906101000a900473ffffffffffffffffffffffffffffffffffffffff16846110bd565b5b600060019050808260030154610db091906120fd565b8260030181905550838260010154610dc891906120fd565b826001018190555081600386604051610de19190611d68565b90815260200160405180910390206000820160009054906101000a900460ff168160000160006101000a81548160ff021916908315150217905550600182015481600101556002820160009054906101000a900473ffffffffffffffffffffffffffffffffffffffff168160020160006101000a81548173ffffffffffffffffffffffffffffffffffffffff021916908373ffffffffffffffffffffffffffffffffffffffff160217905550600382015481600301556004820154816004015560058201548160050155600682015481600601556007820160009054906101000a900460ff168160070160006101000a81548160ff0219169083151502179055509050507ff6b98d8e0d83f8b1d1ff03a2fa36aba2c77ccf20e4ff035c0cf4aa92762e9eec858584600101548560020160009054906101000a900473ffffffffffffffffffffffffffffffffffffffff16604051610f429493929190611f75565b60405180910390a181600301549250505092915050565b600260009054906101000a900473ffffffffffffffffffffffffffffffffffffffff1681565b610f87611704565b600460405180602001604052908160008201805480602002602001604051908101604052809291908181526020016000905b82821015611065578382906000526020600020018054610fd8906122fb565b80601f0160208091040260200160405190810160405280929190818152602001828054611004906122fb565b80156110515780601f1061102657610100808354040283529160200191611051565b820191906000526020600020905b81548152906001019060200180831161103457829003601f168201915b505050505081526020019060010190610fb9565b5050505081525050905090565b60006003826040516110849190611d68565b908152602001604051809103902060020160009054906101000a900473ffffffffffffffffffffffffffffffffffffffff169050919050565b60004790506110ed60008054906101000a900473ffffffffffffffffffffffffffffffffffffffff1684846115be565b60004790508083836110ff91906120fd565b11611136576040517fcb6e851c00000000000000000000000000000000000000000000000000000000815260040160405180910390fd5b50505050565b60046000018190806001815401808255809150506001900390600052602060002001600090919091909150908051906020019061117a929190611717565b5050565b60008060008373ffffffffffffffffffffffffffffffffffffffff1663d9eeebed6040518163ffffffff1660e01b8152600401604080518083038186803b1580156111c857600080fd5b505afa1580156111dc573d6000803e3d6000fd5b505050506040513d601f19601f8201168201806040525081019061120091906118bd565b915091506002816112119190612184565b90508373ffffffffffffffffffffffffffffffffffffffff168273ffffffffffffffffffffffffffffffffffffffff1614611278576040517fcaaa35e700000000000000000000000000000000000000000000000000000000815260040160405180910390fd5b8481106112b1576040517fd0c279a200000000000000000000000000000000000000000000000000000000815260040160405180910390fd5b600081866112bf91906121de565b90508473ffffffffffffffffffffffffffffffffffffffff1663095ea7b386846040518363ffffffff1660e01b81526004016112fc929190611dec565b602060405180830381600087803b15801561131657600080fd5b505af115801561132a573d6000803e3d6000fd5b505050506040513d601f19601f8201168201806040525081019061134e91906118fd565b508473ffffffffffffffffffffffffffffffffffffffff1663095ea7b388836040518363ffffffff1660e01b815260040161138a929190611dec565b602060405180830381600087803b1580156113a457600080fd5b505af11580156113b8573d6000803e3d6000fd5b505050506040513d601f19601f820116820180604052508101906113dc91906118fd565b508093505050509392505050565b60008390506000808273ffffffffffffffffffffffffffffffffffffffff1663d9eeebed6040518163ffffffff1660e01b8152600401604080518083038186803b15801561143757600080fd5b505afa15801561144b573d6000803e3d6000fd5b505050506040513d601f19601f8201168201806040525081019061146f91906118bd565b915091506002816114809190612184565b9050838111156114bc576040517fd0c279a200000000000000000000000000000000000000000000000000000000815260040160405180910390fd5b60006114c786611659565b905060006114d48261167c565b90508473ffffffffffffffffffffffffffffffffffffffff1663c701262682886040518363ffffffff1660e01b8152600401611511929190611ee5565b602060405180830381600087803b15801561152b57600080fd5b505af115801561153f573d6000803e3d6000fd5b505050506040513d601f19601f8201168201806040525081019061156391906118fd565b503073ffffffffffffffffffffffffffffffffffffffff167f5a728b1f316a097ec4f8a742082e66f5c4721e46906f187be4de14736518715282886040516115ac929190611ee5565b60405180910390a25050505050505050565b60003090508273ffffffffffffffffffffffffffffffffffffffff166323b872dd8583856040518463ffffffff1660e01b815260040161160093929190611db5565b602060405180830381600087803b15801561161a57600080fd5b505af115801561162e573d6000803e3d6000fd5b505050506040513d601f19601f8201168201806040525081019061165291906118fd565b5050505050565b60008173ffffffffffffffffffffffffffffffffffffffff1660001b9050919050565b60608160405160200161168f9190611d4d565b6040516020818303038152906040529050919050565b60405180610100016040528060001515815260200160008152602001600073ffffffffffffffffffffffffffffffffffffffff168152602001600081526020016000815260200160008152602001600081526020016000151581525090565b6040518060200160405280606081525090565b828054611723906122fb565b90600052602060002090601f016020900481019282611745576000855561178c565b82601f1061175e57805160ff191683800117855561178c565b8280016001018555821561178c579182015b8281111561178b578251825591602001919060010190611770565b5b509050611799919061179d565b5090565b5b808211156117b657600081600090555060010161179e565b5090565b60006117cd6117c88461203f565b61201a565b9050828152602081018484840111156117e9576117e8612429565b5b6117f48482856122b9565b509392505050565b60008135905061180b81612449565b92915050565b60008151905061182081612449565b92915050565b60008135905061183581612460565b92915050565b60008151905061184a81612460565b92915050565b600082601f83011261186557611864612424565b5b81356118758482602086016117ba565b91505092915050565b60008135905061188d81612477565b92915050565b6000815190506118a281612477565b92915050565b6000813590506118b78161248e565b92915050565b600080604083850312156118d4576118d3612433565b5b60006118e285828601611811565b92505060206118f385828601611893565b9150509250929050565b60006020828403121561191357611912612433565b5b60006119218482850161183b565b91505092915050565b6000602082840312156119405761193f612433565b5b600082013567ffffffffffffffff81111561195e5761195d61242e565b5b61196a84828501611850565b91505092915050565b6000806040838503121561198a57611989612433565b5b600083013567ffffffffffffffff8111156119a8576119a761242e565b5b6119b485828601611850565b92505060206119c58582860161187e565b9150509250929050565b600080600080600080600060e0888a0312156119ee576119ed612433565b5b600088013567ffffffffffffffff811115611a0c57611a0b61242e565b5b611a188a828b01611850565b9750506020611a298a828b0161187e565b9650506040611a3a8a828b0161187e565b9550506060611a4b8a828b016118a8565b9450506080611a5c8a828b016117fc565b93505060a0611a6d8a828b0161187e565b92505060c0611a7e8a828b01611826565b91505092959891949750929550565b6000611a998383611bc0565b905092915050565b611aaa81612283565b82525050565b611ab981612224565b82525050565b611ac881612212565b82525050565b611ad781612212565b82525050565b6000611ae882612080565b611af281856120ae565b935083602082028501611b0485612070565b8060005b85811015611b405784840389528151611b218582611a8d565b9450611b2c836120a1565b925060208a01995050600181019050611b08565b50829750879550505050505092915050565b611b5b81612236565b82525050565b611b6a81612236565b82525050565b611b81611b7c82612242565b61235e565b82525050565b6000611b928261208b565b611b9c81856120bf565b9350611bac8185602086016122c8565b611bb581612438565b840191505092915050565b6000611bcb82612096565b611bd581856120d0565b9350611be58185602086016122c8565b611bee81612438565b840191505092915050565b6000611c0482612096565b611c0e81856120e1565b9350611c1e8185602086016122c8565b611c2781612438565b840191505092915050565b6000611c3d82612096565b611c4781856120f2565b9350611c578185602086016122c8565b80840191505092915050565b61010082016000820151611c7a6000850182611b52565b506020820151611c8d6020850182611d2f565b506040820151611ca06040850182611abf565b506060820151611cb36060850182611d2f565b506080820151611cc66080850182611d2f565b5060a0820151611cd960a0850182611d2f565b5060c0820151611cec60c0850182611d2f565b5060e0820151611cff60e0850182611b52565b50505050565b60006020830160008301518482036000860152611d228282611add565b9150508091505092915050565b611d388161226c565b82525050565b611d478161226c565b82525050565b6000611d598284611b70565b60208201915081905092915050565b6000611d748284611c32565b915081905092915050565b6000602082019050611d946000830184611ace565b92915050565b6000602082019050611daf6000830184611ab0565b92915050565b6000606082019050611dca6000830186611ace565b611dd76020830185611ace565b611de46040830184611d3e565b949350505050565b6000604082019050611e016000830185611ace565b611e0e6020830184611d3e565b9392505050565b6000606082019050611e2a6000830186611ace565b611e376020830185611d3e565b611e446040830184611aa1565b949350505050565b6000602082019050611e616000830184611b61565b92915050565b600061010082019050611e7d600083018b611b61565b611e8a602083018a611d3e565b611e976040830189611ace565b611ea46060830188611d3e565b611eb16080830187611d3e565b611ebe60a0830186611d3e565b611ecb60c0830185611d3e565b611ed860e0830184611b61565b9998505050505050505050565b60006040820190508181036000830152611eff8185611b87565b9050611f0e6020830184611d3e565b9392505050565b60006020820190508181036000830152611f2f8184611bf9565b905092915050565b60006060820190508181036000830152611f518186611bf9565b9050611f606020830185611d3e565b611f6d6040830184611ace565b949350505050565b60006080820190508181036000830152611f8f8187611bf9565b9050611f9e6020830186611d3e565b611fab6040830185611d3e565b611fb86060830184611ace565b95945050505050565b600061010082019050611fd76000830184611c63565b92915050565b60006020820190508181036000830152611ff78184611d05565b905092915050565b60006020820190506120146000830184611d3e565b92915050565b6000612024612035565b9050612030828261232d565b919050565b6000604051905090565b600067ffffffffffffffff82111561205a576120596123f5565b5b61206382612438565b9050602081019050919050565b6000819050602082019050919050565b600081519050919050565b600081519050919050565b600081519050919050565b6000602082019050919050565b600082825260208201905092915050565b600082825260208201905092915050565b600082825260208201905092915050565b600082825260208201905092915050565b600081905092915050565b60006121088261226c565b91506121138361226c565b9250827fffffffffffffffffffffffffffffffffffffffffffffffffffffffffffffffff0382111561214857612147612368565b5b828201905092915050565b600061215e8261226c565b91506121698361226c565b92508261217957612178612397565b5b828204905092915050565b600061218f8261226c565b915061219a8361226c565b9250817fffffffffffffffffffffffffffffffffffffffffffffffffffffffffffffffff04831182151516156121d3576121d2612368565b5b828202905092915050565b60006121e98261226c565b91506121f48361226c565b92508282101561220757612206612368565b5b828203905092915050565b600061221d8261224c565b9050919050565b600061222f8261224c565b9050919050565b60008115159050919050565b6000819050919050565b600073ffffffffffffffffffffffffffffffffffffffff82169050919050565b6000819050919050565b600060ff82169050919050565b600061228e82612295565b9050919050565b60006122a0826122a7565b9050919050565b60006122b28261224c565b9050919050565b82818337600083830152505050565b60005b838110156122e65780820151818401526020810190506122cb565b838111156122f5576000848401525b50505050565b6000600282049050600182168061231357607f821691505b60208210811415612327576123266123c6565b5b50919050565b61233682612438565b810181811067ffffffffffffffff82111715612355576123546123f5565b5b80604052505050565b6000819050919050565b7f4e487b7100000000000000000000000000000000000000000000000000000000600052601160045260246000fd5b7f4e487b7100000000000000000000000000000000000000000000000000000000600052601260045260246000fd5b7f4e487b7100000000000000000000000000000000000000000000000000000000600052602260045260246000fd5b7f4e487b7100000000000000000000000000000000000000000000000000000000600052604160045260246000fd5b600080fd5b600080fd5b600080fd5b600080fd5b6000601f19601f8301169050919050565b61245281612212565b811461245d57600080fd5b50565b61246981612236565b811461247457600080fd5b50565b6124808161226c565b811461248b57600080fd5b50565b61249781612276565b81146124a257600080fd5b5056fea2646970667358221220be87091ea1114ab4b1fd6e664603de0760412c1919f1a1544c9db50bc905d39e64736f6c63430008070033",
  "linkReferences": {},
  "deployedLinkReferences": {}
}