{
  "_format": "hh-sol-artifact-1",
  "contractName": "UserContract",
  "sourceName": "contracts/userContract.bitsave.sol",
  "abi": [
    {
      "inputs": [
        {
          "internalType": "address",
          "name": "_ownerAddress",
          "type": "address"
        },
        {
          "internalType": "address",
          "name": "_stableCoin",
          "type": "address"
        }
      ],
      "stateMutability": "payable",
      "type": "constructor"
    },
    {
      "inputs": [],
      "name": "AmountNotEnough",
      "type": "error"
    },
    {
      "inputs": [],
      "name": "InvalidSaving",
      "type": "error"
    },
    {
      "inputs": [],
      "name": "InvalidTime",
      "type": "error"
    },
    {
      "inputs": [],
      "name": "NotEnoughToPayGasFee",
      "type": "error"
    },
    {
      "inputs": [],
      "name": "WrongGasContract",
      "type": "error"
    },
    {
      "inputs": [],
      "name": "callNotFromBitsave",
      "type": "error"
    },
    {
      "inputs": [],
      "name": "bitsaveAddress",
      "outputs": [
        {
          "internalType": "address payable",
          "name": "",
          "type": "address"
        }
      ],
      "stateMutability": "view",
      "type": "function"
    },
    {
      "inputs": [
        {
          "internalType": "string",
          "name": "name",
          "type": "string"
        },
        {
          "internalType": "uint256",
          "name": "maturityTime",
          "type": "uint256"
        },
        {
          "internalType": "uint256",
          "name": "startTime",
          "type": "uint256"
        },
        {
          "internalType": "uint8",
          "name": "penaltyPercentage",
          "type": "uint8"
        },
        {
          "internalType": "address",
          "name": "tokenId",
          "type": "address"
        },
        {
          "internalType": "uint256",
          "name": "amountToRetrieve",
          "type": "uint256"
        },
        {
          "internalType": "bool",
          "name": "isSafeMode",
          "type": "bool"
        }
      ],
      "name": "createSaving",
      "outputs": [
        {
          "internalType": "uint256",
          "name": "",
          "type": "uint256"
        }
      ],
      "stateMutability": "payable",
      "type": "function"
    },
    {
      "inputs": [
        {
          "internalType": "string",
          "name": "nameOfSaving",
          "type": "string"
        }
      ],
      "name": "getSavingMode",
      "outputs": [
        {
          "internalType": "bool",
          "name": "",
          "type": "bool"
        }
      ],
      "stateMutability": "view",
      "type": "function"
    },
    {
      "inputs": [
        {
          "internalType": "string",
          "name": "nameOfSaving",
          "type": "string"
        }
      ],
      "name": "getSavingTokenId",
      "outputs": [
        {
          "internalType": "address",
          "name": "",
          "type": "address"
        }
      ],
      "stateMutability": "view",
      "type": "function"
    },
    {
      "inputs": [
        {
          "internalType": "string",
          "name": "nameOfSaving",
          "type": "string"
        }
      ],
      "name": "getSavings",
      "outputs": [
        {
          "components": [
            {
              "internalType": "bool",
              "name": "isValid",
              "type": "bool"
            },
            {
              "internalType": "uint256",
              "name": "amount",
              "type": "uint256"
            },
            {
              "internalType": "address",
              "name": "tokenId",
              "type": "address"
            },
            {
              "internalType": "uint256",
              "name": "interestAccumulated",
              "type": "uint256"
            },
            {
              "internalType": "uint256",
              "name": "startTime",
              "type": "uint256"
            },
            {
              "internalType": "uint256",
              "name": "penaltyPercentage",
              "type": "uint256"
            },
            {
              "internalType": "uint256",
              "name": "maturityTime",
              "type": "uint256"
            },
            {
              "internalType": "bool",
              "name": "isSafeMode",
              "type": "bool"
            }
          ],
          "internalType": "struct UserContract.SavingDataStruct",
          "name": "",
          "type": "tuple"
        }
      ],
      "stateMutability": "view",
      "type": "function"
    },
    {
      "inputs": [],
      "name": "getSavingsNames",
      "outputs": [
        {
          "components": [
            {
              "internalType": "string[]",
              "name": "savingsNames",
              "type": "string[]"
            }
          ],
          "internalType": "struct UserContract.SavingsNamesObj",
          "name": "",
          "type": "tuple"
        }
      ],
      "stateMutability": "view",
      "type": "function"
    },
    {
      "inputs": [
        {
          "internalType": "string",
          "name": "name",
          "type": "string"
        },
        {
          "internalType": "uint256",
          "name": "savingPlusAmount",
          "type": "uint256"
        }
      ],
      "name": "incrementSaving",
      "outputs": [
        {
          "internalType": "uint256",
          "name": "",
          "type": "uint256"
        }
      ],
      "stateMutability": "payable",
      "type": "function"
    },
    {
      "inputs": [
        {
          "internalType": "string",
          "name": "",
          "type": "string"
        }
      ],
      "name": "savings",
      "outputs": [
        {
          "internalType": "bool",
          "name": "isValid",
          "type": "bool"
        },
        {
          "internalType": "uint256",
          "name": "amount",
          "type": "uint256"
        },
        {
          "internalType": "address",
          "name": "tokenId",
          "type": "address"
        },
        {
          "internalType": "uint256",
          "name": "interestAccumulated",
          "type": "uint256"
        },
        {
          "internalType": "uint256",
          "name": "startTime",
          "type": "uint256"
        },
        {
          "internalType": "uint256",
          "name": "penaltyPercentage",
          "type": "uint256"
        },
        {
          "internalType": "uint256",
          "name": "maturityTime",
          "type": "uint256"
        },
        {
          "internalType": "bool",
          "name": "isSafeMode",
          "type": "bool"
        }
      ],
      "stateMutability": "view",
      "type": "function"
    },
    {
      "inputs": [],
      "name": "stableCoin",
      "outputs": [
        {
          "internalType": "address payable",
          "name": "",
          "type": "address"
        }
      ],
      "stateMutability": "view",
      "type": "function"
    },
    {
      "inputs": [
        {
          "internalType": "string",
          "name": "name",
          "type": "string"
        }
      ],
      "name": "withdrawSaving",
      "outputs": [
        {
          "internalType": "string",
          "name": "",
          "type": "string"
        }
      ],
      "stateMutability": "payable",
      "type": "function"
    },
    {
      "stateMutability": "payable",
      "type": "receive"
    }
  ],
  "bytecode": "0x6080604052604051620028763803806200287683398181016040528101906200002991906200010a565b336000806101000a81548173ffffffffffffffffffffffffffffffffffffffff021916908373ffffffffffffffffffffffffffffffffffffffff16021790555081600160006101000a81548173ffffffffffffffffffffffffffffffffffffffff021916908373ffffffffffffffffffffffffffffffffffffffff16021790555080600260006101000a81548173ffffffffffffffffffffffffffffffffffffffff021916908373ffffffffffffffffffffffffffffffffffffffff1602179055505050620001a4565b60008151905062000104816200018a565b92915050565b6000806040838503121562000124576200012362000185565b5b60006200013485828601620000f3565b92505060206200014785828601620000f3565b9150509250929050565b60006200015e8262000165565b9050919050565b600073ffffffffffffffffffffffffffffffffffffffff82169050919050565b600080fd5b620001958162000151565b8114620001a157600080fd5b50565b6126c280620001b46000396000f3fe6080604052600436106100955760003560e01c80634282a572116100595780634282a572146101e657806346718f1a14610223578063992642e514610253578063d1ece7901461027e578063e18f5f65146102a9576100d5565b806313203929146100da57806313aa65391461011e5780631bb862a51461014e5780632ae3c90f1461018b578063372f9101146101b6576100d5565b366100d5577f88a5966d370b9919b20f3e2c13ff65706f196a4e32cc2c12bf57088f8852587433346040516100cb929190611fd3565b60405180910390a1005b600080fd5b3480156100e657600080fd5b5061010160048036038101906100fc9190611b11565b6102e6565b60405161011598979695949392919061204e565b60405180910390f35b61013860048036038101906101339190611bb6565b61037e565b60405161014591906121e6565b60405180910390f35b34801561015a57600080fd5b5061017560048036038101906101709190611b11565b610742565b6040516101829190612033565b60405180910390f35b34801561019757600080fd5b506101a061077a565b6040516101ad9190611f81565b60405180910390f35b6101d060048036038101906101cb9190611b11565b61079e565b6040516101dd91906120fc565b60405180910390f35b3480156101f257600080fd5b5061020d60048036038101906102089190611b11565b610b90565b60405161021a91906121a8565b60405180910390f35b61023d60048036038101906102389190611b5a565b610c87565b60405161024a91906121e6565b60405180910390f35b34801561025f57600080fd5b50610268610fed565b6040516102759190611f81565b60405180910390f35b34801561028a57600080fd5b50610293611013565b6040516102a091906121c4565b60405180910390f35b3480156102b557600080fd5b506102d060048036038101906102cb9190611b11565b611106565b6040516102dd9190611f66565b60405180910390f35b6003818051602081018201805184825260208301602085012081835280955050505050506000915090508060000160009054906101000a900460ff16908060010154908060020160009054906101000a900473ffffffffffffffffffffffffffffffffffffffff16908060030154908060040154908060050154908060060154908060070160009054906101000a900460ff16905088565b60008060009054906101000a900473ffffffffffffffffffffffffffffffffffffffff1673ffffffffffffffffffffffffffffffffffffffff163373ffffffffffffffffffffffffffffffffffffffff1614610406576040517f8481e97e00000000000000000000000000000000000000000000000000000000815260040160405180910390fd5b6003886040516104169190611f4f565b908152602001604051809103902060000160009054906101000a900460ff161561046c576040517fd63d1e4800000000000000000000000000000000000000000000000000000000815260040160405180910390fd5b858710156104a6576040517f6f7eac2600000000000000000000000000000000000000000000000000000000815260040160405180910390fd5b428710156104e0576040517f6f7eac2600000000000000000000000000000000000000000000000000000000815260040160405180910390fd5b60006003905082156105b15761052a6040518060400160405280600e81526020017f63726561746520736176696e6773000000000000000000000000000000000000815250611151565b610555600260009054906101000a900473ffffffffffffffffffffffffffffffffffffffff166111ea565b610580600160009054906101000a900473ffffffffffffffffffffffffffffffffffffffff166111ea565b6105ac600260009054906101000a900473ffffffffffffffffffffffffffffffffffffffff1685611283565b6105bc565b6105bb8585611283565b5b6040518061010001604052806001151581526020018581526020018673ffffffffffffffffffffffffffffffffffffffff1681526020018281526020018881526020018760ff16815260200189815260200184151581525060038a6040516106249190611f4f565b908152602001604051809103902060008201518160000160006101000a81548160ff0219169083151502179055506020820151816001015560408201518160020160006101000a81548173ffffffffffffffffffffffffffffffffffffffff021916908373ffffffffffffffffffffffffffffffffffffffff160217905550606082015181600301556080820151816004015560a0820151816005015560c0820151816006015560e08201518160070160006101000a81548160ff0219169083151502179055509050506106f789611302565b7f4ad85a69286191006ea05981ae1848070dbf232e5e00ffdda4b857c16097f0d789858760405161072a9392919061211e565b60405180910390a16001915050979650505050505050565b60006003826040516107549190611f4f565b908152602001604051809103902060070160009054906101000a900460ff169050919050565b60008054906101000a900473ffffffffffffffffffffffffffffffffffffffff1681565b606060008054906101000a900473ffffffffffffffffffffffffffffffffffffffff1673ffffffffffffffffffffffffffffffffffffffff163373ffffffffffffffffffffffffffffffffffffffff1614610825576040517f8481e97e00000000000000000000000000000000000000000000000000000000815260040160405180910390fd5b60006003836040516108379190611f4f565b908152602001604051809103902090508060000160009054906101000a900460ff1661088f576040517fd63d1e4800000000000000000000000000000000000000000000000000000000815260040160405180910390fd5b600081600601544210156108d0576064826005015460646108b091906123c5565b83600101546108bf919061236b565b6108c9919061233a565b905061093e565b600160009054906101000a900473ffffffffffffffffffffffffffffffffffffffff1673ffffffffffffffffffffffffffffffffffffffff166108fc83600301549081150290604051600060405180830381858888f1935050505015801561093c573d6000803e3d6000fd5b505b60008260020160009054906101000a900473ffffffffffffffffffffffffffffffffffffffff1690508260070160009054906101000a900460ff1615610a8d5760006109cd60008054906101000a900473ffffffffffffffffffffffffffffffffffffffff1684600260009054906101000a900473ffffffffffffffffffffffffffffffffffffffff16611344565b905060008060009054906101000a900473ffffffffffffffffffffffffffffffffffffffff1690508073ffffffffffffffffffffffffffffffffffffffff1663de35c3728484600160009054906101000a900473ffffffffffffffffffffffffffffffffffffffff166040518463ffffffff1660e01b8152600401610a5493929190611ffc565b600060405180830381600087803b158015610a6e57600080fd5b505af1158015610a82573d6000803e3d6000fd5b505050505050610adf565b610ade8360020160009054906101000a900473ffffffffffffffffffffffffffffffffffffffff16600160009054906101000a900473ffffffffffffffffffffffffffffffffffffffff16846115b0565b5b6000600386604051610af19190611f4f565b908152602001604051809103902060000160006101000a81548160ff0219169083151502179055507f5b059b7fe1fea38d4de595079621498a365a8f1fa13e49af9f1e4b7197ab049a85604051610b4891906120fc565b60405180910390a16040518060400160405280601e81526020017f736176696e67732077697468647261776e207375636365737366756c6c7900008152509350505050919050565b610b9861188c565b600382604051610ba89190611f4f565b9081526020016040518091039020604051806101000160405290816000820160009054906101000a900460ff16151515158152602001600182015481526020016002820160009054906101000a900473ffffffffffffffffffffffffffffffffffffffff1673ffffffffffffffffffffffffffffffffffffffff1673ffffffffffffffffffffffffffffffffffffffff168152602001600382015481526020016004820154815260200160058201548152602001600682015481526020016007820160009054906101000a900460ff1615151515815250509050919050565b60008060009054906101000a900473ffffffffffffffffffffffffffffffffffffffff1673ffffffffffffffffffffffffffffffffffffffff163373ffffffffffffffffffffffffffffffffffffffff1614610d0f576040517f8481e97e00000000000000000000000000000000000000000000000000000000815260040160405180910390fd5b6000600384604051610d219190611f4f565b908152602001604051809103902090508060000160009054906101000a900460ff16610d79576040517fd63d1e4800000000000000000000000000000000000000000000000000000000815260040160405180910390fd5b8060060154421115610db7576040517f6f7eac2600000000000000000000000000000000000000000000000000000000815260040160405180910390fd5b8060070160009054906101000a900460ff1615610dff57610dfa600260009054906101000a900473ffffffffffffffffffffffffffffffffffffffff1684611283565b610e2e565b610e2d8160020160009054906101000a900473ffffffffffffffffffffffffffffffffffffffff1684611283565b5b600060019050808260030154610e4491906122e4565b8260030181905550838260010154610e5c91906122e4565b826001018190555081600386604051610e759190611f4f565b90815260200160405180910390206000820160009054906101000a900460ff168160000160006101000a81548160ff021916908315150217905550600182015481600101556002820160009054906101000a900473ffffffffffffffffffffffffffffffffffffffff168160020160006101000a81548173ffffffffffffffffffffffffffffffffffffffff021916908373ffffffffffffffffffffffffffffffffffffffff160217905550600382015481600301556004820154816004015560058201548160050155600682015481600601556007820160009054906101000a900460ff168160070160006101000a81548160ff0219169083151502179055509050507ff6b98d8e0d83f8b1d1ff03a2fa36aba2c77ccf20e4ff035c0cf4aa92762e9eec858584600101548560020160009054906101000a900473ffffffffffffffffffffffffffffffffffffffff16604051610fd6949392919061215c565b60405180910390a181600301549250505092915050565b600260009054906101000a900473ffffffffffffffffffffffffffffffffffffffff1681565b61101b6118eb565b600460405180602001604052908160008201805480602002602001604051908101604052809291908181526020016000905b828210156110f957838290600052602060002001805461106c906124e2565b80601f0160208091040260200160405190810160405280929190818152602001828054611098906124e2565b80156110e55780601f106110ba576101008083540402835291602001916110e5565b820191906000526020600020905b8154815290600101906020018083116110c857829003601f168201915b50505050508152602001906001019061104d565b5050505081525050905090565b60006003826040516111189190611f4f565b908152602001604051809103902060020160009054906101000a900473ffffffffffffffffffffffffffffffffffffffff169050919050565b6111e78160405160240161116591906120fc565b6040516020818303038152906040527f41304fac000000000000000000000000000000000000000000000000000000007bffffffffffffffffffffffffffffffffffffffffffffffffffffffff19166020820180517bffffffffffffffffffffffffffffffffffffffffffffffffffffffff8381831617835250505050611784565b50565b611280816040516024016111fe9190611f66565b6040516020818303038152906040527f2c2ecbc2000000000000000000000000000000000000000000000000000000007bffffffffffffffffffffffffffffffffffffffffffffffffffffffff19166020820180517bffffffffffffffffffffffffffffffffffffffffffffffffffffffff8381831617835250505050611784565b50565b60004790506112b360008054906101000a900473ffffffffffffffffffffffffffffffffffffffff1684846117a5565b60004790508083836112c591906122e4565b116112fc576040517fcb6e851c00000000000000000000000000000000000000000000000000000000815260040160405180910390fd5b50505050565b6004600001819080600181540180825580915050600190039060005260206000200160009091909190915090805190602001906113409291906118fe565b5050565b60008060008373ffffffffffffffffffffffffffffffffffffffff1663d9eeebed6040518163ffffffff1660e01b8152600401604080518083038186803b15801561138e57600080fd5b505afa1580156113a2573d6000803e3d6000fd5b505050506040513d601f19601f820116820180604052508101906113c69190611aa4565b915091506002816113d7919061236b565b90508373ffffffffffffffffffffffffffffffffffffffff168273ffffffffffffffffffffffffffffffffffffffff161461143e576040517fcaaa35e700000000000000000000000000000000000000000000000000000000815260040160405180910390fd5b848110611477576040517fd0c279a200000000000000000000000000000000000000000000000000000000815260040160405180910390fd5b6000818661148591906123c5565b90508473ffffffffffffffffffffffffffffffffffffffff1663095ea7b386846040518363ffffffff1660e01b81526004016114c2929190611fd3565b602060405180830381600087803b1580156114dc57600080fd5b505af11580156114f0573d6000803e3d6000fd5b505050506040513d601f19601f820116820180604052508101906115149190611ae4565b508473ffffffffffffffffffffffffffffffffffffffff1663095ea7b388836040518363ffffffff1660e01b8152600401611550929190611fd3565b602060405180830381600087803b15801561156a57600080fd5b505af115801561157e573d6000803e3d6000fd5b505050506040513d601f19601f820116820180604052508101906115a29190611ae4565b508093505050509392505050565b60008390506000808273ffffffffffffffffffffffffffffffffffffffff1663d9eeebed6040518163ffffffff1660e01b8152600401604080518083038186803b1580156115fd57600080fd5b505afa158015611611573d6000803e3d6000fd5b505050506040513d601f19601f820116820180604052508101906116359190611aa4565b91509150600281611646919061236b565b905083811115611682576040517fd0c279a200000000000000000000000000000000000000000000000000000000815260040160405180910390fd5b600061168d86611840565b9050600061169a82611863565b90508473ffffffffffffffffffffffffffffffffffffffff1663c701262682886040518363ffffffff1660e01b81526004016116d79291906120cc565b602060405180830381600087803b1580156116f157600080fd5b505af1158015611705573d6000803e3d6000fd5b505050506040513d601f19601f820116820180604052508101906117299190611ae4565b503073ffffffffffffffffffffffffffffffffffffffff167f5a728b1f316a097ec4f8a742082e66f5c4721e46906f187be4de14736518715282886040516117729291906120cc565b60405180910390a25050505050505050565b60006a636f6e736f6c652e6c6f679050600080835160208501845afa505050565b60003090508273ffffffffffffffffffffffffffffffffffffffff166323b872dd8583856040518463ffffffff1660e01b81526004016117e793929190611f9c565b602060405180830381600087803b15801561180157600080fd5b505af1158015611815573d6000803e3d6000fd5b505050506040513d601f19601f820116820180604052508101906118399190611ae4565b5050505050565b60008173ffffffffffffffffffffffffffffffffffffffff1660001b9050919050565b6060816040516020016118769190611f34565b6040516020818303038152906040529050919050565b60405180610100016040528060001515815260200160008152602001600073ffffffffffffffffffffffffffffffffffffffff168152602001600081526020016000815260200160008152602001600081526020016000151581525090565b6040518060200160405280606081525090565b82805461190a906124e2565b90600052602060002090601f01602090048101928261192c5760008555611973565b82601f1061194557805160ff1916838001178555611973565b82800160010185558215611973579182015b82811115611972578251825591602001919060010190611957565b5b5090506119809190611984565b5090565b5b8082111561199d576000816000905550600101611985565b5090565b60006119b46119af84612226565b612201565b9050828152602081018484840111156119d0576119cf612610565b5b6119db8482856124a0565b509392505050565b6000813590506119f281612630565b92915050565b600081519050611a0781612630565b92915050565b600081359050611a1c81612647565b92915050565b600081519050611a3181612647565b92915050565b600082601f830112611a4c57611a4b61260b565b5b8135611a5c8482602086016119a1565b91505092915050565b600081359050611a748161265e565b92915050565b600081519050611a898161265e565b92915050565b600081359050611a9e81612675565b92915050565b60008060408385031215611abb57611aba61261a565b5b6000611ac9858286016119f8565b9250506020611ada85828601611a7a565b9150509250929050565b600060208284031215611afa57611af961261a565b5b6000611b0884828501611a22565b91505092915050565b600060208284031215611b2757611b2661261a565b5b600082013567ffffffffffffffff811115611b4557611b44612615565b5b611b5184828501611a37565b91505092915050565b60008060408385031215611b7157611b7061261a565b5b600083013567ffffffffffffffff811115611b8f57611b8e612615565b5b611b9b85828601611a37565b9250506020611bac85828601611a65565b9150509250929050565b600080600080600080600060e0888a031215611bd557611bd461261a565b5b600088013567ffffffffffffffff811115611bf357611bf2612615565b5b611bff8a828b01611a37565b9750506020611c108a828b01611a65565b9650506040611c218a828b01611a65565b9550506060611c328a828b01611a8f565b9450506080611c438a828b016119e3565b93505060a0611c548a828b01611a65565b92505060c0611c658a828b01611a0d565b91505092959891949750929550565b6000611c808383611da7565b905092915050565b611c918161246a565b82525050565b611ca08161240b565b82525050565b611caf816123f9565b82525050565b611cbe816123f9565b82525050565b6000611ccf82612267565b611cd98185612295565b935083602082028501611ceb85612257565b8060005b85811015611d275784840389528151611d088582611c74565b9450611d1383612288565b925060208a01995050600181019050611cef565b50829750879550505050505092915050565b611d428161241d565b82525050565b611d518161241d565b82525050565b611d68611d6382612429565b612545565b82525050565b6000611d7982612272565b611d8381856122a6565b9350611d938185602086016124af565b611d9c8161261f565b840191505092915050565b6000611db28261227d565b611dbc81856122b7565b9350611dcc8185602086016124af565b611dd58161261f565b840191505092915050565b6000611deb8261227d565b611df581856122c8565b9350611e058185602086016124af565b611e0e8161261f565b840191505092915050565b6000611e248261227d565b611e2e81856122d9565b9350611e3e8185602086016124af565b80840191505092915050565b61010082016000820151611e616000850182611d39565b506020820151611e746020850182611f16565b506040820151611e876040850182611ca6565b506060820151611e9a6060850182611f16565b506080820151611ead6080850182611f16565b5060a0820151611ec060a0850182611f16565b5060c0820151611ed360c0850182611f16565b5060e0820151611ee660e0850182611d39565b50505050565b60006020830160008301518482036000860152611f098282611cc4565b9150508091505092915050565b611f1f81612453565b82525050565b611f2e81612453565b82525050565b6000611f408284611d57565b60208201915081905092915050565b6000611f5b8284611e19565b915081905092915050565b6000602082019050611f7b6000830184611cb5565b92915050565b6000602082019050611f966000830184611c97565b92915050565b6000606082019050611fb16000830186611cb5565b611fbe6020830185611cb5565b611fcb6040830184611f25565b949350505050565b6000604082019050611fe86000830185611cb5565b611ff56020830184611f25565b9392505050565b60006060820190506120116000830186611cb5565b61201e6020830185611f25565b61202b6040830184611c88565b949350505050565b60006020820190506120486000830184611d48565b92915050565b600061010082019050612064600083018b611d48565b612071602083018a611f25565b61207e6040830189611cb5565b61208b6060830188611f25565b6120986080830187611f25565b6120a560a0830186611f25565b6120b260c0830185611f25565b6120bf60e0830184611d48565b9998505050505050505050565b600060408201905081810360008301526120e68185611d6e565b90506120f56020830184611f25565b9392505050565b600060208201905081810360008301526121168184611de0565b905092915050565b600060608201905081810360008301526121388186611de0565b90506121476020830185611f25565b6121546040830184611cb5565b949350505050565b600060808201905081810360008301526121768187611de0565b90506121856020830186611f25565b6121926040830185611f25565b61219f6060830184611cb5565b95945050505050565b6000610100820190506121be6000830184611e4a565b92915050565b600060208201905081810360008301526121de8184611eec565b905092915050565b60006020820190506121fb6000830184611f25565b92915050565b600061220b61221c565b90506122178282612514565b919050565b6000604051905090565b600067ffffffffffffffff821115612241576122406125dc565b5b61224a8261261f565b9050602081019050919050565b6000819050602082019050919050565b600081519050919050565b600081519050919050565b600081519050919050565b6000602082019050919050565b600082825260208201905092915050565b600082825260208201905092915050565b600082825260208201905092915050565b600082825260208201905092915050565b600081905092915050565b60006122ef82612453565b91506122fa83612453565b9250827fffffffffffffffffffffffffffffffffffffffffffffffffffffffffffffffff0382111561232f5761232e61254f565b5b828201905092915050565b600061234582612453565b915061235083612453565b9250826123605761235f61257e565b5b828204905092915050565b600061237682612453565b915061238183612453565b9250817fffffffffffffffffffffffffffffffffffffffffffffffffffffffffffffffff04831182151516156123ba576123b961254f565b5b828202905092915050565b60006123d082612453565b91506123db83612453565b9250828210156123ee576123ed61254f565b5b828203905092915050565b600061240482612433565b9050919050565b600061241682612433565b9050919050565b60008115159050919050565b6000819050919050565b600073ffffffffffffffffffffffffffffffffffffffff82169050919050565b6000819050919050565b600060ff82169050919050565b60006124758261247c565b9050919050565b60006124878261248e565b9050919050565b600061249982612433565b9050919050565b82818337600083830152505050565b60005b838110156124cd5780820151818401526020810190506124b2565b838111156124dc576000848401525b50505050565b600060028204905060018216806124fa57607f821691505b6020821081141561250e5761250d6125ad565b5b50919050565b61251d8261261f565b810181811067ffffffffffffffff8211171561253c5761253b6125dc565b5b80604052505050565b6000819050919050565b7f4e487b7100000000000000000000000000000000000000000000000000000000600052601160045260246000fd5b7f4e487b7100000000000000000000000000000000000000000000000000000000600052601260045260246000fd5b7f4e487b7100000000000000000000000000000000000000000000000000000000600052602260045260246000fd5b7f4e487b7100000000000000000000000000000000000000000000000000000000600052604160045260246000fd5b600080fd5b600080fd5b600080fd5b600080fd5b6000601f19601f8301169050919050565b612639816123f9565b811461264457600080fd5b50565b6126508161241d565b811461265b57600080fd5b50565b61266781612453565b811461267257600080fd5b50565b61267e8161245d565b811461268957600080fd5b5056fea2646970667358221220884e6227fc78bf8d06d82d92df0c24d551a7536a11a5b7350c9c4225be4c0f4164736f6c63430008070033",
  "linkReferences": {},
  "deployedLinkReferences": {}
}