{"contracts/userContract.bitsave.sol":{"UserContract":{"abi":[{"inputs":[{"internalType":"address","name":"_ownerAddress","type":"address"},{"internalType":"address","name":"_stableCoin","type":"address"}],"stateMutability":"payable","type":"constructor"},{"inputs":[],"name":"AmountNotEnough","type":"error"},{"inputs":[],"name":"InvalidSaving","type":"error"},{"inputs":[],"name":"InvalidTime","type":"error"},{"inputs":[],"name":"NotEnoughToPayGasFee","type":"error"},{"inputs":[],"name":"WrongGasContract","type":"error"},{"inputs":[],"name":"callNotFromBitsave","type":"error"},{"inputs":[],"name":"bitsaveAddress","outputs":[{"internalType":"address","name":"","type":"address"}],"stateMutability":"view","type":"function"},{"inputs":[{"internalType":"string","name":"name","type":"string"},{"internalType":"uint256","name":"maturityTime","type":"uint256"},{"internalType":"uint256","name":"startTime","type":"uint256"},{"internalType":"uint8","name":"penaltyPercentage","type":"uint8"},{"internalType":"address","name":"tokenId","type":"address"},{"internalType":"uint256","name":"amountToRetrieve","type":"uint256"},{"internalType":"bool","name":"isSafeMode","type":"bool"}],"name":"createSaving","outputs":[{"internalType":"uint256","name":"","type":"uint256"}],"stateMutability":"payable","type":"function"},{"inputs":[{"internalType":"string","name":"nameOfSaving","type":"string"}],"name":"getSavingMode","outputs":[{"internalType":"bool","name":"","type":"bool"}],"stateMutability":"view","type":"function"},{"inputs":[{"internalType":"string","name":"nameOfSaving","type":"string"}],"name":"getSavingTokenId","outputs":[{"internalType":"address","name":"","type":"address"}],"stateMutability":"view","type":"function"},{"inputs":[{"internalType":"string","name":"nameOfSaving","type":"string"}],"name":"getSavings","outputs":[{"components":[{"internalType":"bool","name":"isValid","type":"bool"},{"internalType":"uint256","name":"amount","type":"uint256"},{"internalType":"address","name":"tokenId","type":"address"},{"internalType":"uint256","name":"interestAccumulated","type":"uint256"},{"internalType":"uint256","name":"startTime","type":"uint256"},{"internalType":"uint256","name":"penaltyPercentage","type":"uint256"},{"internalType":"uint256","name":"maturityTime","type":"uint256"},{"internalType":"bool","name":"isSafeMode","type":"bool"}],"internalType":"struct UserContract.SavingDataStruct","name":"","type":"tuple"}],"stateMutability":"view","type":"function"},{"inputs":[{"internalType":"string","name":"name","type":"string"},{"internalType":"uint256","name":"savingPlusAmount","type":"uint256"}],"name":"incrementSaving","outputs":[{"internalType":"uint256","name":"","type":"uint256"}],"stateMutability":"payable","type":"function"},{"inputs":[],"name":"stableCoin","outputs":[{"internalType":"address payable","name":"","type":"address"}],"stateMutability":"view","type":"function"},{"inputs":[{"internalType":"string","name":"name","type":"string"}],"name":"withdrawSaving","outputs":[{"internalType":"string","name":"","type":"string"}],"stateMutability":"payable","type":"function"}],"evm":{"bytecode":{"linkReferences":{},"object":"6080604052604051620022ea380380620022ea83398181016040528101906200002991906200010a565b336000806101000a81548173ffffffffffffffffffffffffffffffffffffffff021916908373ffffffffffffffffffffffffffffffffffffffff16021790555081600160006101000a81548173ffffffffffffffffffffffffffffffffffffffff021916908373ffffffffffffffffffffffffffffffffffffffff16021790555080600260006101000a81548173ffffffffffffffffffffffffffffffffffffffff021916908373ffffffffffffffffffffffffffffffffffffffff1602179055505050620001a4565b60008151905062000104816200018a565b92915050565b6000806040838503121562000124576200012362000185565b5b60006200013485828601620000f3565b92505060206200014785828601620000f3565b9150509250929050565b60006200015e8262000165565b9050919050565b600073ffffffffffffffffffffffffffffffffffffffff82169050919050565b600080fd5b620001958162000151565b8114620001a157600080fd5b50565b61213680620001b46000396000f3fe60806040526004361061007b5760003560e01c80634282a5721161004e5780634282a5721461014857806346718f1a14610185578063992642e5146101b5578063e18f5f65146101e05761007b565b806313aa6539146100805780631bb862a5146100b05780632ae3c90f146100ed578063372f910114610118575b600080fd5b61009a60048036038101906100959190611861565b61021d565b6040516100a79190611d05565b60405180910390f35b3480156100bc57600080fd5b506100d760048036038101906100d291906117bc565b6105d8565b6040516100e49190611bf2565b60405180910390f35b3480156100f957600080fd5b50610102610610565b60405161010f9190611b25565b60405180910390f35b610132600480360381019061012d91906117bc565b610634565b60405161013f9190611c3d565b60405180910390f35b34801561015457600080fd5b5061016f600480360381019061016a91906117bc565b610a26565b60405161017c9190611ce9565b60405180910390f35b61019f600480360381019061019a9190611805565b610b1d565b6040516101ac9190611d05565b60405180910390f35b3480156101c157600080fd5b506101ca610e83565b6040516101d79190611b40565b60405180910390f35b3480156101ec57600080fd5b50610207600480360381019061020291906117bc565b610ea9565b6040516102149190611b25565b60405180910390f35b60008060009054906101000a900473ffffffffffffffffffffffffffffffffffffffff1673ffffffffffffffffffffffffffffffffffffffff163373ffffffffffffffffffffffffffffffffffffffff16146102a5576040517f8481e97e00000000000000000000000000000000000000000000000000000000815260040160405180910390fd5b6003886040516102b59190611b0e565b908152602001604051809103902060000160009054906101000a900460ff161561030b576040517fd63d1e4800000000000000000000000000000000000000000000000000000000815260040160405180910390fd5b85871015610345576040517f6f7eac2600000000000000000000000000000000000000000000000000000000815260040160405180910390fd5b4287101561037f576040517f6f7eac2600000000000000000000000000000000000000000000000000000000815260040160405180910390fd5b6000600390508215610450576103c96040518060400160405280600e81526020017f63726561746520736176696e6773000000000000000000000000000000000000815250610ef4565b6103f4600260009054906101000a900473ffffffffffffffffffffffffffffffffffffffff16610f8d565b61041f600160009054906101000a900473ffffffffffffffffffffffffffffffffffffffff16610f8d565b61044b600260009054906101000a900473ffffffffffffffffffffffffffffffffffffffff1685611026565b61045b565b61045a8585611026565b5b6040518061010001604052806001151581526020018581526020018673ffffffffffffffffffffffffffffffffffffffff1681526020018281526020018881526020018760ff16815260200189815260200184151581525060038a6040516104c39190611b0e565b908152602001604051809103902060008201518160000160006101000a81548160ff0219169083151502179055506020820151816001015560408201518160020160006101000a81548173ffffffffffffffffffffffffffffffffffffffff021916908373ffffffffffffffffffffffffffffffffffffffff160217905550606082015181600301556080820151816004015560a0820151816005015560c0820151816006015560e08201518160070160006101000a81548160ff0219169083151502179055509050507f4ad85a69286191006ea05981ae1848070dbf232e5e00ffdda4b857c16097f0d78985876040516105c093929190611c5f565b60405180910390a16001915050979650505050505050565b60006003826040516105ea9190611b0e565b908152602001604051809103902060070160009054906101000a900460ff169050919050565b60008054906101000a900473ffffffffffffffffffffffffffffffffffffffff1681565b606060008054906101000a900473ffffffffffffffffffffffffffffffffffffffff1673ffffffffffffffffffffffffffffffffffffffff163373ffffffffffffffffffffffffffffffffffffffff16146106bb576040517f8481e97e00000000000000000000000000000000000000000000000000000000815260040160405180910390fd5b60006003836040516106cd9190611b0e565b908152602001604051809103902090508060000160009054906101000a900460ff16610725576040517fd63d1e4800000000000000000000000000000000000000000000000000000000815260040160405180910390fd5b60008160060154421015610766576064826005015460646107469190611e9a565b83600101546107559190611e40565b61075f9190611e0f565b90506107d4565b600160009054906101000a900473ffffffffffffffffffffffffffffffffffffffff1673ffffffffffffffffffffffffffffffffffffffff166108fc83600301549081150290604051600060405180830381858888f193505050501580156107d2573d6000803e3d6000fd5b505b60008260020160009054906101000a900473ffffffffffffffffffffffffffffffffffffffff1690508260070160009054906101000a900460ff161561092357600061086360008054906101000a900473ffffffffffffffffffffffffffffffffffffffff1684600260009054906101000a900473ffffffffffffffffffffffffffffffffffffffff166110a5565b905060008060009054906101000a900473ffffffffffffffffffffffffffffffffffffffff1690508073ffffffffffffffffffffffffffffffffffffffff1663de35c3728484600160009054906101000a900473ffffffffffffffffffffffffffffffffffffffff166040518463ffffffff1660e01b81526004016108ea93929190611bbb565b600060405180830381600087803b15801561090457600080fd5b505af1158015610918573d6000803e3d6000fd5b505050505050610975565b6109748360020160009054906101000a900473ffffffffffffffffffffffffffffffffffffffff16600160009054906101000a900473ffffffffffffffffffffffffffffffffffffffff1684611311565b5b60006003866040516109879190611b0e565b908152602001604051809103902060000160006101000a81548160ff0219169083151502179055507f5b059b7fe1fea38d4de595079621498a365a8f1fa13e49af9f1e4b7197ab049a856040516109de9190611c3d565b60405180910390a16040518060400160405280601e81526020017f736176696e67732077697468647261776e207375636365737366756c6c7900008152509350505050919050565b610a2e6115ed565b600382604051610a3e9190611b0e565b9081526020016040518091039020604051806101000160405290816000820160009054906101000a900460ff16151515158152602001600182015481526020016002820160009054906101000a900473ffffffffffffffffffffffffffffffffffffffff1673ffffffffffffffffffffffffffffffffffffffff1673ffffffffffffffffffffffffffffffffffffffff168152602001600382015481526020016004820154815260200160058201548152602001600682015481526020016007820160009054906101000a900460ff1615151515815250509050919050565b60008060009054906101000a900473ffffffffffffffffffffffffffffffffffffffff1673ffffffffffffffffffffffffffffffffffffffff163373ffffffffffffffffffffffffffffffffffffffff1614610ba5576040517f8481e97e00000000000000000000000000000000000000000000000000000000815260040160405180910390fd5b6000600384604051610bb79190611b0e565b908152602001604051809103902090508060000160009054906101000a900460ff16610c0f576040517fd63d1e4800000000000000000000000000000000000000000000000000000000815260040160405180910390fd5b8060060154421115610c4d576040517f6f7eac2600000000000000000000000000000000000000000000000000000000815260040160405180910390fd5b8060070160009054906101000a900460ff1615610c9557610c90600260009054906101000a900473ffffffffffffffffffffffffffffffffffffffff1684611026565b610cc4565b610cc38160020160009054906101000a900473ffffffffffffffffffffffffffffffffffffffff1684611026565b5b600060019050808260030154610cda9190611db9565b8260030181905550838260010154610cf29190611db9565b826001018190555081600386604051610d0b9190611b0e565b90815260200160405180910390206000820160009054906101000a900460ff168160000160006101000a81548160ff021916908315150217905550600182015481600101556002820160009054906101000a900473ffffffffffffffffffffffffffffffffffffffff168160020160006101000a81548173ffffffffffffffffffffffffffffffffffffffff021916908373ffffffffffffffffffffffffffffffffffffffff160217905550600382015481600301556004820154816004015560058201548160050155600682015481600601556007820160009054906101000a900460ff168160070160006101000a81548160ff0219169083151502179055509050507ff6b98d8e0d83f8b1d1ff03a2fa36aba2c77ccf20e4ff035c0cf4aa92762e9eec858584600101548560020160009054906101000a900473ffffffffffffffffffffffffffffffffffffffff16604051610e6c9493929190611c9d565b60405180910390a181600301549250505092915050565b600260009054906101000a900473ffffffffffffffffffffffffffffffffffffffff1681565b6000600382604051610ebb9190611b0e565b908152602001604051809103902060020160009054906101000a900473ffffffffffffffffffffffffffffffffffffffff169050919050565b610f8a81604051602401610f089190611c3d565b6040516020818303038152906040527f41304fac000000000000000000000000000000000000000000000000000000007bffffffffffffffffffffffffffffffffffffffffffffffffffffffff19166020820180517bffffffffffffffffffffffffffffffffffffffffffffffffffffffff83818316178352505050506114e5565b50565b61102381604051602401610fa19190611b25565b6040516020818303038152906040527f2c2ecbc2000000000000000000000000000000000000000000000000000000007bffffffffffffffffffffffffffffffffffffffffffffffffffffffff19166020820180517bffffffffffffffffffffffffffffffffffffffffffffffffffffffff83818316178352505050506114e5565b50565b600047905061105660008054906101000a900473ffffffffffffffffffffffffffffffffffffffff168484611506565b60004790508083836110689190611db9565b1161109f576040517fcb6e851c00000000000000000000000000000000000000000000000000000000815260040160405180910390fd5b50505050565b60008060008373ffffffffffffffffffffffffffffffffffffffff1663d9eeebed6040518163ffffffff1660e01b8152600401604080518083038186803b1580156110ef57600080fd5b505afa158015611103573d6000803e3d6000fd5b505050506040513d601f19601f82011682018060405250810190611127919061174f565b915091506002816111389190611e40565b90508373ffffffffffffffffffffffffffffffffffffffff168273ffffffffffffffffffffffffffffffffffffffff161461119f576040517fcaaa35e700000000000000000000000000000000000000000000000000000000815260040160405180910390fd5b8481106111d8576040517fd0c279a200000000000000000000000000000000000000000000000000000000815260040160405180910390fd5b600081866111e69190611e9a565b90508473ffffffffffffffffffffffffffffffffffffffff1663095ea7b386846040518363ffffffff1660e01b8152600401611223929190611b92565b602060405180830381600087803b15801561123d57600080fd5b505af1158015611251573d6000803e3d6000fd5b505050506040513d601f19601f82011682018060405250810190611275919061178f565b508473ffffffffffffffffffffffffffffffffffffffff1663095ea7b388836040518363ffffffff1660e01b81526004016112b1929190611b92565b602060405180830381600087803b1580156112cb57600080fd5b505af11580156112df573d6000803e3d6000fd5b505050506040513d601f19601f82011682018060405250810190611303919061178f565b508093505050509392505050565b60008390506000808273ffffffffffffffffffffffffffffffffffffffff1663d9eeebed6040518163ffffffff1660e01b8152600401604080518083038186803b15801561135e57600080fd5b505afa158015611372573d6000803e3d6000fd5b505050506040513d601f19601f82011682018060405250810190611396919061174f565b915091506002816113a79190611e40565b9050838111156113e3576040517fd0c279a200000000000000000000000000000000000000000000000000000000815260040160405180910390fd5b60006113ee866115a1565b905060006113fb826115c4565b90508473ffffffffffffffffffffffffffffffffffffffff1663c701262682886040518363ffffffff1660e01b8152600401611438929190611c0d565b602060405180830381600087803b15801561145257600080fd5b505af1158015611466573d6000803e3d6000fd5b505050506040513d601f19601f8201168201806040525081019061148a919061178f565b503073ffffffffffffffffffffffffffffffffffffffff167f5a728b1f316a097ec4f8a742082e66f5c4721e46906f187be4de14736518715282886040516114d3929190611c0d565b60405180910390a25050505050505050565b60006a636f6e736f6c652e6c6f679050600080835160208501845afa505050565b60003090508273ffffffffffffffffffffffffffffffffffffffff166323b872dd8583856040518463ffffffff1660e01b815260040161154893929190611b5b565b602060405180830381600087803b15801561156257600080fd5b505af1158015611576573d6000803e3d6000fd5b505050506040513d601f19601f8201168201806040525081019061159a919061178f565b5050505050565b60008173ffffffffffffffffffffffffffffffffffffffff1660001b9050919050565b6060816040516020016115d79190611af3565b6040516020818303038152906040529050919050565b60405180610100016040528060001515815260200160008152602001600073ffffffffffffffffffffffffffffffffffffffff168152602001600081526020016000815260200160008152602001600081526020016000151581525090565b600061165f61165a84611d45565b611d20565b90508281526020810184848401111561167b5761167a612084565b5b611686848285611f75565b509392505050565b60008135905061169d816120a4565b92915050565b6000815190506116b2816120a4565b92915050565b6000813590506116c7816120bb565b92915050565b6000815190506116dc816120bb565b92915050565b600082601f8301126116f7576116f661207f565b5b813561170784826020860161164c565b91505092915050565b60008135905061171f816120d2565b92915050565b600081519050611734816120d2565b92915050565b600081359050611749816120e9565b92915050565b600080604083850312156117665761176561208e565b5b6000611774858286016116a3565b925050602061178585828601611725565b9150509250929050565b6000602082840312156117a5576117a461208e565b5b60006117b3848285016116cd565b91505092915050565b6000602082840312156117d2576117d161208e565b5b600082013567ffffffffffffffff8111156117f0576117ef612089565b5b6117fc848285016116e2565b91505092915050565b6000806040838503121561181c5761181b61208e565b5b600083013567ffffffffffffffff81111561183a57611839612089565b5b611846858286016116e2565b925050602061185785828601611710565b9150509250929050565b600080600080600080600060e0888a0312156118805761187f61208e565b5b600088013567ffffffffffffffff81111561189e5761189d612089565b5b6118aa8a828b016116e2565b97505060206118bb8a828b01611710565b96505060406118cc8a828b01611710565b95505060606118dd8a828b0161173a565b94505060806118ee8a828b0161168e565b93505060a06118ff8a828b01611710565b92505060c06119108a828b016116b8565b91505092959891949750929550565b61192881611f3f565b82525050565b61193781611ee0565b82525050565b61194681611ece565b82525050565b61195581611ece565b82525050565b61196481611ef2565b82525050565b61197381611ef2565b82525050565b61198a61198582611efe565b611fe8565b82525050565b600061199b82611d76565b6119a58185611d8c565b93506119b5818560208601611f84565b6119be81612093565b840191505092915050565b60006119d482611d81565b6119de8185611d9d565b93506119ee818560208601611f84565b6119f781612093565b840191505092915050565b6000611a0d82611d81565b611a178185611dae565b9350611a27818560208601611f84565b80840191505092915050565b61010082016000820151611a4a600085018261195b565b506020820151611a5d6020850182611ad5565b506040820151611a70604085018261193d565b506060820151611a836060850182611ad5565b506080820151611a966080850182611ad5565b5060a0820151611aa960a0850182611ad5565b5060c0820151611abc60c0850182611ad5565b5060e0820151611acf60e085018261195b565b50505050565b611ade81611f28565b82525050565b611aed81611f28565b82525050565b6000611aff8284611979565b60208201915081905092915050565b6000611b1a8284611a02565b915081905092915050565b6000602082019050611b3a600083018461194c565b92915050565b6000602082019050611b55600083018461192e565b92915050565b6000606082019050611b70600083018661194c565b611b7d602083018561194c565b611b8a6040830184611ae4565b949350505050565b6000604082019050611ba7600083018561194c565b611bb46020830184611ae4565b9392505050565b6000606082019050611bd0600083018661194c565b611bdd6020830185611ae4565b611bea604083018461191f565b949350505050565b6000602082019050611c07600083018461196a565b92915050565b60006040820190508181036000830152611c278185611990565b9050611c366020830184611ae4565b9392505050565b60006020820190508181036000830152611c5781846119c9565b905092915050565b60006060820190508181036000830152611c7981866119c9565b9050611c886020830185611ae4565b611c95604083018461194c565b949350505050565b60006080820190508181036000830152611cb781876119c9565b9050611cc66020830186611ae4565b611cd36040830185611ae4565b611ce0606083018461194c565b95945050505050565b600061010082019050611cff6000830184611a33565b92915050565b6000602082019050611d1a6000830184611ae4565b92915050565b6000611d2a611d3b565b9050611d368282611fb7565b919050565b6000604051905090565b600067ffffffffffffffff821115611d6057611d5f612050565b5b611d6982612093565b9050602081019050919050565b600081519050919050565b600081519050919050565b600082825260208201905092915050565b600082825260208201905092915050565b600081905092915050565b6000611dc482611f28565b9150611dcf83611f28565b9250827fffffffffffffffffffffffffffffffffffffffffffffffffffffffffffffffff03821115611e0457611e03611ff2565b5b828201905092915050565b6000611e1a82611f28565b9150611e2583611f28565b925082611e3557611e34612021565b5b828204905092915050565b6000611e4b82611f28565b9150611e5683611f28565b9250817fffffffffffffffffffffffffffffffffffffffffffffffffffffffffffffffff0483118215151615611e8f57611e8e611ff2565b5b828202905092915050565b6000611ea582611f28565b9150611eb083611f28565b925082821015611ec357611ec2611ff2565b5b828203905092915050565b6000611ed982611f08565b9050919050565b6000611eeb82611f08565b9050919050565b60008115159050919050565b6000819050919050565b600073ffffffffffffffffffffffffffffffffffffffff82169050919050565b6000819050919050565b600060ff82169050919050565b6000611f4a82611f51565b9050919050565b6000611f5c82611f63565b9050919050565b6000611f6e82611f08565b9050919050565b82818337600083830152505050565b60005b83811015611fa2578082015181840152602081019050611f87565b83811115611fb1576000848401525b50505050565b611fc082612093565b810181811067ffffffffffffffff82111715611fdf57611fde612050565b5b80604052505050565b6000819050919050565b7f4e487b7100000000000000000000000000000000000000000000000000000000600052601160045260246000fd5b7f4e487b7100000000000000000000000000000000000000000000000000000000600052601260045260246000fd5b7f4e487b7100000000000000000000000000000000000000000000000000000000600052604160045260246000fd5b600080fd5b600080fd5b600080fd5b600080fd5b6000601f19601f8301169050919050565b6120ad81611ece565b81146120b857600080fd5b50565b6120c481611ef2565b81146120cf57600080fd5b50565b6120db81611f28565b81146120e657600080fd5b50565b6120f281611f32565b81146120fd57600080fd5b5056fea2646970667358221220ddfcd66ad75cd951fe22b42bc0b81cedf2a417db60e5c8ed13fb06998f210c5d64736f6c63430008070033","opcodes":"PUSH1 0x80 PUSH1 0x40 MSTORE PUSH1 0x40 MLOAD PUSH3 0x22EA CODESIZE SUB DUP1 PUSH3 0x22EA DUP4 CODECOPY DUP2 DUP2 ADD PUSH1 0x40 MSTORE DUP2 ADD SWAP1 PUSH3 0x29 SWAP2 SWAP1 PUSH3 0x10A JUMP JUMPDEST CALLER PUSH1 0x0 DUP1 PUSH2 0x100 EXP DUP2 SLOAD DUP2 PUSH20 0xFFFFFFFFFFFFFFFFFFFFFFFFFFFFFFFFFFFFFFFF MUL NOT AND SWAP1 DUP4 PUSH20 0xFFFFFFFFFFFFFFFFFFFFFFFFFFFFFFFFFFFFFFFF AND MUL OR SWAP1 SSTORE POP DUP2 PUSH1 0x1 PUSH1 0x0 PUSH2 0x100 EXP DUP2 SLOAD DUP2 PUSH20 0xFFFFFFFFFFFFFFFFFFFFFFFFFFFFFFFFFFFFFFFF MUL NOT AND SWAP1 DUP4 PUSH20 0xFFFFFFFFFFFFFFFFFFFFFFFFFFFFFFFFFFFFFFFF AND MUL OR SWAP1 SSTORE POP DUP1 PUSH1 0x2 PUSH1 0x0 PUSH2 0x100 EXP DUP2 SLOAD DUP2 PUSH20 0xFFFFFFFFFFFFFFFFFFFFFFFFFFFFFFFFFFFFFFFF MUL NOT AND SWAP1 DUP4 PUSH20 0xFFFFFFFFFFFFFFFFFFFFFFFFFFFFFFFFFFFFFFFF AND MUL OR SWAP1 SSTORE POP POP POP PUSH3 0x1A4 JUMP JUMPDEST PUSH1 0x0 DUP2 MLOAD SWAP1 POP PUSH3 0x104 DUP2 PUSH3 0x18A JUMP JUMPDEST SWAP3 SWAP2 POP POP JUMP JUMPDEST PUSH1 0x0 DUP1 PUSH1 0x40 DUP4 DUP6 SUB SLT ISZERO PUSH3 0x124 JUMPI PUSH3 0x123 PUSH3 0x185 JUMP JUMPDEST JUMPDEST PUSH1 0x0 PUSH3 0x134 DUP6 DUP3 DUP7 ADD PUSH3 0xF3 JUMP JUMPDEST SWAP3 POP POP PUSH1 0x20 PUSH3 0x147 DUP6 DUP3 DUP7 ADD PUSH3 0xF3 JUMP JUMPDEST SWAP2 POP POP SWAP3 POP SWAP3 SWAP1 POP JUMP JUMPDEST PUSH1 0x0 PUSH3 0x15E DUP3 PUSH3 0x165 JUMP JUMPDEST SWAP1 POP SWAP2 SWAP1 POP JUMP JUMPDEST PUSH1 0x0 PUSH20 0xFFFFFFFFFFFFFFFFFFFFFFFFFFFFFFFFFFFFFFFF DUP3 AND SWAP1 POP SWAP2 SWAP1 POP JUMP JUMPDEST PUSH1 0x0 DUP1 REVERT JUMPDEST PUSH3 0x195 DUP2 PUSH3 0x151 JUMP JUMPDEST DUP2 EQ PUSH3 0x1A1 JUMPI PUSH1 0x0 DUP1 REVERT JUMPDEST POP JUMP JUMPDEST PUSH2 0x2136 DUP1 PUSH3 0x1B4 PUSH1 0x0 CODECOPY PUSH1 0x0 RETURN INVALID PUSH1 0x80 PUSH1 0x40 MSTORE PUSH1 0x4 CALLDATASIZE LT PUSH2 0x7B JUMPI PUSH1 0x0 CALLDATALOAD PUSH1 0xE0 SHR DUP1 PUSH4 0x4282A572 GT PUSH2 0x4E JUMPI DUP1 PUSH4 0x4282A572 EQ PUSH2 0x148 JUMPI DUP1 PUSH4 0x46718F1A EQ PUSH2 0x185 JUMPI DUP1 PUSH4 0x992642E5 EQ PUSH2 0x1B5 JUMPI DUP1 PUSH4 0xE18F5F65 EQ PUSH2 0x1E0 JUMPI PUSH2 0x7B JUMP JUMPDEST DUP1 PUSH4 0x13AA6539 EQ PUSH2 0x80 JUMPI DUP1 PUSH4 0x1BB862A5 EQ PUSH2 0xB0 JUMPI DUP1 PUSH4 0x2AE3C90F EQ PUSH2 0xED JUMPI DUP1 PUSH4 0x372F9101 EQ PUSH2 0x118 JUMPI JUMPDEST PUSH1 0x0 DUP1 REVERT JUMPDEST PUSH2 0x9A PUSH1 0x4 DUP1 CALLDATASIZE SUB DUP2 ADD SWAP1 PUSH2 0x95 SWAP2 SWAP1 PUSH2 0x1861 JUMP JUMPDEST PUSH2 0x21D JUMP JUMPDEST PUSH1 0x40 MLOAD PUSH2 0xA7 SWAP2 SWAP1 PUSH2 0x1D05 JUMP JUMPDEST PUSH1 0x40 MLOAD DUP1 SWAP2 SUB SWAP1 RETURN JUMPDEST CALLVALUE DUP1 ISZERO PUSH2 0xBC JUMPI PUSH1 0x0 DUP1 REVERT JUMPDEST POP PUSH2 0xD7 PUSH1 0x4 DUP1 CALLDATASIZE SUB DUP2 ADD SWAP1 PUSH2 0xD2 SWAP2 SWAP1 PUSH2 0x17BC JUMP JUMPDEST PUSH2 0x5D8 JUMP JUMPDEST PUSH1 0x40 MLOAD PUSH2 0xE4 SWAP2 SWAP1 PUSH2 0x1BF2 JUMP JUMPDEST PUSH1 0x40 MLOAD DUP1 SWAP2 SUB SWAP1 RETURN JUMPDEST CALLVALUE DUP1 ISZERO PUSH2 0xF9 JUMPI PUSH1 0x0 DUP1 REVERT JUMPDEST POP PUSH2 0x102 PUSH2 0x610 JUMP JUMPDEST PUSH1 0x40 MLOAD PUSH2 0x10F SWAP2 SWAP1 PUSH2 0x1B25 JUMP JUMPDEST PUSH1 0x40 MLOAD DUP1 SWAP2 SUB SWAP1 RETURN JUMPDEST PUSH2 0x132 PUSH1 0x4 DUP1 CALLDATASIZE SUB DUP2 ADD SWAP1 PUSH2 0x12D SWAP2 SWAP1 PUSH2 0x17BC JUMP JUMPDEST PUSH2 0x634 JUMP JUMPDEST PUSH1 0x40 MLOAD PUSH2 0x13F SWAP2 SWAP1 PUSH2 0x1C3D JUMP JUMPDEST PUSH1 0x40 MLOAD DUP1 SWAP2 SUB SWAP1 RETURN JUMPDEST CALLVALUE DUP1 ISZERO PUSH2 0x154 JUMPI PUSH1 0x0 DUP1 REVERT JUMPDEST POP PUSH2 0x16F PUSH1 0x4 DUP1 CALLDATASIZE SUB DUP2 ADD SWAP1 PUSH2 0x16A SWAP2 SWAP1 PUSH2 0x17BC JUMP JUMPDEST PUSH2 0xA26 JUMP JUMPDEST PUSH1 0x40 MLOAD PUSH2 0x17C SWAP2 SWAP1 PUSH2 0x1CE9 JUMP JUMPDEST PUSH1 0x40 MLOAD DUP1 SWAP2 SUB SWAP1 RETURN JUMPDEST PUSH2 0x19F PUSH1 0x4 DUP1 CALLDATASIZE SUB DUP2 ADD SWAP1 PUSH2 0x19A SWAP2 SWAP1 PUSH2 0x1805 JUMP JUMPDEST PUSH2 0xB1D JUMP JUMPDEST PUSH1 0x40 MLOAD PUSH2 0x1AC SWAP2 SWAP1 PUSH2 0x1D05 JUMP JUMPDEST PUSH1 0x40 MLOAD DUP1 SWAP2 SUB SWAP1 RETURN JUMPDEST CALLVALUE DUP1 ISZERO PUSH2 0x1C1 JUMPI PUSH1 0x0 DUP1 REVERT JUMPDEST POP PUSH2 0x1CA PUSH2 0xE83 JUMP JUMPDEST PUSH1 0x40 MLOAD PUSH2 0x1D7 SWAP2 SWAP1 PUSH2 0x1B40 JUMP JUMPDEST PUSH1 0x40 MLOAD DUP1 SWAP2 SUB SWAP1 RETURN JUMPDEST CALLVALUE DUP1 ISZERO PUSH2 0x1EC JUMPI PUSH1 0x0 DUP1 REVERT JUMPDEST POP PUSH2 0x207 PUSH1 0x4 DUP1 CALLDATASIZE SUB DUP2 ADD SWAP1 PUSH2 0x202 SWAP2 SWAP1 PUSH2 0x17BC JUMP JUMPDEST PUSH2 0xEA9 JUMP JUMPDEST PUSH1 0x40 MLOAD PUSH2 0x214 SWAP2 SWAP1 PUSH2 0x1B25 JUMP JUMPDEST PUSH1 0x40 MLOAD DUP1 SWAP2 SUB SWAP1 RETURN JUMPDEST PUSH1 0x0 DUP1 PUSH1 0x0 SWAP1 SLOAD SWAP1 PUSH2 0x100 EXP SWAP1 DIV PUSH20 0xFFFFFFFFFFFFFFFFFFFFFFFFFFFFFFFFFFFFFFFF AND PUSH20 0xFFFFFFFFFFFFFFFFFFFFFFFFFFFFFFFFFFFFFFFF AND CALLER PUSH20 0xFFFFFFFFFFFFFFFFFFFFFFFFFFFFFFFFFFFFFFFF AND EQ PUSH2 0x2A5 JUMPI PUSH1 0x40 MLOAD PUSH32 0x8481E97E00000000000000000000000000000000000000000000000000000000 DUP2 MSTORE PUSH1 0x4 ADD PUSH1 0x40 MLOAD DUP1 SWAP2 SUB SWAP1 REVERT JUMPDEST PUSH1 0x3 DUP9 PUSH1 0x40 MLOAD PUSH2 0x2B5 SWAP2 SWAP1 PUSH2 0x1B0E JUMP JUMPDEST SWAP1 DUP2 MSTORE PUSH1 0x20 ADD PUSH1 0x40 MLOAD DUP1 SWAP2 SUB SWAP1 KECCAK256 PUSH1 0x0 ADD PUSH1 0x0 SWAP1 SLOAD SWAP1 PUSH2 0x100 EXP SWAP1 DIV PUSH1 0xFF AND ISZERO PUSH2 0x30B JUMPI PUSH1 0x40 MLOAD PUSH32 0xD63D1E4800000000000000000000000000000000000000000000000000000000 DUP2 MSTORE PUSH1 0x4 ADD PUSH1 0x40 MLOAD DUP1 SWAP2 SUB SWAP1 REVERT JUMPDEST DUP6 DUP8 LT ISZERO PUSH2 0x345 JUMPI PUSH1 0x40 MLOAD PUSH32 0x6F7EAC2600000000000000000000000000000000000000000000000000000000 DUP2 MSTORE PUSH1 0x4 ADD PUSH1 0x40 MLOAD DUP1 SWAP2 SUB SWAP1 REVERT JUMPDEST TIMESTAMP DUP8 LT ISZERO PUSH2 0x37F JUMPI PUSH1 0x40 MLOAD PUSH32 0x6F7EAC2600000000000000000000000000000000000000000000000000000000 DUP2 MSTORE PUSH1 0x4 ADD PUSH1 0x40 MLOAD DUP1 SWAP2 SUB SWAP1 REVERT JUMPDEST PUSH1 0x0 PUSH1 0x3 SWAP1 POP DUP3 ISZERO PUSH2 0x450 JUMPI PUSH2 0x3C9 PUSH1 0x40 MLOAD DUP1 PUSH1 0x40 ADD PUSH1 0x40 MSTORE DUP1 PUSH1 0xE DUP2 MSTORE PUSH1 0x20 ADD PUSH32 0x63726561746520736176696E6773000000000000000000000000000000000000 DUP2 MSTORE POP PUSH2 0xEF4 JUMP JUMPDEST PUSH2 0x3F4 PUSH1 0x2 PUSH1 0x0 SWAP1 SLOAD SWAP1 PUSH2 0x100 EXP SWAP1 DIV PUSH20 0xFFFFFFFFFFFFFFFFFFFFFFFFFFFFFFFFFFFFFFFF AND PUSH2 0xF8D JUMP JUMPDEST PUSH2 0x41F PUSH1 0x1 PUSH1 0x0 SWAP1 SLOAD SWAP1 PUSH2 0x100 EXP SWAP1 DIV PUSH20 0xFFFFFFFFFFFFFFFFFFFFFFFFFFFFFFFFFFFFFFFF AND PUSH2 0xF8D JUMP JUMPDEST PUSH2 0x44B PUSH1 0x2 PUSH1 0x0 SWAP1 SLOAD SWAP1 PUSH2 0x100 EXP SWAP1 DIV PUSH20 0xFFFFFFFFFFFFFFFFFFFFFFFFFFFFFFFFFFFFFFFF AND DUP6 PUSH2 0x1026 JUMP JUMPDEST PUSH2 0x45B JUMP JUMPDEST PUSH2 0x45A DUP6 DUP6 PUSH2 0x1026 JUMP JUMPDEST JUMPDEST PUSH1 0x40 MLOAD DUP1 PUSH2 0x100 ADD PUSH1 0x40 MSTORE DUP1 PUSH1 0x1 ISZERO ISZERO DUP2 MSTORE PUSH1 0x20 ADD DUP6 DUP2 MSTORE PUSH1 0x20 ADD DUP7 PUSH20 0xFFFFFFFFFFFFFFFFFFFFFFFFFFFFFFFFFFFFFFFF AND DUP2 MSTORE PUSH1 0x20 ADD DUP3 DUP2 MSTORE PUSH1 0x20 ADD DUP9 DUP2 MSTORE PUSH1 0x20 ADD DUP8 PUSH1 0xFF AND DUP2 MSTORE PUSH1 0x20 ADD DUP10 DUP2 MSTORE PUSH1 0x20 ADD DUP5 ISZERO ISZERO DUP2 MSTORE POP PUSH1 0x3 DUP11 PUSH1 0x40 MLOAD PUSH2 0x4C3 SWAP2 SWAP1 PUSH2 0x1B0E JUMP JUMPDEST SWAP1 DUP2 MSTORE PUSH1 0x20 ADD PUSH1 0x40 MLOAD DUP1 SWAP2 SUB SWAP1 KECCAK256 PUSH1 0x0 DUP3 ADD MLOAD DUP2 PUSH1 0x0 ADD PUSH1 0x0 PUSH2 0x100 EXP DUP2 SLOAD DUP2 PUSH1 0xFF MUL NOT AND SWAP1 DUP4 ISZERO ISZERO MUL OR SWAP1 SSTORE POP PUSH1 0x20 DUP3 ADD MLOAD DUP2 PUSH1 0x1 ADD SSTORE PUSH1 0x40 DUP3 ADD MLOAD DUP2 PUSH1 0x2 ADD PUSH1 0x0 PUSH2 0x100 EXP DUP2 SLOAD DUP2 PUSH20 0xFFFFFFFFFFFFFFFFFFFFFFFFFFFFFFFFFFFFFFFF MUL NOT AND SWAP1 DUP4 PUSH20 0xFFFFFFFFFFFFFFFFFFFFFFFFFFFFFFFFFFFFFFFF AND MUL OR SWAP1 SSTORE POP PUSH1 0x60 DUP3 ADD MLOAD DUP2 PUSH1 0x3 ADD SSTORE PUSH1 0x80 DUP3 ADD MLOAD DUP2 PUSH1 0x4 ADD SSTORE PUSH1 0xA0 DUP3 ADD MLOAD DUP2 PUSH1 0x5 ADD SSTORE PUSH1 0xC0 DUP3 ADD MLOAD DUP2 PUSH1 0x6 ADD SSTORE PUSH1 0xE0 DUP3 ADD MLOAD DUP2 PUSH1 0x7 ADD PUSH1 0x0 PUSH2 0x100 EXP DUP2 SLOAD DUP2 PUSH1 0xFF MUL NOT AND SWAP1 DUP4 ISZERO ISZERO MUL OR SWAP1 SSTORE POP SWAP1 POP POP PUSH32 0x4AD85A69286191006EA05981AE1848070DBF232E5E00FFDDA4B857C16097F0D7 DUP10 DUP6 DUP8 PUSH1 0x40 MLOAD PUSH2 0x5C0 SWAP4 SWAP3 SWAP2 SWAP1 PUSH2 0x1C5F JUMP JUMPDEST PUSH1 0x40 MLOAD DUP1 SWAP2 SUB SWAP1 LOG1 PUSH1 0x1 SWAP2 POP POP SWAP8 SWAP7 POP POP POP POP POP POP POP JUMP JUMPDEST PUSH1 0x0 PUSH1 0x3 DUP3 PUSH1 0x40 MLOAD PUSH2 0x5EA SWAP2 SWAP1 PUSH2 0x1B0E JUMP JUMPDEST SWAP1 DUP2 MSTORE PUSH1 0x20 ADD PUSH1 0x40 MLOAD DUP1 SWAP2 SUB SWAP1 KECCAK256 PUSH1 0x7 ADD PUSH1 0x0 SWAP1 SLOAD SWAP1 PUSH2 0x100 EXP SWAP1 DIV PUSH1 0xFF AND SWAP1 POP SWAP2 SWAP1 POP JUMP JUMPDEST PUSH1 0x0 DUP1 SLOAD SWAP1 PUSH2 0x100 EXP SWAP1 DIV PUSH20 0xFFFFFFFFFFFFFFFFFFFFFFFFFFFFFFFFFFFFFFFF AND DUP2 JUMP JUMPDEST PUSH1 0x60 PUSH1 0x0 DUP1 SLOAD SWAP1 PUSH2 0x100 EXP SWAP1 DIV PUSH20 0xFFFFFFFFFFFFFFFFFFFFFFFFFFFFFFFFFFFFFFFF AND PUSH20 0xFFFFFFFFFFFFFFFFFFFFFFFFFFFFFFFFFFFFFFFF AND CALLER PUSH20 0xFFFFFFFFFFFFFFFFFFFFFFFFFFFFFFFFFFFFFFFF AND EQ PUSH2 0x6BB JUMPI PUSH1 0x40 MLOAD PUSH32 0x8481E97E00000000000000000000000000000000000000000000000000000000 DUP2 MSTORE PUSH1 0x4 ADD PUSH1 0x40 MLOAD DUP1 SWAP2 SUB SWAP1 REVERT JUMPDEST PUSH1 0x0 PUSH1 0x3 DUP4 PUSH1 0x40 MLOAD PUSH2 0x6CD SWAP2 SWAP1 PUSH2 0x1B0E JUMP JUMPDEST SWAP1 DUP2 MSTORE PUSH1 0x20 ADD PUSH1 0x40 MLOAD DUP1 SWAP2 SUB SWAP1 KECCAK256 SWAP1 POP DUP1 PUSH1 0x0 ADD PUSH1 0x0 SWAP1 SLOAD SWAP1 PUSH2 0x100 EXP SWAP1 DIV PUSH1 0xFF AND PUSH2 0x725 JUMPI PUSH1 0x40 MLOAD PUSH32 0xD63D1E4800000000000000000000000000000000000000000000000000000000 DUP2 MSTORE PUSH1 0x4 ADD PUSH1 0x40 MLOAD DUP1 SWAP2 SUB SWAP1 REVERT JUMPDEST PUSH1 0x0 DUP2 PUSH1 0x6 ADD SLOAD TIMESTAMP LT ISZERO PUSH2 0x766 JUMPI PUSH1 0x64 DUP3 PUSH1 0x5 ADD SLOAD PUSH1 0x64 PUSH2 0x746 SWAP2 SWAP1 PUSH2 0x1E9A JUMP JUMPDEST DUP4 PUSH1 0x1 ADD SLOAD PUSH2 0x755 SWAP2 SWAP1 PUSH2 0x1E40 JUMP JUMPDEST PUSH2 0x75F SWAP2 SWAP1 PUSH2 0x1E0F JUMP JUMPDEST SWAP1 POP PUSH2 0x7D4 JUMP JUMPDEST PUSH1 0x1 PUSH1 0x0 SWAP1 SLOAD SWAP1 PUSH2 0x100 EXP SWAP1 DIV PUSH20 0xFFFFFFFFFFFFFFFFFFFFFFFFFFFFFFFFFFFFFFFF AND PUSH20 0xFFFFFFFFFFFFFFFFFFFFFFFFFFFFFFFFFFFFFFFF AND PUSH2 0x8FC DUP4 PUSH1 0x3 ADD SLOAD SWAP1 DUP2 ISZERO MUL SWAP1 PUSH1 0x40 MLOAD PUSH1 0x0 PUSH1 0x40 MLOAD DUP1 DUP4 SUB DUP2 DUP6 DUP9 DUP9 CALL SWAP4 POP POP POP POP ISZERO DUP1 ISZERO PUSH2 0x7D2 JUMPI RETURNDATASIZE PUSH1 0x0 DUP1 RETURNDATACOPY RETURNDATASIZE PUSH1 0x0 REVERT JUMPDEST POP JUMPDEST PUSH1 0x0 DUP3 PUSH1 0x2 ADD PUSH1 0x0 SWAP1 SLOAD SWAP1 PUSH2 0x100 EXP SWAP1 DIV PUSH20 0xFFFFFFFFFFFFFFFFFFFFFFFFFFFFFFFFFFFFFFFF AND SWAP1 POP DUP3 PUSH1 0x7 ADD PUSH1 0x0 SWAP1 SLOAD SWAP1 PUSH2 0x100 EXP SWAP1 DIV PUSH1 0xFF AND ISZERO PUSH2 0x923 JUMPI PUSH1 0x0 PUSH2 0x863 PUSH1 0x0 DUP1 SLOAD SWAP1 PUSH2 0x100 EXP SWAP1 DIV PUSH20 0xFFFFFFFFFFFFFFFFFFFFFFFFFFFFFFFFFFFFFFFF AND DUP5 PUSH1 0x2 PUSH1 0x0 SWAP1 SLOAD SWAP1 PUSH2 0x100 EXP SWAP1 DIV PUSH20 0xFFFFFFFFFFFFFFFFFFFFFFFFFFFFFFFFFFFFFFFF AND PUSH2 0x10A5 JUMP JUMPDEST SWAP1 POP PUSH1 0x0 DUP1 PUSH1 0x0 SWAP1 SLOAD SWAP1 PUSH2 0x100 EXP SWAP1 DIV PUSH20 0xFFFFFFFFFFFFFFFFFFFFFFFFFFFFFFFFFFFFFFFF AND SWAP1 POP DUP1 PUSH20 0xFFFFFFFFFFFFFFFFFFFFFFFFFFFFFFFFFFFFFFFF AND PUSH4 0xDE35C372 DUP5 DUP5 PUSH1 0x1 PUSH1 0x0 SWAP1 SLOAD SWAP1 PUSH2 0x100 EXP SWAP1 DIV PUSH20 0xFFFFFFFFFFFFFFFFFFFFFFFFFFFFFFFFFFFFFFFF AND PUSH1 0x40 MLOAD DUP5 PUSH4 0xFFFFFFFF AND PUSH1 0xE0 SHL DUP2 MSTORE PUSH1 0x4 ADD PUSH2 0x8EA SWAP4 SWAP3 SWAP2 SWAP1 PUSH2 0x1BBB JUMP JUMPDEST PUSH1 0x0 PUSH1 0x40 MLOAD DUP1 DUP4 SUB DUP2 PUSH1 0x0 DUP8 DUP1 EXTCODESIZE ISZERO DUP1 ISZERO PUSH2 0x904 JUMPI PUSH1 0x0 DUP1 REVERT JUMPDEST POP GAS CALL ISZERO DUP1 ISZERO PUSH2 0x918 JUMPI RETURNDATASIZE PUSH1 0x0 DUP1 RETURNDATACOPY RETURNDATASIZE PUSH1 0x0 REVERT JUMPDEST POP POP POP POP POP POP PUSH2 0x975 JUMP JUMPDEST PUSH2 0x974 DUP4 PUSH1 0x2 ADD PUSH1 0x0 SWAP1 SLOAD SWAP1 PUSH2 0x100 EXP SWAP1 DIV PUSH20 0xFFFFFFFFFFFFFFFFFFFFFFFFFFFFFFFFFFFFFFFF AND PUSH1 0x1 PUSH1 0x0 SWAP1 SLOAD SWAP1 PUSH2 0x100 EXP SWAP1 DIV PUSH20 0xFFFFFFFFFFFFFFFFFFFFFFFFFFFFFFFFFFFFFFFF AND DUP5 PUSH2 0x1311 JUMP JUMPDEST JUMPDEST PUSH1 0x0 PUSH1 0x3 DUP7 PUSH1 0x40 MLOAD PUSH2 0x987 SWAP2 SWAP1 PUSH2 0x1B0E JUMP JUMPDEST SWAP1 DUP2 MSTORE PUSH1 0x20 ADD PUSH1 0x40 MLOAD DUP1 SWAP2 SUB SWAP1 KECCAK256 PUSH1 0x0 ADD PUSH1 0x0 PUSH2 0x100 EXP DUP2 SLOAD DUP2 PUSH1 0xFF MUL NOT AND SWAP1 DUP4 ISZERO ISZERO MUL OR SWAP1 SSTORE POP PUSH32 0x5B059B7FE1FEA38D4DE595079621498A365A8F1FA13E49AF9F1E4B7197AB049A DUP6 PUSH1 0x40 MLOAD PUSH2 0x9DE SWAP2 SWAP1 PUSH2 0x1C3D JUMP JUMPDEST PUSH1 0x40 MLOAD DUP1 SWAP2 SUB SWAP1 LOG1 PUSH1 0x40 MLOAD DUP1 PUSH1 0x40 ADD PUSH1 0x40 MSTORE DUP1 PUSH1 0x1E DUP2 MSTORE PUSH1 0x20 ADD PUSH32 0x736176696E67732077697468647261776E207375636365737366756C6C790000 DUP2 MSTORE POP SWAP4 POP POP POP POP SWAP2 SWAP1 POP JUMP JUMPDEST PUSH2 0xA2E PUSH2 0x15ED JUMP JUMPDEST PUSH1 0x3 DUP3 PUSH1 0x40 MLOAD PUSH2 0xA3E SWAP2 SWAP1 PUSH2 0x1B0E JUMP JUMPDEST SWAP1 DUP2 MSTORE PUSH1 0x20 ADD PUSH1 0x40 MLOAD DUP1 SWAP2 SUB SWAP1 KECCAK256 PUSH1 0x40 MLOAD DUP1 PUSH2 0x100 ADD PUSH1 0x40 MSTORE SWAP1 DUP2 PUSH1 0x0 DUP3 ADD PUSH1 0x0 SWAP1 SLOAD SWAP1 PUSH2 0x100 EXP SWAP1 DIV PUSH1 0xFF AND ISZERO ISZERO ISZERO ISZERO DUP2 MSTORE PUSH1 0x20 ADD PUSH1 0x1 DUP3 ADD SLOAD DUP2 MSTORE PUSH1 0x20 ADD PUSH1 0x2 DUP3 ADD PUSH1 0x0 SWAP1 SLOAD SWAP1 PUSH2 0x100 EXP SWAP1 DIV PUSH20 0xFFFFFFFFFFFFFFFFFFFFFFFFFFFFFFFFFFFFFFFF AND PUSH20 0xFFFFFFFFFFFFFFFFFFFFFFFFFFFFFFFFFFFFFFFF AND PUSH20 0xFFFFFFFFFFFFFFFFFFFFFFFFFFFFFFFFFFFFFFFF AND DUP2 MSTORE PUSH1 0x20 ADD PUSH1 0x3 DUP3 ADD SLOAD DUP2 MSTORE PUSH1 0x20 ADD PUSH1 0x4 DUP3 ADD SLOAD DUP2 MSTORE PUSH1 0x20 ADD PUSH1 0x5 DUP3 ADD SLOAD DUP2 MSTORE PUSH1 0x20 ADD PUSH1 0x6 DUP3 ADD SLOAD DUP2 MSTORE PUSH1 0x20 ADD PUSH1 0x7 DUP3 ADD PUSH1 0x0 SWAP1 SLOAD SWAP1 PUSH2 0x100 EXP SWAP1 DIV PUSH1 0xFF AND ISZERO ISZERO ISZERO ISZERO DUP2 MSTORE POP POP SWAP1 POP SWAP2 SWAP1 POP JUMP JUMPDEST PUSH1 0x0 DUP1 PUSH1 0x0 SWAP1 SLOAD SWAP1 PUSH2 0x100 EXP SWAP1 DIV PUSH20 0xFFFFFFFFFFFFFFFFFFFFFFFFFFFFFFFFFFFFFFFF AND PUSH20 0xFFFFFFFFFFFFFFFFFFFFFFFFFFFFFFFFFFFFFFFF AND CALLER PUSH20 0xFFFFFFFFFFFFFFFFFFFFFFFFFFFFFFFFFFFFFFFF AND EQ PUSH2 0xBA5 JUMPI PUSH1 0x40 MLOAD PUSH32 0x8481E97E00000000000000000000000000000000000000000000000000000000 DUP2 MSTORE PUSH1 0x4 ADD PUSH1 0x40 MLOAD DUP1 SWAP2 SUB SWAP1 REVERT JUMPDEST PUSH1 0x0 PUSH1 0x3 DUP5 PUSH1 0x40 MLOAD PUSH2 0xBB7 SWAP2 SWAP1 PUSH2 0x1B0E JUMP JUMPDEST SWAP1 DUP2 MSTORE PUSH1 0x20 ADD PUSH1 0x40 MLOAD DUP1 SWAP2 SUB SWAP1 KECCAK256 SWAP1 POP DUP1 PUSH1 0x0 ADD PUSH1 0x0 SWAP1 SLOAD SWAP1 PUSH2 0x100 EXP SWAP1 DIV PUSH1 0xFF AND PUSH2 0xC0F JUMPI PUSH1 0x40 MLOAD PUSH32 0xD63D1E4800000000000000000000000000000000000000000000000000000000 DUP2 MSTORE PUSH1 0x4 ADD PUSH1 0x40 MLOAD DUP1 SWAP2 SUB SWAP1 REVERT JUMPDEST DUP1 PUSH1 0x6 ADD SLOAD TIMESTAMP GT ISZERO PUSH2 0xC4D JUMPI PUSH1 0x40 MLOAD PUSH32 0x6F7EAC2600000000000000000000000000000000000000000000000000000000 DUP2 MSTORE PUSH1 0x4 ADD PUSH1 0x40 MLOAD DUP1 SWAP2 SUB SWAP1 REVERT JUMPDEST DUP1 PUSH1 0x7 ADD PUSH1 0x0 SWAP1 SLOAD SWAP1 PUSH2 0x100 EXP SWAP1 DIV PUSH1 0xFF AND ISZERO PUSH2 0xC95 JUMPI PUSH2 0xC90 PUSH1 0x2 PUSH1 0x0 SWAP1 SLOAD SWAP1 PUSH2 0x100 EXP SWAP1 DIV PUSH20 0xFFFFFFFFFFFFFFFFFFFFFFFFFFFFFFFFFFFFFFFF AND DUP5 PUSH2 0x1026 JUMP JUMPDEST PUSH2 0xCC4 JUMP JUMPDEST PUSH2 0xCC3 DUP2 PUSH1 0x2 ADD PUSH1 0x0 SWAP1 SLOAD SWAP1 PUSH2 0x100 EXP SWAP1 DIV PUSH20 0xFFFFFFFFFFFFFFFFFFFFFFFFFFFFFFFFFFFFFFFF AND DUP5 PUSH2 0x1026 JUMP JUMPDEST JUMPDEST PUSH1 0x0 PUSH1 0x1 SWAP1 POP DUP1 DUP3 PUSH1 0x3 ADD SLOAD PUSH2 0xCDA SWAP2 SWAP1 PUSH2 0x1DB9 JUMP JUMPDEST DUP3 PUSH1 0x3 ADD DUP2 SWAP1 SSTORE POP DUP4 DUP3 PUSH1 0x1 ADD SLOAD PUSH2 0xCF2 SWAP2 SWAP1 PUSH2 0x1DB9 JUMP JUMPDEST DUP3 PUSH1 0x1 ADD DUP2 SWAP1 SSTORE POP DUP2 PUSH1 0x3 DUP7 PUSH1 0x40 MLOAD PUSH2 0xD0B SWAP2 SWAP1 PUSH2 0x1B0E JUMP JUMPDEST SWAP1 DUP2 MSTORE PUSH1 0x20 ADD PUSH1 0x40 MLOAD DUP1 SWAP2 SUB SWAP1 KECCAK256 PUSH1 0x0 DUP3 ADD PUSH1 0x0 SWAP1 SLOAD SWAP1 PUSH2 0x100 EXP SWAP1 DIV PUSH1 0xFF AND DUP2 PUSH1 0x0 ADD PUSH1 0x0 PUSH2 0x100 EXP DUP2 SLOAD DUP2 PUSH1 0xFF MUL NOT AND SWAP1 DUP4 ISZERO ISZERO MUL OR SWAP1 SSTORE POP PUSH1 0x1 DUP3 ADD SLOAD DUP2 PUSH1 0x1 ADD SSTORE PUSH1 0x2 DUP3 ADD PUSH1 0x0 SWAP1 SLOAD SWAP1 PUSH2 0x100 EXP SWAP1 DIV PUSH20 0xFFFFFFFFFFFFFFFFFFFFFFFFFFFFFFFFFFFFFFFF AND DUP2 PUSH1 0x2 ADD PUSH1 0x0 PUSH2 0x100 EXP DUP2 SLOAD DUP2 PUSH20 0xFFFFFFFFFFFFFFFFFFFFFFFFFFFFFFFFFFFFFFFF MUL NOT AND SWAP1 DUP4 PUSH20 0xFFFFFFFFFFFFFFFFFFFFFFFFFFFFFFFFFFFFFFFF AND MUL OR SWAP1 SSTORE POP PUSH1 0x3 DUP3 ADD SLOAD DUP2 PUSH1 0x3 ADD SSTORE PUSH1 0x4 DUP3 ADD SLOAD DUP2 PUSH1 0x4 ADD SSTORE PUSH1 0x5 DUP3 ADD SLOAD DUP2 PUSH1 0x5 ADD SSTORE PUSH1 0x6 DUP3 ADD SLOAD DUP2 PUSH1 0x6 ADD SSTORE PUSH1 0x7 DUP3 ADD PUSH1 0x0 SWAP1 SLOAD SWAP1 PUSH2 0x100 EXP SWAP1 DIV PUSH1 0xFF AND DUP2 PUSH1 0x7 ADD PUSH1 0x0 PUSH2 0x100 EXP DUP2 SLOAD DUP2 PUSH1 0xFF MUL NOT AND SWAP1 DUP4 ISZERO ISZERO MUL OR SWAP1 SSTORE POP SWAP1 POP POP PUSH32 0xF6B98D8E0D83F8B1D1FF03A2FA36ABA2C77CCF20E4FF035C0CF4AA92762E9EEC DUP6 DUP6 DUP5 PUSH1 0x1 ADD SLOAD DUP6 PUSH1 0x2 ADD PUSH1 0x0 SWAP1 SLOAD SWAP1 PUSH2 0x100 EXP SWAP1 DIV PUSH20 0xFFFFFFFFFFFFFFFFFFFFFFFFFFFFFFFFFFFFFFFF AND PUSH1 0x40 MLOAD PUSH2 0xE6C SWAP5 SWAP4 SWAP3 SWAP2 SWAP1 PUSH2 0x1C9D JUMP JUMPDEST PUSH1 0x40 MLOAD DUP1 SWAP2 SUB SWAP1 LOG1 DUP2 PUSH1 0x3 ADD SLOAD SWAP3 POP POP POP SWAP3 SWAP2 POP POP JUMP JUMPDEST PUSH1 0x2 PUSH1 0x0 SWAP1 SLOAD SWAP1 PUSH2 0x100 EXP SWAP1 DIV PUSH20 0xFFFFFFFFFFFFFFFFFFFFFFFFFFFFFFFFFFFFFFFF AND DUP2 JUMP JUMPDEST PUSH1 0x0 PUSH1 0x3 DUP3 PUSH1 0x40 MLOAD PUSH2 0xEBB SWAP2 SWAP1 PUSH2 0x1B0E JUMP JUMPDEST SWAP1 DUP2 MSTORE PUSH1 0x20 ADD PUSH1 0x40 MLOAD DUP1 SWAP2 SUB SWAP1 KECCAK256 PUSH1 0x2 ADD PUSH1 0x0 SWAP1 SLOAD SWAP1 PUSH2 0x100 EXP SWAP1 DIV PUSH20 0xFFFFFFFFFFFFFFFFFFFFFFFFFFFFFFFFFFFFFFFF AND SWAP1 POP SWAP2 SWAP1 POP JUMP JUMPDEST PUSH2 0xF8A DUP2 PUSH1 0x40 MLOAD PUSH1 0x24 ADD PUSH2 0xF08 SWAP2 SWAP1 PUSH2 0x1C3D JUMP JUMPDEST PUSH1 0x40 MLOAD PUSH1 0x20 DUP2 DUP4 SUB SUB DUP2 MSTORE SWAP1 PUSH1 0x40 MSTORE PUSH32 0x41304FAC00000000000000000000000000000000000000000000000000000000 PUSH28 0xFFFFFFFFFFFFFFFFFFFFFFFFFFFFFFFFFFFFFFFFFFFFFFFFFFFFFFFF NOT AND PUSH1 0x20 DUP3 ADD DUP1 MLOAD PUSH28 0xFFFFFFFFFFFFFFFFFFFFFFFFFFFFFFFFFFFFFFFFFFFFFFFFFFFFFFFF DUP4 DUP2 DUP4 AND OR DUP4 MSTORE POP POP POP POP PUSH2 0x14E5 JUMP JUMPDEST POP JUMP JUMPDEST PUSH2 0x1023 DUP2 PUSH1 0x40 MLOAD PUSH1 0x24 ADD PUSH2 0xFA1 SWAP2 SWAP1 PUSH2 0x1B25 JUMP JUMPDEST PUSH1 0x40 MLOAD PUSH1 0x20 DUP2 DUP4 SUB SUB DUP2 MSTORE SWAP1 PUSH1 0x40 MSTORE PUSH32 0x2C2ECBC200000000000000000000000000000000000000000000000000000000 PUSH28 0xFFFFFFFFFFFFFFFFFFFFFFFFFFFFFFFFFFFFFFFFFFFFFFFFFFFFFFFF NOT AND PUSH1 0x20 DUP3 ADD DUP1 MLOAD PUSH28 0xFFFFFFFFFFFFFFFFFFFFFFFFFFFFFFFFFFFFFFFFFFFFFFFFFFFFFFFF DUP4 DUP2 DUP4 AND OR DUP4 MSTORE POP POP POP POP PUSH2 0x14E5 JUMP JUMPDEST POP JUMP JUMPDEST PUSH1 0x0 SELFBALANCE SWAP1 POP PUSH2 0x1056 PUSH1 0x0 DUP1 SLOAD SWAP1 PUSH2 0x100 EXP SWAP1 DIV PUSH20 0xFFFFFFFFFFFFFFFFFFFFFFFFFFFFFFFFFFFFFFFF AND DUP5 DUP5 PUSH2 0x1506 JUMP JUMPDEST PUSH1 0x0 SELFBALANCE SWAP1 POP DUP1 DUP4 DUP4 PUSH2 0x1068 SWAP2 SWAP1 PUSH2 0x1DB9 JUMP JUMPDEST GT PUSH2 0x109F JUMPI PUSH1 0x40 MLOAD PUSH32 0xCB6E851C00000000000000000000000000000000000000000000000000000000 DUP2 MSTORE PUSH1 0x4 ADD PUSH1 0x40 MLOAD DUP1 SWAP2 SUB SWAP1 REVERT JUMPDEST POP POP POP POP JUMP JUMPDEST PUSH1 0x0 DUP1 PUSH1 0x0 DUP4 PUSH20 0xFFFFFFFFFFFFFFFFFFFFFFFFFFFFFFFFFFFFFFFF AND PUSH4 0xD9EEEBED PUSH1 0x40 MLOAD DUP2 PUSH4 0xFFFFFFFF AND PUSH1 0xE0 SHL DUP2 MSTORE PUSH1 0x4 ADD PUSH1 0x40 DUP1 MLOAD DUP1 DUP4 SUB DUP2 DUP7 DUP1 EXTCODESIZE ISZERO DUP1 ISZERO PUSH2 0x10EF JUMPI PUSH1 0x0 DUP1 REVERT JUMPDEST POP GAS STATICCALL ISZERO DUP1 ISZERO PUSH2 0x1103 JUMPI RETURNDATASIZE PUSH1 0x0 DUP1 RETURNDATACOPY RETURNDATASIZE PUSH1 0x0 REVERT JUMPDEST POP POP POP POP PUSH1 0x40 MLOAD RETURNDATASIZE PUSH1 0x1F NOT PUSH1 0x1F DUP3 ADD AND DUP3 ADD DUP1 PUSH1 0x40 MSTORE POP DUP2 ADD SWAP1 PUSH2 0x1127 SWAP2 SWAP1 PUSH2 0x174F JUMP JUMPDEST SWAP2 POP SWAP2 POP PUSH1 0x2 DUP2 PUSH2 0x1138 SWAP2 SWAP1 PUSH2 0x1E40 JUMP JUMPDEST SWAP1 POP DUP4 PUSH20 0xFFFFFFFFFFFFFFFFFFFFFFFFFFFFFFFFFFFFFFFF AND DUP3 PUSH20 0xFFFFFFFFFFFFFFFFFFFFFFFFFFFFFFFFFFFFFFFF AND EQ PUSH2 0x119F JUMPI PUSH1 0x40 MLOAD PUSH32 0xCAAA35E700000000000000000000000000000000000000000000000000000000 DUP2 MSTORE PUSH1 0x4 ADD PUSH1 0x40 MLOAD DUP1 SWAP2 SUB SWAP1 REVERT JUMPDEST DUP5 DUP2 LT PUSH2 0x11D8 JUMPI PUSH1 0x40 MLOAD PUSH32 0xD0C279A200000000000000000000000000000000000000000000000000000000 DUP2 MSTORE PUSH1 0x4 ADD PUSH1 0x40 MLOAD DUP1 SWAP2 SUB SWAP1 REVERT JUMPDEST PUSH1 0x0 DUP2 DUP7 PUSH2 0x11E6 SWAP2 SWAP1 PUSH2 0x1E9A JUMP JUMPDEST SWAP1 POP DUP5 PUSH20 0xFFFFFFFFFFFFFFFFFFFFFFFFFFFFFFFFFFFFFFFF AND PUSH4 0x95EA7B3 DUP7 DUP5 PUSH1 0x40 MLOAD DUP4 PUSH4 0xFFFFFFFF AND PUSH1 0xE0 SHL DUP2 MSTORE PUSH1 0x4 ADD PUSH2 0x1223 SWAP3 SWAP2 SWAP1 PUSH2 0x1B92 JUMP JUMPDEST PUSH1 0x20 PUSH1 0x40 MLOAD DUP1 DUP4 SUB DUP2 PUSH1 0x0 DUP8 DUP1 EXTCODESIZE ISZERO DUP1 ISZERO PUSH2 0x123D JUMPI PUSH1 0x0 DUP1 REVERT JUMPDEST POP GAS CALL ISZERO DUP1 ISZERO PUSH2 0x1251 JUMPI RETURNDATASIZE PUSH1 0x0 DUP1 RETURNDATACOPY RETURNDATASIZE PUSH1 0x0 REVERT JUMPDEST POP POP POP POP PUSH1 0x40 MLOAD RETURNDATASIZE PUSH1 0x1F NOT PUSH1 0x1F DUP3 ADD AND DUP3 ADD DUP1 PUSH1 0x40 MSTORE POP DUP2 ADD SWAP1 PUSH2 0x1275 SWAP2 SWAP1 PUSH2 0x178F JUMP JUMPDEST POP DUP5 PUSH20 0xFFFFFFFFFFFFFFFFFFFFFFFFFFFFFFFFFFFFFFFF AND PUSH4 0x95EA7B3 DUP9 DUP4 PUSH1 0x40 MLOAD DUP4 PUSH4 0xFFFFFFFF AND PUSH1 0xE0 SHL DUP2 MSTORE PUSH1 0x4 ADD PUSH2 0x12B1 SWAP3 SWAP2 SWAP1 PUSH2 0x1B92 JUMP JUMPDEST PUSH1 0x20 PUSH1 0x40 MLOAD DUP1 DUP4 SUB DUP2 PUSH1 0x0 DUP8 DUP1 EXTCODESIZE ISZERO DUP1 ISZERO PUSH2 0x12CB JUMPI PUSH1 0x0 DUP1 REVERT JUMPDEST POP GAS CALL ISZERO DUP1 ISZERO PUSH2 0x12DF JUMPI RETURNDATASIZE PUSH1 0x0 DUP1 RETURNDATACOPY RETURNDATASIZE PUSH1 0x0 REVERT JUMPDEST POP POP POP POP PUSH1 0x40 MLOAD RETURNDATASIZE PUSH1 0x1F NOT PUSH1 0x1F DUP3 ADD AND DUP3 ADD DUP1 PUSH1 0x40 MSTORE POP DUP2 ADD SWAP1 PUSH2 0x1303 SWAP2 SWAP1 PUSH2 0x178F JUMP JUMPDEST POP DUP1 SWAP4 POP POP POP POP SWAP4 SWAP3 POP POP POP JUMP JUMPDEST PUSH1 0x0 DUP4 SWAP1 POP PUSH1 0x0 DUP1 DUP3 PUSH20 0xFFFFFFFFFFFFFFFFFFFFFFFFFFFFFFFFFFFFFFFF AND PUSH4 0xD9EEEBED PUSH1 0x40 MLOAD DUP2 PUSH4 0xFFFFFFFF AND PUSH1 0xE0 SHL DUP2 MSTORE PUSH1 0x4 ADD PUSH1 0x40 DUP1 MLOAD DUP1 DUP4 SUB DUP2 DUP7 DUP1 EXTCODESIZE ISZERO DUP1 ISZERO PUSH2 0x135E JUMPI PUSH1 0x0 DUP1 REVERT JUMPDEST POP GAS STATICCALL ISZERO DUP1 ISZERO PUSH2 0x1372 JUMPI RETURNDATASIZE PUSH1 0x0 DUP1 RETURNDATACOPY RETURNDATASIZE PUSH1 0x0 REVERT JUMPDEST POP POP POP POP PUSH1 0x40 MLOAD RETURNDATASIZE PUSH1 0x1F NOT PUSH1 0x1F DUP3 ADD AND DUP3 ADD DUP1 PUSH1 0x40 MSTORE POP DUP2 ADD SWAP1 PUSH2 0x1396 SWAP2 SWAP1 PUSH2 0x174F JUMP JUMPDEST SWAP2 POP SWAP2 POP PUSH1 0x2 DUP2 PUSH2 0x13A7 SWAP2 SWAP1 PUSH2 0x1E40 JUMP JUMPDEST SWAP1 POP DUP4 DUP2 GT ISZERO PUSH2 0x13E3 JUMPI PUSH1 0x40 MLOAD PUSH32 0xD0C279A200000000000000000000000000000000000000000000000000000000 DUP2 MSTORE PUSH1 0x4 ADD PUSH1 0x40 MLOAD DUP1 SWAP2 SUB SWAP1 REVERT JUMPDEST PUSH1 0x0 PUSH2 0x13EE DUP7 PUSH2 0x15A1 JUMP JUMPDEST SWAP1 POP PUSH1 0x0 PUSH2 0x13FB DUP3 PUSH2 0x15C4 JUMP JUMPDEST SWAP1 POP DUP5 PUSH20 0xFFFFFFFFFFFFFFFFFFFFFFFFFFFFFFFFFFFFFFFF AND PUSH4 0xC7012626 DUP3 DUP9 PUSH1 0x40 MLOAD DUP4 PUSH4 0xFFFFFFFF AND PUSH1 0xE0 SHL DUP2 MSTORE PUSH1 0x4 ADD PUSH2 0x1438 SWAP3 SWAP2 SWAP1 PUSH2 0x1C0D JUMP JUMPDEST PUSH1 0x20 PUSH1 0x40 MLOAD DUP1 DUP4 SUB DUP2 PUSH1 0x0 DUP8 DUP1 EXTCODESIZE ISZERO DUP1 ISZERO PUSH2 0x1452 JUMPI PUSH1 0x0 DUP1 REVERT JUMPDEST POP GAS CALL ISZERO DUP1 ISZERO PUSH2 0x1466 JUMPI RETURNDATASIZE PUSH1 0x0 DUP1 RETURNDATACOPY RETURNDATASIZE PUSH1 0x0 REVERT JUMPDEST POP POP POP POP PUSH1 0x40 MLOAD RETURNDATASIZE PUSH1 0x1F NOT PUSH1 0x1F DUP3 ADD AND DUP3 ADD DUP1 PUSH1 0x40 MSTORE POP DUP2 ADD SWAP1 PUSH2 0x148A SWAP2 SWAP1 PUSH2 0x178F JUMP JUMPDEST POP ADDRESS PUSH20 0xFFFFFFFFFFFFFFFFFFFFFFFFFFFFFFFFFFFFFFFF AND PUSH32 0x5A728B1F316A097EC4F8A742082E66F5C4721E46906F187BE4DE147365187152 DUP3 DUP9 PUSH1 0x40 MLOAD PUSH2 0x14D3 SWAP3 SWAP2 SWAP1 PUSH2 0x1C0D JUMP JUMPDEST PUSH1 0x40 MLOAD DUP1 SWAP2 SUB SWAP1 LOG2 POP POP POP POP POP POP POP POP JUMP JUMPDEST PUSH1 0x0 PUSH11 0x636F6E736F6C652E6C6F67 SWAP1 POP PUSH1 0x0 DUP1 DUP4 MLOAD PUSH1 0x20 DUP6 ADD DUP5 GAS STATICCALL POP POP POP JUMP JUMPDEST PUSH1 0x0 ADDRESS SWAP1 POP DUP3 PUSH20 0xFFFFFFFFFFFFFFFFFFFFFFFFFFFFFFFFFFFFFFFF AND PUSH4 0x23B872DD DUP6 DUP4 DUP6 PUSH1 0x40 MLOAD DUP5 PUSH4 0xFFFFFFFF AND PUSH1 0xE0 SHL DUP2 MSTORE PUSH1 0x4 ADD PUSH2 0x1548 SWAP4 SWAP3 SWAP2 SWAP1 PUSH2 0x1B5B JUMP JUMPDEST PUSH1 0x20 PUSH1 0x40 MLOAD DUP1 DUP4 SUB DUP2 PUSH1 0x0 DUP8 DUP1 EXTCODESIZE ISZERO DUP1 ISZERO PUSH2 0x1562 JUMPI PUSH1 0x0 DUP1 REVERT JUMPDEST POP GAS CALL ISZERO DUP1 ISZERO PUSH2 0x1576 JUMPI RETURNDATASIZE PUSH1 0x0 DUP1 RETURNDATACOPY RETURNDATASIZE PUSH1 0x0 REVERT JUMPDEST POP POP POP POP PUSH1 0x40 MLOAD RETURNDATASIZE PUSH1 0x1F NOT PUSH1 0x1F DUP3 ADD AND DUP3 ADD DUP1 PUSH1 0x40 MSTORE POP DUP2 ADD SWAP1 PUSH2 0x159A SWAP2 SWAP1 PUSH2 0x178F JUMP JUMPDEST POP POP POP POP POP JUMP JUMPDEST PUSH1 0x0 DUP2 PUSH20 0xFFFFFFFFFFFFFFFFFFFFFFFFFFFFFFFFFFFFFFFF AND PUSH1 0x0 SHL SWAP1 POP SWAP2 SWAP1 POP JUMP JUMPDEST PUSH1 0x60 DUP2 PUSH1 0x40 MLOAD PUSH1 0x20 ADD PUSH2 0x15D7 SWAP2 SWAP1 PUSH2 0x1AF3 JUMP JUMPDEST PUSH1 0x40 MLOAD PUSH1 0x20 DUP2 DUP4 SUB SUB DUP2 MSTORE SWAP1 PUSH1 0x40 MSTORE SWAP1 POP SWAP2 SWAP1 POP JUMP JUMPDEST PUSH1 0x40 MLOAD DUP1 PUSH2 0x100 ADD PUSH1 0x40 MSTORE DUP1 PUSH1 0x0 ISZERO ISZERO DUP2 MSTORE PUSH1 0x20 ADD PUSH1 0x0 DUP2 MSTORE PUSH1 0x20 ADD PUSH1 0x0 PUSH20 0xFFFFFFFFFFFFFFFFFFFFFFFFFFFFFFFFFFFFFFFF AND DUP2 MSTORE PUSH1 0x20 ADD PUSH1 0x0 DUP2 MSTORE PUSH1 0x20 ADD PUSH1 0x0 DUP2 MSTORE PUSH1 0x20 ADD PUSH1 0x0 DUP2 MSTORE PUSH1 0x20 ADD PUSH1 0x0 DUP2 MSTORE PUSH1 0x20 ADD PUSH1 0x0 ISZERO ISZERO DUP2 MSTORE POP SWAP1 JUMP JUMPDEST PUSH1 0x0 PUSH2 0x165F PUSH2 0x165A DUP5 PUSH2 0x1D45 JUMP JUMPDEST PUSH2 0x1D20 JUMP JUMPDEST SWAP1 POP DUP3 DUP2 MSTORE PUSH1 0x20 DUP2 ADD DUP5 DUP5 DUP5 ADD GT ISZERO PUSH2 0x167B JUMPI PUSH2 0x167A PUSH2 0x2084 JUMP JUMPDEST JUMPDEST PUSH2 0x1686 DUP5 DUP3 DUP6 PUSH2 0x1F75 JUMP JUMPDEST POP SWAP4 SWAP3 POP POP POP JUMP JUMPDEST PUSH1 0x0 DUP2 CALLDATALOAD SWAP1 POP PUSH2 0x169D DUP2 PUSH2 0x20A4 JUMP JUMPDEST SWAP3 SWAP2 POP POP JUMP JUMPDEST PUSH1 0x0 DUP2 MLOAD SWAP1 POP PUSH2 0x16B2 DUP2 PUSH2 0x20A4 JUMP JUMPDEST SWAP3 SWAP2 POP POP JUMP JUMPDEST PUSH1 0x0 DUP2 CALLDATALOAD SWAP1 POP PUSH2 0x16C7 DUP2 PUSH2 0x20BB JUMP JUMPDEST SWAP3 SWAP2 POP POP JUMP JUMPDEST PUSH1 0x0 DUP2 MLOAD SWAP1 POP PUSH2 0x16DC DUP2 PUSH2 0x20BB JUMP JUMPDEST SWAP3 SWAP2 POP POP JUMP JUMPDEST PUSH1 0x0 DUP3 PUSH1 0x1F DUP4 ADD SLT PUSH2 0x16F7 JUMPI PUSH2 0x16F6 PUSH2 0x207F JUMP JUMPDEST JUMPDEST DUP2 CALLDATALOAD PUSH2 0x1707 DUP5 DUP3 PUSH1 0x20 DUP7 ADD PUSH2 0x164C JUMP JUMPDEST SWAP2 POP POP SWAP3 SWAP2 POP POP JUMP JUMPDEST PUSH1 0x0 DUP2 CALLDATALOAD SWAP1 POP PUSH2 0x171F DUP2 PUSH2 0x20D2 JUMP JUMPDEST SWAP3 SWAP2 POP POP JUMP JUMPDEST PUSH1 0x0 DUP2 MLOAD SWAP1 POP PUSH2 0x1734 DUP2 PUSH2 0x20D2 JUMP JUMPDEST SWAP3 SWAP2 POP POP JUMP JUMPDEST PUSH1 0x0 DUP2 CALLDATALOAD SWAP1 POP PUSH2 0x1749 DUP2 PUSH2 0x20E9 JUMP JUMPDEST SWAP3 SWAP2 POP POP JUMP JUMPDEST PUSH1 0x0 DUP1 PUSH1 0x40 DUP4 DUP6 SUB SLT ISZERO PUSH2 0x1766 JUMPI PUSH2 0x1765 PUSH2 0x208E JUMP JUMPDEST JUMPDEST PUSH1 0x0 PUSH2 0x1774 DUP6 DUP3 DUP7 ADD PUSH2 0x16A3 JUMP JUMPDEST SWAP3 POP POP PUSH1 0x20 PUSH2 0x1785 DUP6 DUP3 DUP7 ADD PUSH2 0x1725 JUMP JUMPDEST SWAP2 POP POP SWAP3 POP SWAP3 SWAP1 POP JUMP JUMPDEST PUSH1 0x0 PUSH1 0x20 DUP3 DUP5 SUB SLT ISZERO PUSH2 0x17A5 JUMPI PUSH2 0x17A4 PUSH2 0x208E JUMP JUMPDEST JUMPDEST PUSH1 0x0 PUSH2 0x17B3 DUP5 DUP3 DUP6 ADD PUSH2 0x16CD JUMP JUMPDEST SWAP2 POP POP SWAP3 SWAP2 POP POP JUMP JUMPDEST PUSH1 0x0 PUSH1 0x20 DUP3 DUP5 SUB SLT ISZERO PUSH2 0x17D2 JUMPI PUSH2 0x17D1 PUSH2 0x208E JUMP JUMPDEST JUMPDEST PUSH1 0x0 DUP3 ADD CALLDATALOAD PUSH8 0xFFFFFFFFFFFFFFFF DUP2 GT ISZERO PUSH2 0x17F0 JUMPI PUSH2 0x17EF PUSH2 0x2089 JUMP JUMPDEST JUMPDEST PUSH2 0x17FC DUP5 DUP3 DUP6 ADD PUSH2 0x16E2 JUMP JUMPDEST SWAP2 POP POP SWAP3 SWAP2 POP POP JUMP JUMPDEST PUSH1 0x0 DUP1 PUSH1 0x40 DUP4 DUP6 SUB SLT ISZERO PUSH2 0x181C JUMPI PUSH2 0x181B PUSH2 0x208E JUMP JUMPDEST JUMPDEST PUSH1 0x0 DUP4 ADD CALLDATALOAD PUSH8 0xFFFFFFFFFFFFFFFF DUP2 GT ISZERO PUSH2 0x183A JUMPI PUSH2 0x1839 PUSH2 0x2089 JUMP JUMPDEST JUMPDEST PUSH2 0x1846 DUP6 DUP3 DUP7 ADD PUSH2 0x16E2 JUMP JUMPDEST SWAP3 POP POP PUSH1 0x20 PUSH2 0x1857 DUP6 DUP3 DUP7 ADD PUSH2 0x1710 JUMP JUMPDEST SWAP2 POP POP SWAP3 POP SWAP3 SWAP1 POP JUMP JUMPDEST PUSH1 0x0 DUP1 PUSH1 0x0 DUP1 PUSH1 0x0 DUP1 PUSH1 0x0 PUSH1 0xE0 DUP9 DUP11 SUB SLT ISZERO PUSH2 0x1880 JUMPI PUSH2 0x187F PUSH2 0x208E JUMP JUMPDEST JUMPDEST PUSH1 0x0 DUP9 ADD CALLDATALOAD PUSH8 0xFFFFFFFFFFFFFFFF DUP2 GT ISZERO PUSH2 0x189E JUMPI PUSH2 0x189D PUSH2 0x2089 JUMP JUMPDEST JUMPDEST PUSH2 0x18AA DUP11 DUP3 DUP12 ADD PUSH2 0x16E2 JUMP JUMPDEST SWAP8 POP POP PUSH1 0x20 PUSH2 0x18BB DUP11 DUP3 DUP12 ADD PUSH2 0x1710 JUMP JUMPDEST SWAP7 POP POP PUSH1 0x40 PUSH2 0x18CC DUP11 DUP3 DUP12 ADD PUSH2 0x1710 JUMP JUMPDEST SWAP6 POP POP PUSH1 0x60 PUSH2 0x18DD DUP11 DUP3 DUP12 ADD PUSH2 0x173A JUMP JUMPDEST SWAP5 POP POP PUSH1 0x80 PUSH2 0x18EE DUP11 DUP3 DUP12 ADD PUSH2 0x168E JUMP JUMPDEST SWAP4 POP POP PUSH1 0xA0 PUSH2 0x18FF DUP11 DUP3 DUP12 ADD PUSH2 0x1710 JUMP JUMPDEST SWAP3 POP POP PUSH1 0xC0 PUSH2 0x1910 DUP11 DUP3 DUP12 ADD PUSH2 0x16B8 JUMP JUMPDEST SWAP2 POP POP SWAP3 SWAP6 SWAP9 SWAP2 SWAP5 SWAP8 POP SWAP3 SWAP6 POP JUMP JUMPDEST PUSH2 0x1928 DUP2 PUSH2 0x1F3F JUMP JUMPDEST DUP3 MSTORE POP POP JUMP JUMPDEST PUSH2 0x1937 DUP2 PUSH2 0x1EE0 JUMP JUMPDEST DUP3 MSTORE POP POP JUMP JUMPDEST PUSH2 0x1946 DUP2 PUSH2 0x1ECE JUMP JUMPDEST DUP3 MSTORE POP POP JUMP JUMPDEST PUSH2 0x1955 DUP2 PUSH2 0x1ECE JUMP JUMPDEST DUP3 MSTORE POP POP JUMP JUMPDEST PUSH2 0x1964 DUP2 PUSH2 0x1EF2 JUMP JUMPDEST DUP3 MSTORE POP POP JUMP JUMPDEST PUSH2 0x1973 DUP2 PUSH2 0x1EF2 JUMP JUMPDEST DUP3 MSTORE POP POP JUMP JUMPDEST PUSH2 0x198A PUSH2 0x1985 DUP3 PUSH2 0x1EFE JUMP JUMPDEST PUSH2 0x1FE8 JUMP JUMPDEST DUP3 MSTORE POP POP JUMP JUMPDEST PUSH1 0x0 PUSH2 0x199B DUP3 PUSH2 0x1D76 JUMP JUMPDEST PUSH2 0x19A5 DUP2 DUP6 PUSH2 0x1D8C JUMP JUMPDEST SWAP4 POP PUSH2 0x19B5 DUP2 DUP6 PUSH1 0x20 DUP7 ADD PUSH2 0x1F84 JUMP JUMPDEST PUSH2 0x19BE DUP2 PUSH2 0x2093 JUMP JUMPDEST DUP5 ADD SWAP2 POP POP SWAP3 SWAP2 POP POP JUMP JUMPDEST PUSH1 0x0 PUSH2 0x19D4 DUP3 PUSH2 0x1D81 JUMP JUMPDEST PUSH2 0x19DE DUP2 DUP6 PUSH2 0x1D9D JUMP JUMPDEST SWAP4 POP PUSH2 0x19EE DUP2 DUP6 PUSH1 0x20 DUP7 ADD PUSH2 0x1F84 JUMP JUMPDEST PUSH2 0x19F7 DUP2 PUSH2 0x2093 JUMP JUMPDEST DUP5 ADD SWAP2 POP POP SWAP3 SWAP2 POP POP JUMP JUMPDEST PUSH1 0x0 PUSH2 0x1A0D DUP3 PUSH2 0x1D81 JUMP JUMPDEST PUSH2 0x1A17 DUP2 DUP6 PUSH2 0x1DAE JUMP JUMPDEST SWAP4 POP PUSH2 0x1A27 DUP2 DUP6 PUSH1 0x20 DUP7 ADD PUSH2 0x1F84 JUMP JUMPDEST DUP1 DUP5 ADD SWAP2 POP POP SWAP3 SWAP2 POP POP JUMP JUMPDEST PUSH2 0x100 DUP3 ADD PUSH1 0x0 DUP3 ADD MLOAD PUSH2 0x1A4A PUSH1 0x0 DUP6 ADD DUP3 PUSH2 0x195B JUMP JUMPDEST POP PUSH1 0x20 DUP3 ADD MLOAD PUSH2 0x1A5D PUSH1 0x20 DUP6 ADD DUP3 PUSH2 0x1AD5 JUMP JUMPDEST POP PUSH1 0x40 DUP3 ADD MLOAD PUSH2 0x1A70 PUSH1 0x40 DUP6 ADD DUP3 PUSH2 0x193D JUMP JUMPDEST POP PUSH1 0x60 DUP3 ADD MLOAD PUSH2 0x1A83 PUSH1 0x60 DUP6 ADD DUP3 PUSH2 0x1AD5 JUMP JUMPDEST POP PUSH1 0x80 DUP3 ADD MLOAD PUSH2 0x1A96 PUSH1 0x80 DUP6 ADD DUP3 PUSH2 0x1AD5 JUMP JUMPDEST POP PUSH1 0xA0 DUP3 ADD MLOAD PUSH2 0x1AA9 PUSH1 0xA0 DUP6 ADD DUP3 PUSH2 0x1AD5 JUMP JUMPDEST POP PUSH1 0xC0 DUP3 ADD MLOAD PUSH2 0x1ABC PUSH1 0xC0 DUP6 ADD DUP3 PUSH2 0x1AD5 JUMP JUMPDEST POP PUSH1 0xE0 DUP3 ADD MLOAD PUSH2 0x1ACF PUSH1 0xE0 DUP6 ADD DUP3 PUSH2 0x195B JUMP JUMPDEST POP POP POP POP JUMP JUMPDEST PUSH2 0x1ADE DUP2 PUSH2 0x1F28 JUMP JUMPDEST DUP3 MSTORE POP POP JUMP JUMPDEST PUSH2 0x1AED DUP2 PUSH2 0x1F28 JUMP JUMPDEST DUP3 MSTORE POP POP JUMP JUMPDEST PUSH1 0x0 PUSH2 0x1AFF DUP3 DUP5 PUSH2 0x1979 JUMP JUMPDEST PUSH1 0x20 DUP3 ADD SWAP2 POP DUP2 SWAP1 POP SWAP3 SWAP2 POP POP JUMP JUMPDEST PUSH1 0x0 PUSH2 0x1B1A DUP3 DUP5 PUSH2 0x1A02 JUMP JUMPDEST SWAP2 POP DUP2 SWAP1 POP SWAP3 SWAP2 POP POP JUMP JUMPDEST PUSH1 0x0 PUSH1 0x20 DUP3 ADD SWAP1 POP PUSH2 0x1B3A PUSH1 0x0 DUP4 ADD DUP5 PUSH2 0x194C JUMP JUMPDEST SWAP3 SWAP2 POP POP JUMP JUMPDEST PUSH1 0x0 PUSH1 0x20 DUP3 ADD SWAP1 POP PUSH2 0x1B55 PUSH1 0x0 DUP4 ADD DUP5 PUSH2 0x192E JUMP JUMPDEST SWAP3 SWAP2 POP POP JUMP JUMPDEST PUSH1 0x0 PUSH1 0x60 DUP3 ADD SWAP1 POP PUSH2 0x1B70 PUSH1 0x0 DUP4 ADD DUP7 PUSH2 0x194C JUMP JUMPDEST PUSH2 0x1B7D PUSH1 0x20 DUP4 ADD DUP6 PUSH2 0x194C JUMP JUMPDEST PUSH2 0x1B8A PUSH1 0x40 DUP4 ADD DUP5 PUSH2 0x1AE4 JUMP JUMPDEST SWAP5 SWAP4 POP POP POP POP JUMP JUMPDEST PUSH1 0x0 PUSH1 0x40 DUP3 ADD SWAP1 POP PUSH2 0x1BA7 PUSH1 0x0 DUP4 ADD DUP6 PUSH2 0x194C JUMP JUMPDEST PUSH2 0x1BB4 PUSH1 0x20 DUP4 ADD DUP5 PUSH2 0x1AE4 JUMP JUMPDEST SWAP4 SWAP3 POP POP POP JUMP JUMPDEST PUSH1 0x0 PUSH1 0x60 DUP3 ADD SWAP1 POP PUSH2 0x1BD0 PUSH1 0x0 DUP4 ADD DUP7 PUSH2 0x194C JUMP JUMPDEST PUSH2 0x1BDD PUSH1 0x20 DUP4 ADD DUP6 PUSH2 0x1AE4 JUMP JUMPDEST PUSH2 0x1BEA PUSH1 0x40 DUP4 ADD DUP5 PUSH2 0x191F JUMP JUMPDEST SWAP5 SWAP4 POP POP POP POP JUMP JUMPDEST PUSH1 0x0 PUSH1 0x20 DUP3 ADD SWAP1 POP PUSH2 0x1C07 PUSH1 0x0 DUP4 ADD DUP5 PUSH2 0x196A JUMP JUMPDEST SWAP3 SWAP2 POP POP JUMP JUMPDEST PUSH1 0x0 PUSH1 0x40 DUP3 ADD SWAP1 POP DUP2 DUP2 SUB PUSH1 0x0 DUP4 ADD MSTORE PUSH2 0x1C27 DUP2 DUP6 PUSH2 0x1990 JUMP JUMPDEST SWAP1 POP PUSH2 0x1C36 PUSH1 0x20 DUP4 ADD DUP5 PUSH2 0x1AE4 JUMP JUMPDEST SWAP4 SWAP3 POP POP POP JUMP JUMPDEST PUSH1 0x0 PUSH1 0x20 DUP3 ADD SWAP1 POP DUP2 DUP2 SUB PUSH1 0x0 DUP4 ADD MSTORE PUSH2 0x1C57 DUP2 DUP5 PUSH2 0x19C9 JUMP JUMPDEST SWAP1 POP SWAP3 SWAP2 POP POP JUMP JUMPDEST PUSH1 0x0 PUSH1 0x60 DUP3 ADD SWAP1 POP DUP2 DUP2 SUB PUSH1 0x0 DUP4 ADD MSTORE PUSH2 0x1C79 DUP2 DUP7 PUSH2 0x19C9 JUMP JUMPDEST SWAP1 POP PUSH2 0x1C88 PUSH1 0x20 DUP4 ADD DUP6 PUSH2 0x1AE4 JUMP JUMPDEST PUSH2 0x1C95 PUSH1 0x40 DUP4 ADD DUP5 PUSH2 0x194C JUMP JUMPDEST SWAP5 SWAP4 POP POP POP POP JUMP JUMPDEST PUSH1 0x0 PUSH1 0x80 DUP3 ADD SWAP1 POP DUP2 DUP2 SUB PUSH1 0x0 DUP4 ADD MSTORE PUSH2 0x1CB7 DUP2 DUP8 PUSH2 0x19C9 JUMP JUMPDEST SWAP1 POP PUSH2 0x1CC6 PUSH1 0x20 DUP4 ADD DUP7 PUSH2 0x1AE4 JUMP JUMPDEST PUSH2 0x1CD3 PUSH1 0x40 DUP4 ADD DUP6 PUSH2 0x1AE4 JUMP JUMPDEST PUSH2 0x1CE0 PUSH1 0x60 DUP4 ADD DUP5 PUSH2 0x194C JUMP JUMPDEST SWAP6 SWAP5 POP POP POP POP POP JUMP JUMPDEST PUSH1 0x0 PUSH2 0x100 DUP3 ADD SWAP1 POP PUSH2 0x1CFF PUSH1 0x0 DUP4 ADD DUP5 PUSH2 0x1A33 JUMP JUMPDEST SWAP3 SWAP2 POP POP JUMP JUMPDEST PUSH1 0x0 PUSH1 0x20 DUP3 ADD SWAP1 POP PUSH2 0x1D1A PUSH1 0x0 DUP4 ADD DUP5 PUSH2 0x1AE4 JUMP JUMPDEST SWAP3 SWAP2 POP POP JUMP JUMPDEST PUSH1 0x0 PUSH2 0x1D2A PUSH2 0x1D3B JUMP JUMPDEST SWAP1 POP PUSH2 0x1D36 DUP3 DUP3 PUSH2 0x1FB7 JUMP JUMPDEST SWAP2 SWAP1 POP JUMP JUMPDEST PUSH1 0x0 PUSH1 0x40 MLOAD SWAP1 POP SWAP1 JUMP JUMPDEST PUSH1 0x0 PUSH8 0xFFFFFFFFFFFFFFFF DUP3 GT ISZERO PUSH2 0x1D60 JUMPI PUSH2 0x1D5F PUSH2 0x2050 JUMP JUMPDEST JUMPDEST PUSH2 0x1D69 DUP3 PUSH2 0x2093 JUMP JUMPDEST SWAP1 POP PUSH1 0x20 DUP2 ADD SWAP1 POP SWAP2 SWAP1 POP JUMP JUMPDEST PUSH1 0x0 DUP2 MLOAD SWAP1 POP SWAP2 SWAP1 POP JUMP JUMPDEST PUSH1 0x0 DUP2 MLOAD SWAP1 POP SWAP2 SWAP1 POP JUMP JUMPDEST PUSH1 0x0 DUP3 DUP3 MSTORE PUSH1 0x20 DUP3 ADD SWAP1 POP SWAP3 SWAP2 POP POP JUMP JUMPDEST PUSH1 0x0 DUP3 DUP3 MSTORE PUSH1 0x20 DUP3 ADD SWAP1 POP SWAP3 SWAP2 POP POP JUMP JUMPDEST PUSH1 0x0 DUP2 SWAP1 POP SWAP3 SWAP2 POP POP JUMP JUMPDEST PUSH1 0x0 PUSH2 0x1DC4 DUP3 PUSH2 0x1F28 JUMP JUMPDEST SWAP2 POP PUSH2 0x1DCF DUP4 PUSH2 0x1F28 JUMP JUMPDEST SWAP3 POP DUP3 PUSH32 0xFFFFFFFFFFFFFFFFFFFFFFFFFFFFFFFFFFFFFFFFFFFFFFFFFFFFFFFFFFFFFFFF SUB DUP3 GT ISZERO PUSH2 0x1E04 JUMPI PUSH2 0x1E03 PUSH2 0x1FF2 JUMP JUMPDEST JUMPDEST DUP3 DUP3 ADD SWAP1 POP SWAP3 SWAP2 POP POP JUMP JUMPDEST PUSH1 0x0 PUSH2 0x1E1A DUP3 PUSH2 0x1F28 JUMP JUMPDEST SWAP2 POP PUSH2 0x1E25 DUP4 PUSH2 0x1F28 JUMP JUMPDEST SWAP3 POP DUP3 PUSH2 0x1E35 JUMPI PUSH2 0x1E34 PUSH2 0x2021 JUMP JUMPDEST JUMPDEST DUP3 DUP3 DIV SWAP1 POP SWAP3 SWAP2 POP POP JUMP JUMPDEST PUSH1 0x0 PUSH2 0x1E4B DUP3 PUSH2 0x1F28 JUMP JUMPDEST SWAP2 POP PUSH2 0x1E56 DUP4 PUSH2 0x1F28 JUMP JUMPDEST SWAP3 POP DUP2 PUSH32 0xFFFFFFFFFFFFFFFFFFFFFFFFFFFFFFFFFFFFFFFFFFFFFFFFFFFFFFFFFFFFFFFF DIV DUP4 GT DUP3 ISZERO ISZERO AND ISZERO PUSH2 0x1E8F JUMPI PUSH2 0x1E8E PUSH2 0x1FF2 JUMP JUMPDEST JUMPDEST DUP3 DUP3 MUL SWAP1 POP SWAP3 SWAP2 POP POP JUMP JUMPDEST PUSH1 0x0 PUSH2 0x1EA5 DUP3 PUSH2 0x1F28 JUMP JUMPDEST SWAP2 POP PUSH2 0x1EB0 DUP4 PUSH2 0x1F28 JUMP JUMPDEST SWAP3 POP DUP3 DUP3 LT ISZERO PUSH2 0x1EC3 JUMPI PUSH2 0x1EC2 PUSH2 0x1FF2 JUMP JUMPDEST JUMPDEST DUP3 DUP3 SUB SWAP1 POP SWAP3 SWAP2 POP POP JUMP JUMPDEST PUSH1 0x0 PUSH2 0x1ED9 DUP3 PUSH2 0x1F08 JUMP JUMPDEST SWAP1 POP SWAP2 SWAP1 POP JUMP JUMPDEST PUSH1 0x0 PUSH2 0x1EEB DUP3 PUSH2 0x1F08 JUMP JUMPDEST SWAP1 POP SWAP2 SWAP1 POP JUMP JUMPDEST PUSH1 0x0 DUP2 ISZERO ISZERO SWAP1 POP SWAP2 SWAP1 POP JUMP JUMPDEST PUSH1 0x0 DUP2 SWAP1 POP SWAP2 SWAP1 POP JUMP JUMPDEST PUSH1 0x0 PUSH20 0xFFFFFFFFFFFFFFFFFFFFFFFFFFFFFFFFFFFFFFFF DUP3 AND SWAP1 POP SWAP2 SWAP1 POP JUMP JUMPDEST PUSH1 0x0 DUP2 SWAP1 POP SWAP2 SWAP1 POP JUMP JUMPDEST PUSH1 0x0 PUSH1 0xFF DUP3 AND SWAP1 POP SWAP2 SWAP1 POP JUMP JUMPDEST PUSH1 0x0 PUSH2 0x1F4A DUP3 PUSH2 0x1F51 JUMP JUMPDEST SWAP1 POP SWAP2 SWAP1 POP JUMP JUMPDEST PUSH1 0x0 PUSH2 0x1F5C DUP3 PUSH2 0x1F63 JUMP JUMPDEST SWAP1 POP SWAP2 SWAP1 POP JUMP JUMPDEST PUSH1 0x0 PUSH2 0x1F6E DUP3 PUSH2 0x1F08 JUMP JUMPDEST SWAP1 POP SWAP2 SWAP1 POP JUMP JUMPDEST DUP3 DUP2 DUP4 CALLDATACOPY PUSH1 0x0 DUP4 DUP4 ADD MSTORE POP POP POP JUMP JUMPDEST PUSH1 0x0 JUMPDEST DUP4 DUP2 LT ISZERO PUSH2 0x1FA2 JUMPI DUP1 DUP3 ADD MLOAD DUP2 DUP5 ADD MSTORE PUSH1 0x20 DUP2 ADD SWAP1 POP PUSH2 0x1F87 JUMP JUMPDEST DUP4 DUP2 GT ISZERO PUSH2 0x1FB1 JUMPI PUSH1 0x0 DUP5 DUP5 ADD MSTORE JUMPDEST POP POP POP POP JUMP JUMPDEST PUSH2 0x1FC0 DUP3 PUSH2 0x2093 JUMP JUMPDEST DUP2 ADD DUP2 DUP2 LT PUSH8 0xFFFFFFFFFFFFFFFF DUP3 GT OR ISZERO PUSH2 0x1FDF JUMPI PUSH2 0x1FDE PUSH2 0x2050 JUMP JUMPDEST JUMPDEST DUP1 PUSH1 0x40 MSTORE POP POP POP JUMP JUMPDEST PUSH1 0x0 DUP2 SWAP1 POP SWAP2 SWAP1 POP JUMP JUMPDEST PUSH32 0x4E487B7100000000000000000000000000000000000000000000000000000000 PUSH1 0x0 MSTORE PUSH1 0x11 PUSH1 0x4 MSTORE PUSH1 0x24 PUSH1 0x0 REVERT JUMPDEST PUSH32 0x4E487B7100000000000000000000000000000000000000000000000000000000 PUSH1 0x0 MSTORE PUSH1 0x12 PUSH1 0x4 MSTORE PUSH1 0x24 PUSH1 0x0 REVERT JUMPDEST PUSH32 0x4E487B7100000000000000000000000000000000000000000000000000000000 PUSH1 0x0 MSTORE PUSH1 0x41 PUSH1 0x4 MSTORE PUSH1 0x24 PUSH1 0x0 REVERT JUMPDEST PUSH1 0x0 DUP1 REVERT JUMPDEST PUSH1 0x0 DUP1 REVERT JUMPDEST PUSH1 0x0 DUP1 REVERT JUMPDEST PUSH1 0x0 DUP1 REVERT JUMPDEST PUSH1 0x0 PUSH1 0x1F NOT PUSH1 0x1F DUP4 ADD AND SWAP1 POP SWAP2 SWAP1 POP JUMP JUMPDEST PUSH2 0x20AD DUP2 PUSH2 0x1ECE JUMP JUMPDEST DUP2 EQ PUSH2 0x20B8 JUMPI PUSH1 0x0 DUP1 REVERT JUMPDEST POP JUMP JUMPDEST PUSH2 0x20C4 DUP2 PUSH2 0x1EF2 JUMP JUMPDEST DUP2 EQ PUSH2 0x20CF JUMPI PUSH1 0x0 DUP1 REVERT JUMPDEST POP JUMP JUMPDEST PUSH2 0x20DB DUP2 PUSH2 0x1F28 JUMP JUMPDEST DUP2 EQ PUSH2 0x20E6 JUMPI PUSH1 0x0 DUP1 REVERT JUMPDEST POP JUMP JUMPDEST PUSH2 0x20F2 DUP2 PUSH2 0x1F32 JUMP JUMPDEST DUP2 EQ PUSH2 0x20FD JUMPI PUSH1 0x0 DUP1 REVERT JUMPDEST POP JUMP INVALID LOG2 PUSH5 0x6970667358 0x22 SLT KECCAK256 0xDD 0xFC 0xD6 PUSH11 0xD75CD951FE22B42BC0B81C 0xED CALLCODE LOG4 OR 0xDB PUSH1 0xE5 0xC8 0xED SGT 0xFB MOD SWAP10 DUP16 0x21 0xC 0x5D PUSH5 0x736F6C6343 STOP ADDMOD SMOD STOP CALLER "},"methodIdentifiers":{"bitsaveAddress()":"2ae3c90f","createSaving(string,uint256,uint256,uint8,address,uint256,bool)":"13aa6539","getSavingMode(string)":"1bb862a5","getSavingTokenId(string)":"e18f5f65","getSavings(string)":"4282a572","incrementSaving(string,uint256)":"46718f1a","stableCoin()":"992642e5","withdrawSaving(string)":"372f9101"}}}}}