{"contracts/Bitsave.sol":{"Bitsave":{"abi":[{"inputs":[{"internalType":"address","name":"_stableCoin","type":"address"},{"internalType":"address","name":"systemContractAddress","type":"address"}],"stateMutability":"payable","type":"constructor"},{"inputs":[],"name":"AmountNotEnough","type":"error"},{"inputs":[],"name":"CantBeIdenticalAddresses","type":"error"},{"inputs":[],"name":"CantBeZeroAddress","type":"error"},{"inputs":[],"name":"InvalidTime","type":"error"},{"inputs":[],"name":"NotEnoughToPayGasFee","type":"error"},{"inputs":[],"name":"NotEnoughToPayGasFee","type":"error"},{"inputs":[],"name":"UserNotRegistered","type":"error"},{"inputs":[],"name":"WrongGasContract","type":"error"},{"inputs":[],"name":"WrongGasContract","type":"error"},{"inputs":[],"name":"CRT","outputs":[{"internalType":"string","name":"","type":"string"}],"stateMutability":"view","type":"function"},{"inputs":[],"name":"INC","outputs":[{"internalType":"string","name":"","type":"string"}],"stateMutability":"view","type":"function"},{"inputs":[],"name":"JON","outputs":[{"internalType":"string","name":"","type":"string"}],"stateMutability":"view","type":"function"},{"inputs":[],"name":"WTD","outputs":[{"internalType":"string","name":"","type":"string"}],"stateMutability":"view","type":"function"},{"inputs":[],"name":"getStableCoin","outputs":[{"internalType":"address","name":"","type":"address"}],"stateMutability":"view","type":"function"},{"inputs":[],"name":"getUserChildContractAddress","outputs":[{"internalType":"address payable","name":"","type":"address"}],"stateMutability":"view","type":"function"},{"inputs":[{"internalType":"uint256","name":"joining_fee","type":"uint256"}],"name":"joinBitsave","outputs":[{"internalType":"address","name":"","type":"address"}],"stateMutability":"payable","type":"function"},{"inputs":[{"internalType":"address","name":"zrc20","type":"address"},{"internalType":"uint256","name":"amount","type":"uint256"},{"internalType":"bytes","name":"message","type":"bytes"}],"name":"onCrossChainCall","outputs":[],"stateMutability":"nonpayable","type":"function"},{"inputs":[],"name":"poolFee","outputs":[{"internalType":"uint24","name":"","type":"uint24"}],"stateMutability":"view","type":"function"},{"inputs":[{"internalType":"address","name":"originalToken","type":"address"},{"internalType":"uint256","name":"amount","type":"uint256"},{"internalType":"address","name":"ownerAddress","type":"address"}],"name":"sendAsOriginalToken","outputs":[],"stateMutability":"payable","type":"function"},{"inputs":[],"name":"stableCoin","outputs":[{"internalType":"address","name":"","type":"address"}],"stateMutability":"view","type":"function"},{"inputs":[],"name":"systemContract","outputs":[{"internalType":"contract SystemContract","name":"","type":"address"}],"stateMutability":"view","type":"function"},{"inputs":[{"internalType":"string","name":"nameOfSavings","type":"string"}],"name":"withdrawSaving","outputs":[{"internalType":"bool","name":"","type":"bool"}],"stateMutability":"nonpayable","type":"function"},{"stateMutability":"payable","type":"receive"}],"evm":{"bytecode":{"linkReferences":{},"object":"60a060405260405162005de138038062005de18339818101604052810190620000299190620000bf565b816000806101000a81548173ffffffffffffffffffffffffffffffffffffffff021916908373ffffffffffffffffffffffffffffffffffffffff1602179055508073ffffffffffffffffffffffffffffffffffffffff1660808173ffffffffffffffffffffffffffffffffffffffff1660601b81525050505062000159565b600081519050620000b9816200013f565b92915050565b60008060408385031215620000d957620000d86200013a565b5b6000620000e985828601620000a8565b9250506020620000fc85828601620000a8565b9150509250929050565b600062000113826200011a565b9050919050565b600073ffffffffffffffffffffffffffffffffffffffff82169050919050565b600080fd5b6200014a8162000106565b81146200015657600080fd5b50565b60805160601c615c4d62000194600039600081816106c301528181611341015281816113f20152818161149401526115360152615c4d6000f3fe608060405260043610620000d95760003560e01c8063b88ab348116200008b578063de35c3721162000061578063de35c37214620002e3578063e4932abe1462000303578063e4e224fa1462000333578063ea4136721462000369576200011c565b8063b88ab3481462000255578063bb88b7691462000285578063c852269114620002b5576200011c565b8063089fe6aa14620001215780631bd817c914620001515780632aa0a5c81462000181578063372f910114620001b15780634cc431e214620001f5578063992642e51462000225576200011c565b366200011c577f88a5966d370b9919b20f3e2c13ff65706f196a4e32cc2c12bf57088f8852587433346040516200011292919062002c32565b60405180910390a1005b600080fd5b3480156200012e57600080fd5b506200013962000399565b60405162000148919062002da9565b60405180910390f35b3480156200015e57600080fd5b50620001696200039f565b60405162000178919062002b8e565b60405180910390f35b3480156200018e57600080fd5b5062000199620003c8565b604051620001a8919062002ccd565b60405180910390f35b348015620001be57600080fd5b50620001dd6004803603810190620001d79190620027df565b62000401565b604051620001ec919062002c5f565b60405180910390f35b3480156200020257600080fd5b506200020d6200062b565b6040516200021c919062002ccd565b60405180910390f35b3480156200023257600080fd5b506200023d62000664565b6040516200024c919062002b8e565b60405180910390f35b3480156200026257600080fd5b506200026d62000688565b6040516200027c919062002ccd565b60405180910390f35b3480156200029257600080fd5b506200029d620006c1565b604051620002ac919062002cb0565b60405180910390f35b348015620002c257600080fd5b50620002e16004803603810190620002db919062002602565b620006e5565b005b620003016004803603810190620002fb9190620025a6565b62000843565b005b3480156200031057600080fd5b506200031b6200097c565b6040516200032a919062002ccd565b60405180910390f35b6200035160048036038101906200034b919062002881565b620009b5565b60405162000360919062002b8e565b60405180910390f35b3480156200037657600080fd5b506200038162000ade565b60405162000390919062002bab565b60405180910390f35b610bb881565b60008060009054906101000a900473ffffffffffffffffffffffffffffffffffffffff16905090565b6040518060400160405280600381526020017f435254000000000000000000000000000000000000000000000000000000000081525081565b60008073ffffffffffffffffffffffffffffffffffffffff16600260003373ffffffffffffffffffffffffffffffffffffffff1673ffffffffffffffffffffffffffffffffffffffff16815260200190815260200160002060009054906101000a900473ffffffffffffffffffffffffffffffffffffffff1673ffffffffffffffffffffffffffffffffffffffff161415620004c9576040517f2163950f00000000000000000000000000000000000000000000000000000000815260040160405180910390fd5b600260003373ffffffffffffffffffffffffffffffffffffffff1673ffffffffffffffffffffffffffffffffffffffff16815260200190815260200160002060009054906101000a900473ffffffffffffffffffffffffffffffffffffffff16600360006101000a81548173ffffffffffffffffffffffffffffffffffffffff021916908373ffffffffffffffffffffffffffffffffffffffff160217905550600360009054906101000a900473ffffffffffffffffffffffffffffffffffffffff1673ffffffffffffffffffffffffffffffffffffffff1663372f9101836040518263ffffffff1660e01b8152600401620005c6919062002ccd565b600060405180830381600087803b158015620005e157600080fd5b505af1158015620005f6573d6000803e3d6000fd5b505050506040513d6000823e3d601f19601f8201168201806040525081019062000621919062002830565b5060019050919050565b6040518060400160405280600381526020017f575444000000000000000000000000000000000000000000000000000000000081525081565b60008054906101000a900473ffffffffffffffffffffffffffffffffffffffff1681565b6040518060400160405280600381526020017f4a4f4e000000000000000000000000000000000000000000000000000000000081525081565b7f000000000000000000000000000000000000000000000000000000000000000081565b6000806000806000808787810190620006ff919062002705565b955095509550955095509550620007178a8a62000b45565b62000758866040518060400160405280600381526020017f4a4f4e000000000000000000000000000000000000000000000000000000000081525062000bdf565b1562000770576200076989620009b5565b5062000837565b620007b1866040518060400160405280600381526020017f435254000000000000000000000000000000000000000000000000000000000081525062000bdf565b15620007ce57620007c885858585858f8f62000cc9565b62000836565b6200080f866040518060400160405280600381526020017f494e43000000000000000000000000000000000000000000000000000000000081525062000bdf565b15620008285762000822858b8b62000f5c565b62000835565b620008338562000401565b505b5b5b50505050505050505050565b610bb862ffffff1682101562000885576040517fcb6e851c00000000000000000000000000000000000000000000000000000000815260040160405180910390fd5b620008b160008054906101000a900473ffffffffffffffffffffffffffffffffffffffff168362000b45565b6000620008e060008054906101000a900473ffffffffffffffffffffffffffffffffffffffff16858562001339565b90508373ffffffffffffffffffffffffffffffffffffffff1663a9059cbb83836040518363ffffffff1660e01b81526004016200091f92919062002c32565b602060405180830381600087803b1580156200093a57600080fd5b505af11580156200094f573d6000803e3d6000fd5b505050506040513d601f19601f82011682018060405250810190620009759190620026d3565b5050505050565b6040518060400160405280600381526020017f494e43000000000000000000000000000000000000000000000000000000000081525081565b6000806127109050808311620009f7576040517fcb6e851c00000000000000000000000000000000000000000000000000000000815260040160405180910390fd5b60003360008054906101000a900473ffffffffffffffffffffffffffffffffffffffff1660405162000a2990620021f7565b62000a3692919062002bc8565b604051809103906000f08015801562000a53573d6000803e3d6000fd5b50905080600260003373ffffffffffffffffffffffffffffffffffffffff1673ffffffffffffffffffffffffffffffffffffffff16815260200190815260200160002060006101000a81548173ffffffffffffffffffffffffffffffffffffffff021916908373ffffffffffffffffffffffffffffffffffffffff1602179055508092505050919050565b6000600260003373ffffffffffffffffffffffffffffffffffffffff1673ffffffffffffffffffffffffffffffffffffffff16815260200190815260200160002060009054906101000a900473ffffffffffffffffffffffffffffffffffffffff16905090565b8173ffffffffffffffffffffffffffffffffffffffff166323b872dd3330846040518463ffffffff1660e01b815260040162000b849392919062002bf5565b602060405180830381600087803b15801562000b9f57600080fd5b505af115801562000bb4573d6000803e3d6000fd5b505050506040513d601f19601f8201168201806040525081019062000bda9190620026d3565b505050565b6000808290506000845190508151811462000c005760009250505062000cc3565b60005b8181101562000cbb5782818151811062000c225762000c216200324d565b5b602001015160f81c60f81b7effffffffffffffffffffffffffffffffffffffffffffffffffffffffffffff191686828151811062000c655762000c646200324d565b5b602001015160f81c60f81b7effffffffffffffffffffffffffffffffffffffffffffffffffffffffffffff19161462000ca5576000935050505062000cc3565b808062000cb2906200319e565b91505062000c03565b506001925050505b92915050565b600073ffffffffffffffffffffffffffffffffffffffff16600260003373ffffffffffffffffffffffffffffffffffffffff1673ffffffffffffffffffffffffffffffffffffffff16815260200190815260200160002060009054906101000a900473ffffffffffffffffffffffffffffffffffffffff1673ffffffffffffffffffffffffffffffffffffffff16141562000d90576040517f2163950f00000000000000000000000000000000000000000000000000000000815260040160405180910390fd5b8542111562000dcb576040517f6f7eac2600000000000000000000000000000000000000000000000000000000815260040160405180910390fd5b60008290506000829050841562000e2f5762000e098260008054906101000a900473ffffffffffffffffffffffffffffffffffffffff168562001339565b905060008054906101000a900473ffffffffffffffffffffffffffffffffffffffff1691505b600062000e3b62000ade565b905080600360006101000a81548173ffffffffffffffffffffffffffffffffffffffff021916908373ffffffffffffffffffffffffffffffffffffffff160217905550600062000e8d8284866200160b565b9050600360009054906101000a900473ffffffffffffffffffffffffffffffffffffffff1673ffffffffffffffffffffffffffffffffffffffff166313aa65398c8c8c8c8b878e6040518863ffffffff1660e01b815260040162000ef8979695949392919062002d25565b602060405180830381600087803b15801562000f1357600080fd5b505af115801562000f28573d6000803e3d6000fd5b505050506040513d601f19601f8201168201806040525081019062000f4e9190620028b3565b505050505050505050505050565b600073ffffffffffffffffffffffffffffffffffffffff16600260003373ffffffffffffffffffffffffffffffffffffffff1673ffffffffffffffffffffffffffffffffffffffff16815260200190815260200160002060009054906101000a900473ffffffffffffffffffffffffffffffffffffffff1673ffffffffffffffffffffffffffffffffffffffff16141562001023576040517f2163950f00000000000000000000000000000000000000000000000000000000815260040160405180910390fd5b6000600260003373ffffffffffffffffffffffffffffffffffffffff1673ffffffffffffffffffffffffffffffffffffffff16815260200190815260200160002060009054906101000a900473ffffffffffffffffffffffffffffffffffffffff16905080600360006101000a81548173ffffffffffffffffffffffffffffffffffffffff021916908373ffffffffffffffffffffffffffffffffffffffff16021790555060008290506000600360009054906101000a900473ffffffffffffffffffffffffffffffffffffffff1673ffffffffffffffffffffffffffffffffffffffff16631bb862a5876040518263ffffffff1660e01b81526004016200112c919062002ccd565b60206040518083038186803b1580156200114557600080fd5b505afa1580156200115a573d6000803e3d6000fd5b505050506040513d601f19601f82011682018060405250810190620011809190620026d3565b90508015620012695762001266600360009054906101000a900473ffffffffffffffffffffffffffffffffffffffff1673ffffffffffffffffffffffffffffffffffffffff1663e18f5f65886040518263ffffffff1660e01b8152600401620011ea919062002ccd565b60206040518083038186803b1580156200120357600080fd5b505afa15801562001218573d6000803e3d6000fd5b505050506040513d601f19601f820116820180604052508101906200123e91906200252d565b60008054906101000a900473ffffffffffffffffffffffffffffffffffffffff168462001339565b91505b6000620012788484886200160b565b9050600360009054906101000a900473ffffffffffffffffffffffffffffffffffffffff1673ffffffffffffffffffffffffffffffffffffffff166346718f1a88836040518363ffffffff1660e01b8152600401620012d992919062002cf1565b602060405180830381600087803b158015620012f457600080fd5b505af115801562001309573d6000803e3d6000fd5b505050506040513d601f19601f820116820180604052508101906200132f9190620028b3565b5050505050505050565b6000620013e97f000000000000000000000000000000000000000000000000000000000000000073ffffffffffffffffffffffffffffffffffffffff1663569541b96040518163ffffffff1660e01b815260040160206040518083038186803b158015620013a657600080fd5b505afa158015620013bb573d6000803e3d6000fd5b505050506040513d601f19601f82011682018060405250810190620013e191906200252d565b83866200160b565b506000620015e17f000000000000000000000000000000000000000000000000000000000000000073ffffffffffffffffffffffffffffffffffffffff1663569541b96040518163ffffffff1660e01b815260040160206040518083038186803b1580156200145757600080fd5b505afa1580156200146c573d6000803e3d6000fd5b505050506040513d601f19601f820116820180604052508101906200149291906200252d565b7f000000000000000000000000000000000000000000000000000000000000000073ffffffffffffffffffffffffffffffffffffffff1663d936a0126040518163ffffffff1660e01b815260040160206040518083038186803b158015620014f957600080fd5b505afa1580156200150e573d6000803e3d6000fd5b505050506040513d601f19601f820116820180604052508101906200153491906200252d565b7f000000000000000000000000000000000000000000000000000000000000000073ffffffffffffffffffffffffffffffffffffffff1663842da36d6040518163ffffffff1660e01b815260040160206040518083038186803b1580156200159b57600080fd5b505afa158015620015b0573d6000803e3d6000fd5b505050506040513d601f19601f82011682018060405250810190620015d691906200252d565b88878960006200188d565b90506000620015f03062001c6e565b9050620015ff85838362001c91565b81925050509392505050565b60008060008373ffffffffffffffffffffffffffffffffffffffff1663d9eeebed6040518163ffffffff1660e01b8152600401604080518083038186803b1580156200165657600080fd5b505afa1580156200166b573d6000803e3d6000fd5b505050506040513d601f19601f820116820180604052508101906200169191906200255f565b91509150600281620016a4919062002fc7565b90508373ffffffffffffffffffffffffffffffffffffffff168273ffffffffffffffffffffffffffffffffffffffff16146200170c576040517fcaaa35e700000000000000000000000000000000000000000000000000000000815260040160405180910390fd5b84811062001746576040517fd0c279a200000000000000000000000000000000000000000000000000000000815260040160405180910390fd5b6000818662001756919062003028565b90508473ffffffffffffffffffffffffffffffffffffffff1663095ea7b386846040518363ffffffff1660e01b81526004016200179592919062002c32565b602060405180830381600087803b158015620017b057600080fd5b505af1158015620017c5573d6000803e3d6000fd5b505050506040513d601f19601f82011682018060405250810190620017eb9190620026d3565b508473ffffffffffffffffffffffffffffffffffffffff1663095ea7b388836040518363ffffffff1660e01b81526004016200182992919062002c32565b602060405180830381600087803b1580156200184457600080fd5b505af115801562001859573d6000803e3d6000fd5b505050506040513d601f19601f820116820180604052508101906200187f9190620026d3565b508093505050509392505050565b6000806200189d88878662001f16565b905060608115620019a257600267ffffffffffffffff811115620018c657620018c56200327c565b5b604051908082528060200260200182016040528015620018f55781602001602082028036833780820191505090505b509050868160008151811062001910576200190f6200324d565b5b602002602001019073ffffffffffffffffffffffffffffffffffffffff16908173ffffffffffffffffffffffffffffffffffffffff168152505084816001815181106200196257620019616200324d565b5b602002602001019073ffffffffffffffffffffffffffffffffffffffff16908173ffffffffffffffffffffffffffffffffffffffff168152505062001ae9565b600367ffffffffffffffff811115620019c057620019bf6200327c565b5b604051908082528060200260200182016040528015620019ef5781602001602082028036833780820191505090505b509050868160008151811062001a0a5762001a096200324d565b5b602002602001019073ffffffffffffffffffffffffffffffffffffffff16908173ffffffffffffffffffffffffffffffffffffffff1681525050898160018151811062001a5c5762001a5b6200324d565b5b602002602001019073ffffffffffffffffffffffffffffffffffffffff16908173ffffffffffffffffffffffffffffffffffffffff1681525050848160028151811062001aae5762001aad6200324d565b5b602002602001019073ffffffffffffffffffffffffffffffffffffffff16908173ffffffffffffffffffffffffffffffffffffffff16815250505b8673ffffffffffffffffffffffffffffffffffffffff1663095ea7b389886040518363ffffffff1660e01b815260040162001b2692919062002c32565b602060405180830381600087803b15801562001b4157600080fd5b505af115801562001b56573d6000803e3d6000fd5b505050506040513d601f19601f8201168201806040525081019062001b7c9190620026d3565b5060008873ffffffffffffffffffffffffffffffffffffffff166338ed17398887853060c861ffff164262001bb2919062002f6a565b6040518663ffffffff1660e01b815260040162001bd495949392919062002dc6565b600060405180830381600087803b15801562001bef57600080fd5b505af115801562001c04573d6000803e3d6000fd5b505050506040513d6000823e3d601f19601f8201168201806040525081019062001c2f919062002682565b9050806001835162001c42919062003028565b8151811062001c565762001c556200324d565b5b60200260200101519350505050979650505050505050565b60008173ffffffffffffffffffffffffffffffffffffffff1660001b9050919050565b6000808473ffffffffffffffffffffffffffffffffffffffff1663d9eeebed6040518163ffffffff1660e01b8152600401604080518083038186803b15801562001cda57600080fd5b505afa15801562001cef573d6000803e3d6000fd5b505050506040513d601f19601f8201168201806040525081019062001d1591906200255f565b915091508473ffffffffffffffffffffffffffffffffffffffff168273ffffffffffffffffffffffffffffffffffffffff161462001d7f576040517fcaaa35e700000000000000000000000000000000000000000000000000000000815260040160405180910390fd5b83811062001db9576040517fd0c279a200000000000000000000000000000000000000000000000000000000815260040160405180910390fd5b8473ffffffffffffffffffffffffffffffffffffffff1663095ea7b386836040518363ffffffff1660e01b815260040162001df692919062002c32565b602060405180830381600087803b15801562001e1157600080fd5b505af115801562001e26573d6000803e3d6000fd5b505050506040513d601f19601f8201168201806040525081019062001e4c9190620026d3565b508473ffffffffffffffffffffffffffffffffffffffff1663c70126268460405160200162001e7c919062002b27565b604051602081830303815290604052838762001e99919062003028565b6040518363ffffffff1660e01b815260040162001eb892919062002c7c565b602060405180830381600087803b15801562001ed357600080fd5b505af115801562001ee8573d6000803e3d6000fd5b505050506040513d601f19601f8201168201806040525081019062001f0e9190620026d3565b505050505050565b60008062001f268585856200205f565b905060008473ffffffffffffffffffffffffffffffffffffffff166370a08231836040518263ffffffff1660e01b815260040162001f65919062002b8e565b60206040518083038186803b15801562001f7e57600080fd5b505afa15801562001f93573d6000803e3d6000fd5b505050506040513d601f19601f8201168201806040525081019062001fb99190620028b3565b11801562002055575060008373ffffffffffffffffffffffffffffffffffffffff166370a08231836040518263ffffffff1660e01b815260040162001fff919062002b8e565b60206040518083038186803b1580156200201857600080fd5b505afa1580156200202d573d6000803e3d6000fd5b505050506040513d601f19601f82011682018060405250810190620020539190620028b3565b115b9150509392505050565b6000806000620020708585620020d7565b915091508582826040516020016200208a92919062002af7565b60405160208183030381529060405280519060200120604051602001620020b392919062002b44565b6040516020818303038152906040528051906020012060001c925050509392505050565b6000808273ffffffffffffffffffffffffffffffffffffffff168473ffffffffffffffffffffffffffffffffffffffff16141562002141576040517fcb1e7cfe00000000000000000000000000000000000000000000000000000000815260040160405180910390fd5b8273ffffffffffffffffffffffffffffffffffffffff168473ffffffffffffffffffffffffffffffffffffffff16106200217d57828462002180565b83835b8092508193505050600073ffffffffffffffffffffffffffffffffffffffff168273ffffffffffffffffffffffffffffffffffffffff161415620021f0576040517f78b507da00000000000000000000000000000000000000000000000000000000815260040160405180910390fd5b9250929050565b61287680620033a283390190565b60006200221c620022168462002e53565b62002e2a565b90508083825260208201905082856020860282011115620022425762002241620032b5565b5b60005b858110156200227657816200225b8882620024ff565b84526020840193506020830192505060018101905062002245565b5050509392505050565b600062002297620022918462002e82565b62002e2a565b905082815260208101848484011115620022b657620022b5620032ba565b5b620022c384828562003123565b509392505050565b6000620022e2620022dc8462002eb8565b62002e2a565b905082815260208101848484011115620023015762002300620032ba565b5b6200230e84828562003123565b509392505050565b60006200232d620023278462002eb8565b62002e2a565b9050828152602081018484840111156200234c576200234b620032ba565b5b6200235984828562003132565b509392505050565b600081359050620023728162003339565b92915050565b600081519050620023898162003339565b92915050565b600082601f830112620023a757620023a6620032b0565b5b8151620023b984826020860162002205565b91505092915050565b600081359050620023d38162003353565b92915050565b600081519050620023ea8162003353565b92915050565b60008083601f840112620024095762002408620032b0565b5b8235905067ffffffffffffffff811115620024295762002428620032ab565b5b602083019150836001820283011115620024485762002447620032b5565b5b9250929050565b600082601f830112620024675762002466620032b0565b5b81356200247984826020860162002280565b91505092915050565b600082601f8301126200249a5762002499620032b0565b5b8135620024ac848260208601620022cb565b91505092915050565b600082601f830112620024cd57620024cc620032b0565b5b8151620024df84826020860162002316565b91505092915050565b600081359050620024f9816200336d565b92915050565b60008151905062002510816200336d565b92915050565b600081359050620025278162003387565b92915050565b600060208284031215620025465762002545620032c4565b5b6000620025568482850162002378565b91505092915050565b60008060408385031215620025795762002578620032c4565b5b6000620025898582860162002378565b92505060206200259c85828601620024ff565b9150509250929050565b600080600060608486031215620025c257620025c1620032c4565b5b6000620025d28682870162002361565b9350506020620025e586828701620024e8565b9250506040620025f88682870162002361565b9150509250925092565b600080600080606085870312156200261f576200261e620032c4565b5b60006200262f8782880162002361565b94505060206200264287828801620024e8565b935050604085013567ffffffffffffffff811115620026665762002665620032bf565b5b6200267487828801620023f0565b925092505092959194509250565b6000602082840312156200269b576200269a620032c4565b5b600082015167ffffffffffffffff811115620026bc57620026bb620032bf565b5b620026ca848285016200238f565b91505092915050565b600060208284031215620026ec57620026eb620032c4565b5b6000620026fc84828501620023d9565b91505092915050565b60008060008060008060c08789031215620027255762002724620032c4565b5b600087013567ffffffffffffffff811115620027465762002745620032bf565b5b6200275489828a016200244f565b965050602087013567ffffffffffffffff811115620027785762002777620032bf565b5b6200278689828a0162002482565b95505060406200279989828a01620024e8565b9450506060620027ac89828a01620024e8565b9350506080620027bf89828a0162002516565b92505060a0620027d289828a01620023c2565b9150509295509295509295565b600060208284031215620027f857620027f7620032c4565b5b600082013567ffffffffffffffff811115620028195762002818620032bf565b5b620028278482850162002482565b91505092915050565b600060208284031215620028495762002848620032c4565b5b600082015167ffffffffffffffff8111156200286a5762002869620032bf565b5b6200287884828501620024b5565b91505092915050565b6000602082840312156200289a5762002899620032c4565b5b6000620028aa84828501620024e8565b91505092915050565b600060208284031215620028cc57620028cb620032c4565b5b6000620028dc84828501620024ff565b91505092915050565b6000620028f3838362002910565b60208301905092915050565b6200290a8162003077565b82525050565b6200291b8162003063565b82525050565b6200292c8162003063565b82525050565b62002947620029418262003063565b620031ec565b82525050565b60006200295a8262002efe565b62002966818562002f2c565b9350620029738362002eee565b8060005b83811015620029aa5781516200298e8882620028e5565b97506200299b8362002f1f565b92505060018101905062002977565b5085935050505092915050565b620029c2816200308b565b82525050565b620029dd620029d78262003097565b62003200565b82525050565b6000620029f08262002f09565b620029fc818562002f3d565b935062002a0e81856020860162003132565b62002a1981620032c9565b840191505092915050565b62002a2f81620030e7565b82525050565b600062002a428262002f14565b62002a4e818562002f4e565b935062002a6081856020860162003132565b62002a6b81620032c9565b840191505092915050565b600062002a8560208362002f5f565b915062002a9282620032e7565b602082019050919050565b600062002aac60018362002f5f565b915062002ab98262003310565b600182019050919050565b62002acf81620030c1565b82525050565b62002ae081620030d0565b82525050565b62002af181620030da565b82525050565b600062002b05828562002932565b60148201915062002b17828462002932565b6014820191508190509392505050565b600062002b358284620029c8565b60208201915081905092915050565b600062002b518262002a9d565b915062002b5f828562002932565b60148201915062002b718284620029c8565b60208201915062002b828262002a76565b91508190509392505050565b600060208201905062002ba5600083018462002921565b92915050565b600060208201905062002bc26000830184620028ff565b92915050565b600060408201905062002bdf600083018562002921565b62002bee602083018462002921565b9392505050565b600060608201905062002c0c600083018662002921565b62002c1b602083018562002921565b62002c2a604083018462002ad5565b949350505050565b600060408201905062002c49600083018562002921565b62002c58602083018462002ad5565b9392505050565b600060208201905062002c766000830184620029b7565b92915050565b6000604082019050818103600083015262002c988185620029e3565b905062002ca9602083018462002ad5565b9392505050565b600060208201905062002cc7600083018462002a24565b92915050565b6000602082019050818103600083015262002ce9818462002a35565b905092915050565b6000604082019050818103600083015262002d0d818562002a35565b905062002d1e602083018462002ad5565b9392505050565b600060e082019050818103600083015262002d41818a62002a35565b905062002d52602083018962002ad5565b62002d61604083018862002ad5565b62002d70606083018762002ae6565b62002d7f608083018662002921565b62002d8e60a083018562002ad5565b62002d9d60c0830184620029b7565b98975050505050505050565b600060208201905062002dc0600083018462002ac4565b92915050565b600060a08201905062002ddd600083018862002ad5565b62002dec602083018762002ad5565b818103604083015262002e0081866200294d565b905062002e11606083018562002921565b62002e20608083018462002ad5565b9695505050505050565b600062002e3662002e49565b905062002e44828262003168565b919050565b6000604051905090565b600067ffffffffffffffff82111562002e715762002e706200327c565b5b602082029050602081019050919050565b600067ffffffffffffffff82111562002ea05762002e9f6200327c565b5b62002eab82620032c9565b9050602081019050919050565b600067ffffffffffffffff82111562002ed65762002ed56200327c565b5b62002ee182620032c9565b9050602081019050919050565b6000819050602082019050919050565b600081519050919050565b600081519050919050565b600081519050919050565b6000602082019050919050565b600082825260208201905092915050565b600082825260208201905092915050565b600082825260208201905092915050565b600081905092915050565b600062002f7782620030d0565b915062002f8483620030d0565b9250827fffffffffffffffffffffffffffffffffffffffffffffffffffffffffffffffff0382111562002fbc5762002fbb6200321e565b5b828201905092915050565b600062002fd482620030d0565b915062002fe183620030d0565b9250817fffffffffffffffffffffffffffffffffffffffffffffffffffffffffffffffff04831182151516156200301d576200301c6200321e565b5b828202905092915050565b60006200303582620030d0565b91506200304283620030d0565b9250828210156200305857620030576200321e565b5b828203905092915050565b60006200307082620030a1565b9050919050565b60006200308482620030a1565b9050919050565b60008115159050919050565b6000819050919050565b600073ffffffffffffffffffffffffffffffffffffffff82169050919050565b600062ffffff82169050919050565b6000819050919050565b600060ff82169050919050565b6000620030f482620030fb565b9050919050565b600062003108826200310f565b9050919050565b60006200311c82620030a1565b9050919050565b82818337600083830152505050565b60005b838110156200315257808201518184015260208101905062003135565b8381111562003162576000848401525b50505050565b6200317382620032c9565b810181811067ffffffffffffffff821117156200319557620031946200327c565b5b80604052505050565b6000620031ab82620030d0565b91507fffffffffffffffffffffffffffffffffffffffffffffffffffffffffffffffff821415620031e157620031e06200321e565b5b600182019050919050565b6000620031f9826200320a565b9050919050565b6000819050919050565b60006200321782620032da565b9050919050565b7f4e487b7100000000000000000000000000000000000000000000000000000000600052601160045260246000fd5b7f4e487b7100000000000000000000000000000000000000000000000000000000600052603260045260246000fd5b7f4e487b7100000000000000000000000000000000000000000000000000000000600052604160045260246000fd5b600080fd5b600080fd5b600080fd5b600080fd5b600080fd5b600080fd5b6000601f19601f8301169050919050565b60008160601b9050919050565b7f96e8ac4277198ff8b6f785478aa9a39f403cb768dd02cbee326c3e7da348845f600082015250565b7fff00000000000000000000000000000000000000000000000000000000000000600082015250565b620033448162003063565b81146200335057600080fd5b50565b6200335e816200308b565b81146200336a57600080fd5b50565b6200337881620030d0565b81146200338457600080fd5b50565b6200339281620030da565b81146200339e57600080fd5b5056fe6080604052604051620028763803806200287683398181016040528101906200002991906200010a565b336000806101000a81548173ffffffffffffffffffffffffffffffffffffffff021916908373ffffffffffffffffffffffffffffffffffffffff16021790555081600160006101000a81548173ffffffffffffffffffffffffffffffffffffffff021916908373ffffffffffffffffffffffffffffffffffffffff16021790555080600260006101000a81548173ffffffffffffffffffffffffffffffffffffffff021916908373ffffffffffffffffffffffffffffffffffffffff1602179055505050620001a4565b60008151905062000104816200018a565b92915050565b6000806040838503121562000124576200012362000185565b5b60006200013485828601620000f3565b92505060206200014785828601620000f3565b9150509250929050565b60006200015e8262000165565b9050919050565b600073ffffffffffffffffffffffffffffffffffffffff82169050919050565b600080fd5b620001958162000151565b8114620001a157600080fd5b50565b6126c280620001b46000396000f3fe6080604052600436106100955760003560e01c80634282a572116100595780634282a572146101e657806346718f1a14610223578063992642e514610253578063d1ece7901461027e578063e18f5f65146102a9576100d5565b806313203929146100da57806313aa65391461011e5780631bb862a51461014e5780632ae3c90f1461018b578063372f9101146101b6576100d5565b366100d5577f88a5966d370b9919b20f3e2c13ff65706f196a4e32cc2c12bf57088f8852587433346040516100cb929190611fd3565b60405180910390a1005b600080fd5b3480156100e657600080fd5b5061010160048036038101906100fc9190611b11565b6102e6565b60405161011598979695949392919061204e565b60405180910390f35b61013860048036038101906101339190611bb6565b61037e565b60405161014591906121e6565b60405180910390f35b34801561015a57600080fd5b5061017560048036038101906101709190611b11565b610742565b6040516101829190612033565b60405180910390f35b34801561019757600080fd5b506101a061077a565b6040516101ad9190611f81565b60405180910390f35b6101d060048036038101906101cb9190611b11565b61079e565b6040516101dd91906120fc565b60405180910390f35b3480156101f257600080fd5b5061020d60048036038101906102089190611b11565b610b90565b60405161021a91906121a8565b60405180910390f35b61023d60048036038101906102389190611b5a565b610c87565b60405161024a91906121e6565b60405180910390f35b34801561025f57600080fd5b50610268610fed565b6040516102759190611f81565b60405180910390f35b34801561028a57600080fd5b50610293611013565b6040516102a091906121c4565b60405180910390f35b3480156102b557600080fd5b506102d060048036038101906102cb9190611b11565b611106565b6040516102dd9190611f66565b60405180910390f35b6003818051602081018201805184825260208301602085012081835280955050505050506000915090508060000160009054906101000a900460ff16908060010154908060020160009054906101000a900473ffffffffffffffffffffffffffffffffffffffff16908060030154908060040154908060050154908060060154908060070160009054906101000a900460ff16905088565b60008060009054906101000a900473ffffffffffffffffffffffffffffffffffffffff1673ffffffffffffffffffffffffffffffffffffffff163373ffffffffffffffffffffffffffffffffffffffff1614610406576040517f8481e97e00000000000000000000000000000000000000000000000000000000815260040160405180910390fd5b6003886040516104169190611f4f565b908152602001604051809103902060000160009054906101000a900460ff161561046c576040517fd63d1e4800000000000000000000000000000000000000000000000000000000815260040160405180910390fd5b858710156104a6576040517f6f7eac2600000000000000000000000000000000000000000000000000000000815260040160405180910390fd5b428710156104e0576040517f6f7eac2600000000000000000000000000000000000000000000000000000000815260040160405180910390fd5b60006003905082156105b15761052a6040518060400160405280600e81526020017f63726561746520736176696e6773000000000000000000000000000000000000815250611151565b610555600260009054906101000a900473ffffffffffffffffffffffffffffffffffffffff166111ea565b610580600160009054906101000a900473ffffffffffffffffffffffffffffffffffffffff166111ea565b6105ac600260009054906101000a900473ffffffffffffffffffffffffffffffffffffffff1685611283565b6105bc565b6105bb8585611283565b5b6040518061010001604052806001151581526020018581526020018673ffffffffffffffffffffffffffffffffffffffff1681526020018281526020018881526020018760ff16815260200189815260200184151581525060038a6040516106249190611f4f565b908152602001604051809103902060008201518160000160006101000a81548160ff0219169083151502179055506020820151816001015560408201518160020160006101000a81548173ffffffffffffffffffffffffffffffffffffffff021916908373ffffffffffffffffffffffffffffffffffffffff160217905550606082015181600301556080820151816004015560a0820151816005015560c0820151816006015560e08201518160070160006101000a81548160ff0219169083151502179055509050506106f789611302565b7f4ad85a69286191006ea05981ae1848070dbf232e5e00ffdda4b857c16097f0d789858760405161072a9392919061211e565b60405180910390a16001915050979650505050505050565b60006003826040516107549190611f4f565b908152602001604051809103902060070160009054906101000a900460ff169050919050565b60008054906101000a900473ffffffffffffffffffffffffffffffffffffffff1681565b606060008054906101000a900473ffffffffffffffffffffffffffffffffffffffff1673ffffffffffffffffffffffffffffffffffffffff163373ffffffffffffffffffffffffffffffffffffffff1614610825576040517f8481e97e00000000000000000000000000000000000000000000000000000000815260040160405180910390fd5b60006003836040516108379190611f4f565b908152602001604051809103902090508060000160009054906101000a900460ff1661088f576040517fd63d1e4800000000000000000000000000000000000000000000000000000000815260040160405180910390fd5b600081600601544210156108d0576064826005015460646108b091906123c5565b83600101546108bf919061236b565b6108c9919061233a565b905061093e565b600160009054906101000a900473ffffffffffffffffffffffffffffffffffffffff1673ffffffffffffffffffffffffffffffffffffffff166108fc83600301549081150290604051600060405180830381858888f1935050505015801561093c573d6000803e3d6000fd5b505b60008260020160009054906101000a900473ffffffffffffffffffffffffffffffffffffffff1690508260070160009054906101000a900460ff1615610a8d5760006109cd60008054906101000a900473ffffffffffffffffffffffffffffffffffffffff1684600260009054906101000a900473ffffffffffffffffffffffffffffffffffffffff16611344565b905060008060009054906101000a900473ffffffffffffffffffffffffffffffffffffffff1690508073ffffffffffffffffffffffffffffffffffffffff1663de35c3728484600160009054906101000a900473ffffffffffffffffffffffffffffffffffffffff166040518463ffffffff1660e01b8152600401610a5493929190611ffc565b600060405180830381600087803b158015610a6e57600080fd5b505af1158015610a82573d6000803e3d6000fd5b505050505050610adf565b610ade8360020160009054906101000a900473ffffffffffffffffffffffffffffffffffffffff16600160009054906101000a900473ffffffffffffffffffffffffffffffffffffffff16846115b0565b5b6000600386604051610af19190611f4f565b908152602001604051809103902060000160006101000a81548160ff0219169083151502179055507f5b059b7fe1fea38d4de595079621498a365a8f1fa13e49af9f1e4b7197ab049a85604051610b4891906120fc565b60405180910390a16040518060400160405280601e81526020017f736176696e67732077697468647261776e207375636365737366756c6c7900008152509350505050919050565b610b9861188c565b600382604051610ba89190611f4f565b9081526020016040518091039020604051806101000160405290816000820160009054906101000a900460ff16151515158152602001600182015481526020016002820160009054906101000a900473ffffffffffffffffffffffffffffffffffffffff1673ffffffffffffffffffffffffffffffffffffffff1673ffffffffffffffffffffffffffffffffffffffff168152602001600382015481526020016004820154815260200160058201548152602001600682015481526020016007820160009054906101000a900460ff1615151515815250509050919050565b60008060009054906101000a900473ffffffffffffffffffffffffffffffffffffffff1673ffffffffffffffffffffffffffffffffffffffff163373ffffffffffffffffffffffffffffffffffffffff1614610d0f576040517f8481e97e00000000000000000000000000000000000000000000000000000000815260040160405180910390fd5b6000600384604051610d219190611f4f565b908152602001604051809103902090508060000160009054906101000a900460ff16610d79576040517fd63d1e4800000000000000000000000000000000000000000000000000000000815260040160405180910390fd5b8060060154421115610db7576040517f6f7eac2600000000000000000000000000000000000000000000000000000000815260040160405180910390fd5b8060070160009054906101000a900460ff1615610dff57610dfa600260009054906101000a900473ffffffffffffffffffffffffffffffffffffffff1684611283565b610e2e565b610e2d8160020160009054906101000a900473ffffffffffffffffffffffffffffffffffffffff1684611283565b5b600060019050808260030154610e4491906122e4565b8260030181905550838260010154610e5c91906122e4565b826001018190555081600386604051610e759190611f4f565b90815260200160405180910390206000820160009054906101000a900460ff168160000160006101000a81548160ff021916908315150217905550600182015481600101556002820160009054906101000a900473ffffffffffffffffffffffffffffffffffffffff168160020160006101000a81548173ffffffffffffffffffffffffffffffffffffffff021916908373ffffffffffffffffffffffffffffffffffffffff160217905550600382015481600301556004820154816004015560058201548160050155600682015481600601556007820160009054906101000a900460ff168160070160006101000a81548160ff0219169083151502179055509050507ff6b98d8e0d83f8b1d1ff03a2fa36aba2c77ccf20e4ff035c0cf4aa92762e9eec858584600101548560020160009054906101000a900473ffffffffffffffffffffffffffffffffffffffff16604051610fd6949392919061215c565b60405180910390a181600301549250505092915050565b600260009054906101000a900473ffffffffffffffffffffffffffffffffffffffff1681565b61101b6118eb565b600460405180602001604052908160008201805480602002602001604051908101604052809291908181526020016000905b828210156110f957838290600052602060002001805461106c906124e2565b80601f0160208091040260200160405190810160405280929190818152602001828054611098906124e2565b80156110e55780601f106110ba576101008083540402835291602001916110e5565b820191906000526020600020905b8154815290600101906020018083116110c857829003601f168201915b50505050508152602001906001019061104d565b5050505081525050905090565b60006003826040516111189190611f4f565b908152602001604051809103902060020160009054906101000a900473ffffffffffffffffffffffffffffffffffffffff169050919050565b6111e78160405160240161116591906120fc565b6040516020818303038152906040527f41304fac000000000000000000000000000000000000000000000000000000007bffffffffffffffffffffffffffffffffffffffffffffffffffffffff19166020820180517bffffffffffffffffffffffffffffffffffffffffffffffffffffffff8381831617835250505050611784565b50565b611280816040516024016111fe9190611f66565b6040516020818303038152906040527f2c2ecbc2000000000000000000000000000000000000000000000000000000007bffffffffffffffffffffffffffffffffffffffffffffffffffffffff19166020820180517bffffffffffffffffffffffffffffffffffffffffffffffffffffffff8381831617835250505050611784565b50565b60004790506112b360008054906101000a900473ffffffffffffffffffffffffffffffffffffffff1684846117a5565b60004790508083836112c591906122e4565b116112fc576040517fcb6e851c00000000000000000000000000000000000000000000000000000000815260040160405180910390fd5b50505050565b6004600001819080600181540180825580915050600190039060005260206000200160009091909190915090805190602001906113409291906118fe565b5050565b60008060008373ffffffffffffffffffffffffffffffffffffffff1663d9eeebed6040518163ffffffff1660e01b8152600401604080518083038186803b15801561138e57600080fd5b505afa1580156113a2573d6000803e3d6000fd5b505050506040513d601f19601f820116820180604052508101906113c69190611aa4565b915091506002816113d7919061236b565b90508373ffffffffffffffffffffffffffffffffffffffff168273ffffffffffffffffffffffffffffffffffffffff161461143e576040517fcaaa35e700000000000000000000000000000000000000000000000000000000815260040160405180910390fd5b848110611477576040517fd0c279a200000000000000000000000000000000000000000000000000000000815260040160405180910390fd5b6000818661148591906123c5565b90508473ffffffffffffffffffffffffffffffffffffffff1663095ea7b386846040518363ffffffff1660e01b81526004016114c2929190611fd3565b602060405180830381600087803b1580156114dc57600080fd5b505af11580156114f0573d6000803e3d6000fd5b505050506040513d601f19601f820116820180604052508101906115149190611ae4565b508473ffffffffffffffffffffffffffffffffffffffff1663095ea7b388836040518363ffffffff1660e01b8152600401611550929190611fd3565b602060405180830381600087803b15801561156a57600080fd5b505af115801561157e573d6000803e3d6000fd5b505050506040513d601f19601f820116820180604052508101906115a29190611ae4565b508093505050509392505050565b60008390506000808273ffffffffffffffffffffffffffffffffffffffff1663d9eeebed6040518163ffffffff1660e01b8152600401604080518083038186803b1580156115fd57600080fd5b505afa158015611611573d6000803e3d6000fd5b505050506040513d601f19601f820116820180604052508101906116359190611aa4565b91509150600281611646919061236b565b905083811115611682576040517fd0c279a200000000000000000000000000000000000000000000000000000000815260040160405180910390fd5b600061168d86611840565b9050600061169a82611863565b90508473ffffffffffffffffffffffffffffffffffffffff1663c701262682886040518363ffffffff1660e01b81526004016116d79291906120cc565b602060405180830381600087803b1580156116f157600080fd5b505af1158015611705573d6000803e3d6000fd5b505050506040513d601f19601f820116820180604052508101906117299190611ae4565b503073ffffffffffffffffffffffffffffffffffffffff167f5a728b1f316a097ec4f8a742082e66f5c4721e46906f187be4de14736518715282886040516117729291906120cc565b60405180910390a25050505050505050565b60006a636f6e736f6c652e6c6f679050600080835160208501845afa505050565b60003090508273ffffffffffffffffffffffffffffffffffffffff166323b872dd8583856040518463ffffffff1660e01b81526004016117e793929190611f9c565b602060405180830381600087803b15801561180157600080fd5b505af1158015611815573d6000803e3d6000fd5b505050506040513d601f19601f820116820180604052508101906118399190611ae4565b5050505050565b60008173ffffffffffffffffffffffffffffffffffffffff1660001b9050919050565b6060816040516020016118769190611f34565b6040516020818303038152906040529050919050565b60405180610100016040528060001515815260200160008152602001600073ffffffffffffffffffffffffffffffffffffffff168152602001600081526020016000815260200160008152602001600081526020016000151581525090565b6040518060200160405280606081525090565b82805461190a906124e2565b90600052602060002090601f01602090048101928261192c5760008555611973565b82601f1061194557805160ff1916838001178555611973565b82800160010185558215611973579182015b82811115611972578251825591602001919060010190611957565b5b5090506119809190611984565b5090565b5b8082111561199d576000816000905550600101611985565b5090565b60006119b46119af84612226565b612201565b9050828152602081018484840111156119d0576119cf612610565b5b6119db8482856124a0565b509392505050565b6000813590506119f281612630565b92915050565b600081519050611a0781612630565b92915050565b600081359050611a1c81612647565b92915050565b600081519050611a3181612647565b92915050565b600082601f830112611a4c57611a4b61260b565b5b8135611a5c8482602086016119a1565b91505092915050565b600081359050611a748161265e565b92915050565b600081519050611a898161265e565b92915050565b600081359050611a9e81612675565b92915050565b60008060408385031215611abb57611aba61261a565b5b6000611ac9858286016119f8565b9250506020611ada85828601611a7a565b9150509250929050565b600060208284031215611afa57611af961261a565b5b6000611b0884828501611a22565b91505092915050565b600060208284031215611b2757611b2661261a565b5b600082013567ffffffffffffffff811115611b4557611b44612615565b5b611b5184828501611a37565b91505092915050565b60008060408385031215611b7157611b7061261a565b5b600083013567ffffffffffffffff811115611b8f57611b8e612615565b5b611b9b85828601611a37565b9250506020611bac85828601611a65565b9150509250929050565b600080600080600080600060e0888a031215611bd557611bd461261a565b5b600088013567ffffffffffffffff811115611bf357611bf2612615565b5b611bff8a828b01611a37565b9750506020611c108a828b01611a65565b9650506040611c218a828b01611a65565b9550506060611c328a828b01611a8f565b9450506080611c438a828b016119e3565b93505060a0611c548a828b01611a65565b92505060c0611c658a828b01611a0d565b91505092959891949750929550565b6000611c808383611da7565b905092915050565b611c918161246a565b82525050565b611ca08161240b565b82525050565b611caf816123f9565b82525050565b611cbe816123f9565b82525050565b6000611ccf82612267565b611cd98185612295565b935083602082028501611ceb85612257565b8060005b85811015611d275784840389528151611d088582611c74565b9450611d1383612288565b925060208a01995050600181019050611cef565b50829750879550505050505092915050565b611d428161241d565b82525050565b611d518161241d565b82525050565b611d68611d6382612429565b612545565b82525050565b6000611d7982612272565b611d8381856122a6565b9350611d938185602086016124af565b611d9c8161261f565b840191505092915050565b6000611db28261227d565b611dbc81856122b7565b9350611dcc8185602086016124af565b611dd58161261f565b840191505092915050565b6000611deb8261227d565b611df581856122c8565b9350611e058185602086016124af565b611e0e8161261f565b840191505092915050565b6000611e248261227d565b611e2e81856122d9565b9350611e3e8185602086016124af565b80840191505092915050565b61010082016000820151611e616000850182611d39565b506020820151611e746020850182611f16565b506040820151611e876040850182611ca6565b506060820151611e9a6060850182611f16565b506080820151611ead6080850182611f16565b5060a0820151611ec060a0850182611f16565b5060c0820151611ed360c0850182611f16565b5060e0820151611ee660e0850182611d39565b50505050565b60006020830160008301518482036000860152611f098282611cc4565b9150508091505092915050565b611f1f81612453565b82525050565b611f2e81612453565b82525050565b6000611f408284611d57565b60208201915081905092915050565b6000611f5b8284611e19565b915081905092915050565b6000602082019050611f7b6000830184611cb5565b92915050565b6000602082019050611f966000830184611c97565b92915050565b6000606082019050611fb16000830186611cb5565b611fbe6020830185611cb5565b611fcb6040830184611f25565b949350505050565b6000604082019050611fe86000830185611cb5565b611ff56020830184611f25565b9392505050565b60006060820190506120116000830186611cb5565b61201e6020830185611f25565b61202b6040830184611c88565b949350505050565b60006020820190506120486000830184611d48565b92915050565b600061010082019050612064600083018b611d48565b612071602083018a611f25565b61207e6040830189611cb5565b61208b6060830188611f25565b6120986080830187611f25565b6120a560a0830186611f25565b6120b260c0830185611f25565b6120bf60e0830184611d48565b9998505050505050505050565b600060408201905081810360008301526120e68185611d6e565b90506120f56020830184611f25565b9392505050565b600060208201905081810360008301526121168184611de0565b905092915050565b600060608201905081810360008301526121388186611de0565b90506121476020830185611f25565b6121546040830184611cb5565b949350505050565b600060808201905081810360008301526121768187611de0565b90506121856020830186611f25565b6121926040830185611f25565b61219f6060830184611cb5565b95945050505050565b6000610100820190506121be6000830184611e4a565b92915050565b600060208201905081810360008301526121de8184611eec565b905092915050565b60006020820190506121fb6000830184611f25565b92915050565b600061220b61221c565b90506122178282612514565b919050565b6000604051905090565b600067ffffffffffffffff821115612241576122406125dc565b5b61224a8261261f565b9050602081019050919050565b6000819050602082019050919050565b600081519050919050565b600081519050919050565b600081519050919050565b6000602082019050919050565b600082825260208201905092915050565b600082825260208201905092915050565b600082825260208201905092915050565b600082825260208201905092915050565b600081905092915050565b60006122ef82612453565b91506122fa83612453565b9250827fffffffffffffffffffffffffffffffffffffffffffffffffffffffffffffffff0382111561232f5761232e61254f565b5b828201905092915050565b600061234582612453565b915061235083612453565b9250826123605761235f61257e565b5b828204905092915050565b600061237682612453565b915061238183612453565b9250817fffffffffffffffffffffffffffffffffffffffffffffffffffffffffffffffff04831182151516156123ba576123b961254f565b5b828202905092915050565b60006123d082612453565b91506123db83612453565b9250828210156123ee576123ed61254f565b5b828203905092915050565b600061240482612433565b9050919050565b600061241682612433565b9050919050565b60008115159050919050565b6000819050919050565b600073ffffffffffffffffffffffffffffffffffffffff82169050919050565b6000819050919050565b600060ff82169050919050565b60006124758261247c565b9050919050565b60006124878261248e565b9050919050565b600061249982612433565b9050919050565b82818337600083830152505050565b60005b838110156124cd5780820151818401526020810190506124b2565b838111156124dc576000848401525b50505050565b600060028204905060018216806124fa57607f821691505b6020821081141561250e5761250d6125ad565b5b50919050565b61251d8261261f565b810181811067ffffffffffffffff8211171561253c5761253b6125dc565b5b80604052505050565b6000819050919050565b7f4e487b7100000000000000000000000000000000000000000000000000000000600052601160045260246000fd5b7f4e487b7100000000000000000000000000000000000000000000000000000000600052601260045260246000fd5b7f4e487b7100000000000000000000000000000000000000000000000000000000600052602260045260246000fd5b7f4e487b7100000000000000000000000000000000000000000000000000000000600052604160045260246000fd5b600080fd5b600080fd5b600080fd5b600080fd5b6000601f19601f8301169050919050565b612639816123f9565b811461264457600080fd5b50565b6126508161241d565b811461265b57600080fd5b50565b61266781612453565b811461267257600080fd5b50565b61267e8161245d565b811461268957600080fd5b5056fea2646970667358221220884e6227fc78bf8d06d82d92df0c24d551a7536a11a5b7350c9c4225be4c0f4164736f6c63430008070033a2646970667358221220e0f1f3a3a3cb93de86037cc2f1a2c279c81cd902e89b2b1d573c9731e455168364736f6c63430008070033","opcodes":"PUSH1 0xA0 PUSH1 0x40 MSTORE PUSH1 0x40 MLOAD PUSH3 0x5DE1 CODESIZE SUB DUP1 PUSH3 0x5DE1 DUP4 CODECOPY DUP2 DUP2 ADD PUSH1 0x40 MSTORE DUP2 ADD SWAP1 PUSH3 0x29 SWAP2 SWAP1 PUSH3 0xBF JUMP JUMPDEST DUP2 PUSH1 0x0 DUP1 PUSH2 0x100 EXP DUP2 SLOAD DUP2 PUSH20 0xFFFFFFFFFFFFFFFFFFFFFFFFFFFFFFFFFFFFFFFF MUL NOT AND SWAP1 DUP4 PUSH20 0xFFFFFFFFFFFFFFFFFFFFFFFFFFFFFFFFFFFFFFFF AND MUL OR SWAP1 SSTORE POP DUP1 PUSH20 0xFFFFFFFFFFFFFFFFFFFFFFFFFFFFFFFFFFFFFFFF AND PUSH1 0x80 DUP2 PUSH20 0xFFFFFFFFFFFFFFFFFFFFFFFFFFFFFFFFFFFFFFFF AND PUSH1 0x60 SHL DUP2 MSTORE POP POP POP POP PUSH3 0x159 JUMP JUMPDEST PUSH1 0x0 DUP2 MLOAD SWAP1 POP PUSH3 0xB9 DUP2 PUSH3 0x13F JUMP JUMPDEST SWAP3 SWAP2 POP POP JUMP JUMPDEST PUSH1 0x0 DUP1 PUSH1 0x40 DUP4 DUP6 SUB SLT ISZERO PUSH3 0xD9 JUMPI PUSH3 0xD8 PUSH3 0x13A JUMP JUMPDEST JUMPDEST PUSH1 0x0 PUSH3 0xE9 DUP6 DUP3 DUP7 ADD PUSH3 0xA8 JUMP JUMPDEST SWAP3 POP POP PUSH1 0x20 PUSH3 0xFC DUP6 DUP3 DUP7 ADD PUSH3 0xA8 JUMP JUMPDEST SWAP2 POP POP SWAP3 POP SWAP3 SWAP1 POP JUMP JUMPDEST PUSH1 0x0 PUSH3 0x113 DUP3 PUSH3 0x11A JUMP JUMPDEST SWAP1 POP SWAP2 SWAP1 POP JUMP JUMPDEST PUSH1 0x0 PUSH20 0xFFFFFFFFFFFFFFFFFFFFFFFFFFFFFFFFFFFFFFFF DUP3 AND SWAP1 POP SWAP2 SWAP1 POP JUMP JUMPDEST PUSH1 0x0 DUP1 REVERT JUMPDEST PUSH3 0x14A DUP2 PUSH3 0x106 JUMP JUMPDEST DUP2 EQ PUSH3 0x156 JUMPI PUSH1 0x0 DUP1 REVERT JUMPDEST POP JUMP JUMPDEST PUSH1 0x80 MLOAD PUSH1 0x60 SHR PUSH2 0x5C4D PUSH3 0x194 PUSH1 0x0 CODECOPY PUSH1 0x0 DUP2 DUP2 PUSH2 0x6C3 ADD MSTORE DUP2 DUP2 PUSH2 0x1341 ADD MSTORE DUP2 DUP2 PUSH2 0x13F2 ADD MSTORE DUP2 DUP2 PUSH2 0x1494 ADD MSTORE PUSH2 0x1536 ADD MSTORE PUSH2 0x5C4D PUSH1 0x0 RETURN INVALID PUSH1 0x80 PUSH1 0x40 MSTORE PUSH1 0x4 CALLDATASIZE LT PUSH3 0xD9 JUMPI PUSH1 0x0 CALLDATALOAD PUSH1 0xE0 SHR DUP1 PUSH4 0xB88AB348 GT PUSH3 0x8B JUMPI DUP1 PUSH4 0xDE35C372 GT PUSH3 0x61 JUMPI DUP1 PUSH4 0xDE35C372 EQ PUSH3 0x2E3 JUMPI DUP1 PUSH4 0xE4932ABE EQ PUSH3 0x303 JUMPI DUP1 PUSH4 0xE4E224FA EQ PUSH3 0x333 JUMPI DUP1 PUSH4 0xEA413672 EQ PUSH3 0x369 JUMPI PUSH3 0x11C JUMP JUMPDEST DUP1 PUSH4 0xB88AB348 EQ PUSH3 0x255 JUMPI DUP1 PUSH4 0xBB88B769 EQ PUSH3 0x285 JUMPI DUP1 PUSH4 0xC8522691 EQ PUSH3 0x2B5 JUMPI PUSH3 0x11C JUMP JUMPDEST DUP1 PUSH4 0x89FE6AA EQ PUSH3 0x121 JUMPI DUP1 PUSH4 0x1BD817C9 EQ PUSH3 0x151 JUMPI DUP1 PUSH4 0x2AA0A5C8 EQ PUSH3 0x181 JUMPI DUP1 PUSH4 0x372F9101 EQ PUSH3 0x1B1 JUMPI DUP1 PUSH4 0x4CC431E2 EQ PUSH3 0x1F5 JUMPI DUP1 PUSH4 0x992642E5 EQ PUSH3 0x225 JUMPI PUSH3 0x11C JUMP JUMPDEST CALLDATASIZE PUSH3 0x11C JUMPI PUSH32 0x88A5966D370B9919B20F3E2C13FF65706F196A4E32CC2C12BF57088F88525874 CALLER CALLVALUE PUSH1 0x40 MLOAD PUSH3 0x112 SWAP3 SWAP2 SWAP1 PUSH3 0x2C32 JUMP JUMPDEST PUSH1 0x40 MLOAD DUP1 SWAP2 SUB SWAP1 LOG1 STOP JUMPDEST PUSH1 0x0 DUP1 REVERT JUMPDEST CALLVALUE DUP1 ISZERO PUSH3 0x12E JUMPI PUSH1 0x0 DUP1 REVERT JUMPDEST POP PUSH3 0x139 PUSH3 0x399 JUMP JUMPDEST PUSH1 0x40 MLOAD PUSH3 0x148 SWAP2 SWAP1 PUSH3 0x2DA9 JUMP JUMPDEST PUSH1 0x40 MLOAD DUP1 SWAP2 SUB SWAP1 RETURN JUMPDEST CALLVALUE DUP1 ISZERO PUSH3 0x15E JUMPI PUSH1 0x0 DUP1 REVERT JUMPDEST POP PUSH3 0x169 PUSH3 0x39F JUMP JUMPDEST PUSH1 0x40 MLOAD PUSH3 0x178 SWAP2 SWAP1 PUSH3 0x2B8E JUMP JUMPDEST PUSH1 0x40 MLOAD DUP1 SWAP2 SUB SWAP1 RETURN JUMPDEST CALLVALUE DUP1 ISZERO PUSH3 0x18E JUMPI PUSH1 0x0 DUP1 REVERT JUMPDEST POP PUSH3 0x199 PUSH3 0x3C8 JUMP JUMPDEST PUSH1 0x40 MLOAD PUSH3 0x1A8 SWAP2 SWAP1 PUSH3 0x2CCD JUMP JUMPDEST PUSH1 0x40 MLOAD DUP1 SWAP2 SUB SWAP1 RETURN JUMPDEST CALLVALUE DUP1 ISZERO PUSH3 0x1BE JUMPI PUSH1 0x0 DUP1 REVERT JUMPDEST POP PUSH3 0x1DD PUSH1 0x4 DUP1 CALLDATASIZE SUB DUP2 ADD SWAP1 PUSH3 0x1D7 SWAP2 SWAP1 PUSH3 0x27DF JUMP JUMPDEST PUSH3 0x401 JUMP JUMPDEST PUSH1 0x40 MLOAD PUSH3 0x1EC SWAP2 SWAP1 PUSH3 0x2C5F JUMP JUMPDEST PUSH1 0x40 MLOAD DUP1 SWAP2 SUB SWAP1 RETURN JUMPDEST CALLVALUE DUP1 ISZERO PUSH3 0x202 JUMPI PUSH1 0x0 DUP1 REVERT JUMPDEST POP PUSH3 0x20D PUSH3 0x62B JUMP JUMPDEST PUSH1 0x40 MLOAD PUSH3 0x21C SWAP2 SWAP1 PUSH3 0x2CCD JUMP JUMPDEST PUSH1 0x40 MLOAD DUP1 SWAP2 SUB SWAP1 RETURN JUMPDEST CALLVALUE DUP1 ISZERO PUSH3 0x232 JUMPI PUSH1 0x0 DUP1 REVERT JUMPDEST POP PUSH3 0x23D PUSH3 0x664 JUMP JUMPDEST PUSH1 0x40 MLOAD PUSH3 0x24C SWAP2 SWAP1 PUSH3 0x2B8E JUMP JUMPDEST PUSH1 0x40 MLOAD DUP1 SWAP2 SUB SWAP1 RETURN JUMPDEST CALLVALUE DUP1 ISZERO PUSH3 0x262 JUMPI PUSH1 0x0 DUP1 REVERT JUMPDEST POP PUSH3 0x26D PUSH3 0x688 JUMP JUMPDEST PUSH1 0x40 MLOAD PUSH3 0x27C SWAP2 SWAP1 PUSH3 0x2CCD JUMP JUMPDEST PUSH1 0x40 MLOAD DUP1 SWAP2 SUB SWAP1 RETURN JUMPDEST CALLVALUE DUP1 ISZERO PUSH3 0x292 JUMPI PUSH1 0x0 DUP1 REVERT JUMPDEST POP PUSH3 0x29D PUSH3 0x6C1 JUMP JUMPDEST PUSH1 0x40 MLOAD PUSH3 0x2AC SWAP2 SWAP1 PUSH3 0x2CB0 JUMP JUMPDEST PUSH1 0x40 MLOAD DUP1 SWAP2 SUB SWAP1 RETURN JUMPDEST CALLVALUE DUP1 ISZERO PUSH3 0x2C2 JUMPI PUSH1 0x0 DUP1 REVERT JUMPDEST POP PUSH3 0x2E1 PUSH1 0x4 DUP1 CALLDATASIZE SUB DUP2 ADD SWAP1 PUSH3 0x2DB SWAP2 SWAP1 PUSH3 0x2602 JUMP JUMPDEST PUSH3 0x6E5 JUMP JUMPDEST STOP JUMPDEST PUSH3 0x301 PUSH1 0x4 DUP1 CALLDATASIZE SUB DUP2 ADD SWAP1 PUSH3 0x2FB SWAP2 SWAP1 PUSH3 0x25A6 JUMP JUMPDEST PUSH3 0x843 JUMP JUMPDEST STOP JUMPDEST CALLVALUE DUP1 ISZERO PUSH3 0x310 JUMPI PUSH1 0x0 DUP1 REVERT JUMPDEST POP PUSH3 0x31B PUSH3 0x97C JUMP JUMPDEST PUSH1 0x40 MLOAD PUSH3 0x32A SWAP2 SWAP1 PUSH3 0x2CCD JUMP JUMPDEST PUSH1 0x40 MLOAD DUP1 SWAP2 SUB SWAP1 RETURN JUMPDEST PUSH3 0x351 PUSH1 0x4 DUP1 CALLDATASIZE SUB DUP2 ADD SWAP1 PUSH3 0x34B SWAP2 SWAP1 PUSH3 0x2881 JUMP JUMPDEST PUSH3 0x9B5 JUMP JUMPDEST PUSH1 0x40 MLOAD PUSH3 0x360 SWAP2 SWAP1 PUSH3 0x2B8E JUMP JUMPDEST PUSH1 0x40 MLOAD DUP1 SWAP2 SUB SWAP1 RETURN JUMPDEST CALLVALUE DUP1 ISZERO PUSH3 0x376 JUMPI PUSH1 0x0 DUP1 REVERT JUMPDEST POP PUSH3 0x381 PUSH3 0xADE JUMP JUMPDEST PUSH1 0x40 MLOAD PUSH3 0x390 SWAP2 SWAP1 PUSH3 0x2BAB JUMP JUMPDEST PUSH1 0x40 MLOAD DUP1 SWAP2 SUB SWAP1 RETURN JUMPDEST PUSH2 0xBB8 DUP2 JUMP JUMPDEST PUSH1 0x0 DUP1 PUSH1 0x0 SWAP1 SLOAD SWAP1 PUSH2 0x100 EXP SWAP1 DIV PUSH20 0xFFFFFFFFFFFFFFFFFFFFFFFFFFFFFFFFFFFFFFFF AND SWAP1 POP SWAP1 JUMP JUMPDEST PUSH1 0x40 MLOAD DUP1 PUSH1 0x40 ADD PUSH1 0x40 MSTORE DUP1 PUSH1 0x3 DUP2 MSTORE PUSH1 0x20 ADD PUSH32 0x4352540000000000000000000000000000000000000000000000000000000000 DUP2 MSTORE POP DUP2 JUMP JUMPDEST PUSH1 0x0 DUP1 PUSH20 0xFFFFFFFFFFFFFFFFFFFFFFFFFFFFFFFFFFFFFFFF AND PUSH1 0x2 PUSH1 0x0 CALLER PUSH20 0xFFFFFFFFFFFFFFFFFFFFFFFFFFFFFFFFFFFFFFFF AND PUSH20 0xFFFFFFFFFFFFFFFFFFFFFFFFFFFFFFFFFFFFFFFF AND DUP2 MSTORE PUSH1 0x20 ADD SWAP1 DUP2 MSTORE PUSH1 0x20 ADD PUSH1 0x0 KECCAK256 PUSH1 0x0 SWAP1 SLOAD SWAP1 PUSH2 0x100 EXP SWAP1 DIV PUSH20 0xFFFFFFFFFFFFFFFFFFFFFFFFFFFFFFFFFFFFFFFF AND PUSH20 0xFFFFFFFFFFFFFFFFFFFFFFFFFFFFFFFFFFFFFFFF AND EQ ISZERO PUSH3 0x4C9 JUMPI PUSH1 0x40 MLOAD PUSH32 0x2163950F00000000000000000000000000000000000000000000000000000000 DUP2 MSTORE PUSH1 0x4 ADD PUSH1 0x40 MLOAD DUP1 SWAP2 SUB SWAP1 REVERT JUMPDEST PUSH1 0x2 PUSH1 0x0 CALLER PUSH20 0xFFFFFFFFFFFFFFFFFFFFFFFFFFFFFFFFFFFFFFFF AND PUSH20 0xFFFFFFFFFFFFFFFFFFFFFFFFFFFFFFFFFFFFFFFF AND DUP2 MSTORE PUSH1 0x20 ADD SWAP1 DUP2 MSTORE PUSH1 0x20 ADD PUSH1 0x0 KECCAK256 PUSH1 0x0 SWAP1 SLOAD SWAP1 PUSH2 0x100 EXP SWAP1 DIV PUSH20 0xFFFFFFFFFFFFFFFFFFFFFFFFFFFFFFFFFFFFFFFF AND PUSH1 0x3 PUSH1 0x0 PUSH2 0x100 EXP DUP2 SLOAD DUP2 PUSH20 0xFFFFFFFFFFFFFFFFFFFFFFFFFFFFFFFFFFFFFFFF MUL NOT AND SWAP1 DUP4 PUSH20 0xFFFFFFFFFFFFFFFFFFFFFFFFFFFFFFFFFFFFFFFF AND MUL OR SWAP1 SSTORE POP PUSH1 0x3 PUSH1 0x0 SWAP1 SLOAD SWAP1 PUSH2 0x100 EXP SWAP1 DIV PUSH20 0xFFFFFFFFFFFFFFFFFFFFFFFFFFFFFFFFFFFFFFFF AND PUSH20 0xFFFFFFFFFFFFFFFFFFFFFFFFFFFFFFFFFFFFFFFF AND PUSH4 0x372F9101 DUP4 PUSH1 0x40 MLOAD DUP3 PUSH4 0xFFFFFFFF AND PUSH1 0xE0 SHL DUP2 MSTORE PUSH1 0x4 ADD PUSH3 0x5C6 SWAP2 SWAP1 PUSH3 0x2CCD JUMP JUMPDEST PUSH1 0x0 PUSH1 0x40 MLOAD DUP1 DUP4 SUB DUP2 PUSH1 0x0 DUP8 DUP1 EXTCODESIZE ISZERO DUP1 ISZERO PUSH3 0x5E1 JUMPI PUSH1 0x0 DUP1 REVERT JUMPDEST POP GAS CALL ISZERO DUP1 ISZERO PUSH3 0x5F6 JUMPI RETURNDATASIZE PUSH1 0x0 DUP1 RETURNDATACOPY RETURNDATASIZE PUSH1 0x0 REVERT JUMPDEST POP POP POP POP PUSH1 0x40 MLOAD RETURNDATASIZE PUSH1 0x0 DUP3 RETURNDATACOPY RETURNDATASIZE PUSH1 0x1F NOT PUSH1 0x1F DUP3 ADD AND DUP3 ADD DUP1 PUSH1 0x40 MSTORE POP DUP2 ADD SWAP1 PUSH3 0x621 SWAP2 SWAP1 PUSH3 0x2830 JUMP JUMPDEST POP PUSH1 0x1 SWAP1 POP SWAP2 SWAP1 POP JUMP JUMPDEST PUSH1 0x40 MLOAD DUP1 PUSH1 0x40 ADD PUSH1 0x40 MSTORE DUP1 PUSH1 0x3 DUP2 MSTORE PUSH1 0x20 ADD PUSH32 0x5754440000000000000000000000000000000000000000000000000000000000 DUP2 MSTORE POP DUP2 JUMP JUMPDEST PUSH1 0x0 DUP1 SLOAD SWAP1 PUSH2 0x100 EXP SWAP1 DIV PUSH20 0xFFFFFFFFFFFFFFFFFFFFFFFFFFFFFFFFFFFFFFFF AND DUP2 JUMP JUMPDEST PUSH1 0x40 MLOAD DUP1 PUSH1 0x40 ADD PUSH1 0x40 MSTORE DUP1 PUSH1 0x3 DUP2 MSTORE PUSH1 0x20 ADD PUSH32 0x4A4F4E0000000000000000000000000000000000000000000000000000000000 DUP2 MSTORE POP DUP2 JUMP JUMPDEST PUSH32 0x0 DUP2 JUMP JUMPDEST PUSH1 0x0 DUP1 PUSH1 0x0 DUP1 PUSH1 0x0 DUP1 DUP8 DUP8 DUP2 ADD SWAP1 PUSH3 0x6FF SWAP2 SWAP1 PUSH3 0x2705 JUMP JUMPDEST SWAP6 POP SWAP6 POP SWAP6 POP SWAP6 POP SWAP6 POP SWAP6 POP PUSH3 0x717 DUP11 DUP11 PUSH3 0xB45 JUMP JUMPDEST PUSH3 0x758 DUP7 PUSH1 0x40 MLOAD DUP1 PUSH1 0x40 ADD PUSH1 0x40 MSTORE DUP1 PUSH1 0x3 DUP2 MSTORE PUSH1 0x20 ADD PUSH32 0x4A4F4E0000000000000000000000000000000000000000000000000000000000 DUP2 MSTORE POP PUSH3 0xBDF JUMP JUMPDEST ISZERO PUSH3 0x770 JUMPI PUSH3 0x769 DUP10 PUSH3 0x9B5 JUMP JUMPDEST POP PUSH3 0x837 JUMP JUMPDEST PUSH3 0x7B1 DUP7 PUSH1 0x40 MLOAD DUP1 PUSH1 0x40 ADD PUSH1 0x40 MSTORE DUP1 PUSH1 0x3 DUP2 MSTORE PUSH1 0x20 ADD PUSH32 0x4352540000000000000000000000000000000000000000000000000000000000 DUP2 MSTORE POP PUSH3 0xBDF JUMP JUMPDEST ISZERO PUSH3 0x7CE JUMPI PUSH3 0x7C8 DUP6 DUP6 DUP6 DUP6 DUP6 DUP16 DUP16 PUSH3 0xCC9 JUMP JUMPDEST PUSH3 0x836 JUMP JUMPDEST PUSH3 0x80F DUP7 PUSH1 0x40 MLOAD DUP1 PUSH1 0x40 ADD PUSH1 0x40 MSTORE DUP1 PUSH1 0x3 DUP2 MSTORE PUSH1 0x20 ADD PUSH32 0x494E430000000000000000000000000000000000000000000000000000000000 DUP2 MSTORE POP PUSH3 0xBDF JUMP JUMPDEST ISZERO PUSH3 0x828 JUMPI PUSH3 0x822 DUP6 DUP12 DUP12 PUSH3 0xF5C JUMP JUMPDEST PUSH3 0x835 JUMP JUMPDEST PUSH3 0x833 DUP6 PUSH3 0x401 JUMP JUMPDEST POP JUMPDEST JUMPDEST JUMPDEST POP POP POP POP POP POP POP POP POP POP JUMP JUMPDEST PUSH2 0xBB8 PUSH3 0xFFFFFF AND DUP3 LT ISZERO PUSH3 0x885 JUMPI PUSH1 0x40 MLOAD PUSH32 0xCB6E851C00000000000000000000000000000000000000000000000000000000 DUP2 MSTORE PUSH1 0x4 ADD PUSH1 0x40 MLOAD DUP1 SWAP2 SUB SWAP1 REVERT JUMPDEST PUSH3 0x8B1 PUSH1 0x0 DUP1 SLOAD SWAP1 PUSH2 0x100 EXP SWAP1 DIV PUSH20 0xFFFFFFFFFFFFFFFFFFFFFFFFFFFFFFFFFFFFFFFF AND DUP4 PUSH3 0xB45 JUMP JUMPDEST PUSH1 0x0 PUSH3 0x8E0 PUSH1 0x0 DUP1 SLOAD SWAP1 PUSH2 0x100 EXP SWAP1 DIV PUSH20 0xFFFFFFFFFFFFFFFFFFFFFFFFFFFFFFFFFFFFFFFF AND DUP6 DUP6 PUSH3 0x1339 JUMP JUMPDEST SWAP1 POP DUP4 PUSH20 0xFFFFFFFFFFFFFFFFFFFFFFFFFFFFFFFFFFFFFFFF AND PUSH4 0xA9059CBB DUP4 DUP4 PUSH1 0x40 MLOAD DUP4 PUSH4 0xFFFFFFFF AND PUSH1 0xE0 SHL DUP2 MSTORE PUSH1 0x4 ADD PUSH3 0x91F SWAP3 SWAP2 SWAP1 PUSH3 0x2C32 JUMP JUMPDEST PUSH1 0x20 PUSH1 0x40 MLOAD DUP1 DUP4 SUB DUP2 PUSH1 0x0 DUP8 DUP1 EXTCODESIZE ISZERO DUP1 ISZERO PUSH3 0x93A JUMPI PUSH1 0x0 DUP1 REVERT JUMPDEST POP GAS CALL ISZERO DUP1 ISZERO PUSH3 0x94F JUMPI RETURNDATASIZE PUSH1 0x0 DUP1 RETURNDATACOPY RETURNDATASIZE PUSH1 0x0 REVERT JUMPDEST POP POP POP POP PUSH1 0x40 MLOAD RETURNDATASIZE PUSH1 0x1F NOT PUSH1 0x1F DUP3 ADD AND DUP3 ADD DUP1 PUSH1 0x40 MSTORE POP DUP2 ADD SWAP1 PUSH3 0x975 SWAP2 SWAP1 PUSH3 0x26D3 JUMP JUMPDEST POP POP POP POP POP JUMP JUMPDEST PUSH1 0x40 MLOAD DUP1 PUSH1 0x40 ADD PUSH1 0x40 MSTORE DUP1 PUSH1 0x3 DUP2 MSTORE PUSH1 0x20 ADD PUSH32 0x494E430000000000000000000000000000000000000000000000000000000000 DUP2 MSTORE POP DUP2 JUMP JUMPDEST PUSH1 0x0 DUP1 PUSH2 0x2710 SWAP1 POP DUP1 DUP4 GT PUSH3 0x9F7 JUMPI PUSH1 0x40 MLOAD PUSH32 0xCB6E851C00000000000000000000000000000000000000000000000000000000 DUP2 MSTORE PUSH1 0x4 ADD PUSH1 0x40 MLOAD DUP1 SWAP2 SUB SWAP1 REVERT JUMPDEST PUSH1 0x0 CALLER PUSH1 0x0 DUP1 SLOAD SWAP1 PUSH2 0x100 EXP SWAP1 DIV PUSH20 0xFFFFFFFFFFFFFFFFFFFFFFFFFFFFFFFFFFFFFFFF AND PUSH1 0x40 MLOAD PUSH3 0xA29 SWAP1 PUSH3 0x21F7 JUMP JUMPDEST PUSH3 0xA36 SWAP3 SWAP2 SWAP1 PUSH3 0x2BC8 JUMP JUMPDEST PUSH1 0x40 MLOAD DUP1 SWAP2 SUB SWAP1 PUSH1 0x0 CREATE DUP1 ISZERO DUP1 ISZERO PUSH3 0xA53 JUMPI RETURNDATASIZE PUSH1 0x0 DUP1 RETURNDATACOPY RETURNDATASIZE PUSH1 0x0 REVERT JUMPDEST POP SWAP1 POP DUP1 PUSH1 0x2 PUSH1 0x0 CALLER PUSH20 0xFFFFFFFFFFFFFFFFFFFFFFFFFFFFFFFFFFFFFFFF AND PUSH20 0xFFFFFFFFFFFFFFFFFFFFFFFFFFFFFFFFFFFFFFFF AND DUP2 MSTORE PUSH1 0x20 ADD SWAP1 DUP2 MSTORE PUSH1 0x20 ADD PUSH1 0x0 KECCAK256 PUSH1 0x0 PUSH2 0x100 EXP DUP2 SLOAD DUP2 PUSH20 0xFFFFFFFFFFFFFFFFFFFFFFFFFFFFFFFFFFFFFFFF MUL NOT AND SWAP1 DUP4 PUSH20 0xFFFFFFFFFFFFFFFFFFFFFFFFFFFFFFFFFFFFFFFF AND MUL OR SWAP1 SSTORE POP DUP1 SWAP3 POP POP POP SWAP2 SWAP1 POP JUMP JUMPDEST PUSH1 0x0 PUSH1 0x2 PUSH1 0x0 CALLER PUSH20 0xFFFFFFFFFFFFFFFFFFFFFFFFFFFFFFFFFFFFFFFF AND PUSH20 0xFFFFFFFFFFFFFFFFFFFFFFFFFFFFFFFFFFFFFFFF AND DUP2 MSTORE PUSH1 0x20 ADD SWAP1 DUP2 MSTORE PUSH1 0x20 ADD PUSH1 0x0 KECCAK256 PUSH1 0x0 SWAP1 SLOAD SWAP1 PUSH2 0x100 EXP SWAP1 DIV PUSH20 0xFFFFFFFFFFFFFFFFFFFFFFFFFFFFFFFFFFFFFFFF AND SWAP1 POP SWAP1 JUMP JUMPDEST DUP2 PUSH20 0xFFFFFFFFFFFFFFFFFFFFFFFFFFFFFFFFFFFFFFFF AND PUSH4 0x23B872DD CALLER ADDRESS DUP5 PUSH1 0x40 MLOAD DUP5 PUSH4 0xFFFFFFFF AND PUSH1 0xE0 SHL DUP2 MSTORE PUSH1 0x4 ADD PUSH3 0xB84 SWAP4 SWAP3 SWAP2 SWAP1 PUSH3 0x2BF5 JUMP JUMPDEST PUSH1 0x20 PUSH1 0x40 MLOAD DUP1 DUP4 SUB DUP2 PUSH1 0x0 DUP8 DUP1 EXTCODESIZE ISZERO DUP1 ISZERO PUSH3 0xB9F JUMPI PUSH1 0x0 DUP1 REVERT JUMPDEST POP GAS CALL ISZERO DUP1 ISZERO PUSH3 0xBB4 JUMPI RETURNDATASIZE PUSH1 0x0 DUP1 RETURNDATACOPY RETURNDATASIZE PUSH1 0x0 REVERT JUMPDEST POP POP POP POP PUSH1 0x40 MLOAD RETURNDATASIZE PUSH1 0x1F NOT PUSH1 0x1F DUP3 ADD AND DUP3 ADD DUP1 PUSH1 0x40 MSTORE POP DUP2 ADD SWAP1 PUSH3 0xBDA SWAP2 SWAP1 PUSH3 0x26D3 JUMP JUMPDEST POP POP POP JUMP JUMPDEST PUSH1 0x0 DUP1 DUP3 SWAP1 POP PUSH1 0x0 DUP5 MLOAD SWAP1 POP DUP2 MLOAD DUP2 EQ PUSH3 0xC00 JUMPI PUSH1 0x0 SWAP3 POP POP POP PUSH3 0xCC3 JUMP JUMPDEST PUSH1 0x0 JUMPDEST DUP2 DUP2 LT ISZERO PUSH3 0xCBB JUMPI DUP3 DUP2 DUP2 MLOAD DUP2 LT PUSH3 0xC22 JUMPI PUSH3 0xC21 PUSH3 0x324D JUMP JUMPDEST JUMPDEST PUSH1 0x20 ADD ADD MLOAD PUSH1 0xF8 SHR PUSH1 0xF8 SHL PUSH31 0xFFFFFFFFFFFFFFFFFFFFFFFFFFFFFFFFFFFFFFFFFFFFFFFFFFFFFFFFFFFFFF NOT AND DUP7 DUP3 DUP2 MLOAD DUP2 LT PUSH3 0xC65 JUMPI PUSH3 0xC64 PUSH3 0x324D JUMP JUMPDEST JUMPDEST PUSH1 0x20 ADD ADD MLOAD PUSH1 0xF8 SHR PUSH1 0xF8 SHL PUSH31 0xFFFFFFFFFFFFFFFFFFFFFFFFFFFFFFFFFFFFFFFFFFFFFFFFFFFFFFFFFFFFFF NOT AND EQ PUSH3 0xCA5 JUMPI PUSH1 0x0 SWAP4 POP POP POP POP PUSH3 0xCC3 JUMP JUMPDEST DUP1 DUP1 PUSH3 0xCB2 SWAP1 PUSH3 0x319E JUMP JUMPDEST SWAP2 POP POP PUSH3 0xC03 JUMP JUMPDEST POP PUSH1 0x1 SWAP3 POP POP POP JUMPDEST SWAP3 SWAP2 POP POP JUMP JUMPDEST PUSH1 0x0 PUSH20 0xFFFFFFFFFFFFFFFFFFFFFFFFFFFFFFFFFFFFFFFF AND PUSH1 0x2 PUSH1 0x0 CALLER PUSH20 0xFFFFFFFFFFFFFFFFFFFFFFFFFFFFFFFFFFFFFFFF AND PUSH20 0xFFFFFFFFFFFFFFFFFFFFFFFFFFFFFFFFFFFFFFFF AND DUP2 MSTORE PUSH1 0x20 ADD SWAP1 DUP2 MSTORE PUSH1 0x20 ADD PUSH1 0x0 KECCAK256 PUSH1 0x0 SWAP1 SLOAD SWAP1 PUSH2 0x100 EXP SWAP1 DIV PUSH20 0xFFFFFFFFFFFFFFFFFFFFFFFFFFFFFFFFFFFFFFFF AND PUSH20 0xFFFFFFFFFFFFFFFFFFFFFFFFFFFFFFFFFFFFFFFF AND EQ ISZERO PUSH3 0xD90 JUMPI PUSH1 0x40 MLOAD PUSH32 0x2163950F00000000000000000000000000000000000000000000000000000000 DUP2 MSTORE PUSH1 0x4 ADD PUSH1 0x40 MLOAD DUP1 SWAP2 SUB SWAP1 REVERT JUMPDEST DUP6 TIMESTAMP GT ISZERO PUSH3 0xDCB JUMPI PUSH1 0x40 MLOAD PUSH32 0x6F7EAC2600000000000000000000000000000000000000000000000000000000 DUP2 MSTORE PUSH1 0x4 ADD PUSH1 0x40 MLOAD DUP1 SWAP2 SUB SWAP1 REVERT JUMPDEST PUSH1 0x0 DUP3 SWAP1 POP PUSH1 0x0 DUP3 SWAP1 POP DUP5 ISZERO PUSH3 0xE2F JUMPI PUSH3 0xE09 DUP3 PUSH1 0x0 DUP1 SLOAD SWAP1 PUSH2 0x100 EXP SWAP1 DIV PUSH20 0xFFFFFFFFFFFFFFFFFFFFFFFFFFFFFFFFFFFFFFFF AND DUP6 PUSH3 0x1339 JUMP JUMPDEST SWAP1 POP PUSH1 0x0 DUP1 SLOAD SWAP1 PUSH2 0x100 EXP SWAP1 DIV PUSH20 0xFFFFFFFFFFFFFFFFFFFFFFFFFFFFFFFFFFFFFFFF AND SWAP2 POP JUMPDEST PUSH1 0x0 PUSH3 0xE3B PUSH3 0xADE JUMP JUMPDEST SWAP1 POP DUP1 PUSH1 0x3 PUSH1 0x0 PUSH2 0x100 EXP DUP2 SLOAD DUP2 PUSH20 0xFFFFFFFFFFFFFFFFFFFFFFFFFFFFFFFFFFFFFFFF MUL NOT AND SWAP1 DUP4 PUSH20 0xFFFFFFFFFFFFFFFFFFFFFFFFFFFFFFFFFFFFFFFF AND MUL OR SWAP1 SSTORE POP PUSH1 0x0 PUSH3 0xE8D DUP3 DUP5 DUP7 PUSH3 0x160B JUMP JUMPDEST SWAP1 POP PUSH1 0x3 PUSH1 0x0 SWAP1 SLOAD SWAP1 PUSH2 0x100 EXP SWAP1 DIV PUSH20 0xFFFFFFFFFFFFFFFFFFFFFFFFFFFFFFFFFFFFFFFF AND PUSH20 0xFFFFFFFFFFFFFFFFFFFFFFFFFFFFFFFFFFFFFFFF AND PUSH4 0x13AA6539 DUP13 DUP13 DUP13 DUP13 DUP12 DUP8 DUP15 PUSH1 0x40 MLOAD DUP9 PUSH4 0xFFFFFFFF AND PUSH1 0xE0 SHL DUP2 MSTORE PUSH1 0x4 ADD PUSH3 0xEF8 SWAP8 SWAP7 SWAP6 SWAP5 SWAP4 SWAP3 SWAP2 SWAP1 PUSH3 0x2D25 JUMP JUMPDEST PUSH1 0x20 PUSH1 0x40 MLOAD DUP1 DUP4 SUB DUP2 PUSH1 0x0 DUP8 DUP1 EXTCODESIZE ISZERO DUP1 ISZERO PUSH3 0xF13 JUMPI PUSH1 0x0 DUP1 REVERT JUMPDEST POP GAS CALL ISZERO DUP1 ISZERO PUSH3 0xF28 JUMPI RETURNDATASIZE PUSH1 0x0 DUP1 RETURNDATACOPY RETURNDATASIZE PUSH1 0x0 REVERT JUMPDEST POP POP POP POP PUSH1 0x40 MLOAD RETURNDATASIZE PUSH1 0x1F NOT PUSH1 0x1F DUP3 ADD AND DUP3 ADD DUP1 PUSH1 0x40 MSTORE POP DUP2 ADD SWAP1 PUSH3 0xF4E SWAP2 SWAP1 PUSH3 0x28B3 JUMP JUMPDEST POP POP POP POP POP POP POP POP POP POP POP POP JUMP JUMPDEST PUSH1 0x0 PUSH20 0xFFFFFFFFFFFFFFFFFFFFFFFFFFFFFFFFFFFFFFFF AND PUSH1 0x2 PUSH1 0x0 CALLER PUSH20 0xFFFFFFFFFFFFFFFFFFFFFFFFFFFFFFFFFFFFFFFF AND PUSH20 0xFFFFFFFFFFFFFFFFFFFFFFFFFFFFFFFFFFFFFFFF AND DUP2 MSTORE PUSH1 0x20 ADD SWAP1 DUP2 MSTORE PUSH1 0x20 ADD PUSH1 0x0 KECCAK256 PUSH1 0x0 SWAP1 SLOAD SWAP1 PUSH2 0x100 EXP SWAP1 DIV PUSH20 0xFFFFFFFFFFFFFFFFFFFFFFFFFFFFFFFFFFFFFFFF AND PUSH20 0xFFFFFFFFFFFFFFFFFFFFFFFFFFFFFFFFFFFFFFFF AND EQ ISZERO PUSH3 0x1023 JUMPI PUSH1 0x40 MLOAD PUSH32 0x2163950F00000000000000000000000000000000000000000000000000000000 DUP2 MSTORE PUSH1 0x4 ADD PUSH1 0x40 MLOAD DUP1 SWAP2 SUB SWAP1 REVERT JUMPDEST PUSH1 0x0 PUSH1 0x2 PUSH1 0x0 CALLER PUSH20 0xFFFFFFFFFFFFFFFFFFFFFFFFFFFFFFFFFFFFFFFF AND PUSH20 0xFFFFFFFFFFFFFFFFFFFFFFFFFFFFFFFFFFFFFFFF AND DUP2 MSTORE PUSH1 0x20 ADD SWAP1 DUP2 MSTORE PUSH1 0x20 ADD PUSH1 0x0 KECCAK256 PUSH1 0x0 SWAP1 SLOAD SWAP1 PUSH2 0x100 EXP SWAP1 DIV PUSH20 0xFFFFFFFFFFFFFFFFFFFFFFFFFFFFFFFFFFFFFFFF AND SWAP1 POP DUP1 PUSH1 0x3 PUSH1 0x0 PUSH2 0x100 EXP DUP2 SLOAD DUP2 PUSH20 0xFFFFFFFFFFFFFFFFFFFFFFFFFFFFFFFFFFFFFFFF MUL NOT AND SWAP1 DUP4 PUSH20 0xFFFFFFFFFFFFFFFFFFFFFFFFFFFFFFFFFFFFFFFF AND MUL OR SWAP1 SSTORE POP PUSH1 0x0 DUP3 SWAP1 POP PUSH1 0x0 PUSH1 0x3 PUSH1 0x0 SWAP1 SLOAD SWAP1 PUSH2 0x100 EXP SWAP1 DIV PUSH20 0xFFFFFFFFFFFFFFFFFFFFFFFFFFFFFFFFFFFFFFFF AND PUSH20 0xFFFFFFFFFFFFFFFFFFFFFFFFFFFFFFFFFFFFFFFF AND PUSH4 0x1BB862A5 DUP8 PUSH1 0x40 MLOAD DUP3 PUSH4 0xFFFFFFFF AND PUSH1 0xE0 SHL DUP2 MSTORE PUSH1 0x4 ADD PUSH3 0x112C SWAP2 SWAP1 PUSH3 0x2CCD JUMP JUMPDEST PUSH1 0x20 PUSH1 0x40 MLOAD DUP1 DUP4 SUB DUP2 DUP7 DUP1 EXTCODESIZE ISZERO DUP1 ISZERO PUSH3 0x1145 JUMPI PUSH1 0x0 DUP1 REVERT JUMPDEST POP GAS STATICCALL ISZERO DUP1 ISZERO PUSH3 0x115A JUMPI RETURNDATASIZE PUSH1 0x0 DUP1 RETURNDATACOPY RETURNDATASIZE PUSH1 0x0 REVERT JUMPDEST POP POP POP POP PUSH1 0x40 MLOAD RETURNDATASIZE PUSH1 0x1F NOT PUSH1 0x1F DUP3 ADD AND DUP3 ADD DUP1 PUSH1 0x40 MSTORE POP DUP2 ADD SWAP1 PUSH3 0x1180 SWAP2 SWAP1 PUSH3 0x26D3 JUMP JUMPDEST SWAP1 POP DUP1 ISZERO PUSH3 0x1269 JUMPI PUSH3 0x1266 PUSH1 0x3 PUSH1 0x0 SWAP1 SLOAD SWAP1 PUSH2 0x100 EXP SWAP1 DIV PUSH20 0xFFFFFFFFFFFFFFFFFFFFFFFFFFFFFFFFFFFFFFFF AND PUSH20 0xFFFFFFFFFFFFFFFFFFFFFFFFFFFFFFFFFFFFFFFF AND PUSH4 0xE18F5F65 DUP9 PUSH1 0x40 MLOAD DUP3 PUSH4 0xFFFFFFFF AND PUSH1 0xE0 SHL DUP2 MSTORE PUSH1 0x4 ADD PUSH3 0x11EA SWAP2 SWAP1 PUSH3 0x2CCD JUMP JUMPDEST PUSH1 0x20 PUSH1 0x40 MLOAD DUP1 DUP4 SUB DUP2 DUP7 DUP1 EXTCODESIZE ISZERO DUP1 ISZERO PUSH3 0x1203 JUMPI PUSH1 0x0 DUP1 REVERT JUMPDEST POP GAS STATICCALL ISZERO DUP1 ISZERO PUSH3 0x1218 JUMPI RETURNDATASIZE PUSH1 0x0 DUP1 RETURNDATACOPY RETURNDATASIZE PUSH1 0x0 REVERT JUMPDEST POP POP POP POP PUSH1 0x40 MLOAD RETURNDATASIZE PUSH1 0x1F NOT PUSH1 0x1F DUP3 ADD AND DUP3 ADD DUP1 PUSH1 0x40 MSTORE POP DUP2 ADD SWAP1 PUSH3 0x123E SWAP2 SWAP1 PUSH3 0x252D JUMP JUMPDEST PUSH1 0x0 DUP1 SLOAD SWAP1 PUSH2 0x100 EXP SWAP1 DIV PUSH20 0xFFFFFFFFFFFFFFFFFFFFFFFFFFFFFFFFFFFFFFFF AND DUP5 PUSH3 0x1339 JUMP JUMPDEST SWAP2 POP JUMPDEST PUSH1 0x0 PUSH3 0x1278 DUP5 DUP5 DUP9 PUSH3 0x160B JUMP JUMPDEST SWAP1 POP PUSH1 0x3 PUSH1 0x0 SWAP1 SLOAD SWAP1 PUSH2 0x100 EXP SWAP1 DIV PUSH20 0xFFFFFFFFFFFFFFFFFFFFFFFFFFFFFFFFFFFFFFFF AND PUSH20 0xFFFFFFFFFFFFFFFFFFFFFFFFFFFFFFFFFFFFFFFF AND PUSH4 0x46718F1A DUP9 DUP4 PUSH1 0x40 MLOAD DUP4 PUSH4 0xFFFFFFFF AND PUSH1 0xE0 SHL DUP2 MSTORE PUSH1 0x4 ADD PUSH3 0x12D9 SWAP3 SWAP2 SWAP1 PUSH3 0x2CF1 JUMP JUMPDEST PUSH1 0x20 PUSH1 0x40 MLOAD DUP1 DUP4 SUB DUP2 PUSH1 0x0 DUP8 DUP1 EXTCODESIZE ISZERO DUP1 ISZERO PUSH3 0x12F4 JUMPI PUSH1 0x0 DUP1 REVERT JUMPDEST POP GAS CALL ISZERO DUP1 ISZERO PUSH3 0x1309 JUMPI RETURNDATASIZE PUSH1 0x0 DUP1 RETURNDATACOPY RETURNDATASIZE PUSH1 0x0 REVERT JUMPDEST POP POP POP POP PUSH1 0x40 MLOAD RETURNDATASIZE PUSH1 0x1F NOT PUSH1 0x1F DUP3 ADD AND DUP3 ADD DUP1 PUSH1 0x40 MSTORE POP DUP2 ADD SWAP1 PUSH3 0x132F SWAP2 SWAP1 PUSH3 0x28B3 JUMP JUMPDEST POP POP POP POP POP POP POP POP JUMP JUMPDEST PUSH1 0x0 PUSH3 0x13E9 PUSH32 0x0 PUSH20 0xFFFFFFFFFFFFFFFFFFFFFFFFFFFFFFFFFFFFFFFF AND PUSH4 0x569541B9 PUSH1 0x40 MLOAD DUP2 PUSH4 0xFFFFFFFF AND PUSH1 0xE0 SHL DUP2 MSTORE PUSH1 0x4 ADD PUSH1 0x20 PUSH1 0x40 MLOAD DUP1 DUP4 SUB DUP2 DUP7 DUP1 EXTCODESIZE ISZERO DUP1 ISZERO PUSH3 0x13A6 JUMPI PUSH1 0x0 DUP1 REVERT JUMPDEST POP GAS STATICCALL ISZERO DUP1 ISZERO PUSH3 0x13BB JUMPI RETURNDATASIZE PUSH1 0x0 DUP1 RETURNDATACOPY RETURNDATASIZE PUSH1 0x0 REVERT JUMPDEST POP POP POP POP PUSH1 0x40 MLOAD RETURNDATASIZE PUSH1 0x1F NOT PUSH1 0x1F DUP3 ADD AND DUP3 ADD DUP1 PUSH1 0x40 MSTORE POP DUP2 ADD SWAP1 PUSH3 0x13E1 SWAP2 SWAP1 PUSH3 0x252D JUMP JUMPDEST DUP4 DUP7 PUSH3 0x160B JUMP JUMPDEST POP PUSH1 0x0 PUSH3 0x15E1 PUSH32 0x0 PUSH20 0xFFFFFFFFFFFFFFFFFFFFFFFFFFFFFFFFFFFFFFFF AND PUSH4 0x569541B9 PUSH1 0x40 MLOAD DUP2 PUSH4 0xFFFFFFFF AND PUSH1 0xE0 SHL DUP2 MSTORE PUSH1 0x4 ADD PUSH1 0x20 PUSH1 0x40 MLOAD DUP1 DUP4 SUB DUP2 DUP7 DUP1 EXTCODESIZE ISZERO DUP1 ISZERO PUSH3 0x1457 JUMPI PUSH1 0x0 DUP1 REVERT JUMPDEST POP GAS STATICCALL ISZERO DUP1 ISZERO PUSH3 0x146C JUMPI RETURNDATASIZE PUSH1 0x0 DUP1 RETURNDATACOPY RETURNDATASIZE PUSH1 0x0 REVERT JUMPDEST POP POP POP POP PUSH1 0x40 MLOAD RETURNDATASIZE PUSH1 0x1F NOT PUSH1 0x1F DUP3 ADD AND DUP3 ADD DUP1 PUSH1 0x40 MSTORE POP DUP2 ADD SWAP1 PUSH3 0x1492 SWAP2 SWAP1 PUSH3 0x252D JUMP JUMPDEST PUSH32 0x0 PUSH20 0xFFFFFFFFFFFFFFFFFFFFFFFFFFFFFFFFFFFFFFFF AND PUSH4 0xD936A012 PUSH1 0x40 MLOAD DUP2 PUSH4 0xFFFFFFFF AND PUSH1 0xE0 SHL DUP2 MSTORE PUSH1 0x4 ADD PUSH1 0x20 PUSH1 0x40 MLOAD DUP1 DUP4 SUB DUP2 DUP7 DUP1 EXTCODESIZE ISZERO DUP1 ISZERO PUSH3 0x14F9 JUMPI PUSH1 0x0 DUP1 REVERT JUMPDEST POP GAS STATICCALL ISZERO DUP1 ISZERO PUSH3 0x150E JUMPI RETURNDATASIZE PUSH1 0x0 DUP1 RETURNDATACOPY RETURNDATASIZE PUSH1 0x0 REVERT JUMPDEST POP POP POP POP PUSH1 0x40 MLOAD RETURNDATASIZE PUSH1 0x1F NOT PUSH1 0x1F DUP3 ADD AND DUP3 ADD DUP1 PUSH1 0x40 MSTORE POP DUP2 ADD SWAP1 PUSH3 0x1534 SWAP2 SWAP1 PUSH3 0x252D JUMP JUMPDEST PUSH32 0x0 PUSH20 0xFFFFFFFFFFFFFFFFFFFFFFFFFFFFFFFFFFFFFFFF AND PUSH4 0x842DA36D PUSH1 0x40 MLOAD DUP2 PUSH4 0xFFFFFFFF AND PUSH1 0xE0 SHL DUP2 MSTORE PUSH1 0x4 ADD PUSH1 0x20 PUSH1 0x40 MLOAD DUP1 DUP4 SUB DUP2 DUP7 DUP1 EXTCODESIZE ISZERO DUP1 ISZERO PUSH3 0x159B JUMPI PUSH1 0x0 DUP1 REVERT JUMPDEST POP GAS STATICCALL ISZERO DUP1 ISZERO PUSH3 0x15B0 JUMPI RETURNDATASIZE PUSH1 0x0 DUP1 RETURNDATACOPY RETURNDATASIZE PUSH1 0x0 REVERT JUMPDEST POP POP POP POP PUSH1 0x40 MLOAD RETURNDATASIZE PUSH1 0x1F NOT PUSH1 0x1F DUP3 ADD AND DUP3 ADD DUP1 PUSH1 0x40 MSTORE POP DUP2 ADD SWAP1 PUSH3 0x15D6 SWAP2 SWAP1 PUSH3 0x252D JUMP JUMPDEST DUP9 DUP8 DUP10 PUSH1 0x0 PUSH3 0x188D JUMP JUMPDEST SWAP1 POP PUSH1 0x0 PUSH3 0x15F0 ADDRESS PUSH3 0x1C6E JUMP JUMPDEST SWAP1 POP PUSH3 0x15FF DUP6 DUP4 DUP4 PUSH3 0x1C91 JUMP JUMPDEST DUP2 SWAP3 POP POP POP SWAP4 SWAP3 POP POP POP JUMP JUMPDEST PUSH1 0x0 DUP1 PUSH1 0x0 DUP4 PUSH20 0xFFFFFFFFFFFFFFFFFFFFFFFFFFFFFFFFFFFFFFFF AND PUSH4 0xD9EEEBED PUSH1 0x40 MLOAD DUP2 PUSH4 0xFFFFFFFF AND PUSH1 0xE0 SHL DUP2 MSTORE PUSH1 0x4 ADD PUSH1 0x40 DUP1 MLOAD DUP1 DUP4 SUB DUP2 DUP7 DUP1 EXTCODESIZE ISZERO DUP1 ISZERO PUSH3 0x1656 JUMPI PUSH1 0x0 DUP1 REVERT JUMPDEST POP GAS STATICCALL ISZERO DUP1 ISZERO PUSH3 0x166B JUMPI RETURNDATASIZE PUSH1 0x0 DUP1 RETURNDATACOPY RETURNDATASIZE PUSH1 0x0 REVERT JUMPDEST POP POP POP POP PUSH1 0x40 MLOAD RETURNDATASIZE PUSH1 0x1F NOT PUSH1 0x1F DUP3 ADD AND DUP3 ADD DUP1 PUSH1 0x40 MSTORE POP DUP2 ADD SWAP1 PUSH3 0x1691 SWAP2 SWAP1 PUSH3 0x255F JUMP JUMPDEST SWAP2 POP SWAP2 POP PUSH1 0x2 DUP2 PUSH3 0x16A4 SWAP2 SWAP1 PUSH3 0x2FC7 JUMP JUMPDEST SWAP1 POP DUP4 PUSH20 0xFFFFFFFFFFFFFFFFFFFFFFFFFFFFFFFFFFFFFFFF AND DUP3 PUSH20 0xFFFFFFFFFFFFFFFFFFFFFFFFFFFFFFFFFFFFFFFF AND EQ PUSH3 0x170C JUMPI PUSH1 0x40 MLOAD PUSH32 0xCAAA35E700000000000000000000000000000000000000000000000000000000 DUP2 MSTORE PUSH1 0x4 ADD PUSH1 0x40 MLOAD DUP1 SWAP2 SUB SWAP1 REVERT JUMPDEST DUP5 DUP2 LT PUSH3 0x1746 JUMPI PUSH1 0x40 MLOAD PUSH32 0xD0C279A200000000000000000000000000000000000000000000000000000000 DUP2 MSTORE PUSH1 0x4 ADD PUSH1 0x40 MLOAD DUP1 SWAP2 SUB SWAP1 REVERT JUMPDEST PUSH1 0x0 DUP2 DUP7 PUSH3 0x1756 SWAP2 SWAP1 PUSH3 0x3028 JUMP JUMPDEST SWAP1 POP DUP5 PUSH20 0xFFFFFFFFFFFFFFFFFFFFFFFFFFFFFFFFFFFFFFFF AND PUSH4 0x95EA7B3 DUP7 DUP5 PUSH1 0x40 MLOAD DUP4 PUSH4 0xFFFFFFFF AND PUSH1 0xE0 SHL DUP2 MSTORE PUSH1 0x4 ADD PUSH3 0x1795 SWAP3 SWAP2 SWAP1 PUSH3 0x2C32 JUMP JUMPDEST PUSH1 0x20 PUSH1 0x40 MLOAD DUP1 DUP4 SUB DUP2 PUSH1 0x0 DUP8 DUP1 EXTCODESIZE ISZERO DUP1 ISZERO PUSH3 0x17B0 JUMPI PUSH1 0x0 DUP1 REVERT JUMPDEST POP GAS CALL ISZERO DUP1 ISZERO PUSH3 0x17C5 JUMPI RETURNDATASIZE PUSH1 0x0 DUP1 RETURNDATACOPY RETURNDATASIZE PUSH1 0x0 REVERT JUMPDEST POP POP POP POP PUSH1 0x40 MLOAD RETURNDATASIZE PUSH1 0x1F NOT PUSH1 0x1F DUP3 ADD AND DUP3 ADD DUP1 PUSH1 0x40 MSTORE POP DUP2 ADD SWAP1 PUSH3 0x17EB SWAP2 SWAP1 PUSH3 0x26D3 JUMP JUMPDEST POP DUP5 PUSH20 0xFFFFFFFFFFFFFFFFFFFFFFFFFFFFFFFFFFFFFFFF AND PUSH4 0x95EA7B3 DUP9 DUP4 PUSH1 0x40 MLOAD DUP4 PUSH4 0xFFFFFFFF AND PUSH1 0xE0 SHL DUP2 MSTORE PUSH1 0x4 ADD PUSH3 0x1829 SWAP3 SWAP2 SWAP1 PUSH3 0x2C32 JUMP JUMPDEST PUSH1 0x20 PUSH1 0x40 MLOAD DUP1 DUP4 SUB DUP2 PUSH1 0x0 DUP8 DUP1 EXTCODESIZE ISZERO DUP1 ISZERO PUSH3 0x1844 JUMPI PUSH1 0x0 DUP1 REVERT JUMPDEST POP GAS CALL ISZERO DUP1 ISZERO PUSH3 0x1859 JUMPI RETURNDATASIZE PUSH1 0x0 DUP1 RETURNDATACOPY RETURNDATASIZE PUSH1 0x0 REVERT JUMPDEST POP POP POP POP PUSH1 0x40 MLOAD RETURNDATASIZE PUSH1 0x1F NOT PUSH1 0x1F DUP3 ADD AND DUP3 ADD DUP1 PUSH1 0x40 MSTORE POP DUP2 ADD SWAP1 PUSH3 0x187F SWAP2 SWAP1 PUSH3 0x26D3 JUMP JUMPDEST POP DUP1 SWAP4 POP POP POP POP SWAP4 SWAP3 POP POP POP JUMP JUMPDEST PUSH1 0x0 DUP1 PUSH3 0x189D DUP9 DUP8 DUP7 PUSH3 0x1F16 JUMP JUMPDEST SWAP1 POP PUSH1 0x60 DUP2 ISZERO PUSH3 0x19A2 JUMPI PUSH1 0x2 PUSH8 0xFFFFFFFFFFFFFFFF DUP2 GT ISZERO PUSH3 0x18C6 JUMPI PUSH3 0x18C5 PUSH3 0x327C JUMP JUMPDEST JUMPDEST PUSH1 0x40 MLOAD SWAP1 DUP1 DUP3 MSTORE DUP1 PUSH1 0x20 MUL PUSH1 0x20 ADD DUP3 ADD PUSH1 0x40 MSTORE DUP1 ISZERO PUSH3 0x18F5 JUMPI DUP2 PUSH1 0x20 ADD PUSH1 0x20 DUP3 MUL DUP1 CALLDATASIZE DUP4 CALLDATACOPY DUP1 DUP3 ADD SWAP2 POP POP SWAP1 POP JUMPDEST POP SWAP1 POP DUP7 DUP2 PUSH1 0x0 DUP2 MLOAD DUP2 LT PUSH3 0x1910 JUMPI PUSH3 0x190F PUSH3 0x324D JUMP JUMPDEST JUMPDEST PUSH1 0x20 MUL PUSH1 0x20 ADD ADD SWAP1 PUSH20 0xFFFFFFFFFFFFFFFFFFFFFFFFFFFFFFFFFFFFFFFF AND SWAP1 DUP2 PUSH20 0xFFFFFFFFFFFFFFFFFFFFFFFFFFFFFFFFFFFFFFFF AND DUP2 MSTORE POP POP DUP5 DUP2 PUSH1 0x1 DUP2 MLOAD DUP2 LT PUSH3 0x1962 JUMPI PUSH3 0x1961 PUSH3 0x324D JUMP JUMPDEST JUMPDEST PUSH1 0x20 MUL PUSH1 0x20 ADD ADD SWAP1 PUSH20 0xFFFFFFFFFFFFFFFFFFFFFFFFFFFFFFFFFFFFFFFF AND SWAP1 DUP2 PUSH20 0xFFFFFFFFFFFFFFFFFFFFFFFFFFFFFFFFFFFFFFFF AND DUP2 MSTORE POP POP PUSH3 0x1AE9 JUMP JUMPDEST PUSH1 0x3 PUSH8 0xFFFFFFFFFFFFFFFF DUP2 GT ISZERO PUSH3 0x19C0 JUMPI PUSH3 0x19BF PUSH3 0x327C JUMP JUMPDEST JUMPDEST PUSH1 0x40 MLOAD SWAP1 DUP1 DUP3 MSTORE DUP1 PUSH1 0x20 MUL PUSH1 0x20 ADD DUP3 ADD PUSH1 0x40 MSTORE DUP1 ISZERO PUSH3 0x19EF JUMPI DUP2 PUSH1 0x20 ADD PUSH1 0x20 DUP3 MUL DUP1 CALLDATASIZE DUP4 CALLDATACOPY DUP1 DUP3 ADD SWAP2 POP POP SWAP1 POP JUMPDEST POP SWAP1 POP DUP7 DUP2 PUSH1 0x0 DUP2 MLOAD DUP2 LT PUSH3 0x1A0A JUMPI PUSH3 0x1A09 PUSH3 0x324D JUMP JUMPDEST JUMPDEST PUSH1 0x20 MUL PUSH1 0x20 ADD ADD SWAP1 PUSH20 0xFFFFFFFFFFFFFFFFFFFFFFFFFFFFFFFFFFFFFFFF AND SWAP1 DUP2 PUSH20 0xFFFFFFFFFFFFFFFFFFFFFFFFFFFFFFFFFFFFFFFF AND DUP2 MSTORE POP POP DUP10 DUP2 PUSH1 0x1 DUP2 MLOAD DUP2 LT PUSH3 0x1A5C JUMPI PUSH3 0x1A5B PUSH3 0x324D JUMP JUMPDEST JUMPDEST PUSH1 0x20 MUL PUSH1 0x20 ADD ADD SWAP1 PUSH20 0xFFFFFFFFFFFFFFFFFFFFFFFFFFFFFFFFFFFFFFFF AND SWAP1 DUP2 PUSH20 0xFFFFFFFFFFFFFFFFFFFFFFFFFFFFFFFFFFFFFFFF AND DUP2 MSTORE POP POP DUP5 DUP2 PUSH1 0x2 DUP2 MLOAD DUP2 LT PUSH3 0x1AAE JUMPI PUSH3 0x1AAD PUSH3 0x324D JUMP JUMPDEST JUMPDEST PUSH1 0x20 MUL PUSH1 0x20 ADD ADD SWAP1 PUSH20 0xFFFFFFFFFFFFFFFFFFFFFFFFFFFFFFFFFFFFFFFF AND SWAP1 DUP2 PUSH20 0xFFFFFFFFFFFFFFFFFFFFFFFFFFFFFFFFFFFFFFFF AND DUP2 MSTORE POP POP JUMPDEST DUP7 PUSH20 0xFFFFFFFFFFFFFFFFFFFFFFFFFFFFFFFFFFFFFFFF AND PUSH4 0x95EA7B3 DUP10 DUP9 PUSH1 0x40 MLOAD DUP4 PUSH4 0xFFFFFFFF AND PUSH1 0xE0 SHL DUP2 MSTORE PUSH1 0x4 ADD PUSH3 0x1B26 SWAP3 SWAP2 SWAP1 PUSH3 0x2C32 JUMP JUMPDEST PUSH1 0x20 PUSH1 0x40 MLOAD DUP1 DUP4 SUB DUP2 PUSH1 0x0 DUP8 DUP1 EXTCODESIZE ISZERO DUP1 ISZERO PUSH3 0x1B41 JUMPI PUSH1 0x0 DUP1 REVERT JUMPDEST POP GAS CALL ISZERO DUP1 ISZERO PUSH3 0x1B56 JUMPI RETURNDATASIZE PUSH1 0x0 DUP1 RETURNDATACOPY RETURNDATASIZE PUSH1 0x0 REVERT JUMPDEST POP POP POP POP PUSH1 0x40 MLOAD RETURNDATASIZE PUSH1 0x1F NOT PUSH1 0x1F DUP3 ADD AND DUP3 ADD DUP1 PUSH1 0x40 MSTORE POP DUP2 ADD SWAP1 PUSH3 0x1B7C SWAP2 SWAP1 PUSH3 0x26D3 JUMP JUMPDEST POP PUSH1 0x0 DUP9 PUSH20 0xFFFFFFFFFFFFFFFFFFFFFFFFFFFFFFFFFFFFFFFF AND PUSH4 0x38ED1739 DUP9 DUP8 DUP6 ADDRESS PUSH1 0xC8 PUSH2 0xFFFF AND TIMESTAMP PUSH3 0x1BB2 SWAP2 SWAP1 PUSH3 0x2F6A JUMP JUMPDEST PUSH1 0x40 MLOAD DUP7 PUSH4 0xFFFFFFFF AND PUSH1 0xE0 SHL DUP2 MSTORE PUSH1 0x4 ADD PUSH3 0x1BD4 SWAP6 SWAP5 SWAP4 SWAP3 SWAP2 SWAP1 PUSH3 0x2DC6 JUMP JUMPDEST PUSH1 0x0 PUSH1 0x40 MLOAD DUP1 DUP4 SUB DUP2 PUSH1 0x0 DUP8 DUP1 EXTCODESIZE ISZERO DUP1 ISZERO PUSH3 0x1BEF JUMPI PUSH1 0x0 DUP1 REVERT JUMPDEST POP GAS CALL ISZERO DUP1 ISZERO PUSH3 0x1C04 JUMPI RETURNDATASIZE PUSH1 0x0 DUP1 RETURNDATACOPY RETURNDATASIZE PUSH1 0x0 REVERT JUMPDEST POP POP POP POP PUSH1 0x40 MLOAD RETURNDATASIZE PUSH1 0x0 DUP3 RETURNDATACOPY RETURNDATASIZE PUSH1 0x1F NOT PUSH1 0x1F DUP3 ADD AND DUP3 ADD DUP1 PUSH1 0x40 MSTORE POP DUP2 ADD SWAP1 PUSH3 0x1C2F SWAP2 SWAP1 PUSH3 0x2682 JUMP JUMPDEST SWAP1 POP DUP1 PUSH1 0x1 DUP4 MLOAD PUSH3 0x1C42 SWAP2 SWAP1 PUSH3 0x3028 JUMP JUMPDEST DUP2 MLOAD DUP2 LT PUSH3 0x1C56 JUMPI PUSH3 0x1C55 PUSH3 0x324D JUMP JUMPDEST JUMPDEST PUSH1 0x20 MUL PUSH1 0x20 ADD ADD MLOAD SWAP4 POP POP POP POP SWAP8 SWAP7 POP POP POP POP POP POP POP JUMP JUMPDEST PUSH1 0x0 DUP2 PUSH20 0xFFFFFFFFFFFFFFFFFFFFFFFFFFFFFFFFFFFFFFFF AND PUSH1 0x0 SHL SWAP1 POP SWAP2 SWAP1 POP JUMP JUMPDEST PUSH1 0x0 DUP1 DUP5 PUSH20 0xFFFFFFFFFFFFFFFFFFFFFFFFFFFFFFFFFFFFFFFF AND PUSH4 0xD9EEEBED PUSH1 0x40 MLOAD DUP2 PUSH4 0xFFFFFFFF AND PUSH1 0xE0 SHL DUP2 MSTORE PUSH1 0x4 ADD PUSH1 0x40 DUP1 MLOAD DUP1 DUP4 SUB DUP2 DUP7 DUP1 EXTCODESIZE ISZERO DUP1 ISZERO PUSH3 0x1CDA JUMPI PUSH1 0x0 DUP1 REVERT JUMPDEST POP GAS STATICCALL ISZERO DUP1 ISZERO PUSH3 0x1CEF JUMPI RETURNDATASIZE PUSH1 0x0 DUP1 RETURNDATACOPY RETURNDATASIZE PUSH1 0x0 REVERT JUMPDEST POP POP POP POP PUSH1 0x40 MLOAD RETURNDATASIZE PUSH1 0x1F NOT PUSH1 0x1F DUP3 ADD AND DUP3 ADD DUP1 PUSH1 0x40 MSTORE POP DUP2 ADD SWAP1 PUSH3 0x1D15 SWAP2 SWAP1 PUSH3 0x255F JUMP JUMPDEST SWAP2 POP SWAP2 POP DUP5 PUSH20 0xFFFFFFFFFFFFFFFFFFFFFFFFFFFFFFFFFFFFFFFF AND DUP3 PUSH20 0xFFFFFFFFFFFFFFFFFFFFFFFFFFFFFFFFFFFFFFFF AND EQ PUSH3 0x1D7F JUMPI PUSH1 0x40 MLOAD PUSH32 0xCAAA35E700000000000000000000000000000000000000000000000000000000 DUP2 MSTORE PUSH1 0x4 ADD PUSH1 0x40 MLOAD DUP1 SWAP2 SUB SWAP1 REVERT JUMPDEST DUP4 DUP2 LT PUSH3 0x1DB9 JUMPI PUSH1 0x40 MLOAD PUSH32 0xD0C279A200000000000000000000000000000000000000000000000000000000 DUP2 MSTORE PUSH1 0x4 ADD PUSH1 0x40 MLOAD DUP1 SWAP2 SUB SWAP1 REVERT JUMPDEST DUP5 PUSH20 0xFFFFFFFFFFFFFFFFFFFFFFFFFFFFFFFFFFFFFFFF AND PUSH4 0x95EA7B3 DUP7 DUP4 PUSH1 0x40 MLOAD DUP4 PUSH4 0xFFFFFFFF AND PUSH1 0xE0 SHL DUP2 MSTORE PUSH1 0x4 ADD PUSH3 0x1DF6 SWAP3 SWAP2 SWAP1 PUSH3 0x2C32 JUMP JUMPDEST PUSH1 0x20 PUSH1 0x40 MLOAD DUP1 DUP4 SUB DUP2 PUSH1 0x0 DUP8 DUP1 EXTCODESIZE ISZERO DUP1 ISZERO PUSH3 0x1E11 JUMPI PUSH1 0x0 DUP1 REVERT JUMPDEST POP GAS CALL ISZERO DUP1 ISZERO PUSH3 0x1E26 JUMPI RETURNDATASIZE PUSH1 0x0 DUP1 RETURNDATACOPY RETURNDATASIZE PUSH1 0x0 REVERT JUMPDEST POP POP POP POP PUSH1 0x40 MLOAD RETURNDATASIZE PUSH1 0x1F NOT PUSH1 0x1F DUP3 ADD AND DUP3 ADD DUP1 PUSH1 0x40 MSTORE POP DUP2 ADD SWAP1 PUSH3 0x1E4C SWAP2 SWAP1 PUSH3 0x26D3 JUMP JUMPDEST POP DUP5 PUSH20 0xFFFFFFFFFFFFFFFFFFFFFFFFFFFFFFFFFFFFFFFF AND PUSH4 0xC7012626 DUP5 PUSH1 0x40 MLOAD PUSH1 0x20 ADD PUSH3 0x1E7C SWAP2 SWAP1 PUSH3 0x2B27 JUMP JUMPDEST PUSH1 0x40 MLOAD PUSH1 0x20 DUP2 DUP4 SUB SUB DUP2 MSTORE SWAP1 PUSH1 0x40 MSTORE DUP4 DUP8 PUSH3 0x1E99 SWAP2 SWAP1 PUSH3 0x3028 JUMP JUMPDEST PUSH1 0x40 MLOAD DUP4 PUSH4 0xFFFFFFFF AND PUSH1 0xE0 SHL DUP2 MSTORE PUSH1 0x4 ADD PUSH3 0x1EB8 SWAP3 SWAP2 SWAP1 PUSH3 0x2C7C JUMP JUMPDEST PUSH1 0x20 PUSH1 0x40 MLOAD DUP1 DUP4 SUB DUP2 PUSH1 0x0 DUP8 DUP1 EXTCODESIZE ISZERO DUP1 ISZERO PUSH3 0x1ED3 JUMPI PUSH1 0x0 DUP1 REVERT JUMPDEST POP GAS CALL ISZERO DUP1 ISZERO PUSH3 0x1EE8 JUMPI RETURNDATASIZE PUSH1 0x0 DUP1 RETURNDATACOPY RETURNDATASIZE PUSH1 0x0 REVERT JUMPDEST POP POP POP POP PUSH1 0x40 MLOAD RETURNDATASIZE PUSH1 0x1F NOT PUSH1 0x1F DUP3 ADD AND DUP3 ADD DUP1 PUSH1 0x40 MSTORE POP DUP2 ADD SWAP1 PUSH3 0x1F0E SWAP2 SWAP1 PUSH3 0x26D3 JUMP JUMPDEST POP POP POP POP POP POP JUMP JUMPDEST PUSH1 0x0 DUP1 PUSH3 0x1F26 DUP6 DUP6 DUP6 PUSH3 0x205F JUMP JUMPDEST SWAP1 POP PUSH1 0x0 DUP5 PUSH20 0xFFFFFFFFFFFFFFFFFFFFFFFFFFFFFFFFFFFFFFFF AND PUSH4 0x70A08231 DUP4 PUSH1 0x40 MLOAD DUP3 PUSH4 0xFFFFFFFF AND PUSH1 0xE0 SHL DUP2 MSTORE PUSH1 0x4 ADD PUSH3 0x1F65 SWAP2 SWAP1 PUSH3 0x2B8E JUMP JUMPDEST PUSH1 0x20 PUSH1 0x40 MLOAD DUP1 DUP4 SUB DUP2 DUP7 DUP1 EXTCODESIZE ISZERO DUP1 ISZERO PUSH3 0x1F7E JUMPI PUSH1 0x0 DUP1 REVERT JUMPDEST POP GAS STATICCALL ISZERO DUP1 ISZERO PUSH3 0x1F93 JUMPI RETURNDATASIZE PUSH1 0x0 DUP1 RETURNDATACOPY RETURNDATASIZE PUSH1 0x0 REVERT JUMPDEST POP POP POP POP PUSH1 0x40 MLOAD RETURNDATASIZE PUSH1 0x1F NOT PUSH1 0x1F DUP3 ADD AND DUP3 ADD DUP1 PUSH1 0x40 MSTORE POP DUP2 ADD SWAP1 PUSH3 0x1FB9 SWAP2 SWAP1 PUSH3 0x28B3 JUMP JUMPDEST GT DUP1 ISZERO PUSH3 0x2055 JUMPI POP PUSH1 0x0 DUP4 PUSH20 0xFFFFFFFFFFFFFFFFFFFFFFFFFFFFFFFFFFFFFFFF AND PUSH4 0x70A08231 DUP4 PUSH1 0x40 MLOAD DUP3 PUSH4 0xFFFFFFFF AND PUSH1 0xE0 SHL DUP2 MSTORE PUSH1 0x4 ADD PUSH3 0x1FFF SWAP2 SWAP1 PUSH3 0x2B8E JUMP JUMPDEST PUSH1 0x20 PUSH1 0x40 MLOAD DUP1 DUP4 SUB DUP2 DUP7 DUP1 EXTCODESIZE ISZERO DUP1 ISZERO PUSH3 0x2018 JUMPI PUSH1 0x0 DUP1 REVERT JUMPDEST POP GAS STATICCALL ISZERO DUP1 ISZERO PUSH3 0x202D JUMPI RETURNDATASIZE PUSH1 0x0 DUP1 RETURNDATACOPY RETURNDATASIZE PUSH1 0x0 REVERT JUMPDEST POP POP POP POP PUSH1 0x40 MLOAD RETURNDATASIZE PUSH1 0x1F NOT PUSH1 0x1F DUP3 ADD AND DUP3 ADD DUP1 PUSH1 0x40 MSTORE POP DUP2 ADD SWAP1 PUSH3 0x2053 SWAP2 SWAP1 PUSH3 0x28B3 JUMP JUMPDEST GT JUMPDEST SWAP2 POP POP SWAP4 SWAP3 POP POP POP JUMP JUMPDEST PUSH1 0x0 DUP1 PUSH1 0x0 PUSH3 0x2070 DUP6 DUP6 PUSH3 0x20D7 JUMP JUMPDEST SWAP2 POP SWAP2 POP DUP6 DUP3 DUP3 PUSH1 0x40 MLOAD PUSH1 0x20 ADD PUSH3 0x208A SWAP3 SWAP2 SWAP1 PUSH3 0x2AF7 JUMP JUMPDEST PUSH1 0x40 MLOAD PUSH1 0x20 DUP2 DUP4 SUB SUB DUP2 MSTORE SWAP1 PUSH1 0x40 MSTORE DUP1 MLOAD SWAP1 PUSH1 0x20 ADD KECCAK256 PUSH1 0x40 MLOAD PUSH1 0x20 ADD PUSH3 0x20B3 SWAP3 SWAP2 SWAP1 PUSH3 0x2B44 JUMP JUMPDEST PUSH1 0x40 MLOAD PUSH1 0x20 DUP2 DUP4 SUB SUB DUP2 MSTORE SWAP1 PUSH1 0x40 MSTORE DUP1 MLOAD SWAP1 PUSH1 0x20 ADD KECCAK256 PUSH1 0x0 SHR SWAP3 POP POP POP SWAP4 SWAP3 POP POP POP JUMP JUMPDEST PUSH1 0x0 DUP1 DUP3 PUSH20 0xFFFFFFFFFFFFFFFFFFFFFFFFFFFFFFFFFFFFFFFF AND DUP5 PUSH20 0xFFFFFFFFFFFFFFFFFFFFFFFFFFFFFFFFFFFFFFFF AND EQ ISZERO PUSH3 0x2141 JUMPI PUSH1 0x40 MLOAD PUSH32 0xCB1E7CFE00000000000000000000000000000000000000000000000000000000 DUP2 MSTORE PUSH1 0x4 ADD PUSH1 0x40 MLOAD DUP1 SWAP2 SUB SWAP1 REVERT JUMPDEST DUP3 PUSH20 0xFFFFFFFFFFFFFFFFFFFFFFFFFFFFFFFFFFFFFFFF AND DUP5 PUSH20 0xFFFFFFFFFFFFFFFFFFFFFFFFFFFFFFFFFFFFFFFF AND LT PUSH3 0x217D JUMPI DUP3 DUP5 PUSH3 0x2180 JUMP JUMPDEST DUP4 DUP4 JUMPDEST DUP1 SWAP3 POP DUP2 SWAP4 POP POP POP PUSH1 0x0 PUSH20 0xFFFFFFFFFFFFFFFFFFFFFFFFFFFFFFFFFFFFFFFF AND DUP3 PUSH20 0xFFFFFFFFFFFFFFFFFFFFFFFFFFFFFFFFFFFFFFFF AND EQ ISZERO PUSH3 0x21F0 JUMPI PUSH1 0x40 MLOAD PUSH32 0x78B507DA00000000000000000000000000000000000000000000000000000000 DUP2 MSTORE PUSH1 0x4 ADD PUSH1 0x40 MLOAD DUP1 SWAP2 SUB SWAP1 REVERT JUMPDEST SWAP3 POP SWAP3 SWAP1 POP JUMP JUMPDEST PUSH2 0x2876 DUP1 PUSH3 0x33A2 DUP4 CODECOPY ADD SWAP1 JUMP JUMPDEST PUSH1 0x0 PUSH3 0x221C PUSH3 0x2216 DUP5 PUSH3 0x2E53 JUMP JUMPDEST PUSH3 0x2E2A JUMP JUMPDEST SWAP1 POP DUP1 DUP4 DUP3 MSTORE PUSH1 0x20 DUP3 ADD SWAP1 POP DUP3 DUP6 PUSH1 0x20 DUP7 MUL DUP3 ADD GT ISZERO PUSH3 0x2242 JUMPI PUSH3 0x2241 PUSH3 0x32B5 JUMP JUMPDEST JUMPDEST PUSH1 0x0 JUMPDEST DUP6 DUP2 LT ISZERO PUSH3 0x2276 JUMPI DUP2 PUSH3 0x225B DUP9 DUP3 PUSH3 0x24FF JUMP JUMPDEST DUP5 MSTORE PUSH1 0x20 DUP5 ADD SWAP4 POP PUSH1 0x20 DUP4 ADD SWAP3 POP POP PUSH1 0x1 DUP2 ADD SWAP1 POP PUSH3 0x2245 JUMP JUMPDEST POP POP POP SWAP4 SWAP3 POP POP POP JUMP JUMPDEST PUSH1 0x0 PUSH3 0x2297 PUSH3 0x2291 DUP5 PUSH3 0x2E82 JUMP JUMPDEST PUSH3 0x2E2A JUMP JUMPDEST SWAP1 POP DUP3 DUP2 MSTORE PUSH1 0x20 DUP2 ADD DUP5 DUP5 DUP5 ADD GT ISZERO PUSH3 0x22B6 JUMPI PUSH3 0x22B5 PUSH3 0x32BA JUMP JUMPDEST JUMPDEST PUSH3 0x22C3 DUP5 DUP3 DUP6 PUSH3 0x3123 JUMP JUMPDEST POP SWAP4 SWAP3 POP POP POP JUMP JUMPDEST PUSH1 0x0 PUSH3 0x22E2 PUSH3 0x22DC DUP5 PUSH3 0x2EB8 JUMP JUMPDEST PUSH3 0x2E2A JUMP JUMPDEST SWAP1 POP DUP3 DUP2 MSTORE PUSH1 0x20 DUP2 ADD DUP5 DUP5 DUP5 ADD GT ISZERO PUSH3 0x2301 JUMPI PUSH3 0x2300 PUSH3 0x32BA JUMP JUMPDEST JUMPDEST PUSH3 0x230E DUP5 DUP3 DUP6 PUSH3 0x3123 JUMP JUMPDEST POP SWAP4 SWAP3 POP POP POP JUMP JUMPDEST PUSH1 0x0 PUSH3 0x232D PUSH3 0x2327 DUP5 PUSH3 0x2EB8 JUMP JUMPDEST PUSH3 0x2E2A JUMP JUMPDEST SWAP1 POP DUP3 DUP2 MSTORE PUSH1 0x20 DUP2 ADD DUP5 DUP5 DUP5 ADD GT ISZERO PUSH3 0x234C JUMPI PUSH3 0x234B PUSH3 0x32BA JUMP JUMPDEST JUMPDEST PUSH3 0x2359 DUP5 DUP3 DUP6 PUSH3 0x3132 JUMP JUMPDEST POP SWAP4 SWAP3 POP POP POP JUMP JUMPDEST PUSH1 0x0 DUP2 CALLDATALOAD SWAP1 POP PUSH3 0x2372 DUP2 PUSH3 0x3339 JUMP JUMPDEST SWAP3 SWAP2 POP POP JUMP JUMPDEST PUSH1 0x0 DUP2 MLOAD SWAP1 POP PUSH3 0x2389 DUP2 PUSH3 0x3339 JUMP JUMPDEST SWAP3 SWAP2 POP POP JUMP JUMPDEST PUSH1 0x0 DUP3 PUSH1 0x1F DUP4 ADD SLT PUSH3 0x23A7 JUMPI PUSH3 0x23A6 PUSH3 0x32B0 JUMP JUMPDEST JUMPDEST DUP2 MLOAD PUSH3 0x23B9 DUP5 DUP3 PUSH1 0x20 DUP7 ADD PUSH3 0x2205 JUMP JUMPDEST SWAP2 POP POP SWAP3 SWAP2 POP POP JUMP JUMPDEST PUSH1 0x0 DUP2 CALLDATALOAD SWAP1 POP PUSH3 0x23D3 DUP2 PUSH3 0x3353 JUMP JUMPDEST SWAP3 SWAP2 POP POP JUMP JUMPDEST PUSH1 0x0 DUP2 MLOAD SWAP1 POP PUSH3 0x23EA DUP2 PUSH3 0x3353 JUMP JUMPDEST SWAP3 SWAP2 POP POP JUMP JUMPDEST PUSH1 0x0 DUP1 DUP4 PUSH1 0x1F DUP5 ADD SLT PUSH3 0x2409 JUMPI PUSH3 0x2408 PUSH3 0x32B0 JUMP JUMPDEST JUMPDEST DUP3 CALLDATALOAD SWAP1 POP PUSH8 0xFFFFFFFFFFFFFFFF DUP2 GT ISZERO PUSH3 0x2429 JUMPI PUSH3 0x2428 PUSH3 0x32AB JUMP JUMPDEST JUMPDEST PUSH1 0x20 DUP4 ADD SWAP2 POP DUP4 PUSH1 0x1 DUP3 MUL DUP4 ADD GT ISZERO PUSH3 0x2448 JUMPI PUSH3 0x2447 PUSH3 0x32B5 JUMP JUMPDEST JUMPDEST SWAP3 POP SWAP3 SWAP1 POP JUMP JUMPDEST PUSH1 0x0 DUP3 PUSH1 0x1F DUP4 ADD SLT PUSH3 0x2467 JUMPI PUSH3 0x2466 PUSH3 0x32B0 JUMP JUMPDEST JUMPDEST DUP2 CALLDATALOAD PUSH3 0x2479 DUP5 DUP3 PUSH1 0x20 DUP7 ADD PUSH3 0x2280 JUMP JUMPDEST SWAP2 POP POP SWAP3 SWAP2 POP POP JUMP JUMPDEST PUSH1 0x0 DUP3 PUSH1 0x1F DUP4 ADD SLT PUSH3 0x249A JUMPI PUSH3 0x2499 PUSH3 0x32B0 JUMP JUMPDEST JUMPDEST DUP2 CALLDATALOAD PUSH3 0x24AC DUP5 DUP3 PUSH1 0x20 DUP7 ADD PUSH3 0x22CB JUMP JUMPDEST SWAP2 POP POP SWAP3 SWAP2 POP POP JUMP JUMPDEST PUSH1 0x0 DUP3 PUSH1 0x1F DUP4 ADD SLT PUSH3 0x24CD JUMPI PUSH3 0x24CC PUSH3 0x32B0 JUMP JUMPDEST JUMPDEST DUP2 MLOAD PUSH3 0x24DF DUP5 DUP3 PUSH1 0x20 DUP7 ADD PUSH3 0x2316 JUMP JUMPDEST SWAP2 POP POP SWAP3 SWAP2 POP POP JUMP JUMPDEST PUSH1 0x0 DUP2 CALLDATALOAD SWAP1 POP PUSH3 0x24F9 DUP2 PUSH3 0x336D JUMP JUMPDEST SWAP3 SWAP2 POP POP JUMP JUMPDEST PUSH1 0x0 DUP2 MLOAD SWAP1 POP PUSH3 0x2510 DUP2 PUSH3 0x336D JUMP JUMPDEST SWAP3 SWAP2 POP POP JUMP JUMPDEST PUSH1 0x0 DUP2 CALLDATALOAD SWAP1 POP PUSH3 0x2527 DUP2 PUSH3 0x3387 JUMP JUMPDEST SWAP3 SWAP2 POP POP JUMP JUMPDEST PUSH1 0x0 PUSH1 0x20 DUP3 DUP5 SUB SLT ISZERO PUSH3 0x2546 JUMPI PUSH3 0x2545 PUSH3 0x32C4 JUMP JUMPDEST JUMPDEST PUSH1 0x0 PUSH3 0x2556 DUP5 DUP3 DUP6 ADD PUSH3 0x2378 JUMP JUMPDEST SWAP2 POP POP SWAP3 SWAP2 POP POP JUMP JUMPDEST PUSH1 0x0 DUP1 PUSH1 0x40 DUP4 DUP6 SUB SLT ISZERO PUSH3 0x2579 JUMPI PUSH3 0x2578 PUSH3 0x32C4 JUMP JUMPDEST JUMPDEST PUSH1 0x0 PUSH3 0x2589 DUP6 DUP3 DUP7 ADD PUSH3 0x2378 JUMP JUMPDEST SWAP3 POP POP PUSH1 0x20 PUSH3 0x259C DUP6 DUP3 DUP7 ADD PUSH3 0x24FF JUMP JUMPDEST SWAP2 POP POP SWAP3 POP SWAP3 SWAP1 POP JUMP JUMPDEST PUSH1 0x0 DUP1 PUSH1 0x0 PUSH1 0x60 DUP5 DUP7 SUB SLT ISZERO PUSH3 0x25C2 JUMPI PUSH3 0x25C1 PUSH3 0x32C4 JUMP JUMPDEST JUMPDEST PUSH1 0x0 PUSH3 0x25D2 DUP7 DUP3 DUP8 ADD PUSH3 0x2361 JUMP JUMPDEST SWAP4 POP POP PUSH1 0x20 PUSH3 0x25E5 DUP7 DUP3 DUP8 ADD PUSH3 0x24E8 JUMP JUMPDEST SWAP3 POP POP PUSH1 0x40 PUSH3 0x25F8 DUP7 DUP3 DUP8 ADD PUSH3 0x2361 JUMP JUMPDEST SWAP2 POP POP SWAP3 POP SWAP3 POP SWAP3 JUMP JUMPDEST PUSH1 0x0 DUP1 PUSH1 0x0 DUP1 PUSH1 0x60 DUP6 DUP8 SUB SLT ISZERO PUSH3 0x261F JUMPI PUSH3 0x261E PUSH3 0x32C4 JUMP JUMPDEST JUMPDEST PUSH1 0x0 PUSH3 0x262F DUP8 DUP3 DUP9 ADD PUSH3 0x2361 JUMP JUMPDEST SWAP5 POP POP PUSH1 0x20 PUSH3 0x2642 DUP8 DUP3 DUP9 ADD PUSH3 0x24E8 JUMP JUMPDEST SWAP4 POP POP PUSH1 0x40 DUP6 ADD CALLDATALOAD PUSH8 0xFFFFFFFFFFFFFFFF DUP2 GT ISZERO PUSH3 0x2666 JUMPI PUSH3 0x2665 PUSH3 0x32BF JUMP JUMPDEST JUMPDEST PUSH3 0x2674 DUP8 DUP3 DUP9 ADD PUSH3 0x23F0 JUMP JUMPDEST SWAP3 POP SWAP3 POP POP SWAP3 SWAP6 SWAP2 SWAP5 POP SWAP3 POP JUMP JUMPDEST PUSH1 0x0 PUSH1 0x20 DUP3 DUP5 SUB SLT ISZERO PUSH3 0x269B JUMPI PUSH3 0x269A PUSH3 0x32C4 JUMP JUMPDEST JUMPDEST PUSH1 0x0 DUP3 ADD MLOAD PUSH8 0xFFFFFFFFFFFFFFFF DUP2 GT ISZERO PUSH3 0x26BC JUMPI PUSH3 0x26BB PUSH3 0x32BF JUMP JUMPDEST JUMPDEST PUSH3 0x26CA DUP5 DUP3 DUP6 ADD PUSH3 0x238F JUMP JUMPDEST SWAP2 POP POP SWAP3 SWAP2 POP POP JUMP JUMPDEST PUSH1 0x0 PUSH1 0x20 DUP3 DUP5 SUB SLT ISZERO PUSH3 0x26EC JUMPI PUSH3 0x26EB PUSH3 0x32C4 JUMP JUMPDEST JUMPDEST PUSH1 0x0 PUSH3 0x26FC DUP5 DUP3 DUP6 ADD PUSH3 0x23D9 JUMP JUMPDEST SWAP2 POP POP SWAP3 SWAP2 POP POP JUMP JUMPDEST PUSH1 0x0 DUP1 PUSH1 0x0 DUP1 PUSH1 0x0 DUP1 PUSH1 0xC0 DUP8 DUP10 SUB SLT ISZERO PUSH3 0x2725 JUMPI PUSH3 0x2724 PUSH3 0x32C4 JUMP JUMPDEST JUMPDEST PUSH1 0x0 DUP8 ADD CALLDATALOAD PUSH8 0xFFFFFFFFFFFFFFFF DUP2 GT ISZERO PUSH3 0x2746 JUMPI PUSH3 0x2745 PUSH3 0x32BF JUMP JUMPDEST JUMPDEST PUSH3 0x2754 DUP10 DUP3 DUP11 ADD PUSH3 0x244F JUMP JUMPDEST SWAP7 POP POP PUSH1 0x20 DUP8 ADD CALLDATALOAD PUSH8 0xFFFFFFFFFFFFFFFF DUP2 GT ISZERO PUSH3 0x2778 JUMPI PUSH3 0x2777 PUSH3 0x32BF JUMP JUMPDEST JUMPDEST PUSH3 0x2786 DUP10 DUP3 DUP11 ADD PUSH3 0x2482 JUMP JUMPDEST SWAP6 POP POP PUSH1 0x40 PUSH3 0x2799 DUP10 DUP3 DUP11 ADD PUSH3 0x24E8 JUMP JUMPDEST SWAP5 POP POP PUSH1 0x60 PUSH3 0x27AC DUP10 DUP3 DUP11 ADD PUSH3 0x24E8 JUMP JUMPDEST SWAP4 POP POP PUSH1 0x80 PUSH3 0x27BF DUP10 DUP3 DUP11 ADD PUSH3 0x2516 JUMP JUMPDEST SWAP3 POP POP PUSH1 0xA0 PUSH3 0x27D2 DUP10 DUP3 DUP11 ADD PUSH3 0x23C2 JUMP JUMPDEST SWAP2 POP POP SWAP3 SWAP6 POP SWAP3 SWAP6 POP SWAP3 SWAP6 JUMP JUMPDEST PUSH1 0x0 PUSH1 0x20 DUP3 DUP5 SUB SLT ISZERO PUSH3 0x27F8 JUMPI PUSH3 0x27F7 PUSH3 0x32C4 JUMP JUMPDEST JUMPDEST PUSH1 0x0 DUP3 ADD CALLDATALOAD PUSH8 0xFFFFFFFFFFFFFFFF DUP2 GT ISZERO PUSH3 0x2819 JUMPI PUSH3 0x2818 PUSH3 0x32BF JUMP JUMPDEST JUMPDEST PUSH3 0x2827 DUP5 DUP3 DUP6 ADD PUSH3 0x2482 JUMP JUMPDEST SWAP2 POP POP SWAP3 SWAP2 POP POP JUMP JUMPDEST PUSH1 0x0 PUSH1 0x20 DUP3 DUP5 SUB SLT ISZERO PUSH3 0x2849 JUMPI PUSH3 0x2848 PUSH3 0x32C4 JUMP JUMPDEST JUMPDEST PUSH1 0x0 DUP3 ADD MLOAD PUSH8 0xFFFFFFFFFFFFFFFF DUP2 GT ISZERO PUSH3 0x286A JUMPI PUSH3 0x2869 PUSH3 0x32BF JUMP JUMPDEST JUMPDEST PUSH3 0x2878 DUP5 DUP3 DUP6 ADD PUSH3 0x24B5 JUMP JUMPDEST SWAP2 POP POP SWAP3 SWAP2 POP POP JUMP JUMPDEST PUSH1 0x0 PUSH1 0x20 DUP3 DUP5 SUB SLT ISZERO PUSH3 0x289A JUMPI PUSH3 0x2899 PUSH3 0x32C4 JUMP JUMPDEST JUMPDEST PUSH1 0x0 PUSH3 0x28AA DUP5 DUP3 DUP6 ADD PUSH3 0x24E8 JUMP JUMPDEST SWAP2 POP POP SWAP3 SWAP2 POP POP JUMP JUMPDEST PUSH1 0x0 PUSH1 0x20 DUP3 DUP5 SUB SLT ISZERO PUSH3 0x28CC JUMPI PUSH3 0x28CB PUSH3 0x32C4 JUMP JUMPDEST JUMPDEST PUSH1 0x0 PUSH3 0x28DC DUP5 DUP3 DUP6 ADD PUSH3 0x24FF JUMP JUMPDEST SWAP2 POP POP SWAP3 SWAP2 POP POP JUMP JUMPDEST PUSH1 0x0 PUSH3 0x28F3 DUP4 DUP4 PUSH3 0x2910 JUMP JUMPDEST PUSH1 0x20 DUP4 ADD SWAP1 POP SWAP3 SWAP2 POP POP JUMP JUMPDEST PUSH3 0x290A DUP2 PUSH3 0x3077 JUMP JUMPDEST DUP3 MSTORE POP POP JUMP JUMPDEST PUSH3 0x291B DUP2 PUSH3 0x3063 JUMP JUMPDEST DUP3 MSTORE POP POP JUMP JUMPDEST PUSH3 0x292C DUP2 PUSH3 0x3063 JUMP JUMPDEST DUP3 MSTORE POP POP JUMP JUMPDEST PUSH3 0x2947 PUSH3 0x2941 DUP3 PUSH3 0x3063 JUMP JUMPDEST PUSH3 0x31EC JUMP JUMPDEST DUP3 MSTORE POP POP JUMP JUMPDEST PUSH1 0x0 PUSH3 0x295A DUP3 PUSH3 0x2EFE JUMP JUMPDEST PUSH3 0x2966 DUP2 DUP6 PUSH3 0x2F2C JUMP JUMPDEST SWAP4 POP PUSH3 0x2973 DUP4 PUSH3 0x2EEE JUMP JUMPDEST DUP1 PUSH1 0x0 JUMPDEST DUP4 DUP2 LT ISZERO PUSH3 0x29AA JUMPI DUP2 MLOAD PUSH3 0x298E DUP9 DUP3 PUSH3 0x28E5 JUMP JUMPDEST SWAP8 POP PUSH3 0x299B DUP4 PUSH3 0x2F1F JUMP JUMPDEST SWAP3 POP POP PUSH1 0x1 DUP2 ADD SWAP1 POP PUSH3 0x2977 JUMP JUMPDEST POP DUP6 SWAP4 POP POP POP POP SWAP3 SWAP2 POP POP JUMP JUMPDEST PUSH3 0x29C2 DUP2 PUSH3 0x308B JUMP JUMPDEST DUP3 MSTORE POP POP JUMP JUMPDEST PUSH3 0x29DD PUSH3 0x29D7 DUP3 PUSH3 0x3097 JUMP JUMPDEST PUSH3 0x3200 JUMP JUMPDEST DUP3 MSTORE POP POP JUMP JUMPDEST PUSH1 0x0 PUSH3 0x29F0 DUP3 PUSH3 0x2F09 JUMP JUMPDEST PUSH3 0x29FC DUP2 DUP6 PUSH3 0x2F3D JUMP JUMPDEST SWAP4 POP PUSH3 0x2A0E DUP2 DUP6 PUSH1 0x20 DUP7 ADD PUSH3 0x3132 JUMP JUMPDEST PUSH3 0x2A19 DUP2 PUSH3 0x32C9 JUMP JUMPDEST DUP5 ADD SWAP2 POP POP SWAP3 SWAP2 POP POP JUMP JUMPDEST PUSH3 0x2A2F DUP2 PUSH3 0x30E7 JUMP JUMPDEST DUP3 MSTORE POP POP JUMP JUMPDEST PUSH1 0x0 PUSH3 0x2A42 DUP3 PUSH3 0x2F14 JUMP JUMPDEST PUSH3 0x2A4E DUP2 DUP6 PUSH3 0x2F4E JUMP JUMPDEST SWAP4 POP PUSH3 0x2A60 DUP2 DUP6 PUSH1 0x20 DUP7 ADD PUSH3 0x3132 JUMP JUMPDEST PUSH3 0x2A6B DUP2 PUSH3 0x32C9 JUMP JUMPDEST DUP5 ADD SWAP2 POP POP SWAP3 SWAP2 POP POP JUMP JUMPDEST PUSH1 0x0 PUSH3 0x2A85 PUSH1 0x20 DUP4 PUSH3 0x2F5F JUMP JUMPDEST SWAP2 POP PUSH3 0x2A92 DUP3 PUSH3 0x32E7 JUMP JUMPDEST PUSH1 0x20 DUP3 ADD SWAP1 POP SWAP2 SWAP1 POP JUMP JUMPDEST PUSH1 0x0 PUSH3 0x2AAC PUSH1 0x1 DUP4 PUSH3 0x2F5F JUMP JUMPDEST SWAP2 POP PUSH3 0x2AB9 DUP3 PUSH3 0x3310 JUMP JUMPDEST PUSH1 0x1 DUP3 ADD SWAP1 POP SWAP2 SWAP1 POP JUMP JUMPDEST PUSH3 0x2ACF DUP2 PUSH3 0x30C1 JUMP JUMPDEST DUP3 MSTORE POP POP JUMP JUMPDEST PUSH3 0x2AE0 DUP2 PUSH3 0x30D0 JUMP JUMPDEST DUP3 MSTORE POP POP JUMP JUMPDEST PUSH3 0x2AF1 DUP2 PUSH3 0x30DA JUMP JUMPDEST DUP3 MSTORE POP POP JUMP JUMPDEST PUSH1 0x0 PUSH3 0x2B05 DUP3 DUP6 PUSH3 0x2932 JUMP JUMPDEST PUSH1 0x14 DUP3 ADD SWAP2 POP PUSH3 0x2B17 DUP3 DUP5 PUSH3 0x2932 JUMP JUMPDEST PUSH1 0x14 DUP3 ADD SWAP2 POP DUP2 SWAP1 POP SWAP4 SWAP3 POP POP POP JUMP JUMPDEST PUSH1 0x0 PUSH3 0x2B35 DUP3 DUP5 PUSH3 0x29C8 JUMP JUMPDEST PUSH1 0x20 DUP3 ADD SWAP2 POP DUP2 SWAP1 POP SWAP3 SWAP2 POP POP JUMP JUMPDEST PUSH1 0x0 PUSH3 0x2B51 DUP3 PUSH3 0x2A9D JUMP JUMPDEST SWAP2 POP PUSH3 0x2B5F DUP3 DUP6 PUSH3 0x2932 JUMP JUMPDEST PUSH1 0x14 DUP3 ADD SWAP2 POP PUSH3 0x2B71 DUP3 DUP5 PUSH3 0x29C8 JUMP JUMPDEST PUSH1 0x20 DUP3 ADD SWAP2 POP PUSH3 0x2B82 DUP3 PUSH3 0x2A76 JUMP JUMPDEST SWAP2 POP DUP2 SWAP1 POP SWAP4 SWAP3 POP POP POP JUMP JUMPDEST PUSH1 0x0 PUSH1 0x20 DUP3 ADD SWAP1 POP PUSH3 0x2BA5 PUSH1 0x0 DUP4 ADD DUP5 PUSH3 0x2921 JUMP JUMPDEST SWAP3 SWAP2 POP POP JUMP JUMPDEST PUSH1 0x0 PUSH1 0x20 DUP3 ADD SWAP1 POP PUSH3 0x2BC2 PUSH1 0x0 DUP4 ADD DUP5 PUSH3 0x28FF JUMP JUMPDEST SWAP3 SWAP2 POP POP JUMP JUMPDEST PUSH1 0x0 PUSH1 0x40 DUP3 ADD SWAP1 POP PUSH3 0x2BDF PUSH1 0x0 DUP4 ADD DUP6 PUSH3 0x2921 JUMP JUMPDEST PUSH3 0x2BEE PUSH1 0x20 DUP4 ADD DUP5 PUSH3 0x2921 JUMP JUMPDEST SWAP4 SWAP3 POP POP POP JUMP JUMPDEST PUSH1 0x0 PUSH1 0x60 DUP3 ADD SWAP1 POP PUSH3 0x2C0C PUSH1 0x0 DUP4 ADD DUP7 PUSH3 0x2921 JUMP JUMPDEST PUSH3 0x2C1B PUSH1 0x20 DUP4 ADD DUP6 PUSH3 0x2921 JUMP JUMPDEST PUSH3 0x2C2A PUSH1 0x40 DUP4 ADD DUP5 PUSH3 0x2AD5 JUMP JUMPDEST SWAP5 SWAP4 POP POP POP POP JUMP JUMPDEST PUSH1 0x0 PUSH1 0x40 DUP3 ADD SWAP1 POP PUSH3 0x2C49 PUSH1 0x0 DUP4 ADD DUP6 PUSH3 0x2921 JUMP JUMPDEST PUSH3 0x2C58 PUSH1 0x20 DUP4 ADD DUP5 PUSH3 0x2AD5 JUMP JUMPDEST SWAP4 SWAP3 POP POP POP JUMP JUMPDEST PUSH1 0x0 PUSH1 0x20 DUP3 ADD SWAP1 POP PUSH3 0x2C76 PUSH1 0x0 DUP4 ADD DUP5 PUSH3 0x29B7 JUMP JUMPDEST SWAP3 SWAP2 POP POP JUMP JUMPDEST PUSH1 0x0 PUSH1 0x40 DUP3 ADD SWAP1 POP DUP2 DUP2 SUB PUSH1 0x0 DUP4 ADD MSTORE PUSH3 0x2C98 DUP2 DUP6 PUSH3 0x29E3 JUMP JUMPDEST SWAP1 POP PUSH3 0x2CA9 PUSH1 0x20 DUP4 ADD DUP5 PUSH3 0x2AD5 JUMP JUMPDEST SWAP4 SWAP3 POP POP POP JUMP JUMPDEST PUSH1 0x0 PUSH1 0x20 DUP3 ADD SWAP1 POP PUSH3 0x2CC7 PUSH1 0x0 DUP4 ADD DUP5 PUSH3 0x2A24 JUMP JUMPDEST SWAP3 SWAP2 POP POP JUMP JUMPDEST PUSH1 0x0 PUSH1 0x20 DUP3 ADD SWAP1 POP DUP2 DUP2 SUB PUSH1 0x0 DUP4 ADD MSTORE PUSH3 0x2CE9 DUP2 DUP5 PUSH3 0x2A35 JUMP JUMPDEST SWAP1 POP SWAP3 SWAP2 POP POP JUMP JUMPDEST PUSH1 0x0 PUSH1 0x40 DUP3 ADD SWAP1 POP DUP2 DUP2 SUB PUSH1 0x0 DUP4 ADD MSTORE PUSH3 0x2D0D DUP2 DUP6 PUSH3 0x2A35 JUMP JUMPDEST SWAP1 POP PUSH3 0x2D1E PUSH1 0x20 DUP4 ADD DUP5 PUSH3 0x2AD5 JUMP JUMPDEST SWAP4 SWAP3 POP POP POP JUMP JUMPDEST PUSH1 0x0 PUSH1 0xE0 DUP3 ADD SWAP1 POP DUP2 DUP2 SUB PUSH1 0x0 DUP4 ADD MSTORE PUSH3 0x2D41 DUP2 DUP11 PUSH3 0x2A35 JUMP JUMPDEST SWAP1 POP PUSH3 0x2D52 PUSH1 0x20 DUP4 ADD DUP10 PUSH3 0x2AD5 JUMP JUMPDEST PUSH3 0x2D61 PUSH1 0x40 DUP4 ADD DUP9 PUSH3 0x2AD5 JUMP JUMPDEST PUSH3 0x2D70 PUSH1 0x60 DUP4 ADD DUP8 PUSH3 0x2AE6 JUMP JUMPDEST PUSH3 0x2D7F PUSH1 0x80 DUP4 ADD DUP7 PUSH3 0x2921 JUMP JUMPDEST PUSH3 0x2D8E PUSH1 0xA0 DUP4 ADD DUP6 PUSH3 0x2AD5 JUMP JUMPDEST PUSH3 0x2D9D PUSH1 0xC0 DUP4 ADD DUP5 PUSH3 0x29B7 JUMP JUMPDEST SWAP9 SWAP8 POP POP POP POP POP POP POP POP JUMP JUMPDEST PUSH1 0x0 PUSH1 0x20 DUP3 ADD SWAP1 POP PUSH3 0x2DC0 PUSH1 0x0 DUP4 ADD DUP5 PUSH3 0x2AC4 JUMP JUMPDEST SWAP3 SWAP2 POP POP JUMP JUMPDEST PUSH1 0x0 PUSH1 0xA0 DUP3 ADD SWAP1 POP PUSH3 0x2DDD PUSH1 0x0 DUP4 ADD DUP9 PUSH3 0x2AD5 JUMP JUMPDEST PUSH3 0x2DEC PUSH1 0x20 DUP4 ADD DUP8 PUSH3 0x2AD5 JUMP JUMPDEST DUP2 DUP2 SUB PUSH1 0x40 DUP4 ADD MSTORE PUSH3 0x2E00 DUP2 DUP7 PUSH3 0x294D JUMP JUMPDEST SWAP1 POP PUSH3 0x2E11 PUSH1 0x60 DUP4 ADD DUP6 PUSH3 0x2921 JUMP JUMPDEST PUSH3 0x2E20 PUSH1 0x80 DUP4 ADD DUP5 PUSH3 0x2AD5 JUMP JUMPDEST SWAP7 SWAP6 POP POP POP POP POP POP JUMP JUMPDEST PUSH1 0x0 PUSH3 0x2E36 PUSH3 0x2E49 JUMP JUMPDEST SWAP1 POP PUSH3 0x2E44 DUP3 DUP3 PUSH3 0x3168 JUMP JUMPDEST SWAP2 SWAP1 POP JUMP JUMPDEST PUSH1 0x0 PUSH1 0x40 MLOAD SWAP1 POP SWAP1 JUMP JUMPDEST PUSH1 0x0 PUSH8 0xFFFFFFFFFFFFFFFF DUP3 GT ISZERO PUSH3 0x2E71 JUMPI PUSH3 0x2E70 PUSH3 0x327C JUMP JUMPDEST JUMPDEST PUSH1 0x20 DUP3 MUL SWAP1 POP PUSH1 0x20 DUP2 ADD SWAP1 POP SWAP2 SWAP1 POP JUMP JUMPDEST PUSH1 0x0 PUSH8 0xFFFFFFFFFFFFFFFF DUP3 GT ISZERO PUSH3 0x2EA0 JUMPI PUSH3 0x2E9F PUSH3 0x327C JUMP JUMPDEST JUMPDEST PUSH3 0x2EAB DUP3 PUSH3 0x32C9 JUMP JUMPDEST SWAP1 POP PUSH1 0x20 DUP2 ADD SWAP1 POP SWAP2 SWAP1 POP JUMP JUMPDEST PUSH1 0x0 PUSH8 0xFFFFFFFFFFFFFFFF DUP3 GT ISZERO PUSH3 0x2ED6 JUMPI PUSH3 0x2ED5 PUSH3 0x327C JUMP JUMPDEST JUMPDEST PUSH3 0x2EE1 DUP3 PUSH3 0x32C9 JUMP JUMPDEST SWAP1 POP PUSH1 0x20 DUP2 ADD SWAP1 POP SWAP2 SWAP1 POP JUMP JUMPDEST PUSH1 0x0 DUP2 SWAP1 POP PUSH1 0x20 DUP3 ADD SWAP1 POP SWAP2 SWAP1 POP JUMP JUMPDEST PUSH1 0x0 DUP2 MLOAD SWAP1 POP SWAP2 SWAP1 POP JUMP JUMPDEST PUSH1 0x0 DUP2 MLOAD SWAP1 POP SWAP2 SWAP1 POP JUMP JUMPDEST PUSH1 0x0 DUP2 MLOAD SWAP1 POP SWAP2 SWAP1 POP JUMP JUMPDEST PUSH1 0x0 PUSH1 0x20 DUP3 ADD SWAP1 POP SWAP2 SWAP1 POP JUMP JUMPDEST PUSH1 0x0 DUP3 DUP3 MSTORE PUSH1 0x20 DUP3 ADD SWAP1 POP SWAP3 SWAP2 POP POP JUMP JUMPDEST PUSH1 0x0 DUP3 DUP3 MSTORE PUSH1 0x20 DUP3 ADD SWAP1 POP SWAP3 SWAP2 POP POP JUMP JUMPDEST PUSH1 0x0 DUP3 DUP3 MSTORE PUSH1 0x20 DUP3 ADD SWAP1 POP SWAP3 SWAP2 POP POP JUMP JUMPDEST PUSH1 0x0 DUP2 SWAP1 POP SWAP3 SWAP2 POP POP JUMP JUMPDEST PUSH1 0x0 PUSH3 0x2F77 DUP3 PUSH3 0x30D0 JUMP JUMPDEST SWAP2 POP PUSH3 0x2F84 DUP4 PUSH3 0x30D0 JUMP JUMPDEST SWAP3 POP DUP3 PUSH32 0xFFFFFFFFFFFFFFFFFFFFFFFFFFFFFFFFFFFFFFFFFFFFFFFFFFFFFFFFFFFFFFFF SUB DUP3 GT ISZERO PUSH3 0x2FBC JUMPI PUSH3 0x2FBB PUSH3 0x321E JUMP JUMPDEST JUMPDEST DUP3 DUP3 ADD SWAP1 POP SWAP3 SWAP2 POP POP JUMP JUMPDEST PUSH1 0x0 PUSH3 0x2FD4 DUP3 PUSH3 0x30D0 JUMP JUMPDEST SWAP2 POP PUSH3 0x2FE1 DUP4 PUSH3 0x30D0 JUMP JUMPDEST SWAP3 POP DUP2 PUSH32 0xFFFFFFFFFFFFFFFFFFFFFFFFFFFFFFFFFFFFFFFFFFFFFFFFFFFFFFFFFFFFFFFF DIV DUP4 GT DUP3 ISZERO ISZERO AND ISZERO PUSH3 0x301D JUMPI PUSH3 0x301C PUSH3 0x321E JUMP JUMPDEST JUMPDEST DUP3 DUP3 MUL SWAP1 POP SWAP3 SWAP2 POP POP JUMP JUMPDEST PUSH1 0x0 PUSH3 0x3035 DUP3 PUSH3 0x30D0 JUMP JUMPDEST SWAP2 POP PUSH3 0x3042 DUP4 PUSH3 0x30D0 JUMP JUMPDEST SWAP3 POP DUP3 DUP3 LT ISZERO PUSH3 0x3058 JUMPI PUSH3 0x3057 PUSH3 0x321E JUMP JUMPDEST JUMPDEST DUP3 DUP3 SUB SWAP1 POP SWAP3 SWAP2 POP POP JUMP JUMPDEST PUSH1 0x0 PUSH3 0x3070 DUP3 PUSH3 0x30A1 JUMP JUMPDEST SWAP1 POP SWAP2 SWAP1 POP JUMP JUMPDEST PUSH1 0x0 PUSH3 0x3084 DUP3 PUSH3 0x30A1 JUMP JUMPDEST SWAP1 POP SWAP2 SWAP1 POP JUMP JUMPDEST PUSH1 0x0 DUP2 ISZERO ISZERO SWAP1 POP SWAP2 SWAP1 POP JUMP JUMPDEST PUSH1 0x0 DUP2 SWAP1 POP SWAP2 SWAP1 POP JUMP JUMPDEST PUSH1 0x0 PUSH20 0xFFFFFFFFFFFFFFFFFFFFFFFFFFFFFFFFFFFFFFFF DUP3 AND SWAP1 POP SWAP2 SWAP1 POP JUMP JUMPDEST PUSH1 0x0 PUSH3 0xFFFFFF DUP3 AND SWAP1 POP SWAP2 SWAP1 POP JUMP JUMPDEST PUSH1 0x0 DUP2 SWAP1 POP SWAP2 SWAP1 POP JUMP JUMPDEST PUSH1 0x0 PUSH1 0xFF DUP3 AND SWAP1 POP SWAP2 SWAP1 POP JUMP JUMPDEST PUSH1 0x0 PUSH3 0x30F4 DUP3 PUSH3 0x30FB JUMP JUMPDEST SWAP1 POP SWAP2 SWAP1 POP JUMP JUMPDEST PUSH1 0x0 PUSH3 0x3108 DUP3 PUSH3 0x310F JUMP JUMPDEST SWAP1 POP SWAP2 SWAP1 POP JUMP JUMPDEST PUSH1 0x0 PUSH3 0x311C DUP3 PUSH3 0x30A1 JUMP JUMPDEST SWAP1 POP SWAP2 SWAP1 POP JUMP JUMPDEST DUP3 DUP2 DUP4 CALLDATACOPY PUSH1 0x0 DUP4 DUP4 ADD MSTORE POP POP POP JUMP JUMPDEST PUSH1 0x0 JUMPDEST DUP4 DUP2 LT ISZERO PUSH3 0x3152 JUMPI DUP1 DUP3 ADD MLOAD DUP2 DUP5 ADD MSTORE PUSH1 0x20 DUP2 ADD SWAP1 POP PUSH3 0x3135 JUMP JUMPDEST DUP4 DUP2 GT ISZERO PUSH3 0x3162 JUMPI PUSH1 0x0 DUP5 DUP5 ADD MSTORE JUMPDEST POP POP POP POP JUMP JUMPDEST PUSH3 0x3173 DUP3 PUSH3 0x32C9 JUMP JUMPDEST DUP2 ADD DUP2 DUP2 LT PUSH8 0xFFFFFFFFFFFFFFFF DUP3 GT OR ISZERO PUSH3 0x3195 JUMPI PUSH3 0x3194 PUSH3 0x327C JUMP JUMPDEST JUMPDEST DUP1 PUSH1 0x40 MSTORE POP POP POP JUMP JUMPDEST PUSH1 0x0 PUSH3 0x31AB DUP3 PUSH3 0x30D0 JUMP JUMPDEST SWAP2 POP PUSH32 0xFFFFFFFFFFFFFFFFFFFFFFFFFFFFFFFFFFFFFFFFFFFFFFFFFFFFFFFFFFFFFFFF DUP3 EQ ISZERO PUSH3 0x31E1 JUMPI PUSH3 0x31E0 PUSH3 0x321E JUMP JUMPDEST JUMPDEST PUSH1 0x1 DUP3 ADD SWAP1 POP SWAP2 SWAP1 POP JUMP JUMPDEST PUSH1 0x0 PUSH3 0x31F9 DUP3 PUSH3 0x320A JUMP JUMPDEST SWAP1 POP SWAP2 SWAP1 POP JUMP JUMPDEST PUSH1 0x0 DUP2 SWAP1 POP SWAP2 SWAP1 POP JUMP JUMPDEST PUSH1 0x0 PUSH3 0x3217 DUP3 PUSH3 0x32DA JUMP JUMPDEST SWAP1 POP SWAP2 SWAP1 POP JUMP JUMPDEST PUSH32 0x4E487B7100000000000000000000000000000000000000000000000000000000 PUSH1 0x0 MSTORE PUSH1 0x11 PUSH1 0x4 MSTORE PUSH1 0x24 PUSH1 0x0 REVERT JUMPDEST PUSH32 0x4E487B7100000000000000000000000000000000000000000000000000000000 PUSH1 0x0 MSTORE PUSH1 0x32 PUSH1 0x4 MSTORE PUSH1 0x24 PUSH1 0x0 REVERT JUMPDEST PUSH32 0x4E487B7100000000000000000000000000000000000000000000000000000000 PUSH1 0x0 MSTORE PUSH1 0x41 PUSH1 0x4 MSTORE PUSH1 0x24 PUSH1 0x0 REVERT JUMPDEST PUSH1 0x0 DUP1 REVERT JUMPDEST PUSH1 0x0 DUP1 REVERT JUMPDEST PUSH1 0x0 DUP1 REVERT JUMPDEST PUSH1 0x0 DUP1 REVERT JUMPDEST PUSH1 0x0 DUP1 REVERT JUMPDEST PUSH1 0x0 DUP1 REVERT JUMPDEST PUSH1 0x0 PUSH1 0x1F NOT PUSH1 0x1F DUP4 ADD AND SWAP1 POP SWAP2 SWAP1 POP JUMP JUMPDEST PUSH1 0x0 DUP2 PUSH1 0x60 SHL SWAP1 POP SWAP2 SWAP1 POP JUMP JUMPDEST PUSH32 0x96E8AC4277198FF8B6F785478AA9A39F403CB768DD02CBEE326C3E7DA348845F PUSH1 0x0 DUP3 ADD MSTORE POP JUMP JUMPDEST PUSH32 0xFF00000000000000000000000000000000000000000000000000000000000000 PUSH1 0x0 DUP3 ADD MSTORE POP JUMP JUMPDEST PUSH3 0x3344 DUP2 PUSH3 0x3063 JUMP JUMPDEST DUP2 EQ PUSH3 0x3350 JUMPI PUSH1 0x0 DUP1 REVERT JUMPDEST POP JUMP JUMPDEST PUSH3 0x335E DUP2 PUSH3 0x308B JUMP JUMPDEST DUP2 EQ PUSH3 0x336A JUMPI PUSH1 0x0 DUP1 REVERT JUMPDEST POP JUMP JUMPDEST PUSH3 0x3378 DUP2 PUSH3 0x30D0 JUMP JUMPDEST DUP2 EQ PUSH3 0x3384 JUMPI PUSH1 0x0 DUP1 REVERT JUMPDEST POP JUMP JUMPDEST PUSH3 0x3392 DUP2 PUSH3 0x30DA JUMP JUMPDEST DUP2 EQ PUSH3 0x339E JUMPI PUSH1 0x0 DUP1 REVERT JUMPDEST POP JUMP INVALID PUSH1 0x80 PUSH1 0x40 MSTORE PUSH1 0x40 MLOAD PUSH3 0x2876 CODESIZE SUB DUP1 PUSH3 0x2876 DUP4 CODECOPY DUP2 DUP2 ADD PUSH1 0x40 MSTORE DUP2 ADD SWAP1 PUSH3 0x29 SWAP2 SWAP1 PUSH3 0x10A JUMP JUMPDEST CALLER PUSH1 0x0 DUP1 PUSH2 0x100 EXP DUP2 SLOAD DUP2 PUSH20 0xFFFFFFFFFFFFFFFFFFFFFFFFFFFFFFFFFFFFFFFF MUL NOT AND SWAP1 DUP4 PUSH20 0xFFFFFFFFFFFFFFFFFFFFFFFFFFFFFFFFFFFFFFFF AND MUL OR SWAP1 SSTORE POP DUP2 PUSH1 0x1 PUSH1 0x0 PUSH2 0x100 EXP DUP2 SLOAD DUP2 PUSH20 0xFFFFFFFFFFFFFFFFFFFFFFFFFFFFFFFFFFFFFFFF MUL NOT AND SWAP1 DUP4 PUSH20 0xFFFFFFFFFFFFFFFFFFFFFFFFFFFFFFFFFFFFFFFF AND MUL OR SWAP1 SSTORE POP DUP1 PUSH1 0x2 PUSH1 0x0 PUSH2 0x100 EXP DUP2 SLOAD DUP2 PUSH20 0xFFFFFFFFFFFFFFFFFFFFFFFFFFFFFFFFFFFFFFFF MUL NOT AND SWAP1 DUP4 PUSH20 0xFFFFFFFFFFFFFFFFFFFFFFFFFFFFFFFFFFFFFFFF AND MUL OR SWAP1 SSTORE POP POP POP PUSH3 0x1A4 JUMP JUMPDEST PUSH1 0x0 DUP2 MLOAD SWAP1 POP PUSH3 0x104 DUP2 PUSH3 0x18A JUMP JUMPDEST SWAP3 SWAP2 POP POP JUMP JUMPDEST PUSH1 0x0 DUP1 PUSH1 0x40 DUP4 DUP6 SUB SLT ISZERO PUSH3 0x124 JUMPI PUSH3 0x123 PUSH3 0x185 JUMP JUMPDEST JUMPDEST PUSH1 0x0 PUSH3 0x134 DUP6 DUP3 DUP7 ADD PUSH3 0xF3 JUMP JUMPDEST SWAP3 POP POP PUSH1 0x20 PUSH3 0x147 DUP6 DUP3 DUP7 ADD PUSH3 0xF3 JUMP JUMPDEST SWAP2 POP POP SWAP3 POP SWAP3 SWAP1 POP JUMP JUMPDEST PUSH1 0x0 PUSH3 0x15E DUP3 PUSH3 0x165 JUMP JUMPDEST SWAP1 POP SWAP2 SWAP1 POP JUMP JUMPDEST PUSH1 0x0 PUSH20 0xFFFFFFFFFFFFFFFFFFFFFFFFFFFFFFFFFFFFFFFF DUP3 AND SWAP1 POP SWAP2 SWAP1 POP JUMP JUMPDEST PUSH1 0x0 DUP1 REVERT JUMPDEST PUSH3 0x195 DUP2 PUSH3 0x151 JUMP JUMPDEST DUP2 EQ PUSH3 0x1A1 JUMPI PUSH1 0x0 DUP1 REVERT JUMPDEST POP JUMP JUMPDEST PUSH2 0x26C2 DUP1 PUSH3 0x1B4 PUSH1 0x0 CODECOPY PUSH1 0x0 RETURN INVALID PUSH1 0x80 PUSH1 0x40 MSTORE PUSH1 0x4 CALLDATASIZE LT PUSH2 0x95 JUMPI PUSH1 0x0 CALLDATALOAD PUSH1 0xE0 SHR DUP1 PUSH4 0x4282A572 GT PUSH2 0x59 JUMPI DUP1 PUSH4 0x4282A572 EQ PUSH2 0x1E6 JUMPI DUP1 PUSH4 0x46718F1A EQ PUSH2 0x223 JUMPI DUP1 PUSH4 0x992642E5 EQ PUSH2 0x253 JUMPI DUP1 PUSH4 0xD1ECE790 EQ PUSH2 0x27E JUMPI DUP1 PUSH4 0xE18F5F65 EQ PUSH2 0x2A9 JUMPI PUSH2 0xD5 JUMP JUMPDEST DUP1 PUSH4 0x13203929 EQ PUSH2 0xDA JUMPI DUP1 PUSH4 0x13AA6539 EQ PUSH2 0x11E JUMPI DUP1 PUSH4 0x1BB862A5 EQ PUSH2 0x14E JUMPI DUP1 PUSH4 0x2AE3C90F EQ PUSH2 0x18B JUMPI DUP1 PUSH4 0x372F9101 EQ PUSH2 0x1B6 JUMPI PUSH2 0xD5 JUMP JUMPDEST CALLDATASIZE PUSH2 0xD5 JUMPI PUSH32 0x88A5966D370B9919B20F3E2C13FF65706F196A4E32CC2C12BF57088F88525874 CALLER CALLVALUE PUSH1 0x40 MLOAD PUSH2 0xCB SWAP3 SWAP2 SWAP1 PUSH2 0x1FD3 JUMP JUMPDEST PUSH1 0x40 MLOAD DUP1 SWAP2 SUB SWAP1 LOG1 STOP JUMPDEST PUSH1 0x0 DUP1 REVERT JUMPDEST CALLVALUE DUP1 ISZERO PUSH2 0xE6 JUMPI PUSH1 0x0 DUP1 REVERT JUMPDEST POP PUSH2 0x101 PUSH1 0x4 DUP1 CALLDATASIZE SUB DUP2 ADD SWAP1 PUSH2 0xFC SWAP2 SWAP1 PUSH2 0x1B11 JUMP JUMPDEST PUSH2 0x2E6 JUMP JUMPDEST PUSH1 0x40 MLOAD PUSH2 0x115 SWAP9 SWAP8 SWAP7 SWAP6 SWAP5 SWAP4 SWAP3 SWAP2 SWAP1 PUSH2 0x204E JUMP JUMPDEST PUSH1 0x40 MLOAD DUP1 SWAP2 SUB SWAP1 RETURN JUMPDEST PUSH2 0x138 PUSH1 0x4 DUP1 CALLDATASIZE SUB DUP2 ADD SWAP1 PUSH2 0x133 SWAP2 SWAP1 PUSH2 0x1BB6 JUMP JUMPDEST PUSH2 0x37E JUMP JUMPDEST PUSH1 0x40 MLOAD PUSH2 0x145 SWAP2 SWAP1 PUSH2 0x21E6 JUMP JUMPDEST PUSH1 0x40 MLOAD DUP1 SWAP2 SUB SWAP1 RETURN JUMPDEST CALLVALUE DUP1 ISZERO PUSH2 0x15A JUMPI PUSH1 0x0 DUP1 REVERT JUMPDEST POP PUSH2 0x175 PUSH1 0x4 DUP1 CALLDATASIZE SUB DUP2 ADD SWAP1 PUSH2 0x170 SWAP2 SWAP1 PUSH2 0x1B11 JUMP JUMPDEST PUSH2 0x742 JUMP JUMPDEST PUSH1 0x40 MLOAD PUSH2 0x182 SWAP2 SWAP1 PUSH2 0x2033 JUMP JUMPDEST PUSH1 0x40 MLOAD DUP1 SWAP2 SUB SWAP1 RETURN JUMPDEST CALLVALUE DUP1 ISZERO PUSH2 0x197 JUMPI PUSH1 0x0 DUP1 REVERT JUMPDEST POP PUSH2 0x1A0 PUSH2 0x77A JUMP JUMPDEST PUSH1 0x40 MLOAD PUSH2 0x1AD SWAP2 SWAP1 PUSH2 0x1F81 JUMP JUMPDEST PUSH1 0x40 MLOAD DUP1 SWAP2 SUB SWAP1 RETURN JUMPDEST PUSH2 0x1D0 PUSH1 0x4 DUP1 CALLDATASIZE SUB DUP2 ADD SWAP1 PUSH2 0x1CB SWAP2 SWAP1 PUSH2 0x1B11 JUMP JUMPDEST PUSH2 0x79E JUMP JUMPDEST PUSH1 0x40 MLOAD PUSH2 0x1DD SWAP2 SWAP1 PUSH2 0x20FC JUMP JUMPDEST PUSH1 0x40 MLOAD DUP1 SWAP2 SUB SWAP1 RETURN JUMPDEST CALLVALUE DUP1 ISZERO PUSH2 0x1F2 JUMPI PUSH1 0x0 DUP1 REVERT JUMPDEST POP PUSH2 0x20D PUSH1 0x4 DUP1 CALLDATASIZE SUB DUP2 ADD SWAP1 PUSH2 0x208 SWAP2 SWAP1 PUSH2 0x1B11 JUMP JUMPDEST PUSH2 0xB90 JUMP JUMPDEST PUSH1 0x40 MLOAD PUSH2 0x21A SWAP2 SWAP1 PUSH2 0x21A8 JUMP JUMPDEST PUSH1 0x40 MLOAD DUP1 SWAP2 SUB SWAP1 RETURN JUMPDEST PUSH2 0x23D PUSH1 0x4 DUP1 CALLDATASIZE SUB DUP2 ADD SWAP1 PUSH2 0x238 SWAP2 SWAP1 PUSH2 0x1B5A JUMP JUMPDEST PUSH2 0xC87 JUMP JUMPDEST PUSH1 0x40 MLOAD PUSH2 0x24A SWAP2 SWAP1 PUSH2 0x21E6 JUMP JUMPDEST PUSH1 0x40 MLOAD DUP1 SWAP2 SUB SWAP1 RETURN JUMPDEST CALLVALUE DUP1 ISZERO PUSH2 0x25F JUMPI PUSH1 0x0 DUP1 REVERT JUMPDEST POP PUSH2 0x268 PUSH2 0xFED JUMP JUMPDEST PUSH1 0x40 MLOAD PUSH2 0x275 SWAP2 SWAP1 PUSH2 0x1F81 JUMP JUMPDEST PUSH1 0x40 MLOAD DUP1 SWAP2 SUB SWAP1 RETURN JUMPDEST CALLVALUE DUP1 ISZERO PUSH2 0x28A JUMPI PUSH1 0x0 DUP1 REVERT JUMPDEST POP PUSH2 0x293 PUSH2 0x1013 JUMP JUMPDEST PUSH1 0x40 MLOAD PUSH2 0x2A0 SWAP2 SWAP1 PUSH2 0x21C4 JUMP JUMPDEST PUSH1 0x40 MLOAD DUP1 SWAP2 SUB SWAP1 RETURN JUMPDEST CALLVALUE DUP1 ISZERO PUSH2 0x2B5 JUMPI PUSH1 0x0 DUP1 REVERT JUMPDEST POP PUSH2 0x2D0 PUSH1 0x4 DUP1 CALLDATASIZE SUB DUP2 ADD SWAP1 PUSH2 0x2CB SWAP2 SWAP1 PUSH2 0x1B11 JUMP JUMPDEST PUSH2 0x1106 JUMP JUMPDEST PUSH1 0x40 MLOAD PUSH2 0x2DD SWAP2 SWAP1 PUSH2 0x1F66 JUMP JUMPDEST PUSH1 0x40 MLOAD DUP1 SWAP2 SUB SWAP1 RETURN JUMPDEST PUSH1 0x3 DUP2 DUP1 MLOAD PUSH1 0x20 DUP2 ADD DUP3 ADD DUP1 MLOAD DUP5 DUP3 MSTORE PUSH1 0x20 DUP4 ADD PUSH1 0x20 DUP6 ADD KECCAK256 DUP2 DUP4 MSTORE DUP1 SWAP6 POP POP POP POP POP POP PUSH1 0x0 SWAP2 POP SWAP1 POP DUP1 PUSH1 0x0 ADD PUSH1 0x0 SWAP1 SLOAD SWAP1 PUSH2 0x100 EXP SWAP1 DIV PUSH1 0xFF AND SWAP1 DUP1 PUSH1 0x1 ADD SLOAD SWAP1 DUP1 PUSH1 0x2 ADD PUSH1 0x0 SWAP1 SLOAD SWAP1 PUSH2 0x100 EXP SWAP1 DIV PUSH20 0xFFFFFFFFFFFFFFFFFFFFFFFFFFFFFFFFFFFFFFFF AND SWAP1 DUP1 PUSH1 0x3 ADD SLOAD SWAP1 DUP1 PUSH1 0x4 ADD SLOAD SWAP1 DUP1 PUSH1 0x5 ADD SLOAD SWAP1 DUP1 PUSH1 0x6 ADD SLOAD SWAP1 DUP1 PUSH1 0x7 ADD PUSH1 0x0 SWAP1 SLOAD SWAP1 PUSH2 0x100 EXP SWAP1 DIV PUSH1 0xFF AND SWAP1 POP DUP9 JUMP JUMPDEST PUSH1 0x0 DUP1 PUSH1 0x0 SWAP1 SLOAD SWAP1 PUSH2 0x100 EXP SWAP1 DIV PUSH20 0xFFFFFFFFFFFFFFFFFFFFFFFFFFFFFFFFFFFFFFFF AND PUSH20 0xFFFFFFFFFFFFFFFFFFFFFFFFFFFFFFFFFFFFFFFF AND CALLER PUSH20 0xFFFFFFFFFFFFFFFFFFFFFFFFFFFFFFFFFFFFFFFF AND EQ PUSH2 0x406 JUMPI PUSH1 0x40 MLOAD PUSH32 0x8481E97E00000000000000000000000000000000000000000000000000000000 DUP2 MSTORE PUSH1 0x4 ADD PUSH1 0x40 MLOAD DUP1 SWAP2 SUB SWAP1 REVERT JUMPDEST PUSH1 0x3 DUP9 PUSH1 0x40 MLOAD PUSH2 0x416 SWAP2 SWAP1 PUSH2 0x1F4F JUMP JUMPDEST SWAP1 DUP2 MSTORE PUSH1 0x20 ADD PUSH1 0x40 MLOAD DUP1 SWAP2 SUB SWAP1 KECCAK256 PUSH1 0x0 ADD PUSH1 0x0 SWAP1 SLOAD SWAP1 PUSH2 0x100 EXP SWAP1 DIV PUSH1 0xFF AND ISZERO PUSH2 0x46C JUMPI PUSH1 0x40 MLOAD PUSH32 0xD63D1E4800000000000000000000000000000000000000000000000000000000 DUP2 MSTORE PUSH1 0x4 ADD PUSH1 0x40 MLOAD DUP1 SWAP2 SUB SWAP1 REVERT JUMPDEST DUP6 DUP8 LT ISZERO PUSH2 0x4A6 JUMPI PUSH1 0x40 MLOAD PUSH32 0x6F7EAC2600000000000000000000000000000000000000000000000000000000 DUP2 MSTORE PUSH1 0x4 ADD PUSH1 0x40 MLOAD DUP1 SWAP2 SUB SWAP1 REVERT JUMPDEST TIMESTAMP DUP8 LT ISZERO PUSH2 0x4E0 JUMPI PUSH1 0x40 MLOAD PUSH32 0x6F7EAC2600000000000000000000000000000000000000000000000000000000 DUP2 MSTORE PUSH1 0x4 ADD PUSH1 0x40 MLOAD DUP1 SWAP2 SUB SWAP1 REVERT JUMPDEST PUSH1 0x0 PUSH1 0x3 SWAP1 POP DUP3 ISZERO PUSH2 0x5B1 JUMPI PUSH2 0x52A PUSH1 0x40 MLOAD DUP1 PUSH1 0x40 ADD PUSH1 0x40 MSTORE DUP1 PUSH1 0xE DUP2 MSTORE PUSH1 0x20 ADD PUSH32 0x63726561746520736176696E6773000000000000000000000000000000000000 DUP2 MSTORE POP PUSH2 0x1151 JUMP JUMPDEST PUSH2 0x555 PUSH1 0x2 PUSH1 0x0 SWAP1 SLOAD SWAP1 PUSH2 0x100 EXP SWAP1 DIV PUSH20 0xFFFFFFFFFFFFFFFFFFFFFFFFFFFFFFFFFFFFFFFF AND PUSH2 0x11EA JUMP JUMPDEST PUSH2 0x580 PUSH1 0x1 PUSH1 0x0 SWAP1 SLOAD SWAP1 PUSH2 0x100 EXP SWAP1 DIV PUSH20 0xFFFFFFFFFFFFFFFFFFFFFFFFFFFFFFFFFFFFFFFF AND PUSH2 0x11EA JUMP JUMPDEST PUSH2 0x5AC PUSH1 0x2 PUSH1 0x0 SWAP1 SLOAD SWAP1 PUSH2 0x100 EXP SWAP1 DIV PUSH20 0xFFFFFFFFFFFFFFFFFFFFFFFFFFFFFFFFFFFFFFFF AND DUP6 PUSH2 0x1283 JUMP JUMPDEST PUSH2 0x5BC JUMP JUMPDEST PUSH2 0x5BB DUP6 DUP6 PUSH2 0x1283 JUMP JUMPDEST JUMPDEST PUSH1 0x40 MLOAD DUP1 PUSH2 0x100 ADD PUSH1 0x40 MSTORE DUP1 PUSH1 0x1 ISZERO ISZERO DUP2 MSTORE PUSH1 0x20 ADD DUP6 DUP2 MSTORE PUSH1 0x20 ADD DUP7 PUSH20 0xFFFFFFFFFFFFFFFFFFFFFFFFFFFFFFFFFFFFFFFF AND DUP2 MSTORE PUSH1 0x20 ADD DUP3 DUP2 MSTORE PUSH1 0x20 ADD DUP9 DUP2 MSTORE PUSH1 0x20 ADD DUP8 PUSH1 0xFF AND DUP2 MSTORE PUSH1 0x20 ADD DUP10 DUP2 MSTORE PUSH1 0x20 ADD DUP5 ISZERO ISZERO DUP2 MSTORE POP PUSH1 0x3 DUP11 PUSH1 0x40 MLOAD PUSH2 0x624 SWAP2 SWAP1 PUSH2 0x1F4F JUMP JUMPDEST SWAP1 DUP2 MSTORE PUSH1 0x20 ADD PUSH1 0x40 MLOAD DUP1 SWAP2 SUB SWAP1 KECCAK256 PUSH1 0x0 DUP3 ADD MLOAD DUP2 PUSH1 0x0 ADD PUSH1 0x0 PUSH2 0x100 EXP DUP2 SLOAD DUP2 PUSH1 0xFF MUL NOT AND SWAP1 DUP4 ISZERO ISZERO MUL OR SWAP1 SSTORE POP PUSH1 0x20 DUP3 ADD MLOAD DUP2 PUSH1 0x1 ADD SSTORE PUSH1 0x40 DUP3 ADD MLOAD DUP2 PUSH1 0x2 ADD PUSH1 0x0 PUSH2 0x100 EXP DUP2 SLOAD DUP2 PUSH20 0xFFFFFFFFFFFFFFFFFFFFFFFFFFFFFFFFFFFFFFFF MUL NOT AND SWAP1 DUP4 PUSH20 0xFFFFFFFFFFFFFFFFFFFFFFFFFFFFFFFFFFFFFFFF AND MUL OR SWAP1 SSTORE POP PUSH1 0x60 DUP3 ADD MLOAD DUP2 PUSH1 0x3 ADD SSTORE PUSH1 0x80 DUP3 ADD MLOAD DUP2 PUSH1 0x4 ADD SSTORE PUSH1 0xA0 DUP3 ADD MLOAD DUP2 PUSH1 0x5 ADD SSTORE PUSH1 0xC0 DUP3 ADD MLOAD DUP2 PUSH1 0x6 ADD SSTORE PUSH1 0xE0 DUP3 ADD MLOAD DUP2 PUSH1 0x7 ADD PUSH1 0x0 PUSH2 0x100 EXP DUP2 SLOAD DUP2 PUSH1 0xFF MUL NOT AND SWAP1 DUP4 ISZERO ISZERO MUL OR SWAP1 SSTORE POP SWAP1 POP POP PUSH2 0x6F7 DUP10 PUSH2 0x1302 JUMP JUMPDEST PUSH32 0x4AD85A69286191006EA05981AE1848070DBF232E5E00FFDDA4B857C16097F0D7 DUP10 DUP6 DUP8 PUSH1 0x40 MLOAD PUSH2 0x72A SWAP4 SWAP3 SWAP2 SWAP1 PUSH2 0x211E JUMP JUMPDEST PUSH1 0x40 MLOAD DUP1 SWAP2 SUB SWAP1 LOG1 PUSH1 0x1 SWAP2 POP POP SWAP8 SWAP7 POP POP POP POP POP POP POP JUMP JUMPDEST PUSH1 0x0 PUSH1 0x3 DUP3 PUSH1 0x40 MLOAD PUSH2 0x754 SWAP2 SWAP1 PUSH2 0x1F4F JUMP JUMPDEST SWAP1 DUP2 MSTORE PUSH1 0x20 ADD PUSH1 0x40 MLOAD DUP1 SWAP2 SUB SWAP1 KECCAK256 PUSH1 0x7 ADD PUSH1 0x0 SWAP1 SLOAD SWAP1 PUSH2 0x100 EXP SWAP1 DIV PUSH1 0xFF AND SWAP1 POP SWAP2 SWAP1 POP JUMP JUMPDEST PUSH1 0x0 DUP1 SLOAD SWAP1 PUSH2 0x100 EXP SWAP1 DIV PUSH20 0xFFFFFFFFFFFFFFFFFFFFFFFFFFFFFFFFFFFFFFFF AND DUP2 JUMP JUMPDEST PUSH1 0x60 PUSH1 0x0 DUP1 SLOAD SWAP1 PUSH2 0x100 EXP SWAP1 DIV PUSH20 0xFFFFFFFFFFFFFFFFFFFFFFFFFFFFFFFFFFFFFFFF AND PUSH20 0xFFFFFFFFFFFFFFFFFFFFFFFFFFFFFFFFFFFFFFFF AND CALLER PUSH20 0xFFFFFFFFFFFFFFFFFFFFFFFFFFFFFFFFFFFFFFFF AND EQ PUSH2 0x825 JUMPI PUSH1 0x40 MLOAD PUSH32 0x8481E97E00000000000000000000000000000000000000000000000000000000 DUP2 MSTORE PUSH1 0x4 ADD PUSH1 0x40 MLOAD DUP1 SWAP2 SUB SWAP1 REVERT JUMPDEST PUSH1 0x0 PUSH1 0x3 DUP4 PUSH1 0x40 MLOAD PUSH2 0x837 SWAP2 SWAP1 PUSH2 0x1F4F JUMP JUMPDEST SWAP1 DUP2 MSTORE PUSH1 0x20 ADD PUSH1 0x40 MLOAD DUP1 SWAP2 SUB SWAP1 KECCAK256 SWAP1 POP DUP1 PUSH1 0x0 ADD PUSH1 0x0 SWAP1 SLOAD SWAP1 PUSH2 0x100 EXP SWAP1 DIV PUSH1 0xFF AND PUSH2 0x88F JUMPI PUSH1 0x40 MLOAD PUSH32 0xD63D1E4800000000000000000000000000000000000000000000000000000000 DUP2 MSTORE PUSH1 0x4 ADD PUSH1 0x40 MLOAD DUP1 SWAP2 SUB SWAP1 REVERT JUMPDEST PUSH1 0x0 DUP2 PUSH1 0x6 ADD SLOAD TIMESTAMP LT ISZERO PUSH2 0x8D0 JUMPI PUSH1 0x64 DUP3 PUSH1 0x5 ADD SLOAD PUSH1 0x64 PUSH2 0x8B0 SWAP2 SWAP1 PUSH2 0x23C5 JUMP JUMPDEST DUP4 PUSH1 0x1 ADD SLOAD PUSH2 0x8BF SWAP2 SWAP1 PUSH2 0x236B JUMP JUMPDEST PUSH2 0x8C9 SWAP2 SWAP1 PUSH2 0x233A JUMP JUMPDEST SWAP1 POP PUSH2 0x93E JUMP JUMPDEST PUSH1 0x1 PUSH1 0x0 SWAP1 SLOAD SWAP1 PUSH2 0x100 EXP SWAP1 DIV PUSH20 0xFFFFFFFFFFFFFFFFFFFFFFFFFFFFFFFFFFFFFFFF AND PUSH20 0xFFFFFFFFFFFFFFFFFFFFFFFFFFFFFFFFFFFFFFFF AND PUSH2 0x8FC DUP4 PUSH1 0x3 ADD SLOAD SWAP1 DUP2 ISZERO MUL SWAP1 PUSH1 0x40 MLOAD PUSH1 0x0 PUSH1 0x40 MLOAD DUP1 DUP4 SUB DUP2 DUP6 DUP9 DUP9 CALL SWAP4 POP POP POP POP ISZERO DUP1 ISZERO PUSH2 0x93C JUMPI RETURNDATASIZE PUSH1 0x0 DUP1 RETURNDATACOPY RETURNDATASIZE PUSH1 0x0 REVERT JUMPDEST POP JUMPDEST PUSH1 0x0 DUP3 PUSH1 0x2 ADD PUSH1 0x0 SWAP1 SLOAD SWAP1 PUSH2 0x100 EXP SWAP1 DIV PUSH20 0xFFFFFFFFFFFFFFFFFFFFFFFFFFFFFFFFFFFFFFFF AND SWAP1 POP DUP3 PUSH1 0x7 ADD PUSH1 0x0 SWAP1 SLOAD SWAP1 PUSH2 0x100 EXP SWAP1 DIV PUSH1 0xFF AND ISZERO PUSH2 0xA8D JUMPI PUSH1 0x0 PUSH2 0x9CD PUSH1 0x0 DUP1 SLOAD SWAP1 PUSH2 0x100 EXP SWAP1 DIV PUSH20 0xFFFFFFFFFFFFFFFFFFFFFFFFFFFFFFFFFFFFFFFF AND DUP5 PUSH1 0x2 PUSH1 0x0 SWAP1 SLOAD SWAP1 PUSH2 0x100 EXP SWAP1 DIV PUSH20 0xFFFFFFFFFFFFFFFFFFFFFFFFFFFFFFFFFFFFFFFF AND PUSH2 0x1344 JUMP JUMPDEST SWAP1 POP PUSH1 0x0 DUP1 PUSH1 0x0 SWAP1 SLOAD SWAP1 PUSH2 0x100 EXP SWAP1 DIV PUSH20 0xFFFFFFFFFFFFFFFFFFFFFFFFFFFFFFFFFFFFFFFF AND SWAP1 POP DUP1 PUSH20 0xFFFFFFFFFFFFFFFFFFFFFFFFFFFFFFFFFFFFFFFF AND PUSH4 0xDE35C372 DUP5 DUP5 PUSH1 0x1 PUSH1 0x0 SWAP1 SLOAD SWAP1 PUSH2 0x100 EXP SWAP1 DIV PUSH20 0xFFFFFFFFFFFFFFFFFFFFFFFFFFFFFFFFFFFFFFFF AND PUSH1 0x40 MLOAD DUP5 PUSH4 0xFFFFFFFF AND PUSH1 0xE0 SHL DUP2 MSTORE PUSH1 0x4 ADD PUSH2 0xA54 SWAP4 SWAP3 SWAP2 SWAP1 PUSH2 0x1FFC JUMP JUMPDEST PUSH1 0x0 PUSH1 0x40 MLOAD DUP1 DUP4 SUB DUP2 PUSH1 0x0 DUP8 DUP1 EXTCODESIZE ISZERO DUP1 ISZERO PUSH2 0xA6E JUMPI PUSH1 0x0 DUP1 REVERT JUMPDEST POP GAS CALL ISZERO DUP1 ISZERO PUSH2 0xA82 JUMPI RETURNDATASIZE PUSH1 0x0 DUP1 RETURNDATACOPY RETURNDATASIZE PUSH1 0x0 REVERT JUMPDEST POP POP POP POP POP POP PUSH2 0xADF JUMP JUMPDEST PUSH2 0xADE DUP4 PUSH1 0x2 ADD PUSH1 0x0 SWAP1 SLOAD SWAP1 PUSH2 0x100 EXP SWAP1 DIV PUSH20 0xFFFFFFFFFFFFFFFFFFFFFFFFFFFFFFFFFFFFFFFF AND PUSH1 0x1 PUSH1 0x0 SWAP1 SLOAD SWAP1 PUSH2 0x100 EXP SWAP1 DIV PUSH20 0xFFFFFFFFFFFFFFFFFFFFFFFFFFFFFFFFFFFFFFFF AND DUP5 PUSH2 0x15B0 JUMP JUMPDEST JUMPDEST PUSH1 0x0 PUSH1 0x3 DUP7 PUSH1 0x40 MLOAD PUSH2 0xAF1 SWAP2 SWAP1 PUSH2 0x1F4F JUMP JUMPDEST SWAP1 DUP2 MSTORE PUSH1 0x20 ADD PUSH1 0x40 MLOAD DUP1 SWAP2 SUB SWAP1 KECCAK256 PUSH1 0x0 ADD PUSH1 0x0 PUSH2 0x100 EXP DUP2 SLOAD DUP2 PUSH1 0xFF MUL NOT AND SWAP1 DUP4 ISZERO ISZERO MUL OR SWAP1 SSTORE POP PUSH32 0x5B059B7FE1FEA38D4DE595079621498A365A8F1FA13E49AF9F1E4B7197AB049A DUP6 PUSH1 0x40 MLOAD PUSH2 0xB48 SWAP2 SWAP1 PUSH2 0x20FC JUMP JUMPDEST PUSH1 0x40 MLOAD DUP1 SWAP2 SUB SWAP1 LOG1 PUSH1 0x40 MLOAD DUP1 PUSH1 0x40 ADD PUSH1 0x40 MSTORE DUP1 PUSH1 0x1E DUP2 MSTORE PUSH1 0x20 ADD PUSH32 0x736176696E67732077697468647261776E207375636365737366756C6C790000 DUP2 MSTORE POP SWAP4 POP POP POP POP SWAP2 SWAP1 POP JUMP JUMPDEST PUSH2 0xB98 PUSH2 0x188C JUMP JUMPDEST PUSH1 0x3 DUP3 PUSH1 0x40 MLOAD PUSH2 0xBA8 SWAP2 SWAP1 PUSH2 0x1F4F JUMP JUMPDEST SWAP1 DUP2 MSTORE PUSH1 0x20 ADD PUSH1 0x40 MLOAD DUP1 SWAP2 SUB SWAP1 KECCAK256 PUSH1 0x40 MLOAD DUP1 PUSH2 0x100 ADD PUSH1 0x40 MSTORE SWAP1 DUP2 PUSH1 0x0 DUP3 ADD PUSH1 0x0 SWAP1 SLOAD SWAP1 PUSH2 0x100 EXP SWAP1 DIV PUSH1 0xFF AND ISZERO ISZERO ISZERO ISZERO DUP2 MSTORE PUSH1 0x20 ADD PUSH1 0x1 DUP3 ADD SLOAD DUP2 MSTORE PUSH1 0x20 ADD PUSH1 0x2 DUP3 ADD PUSH1 0x0 SWAP1 SLOAD SWAP1 PUSH2 0x100 EXP SWAP1 DIV PUSH20 0xFFFFFFFFFFFFFFFFFFFFFFFFFFFFFFFFFFFFFFFF AND PUSH20 0xFFFFFFFFFFFFFFFFFFFFFFFFFFFFFFFFFFFFFFFF AND PUSH20 0xFFFFFFFFFFFFFFFFFFFFFFFFFFFFFFFFFFFFFFFF AND DUP2 MSTORE PUSH1 0x20 ADD PUSH1 0x3 DUP3 ADD SLOAD DUP2 MSTORE PUSH1 0x20 ADD PUSH1 0x4 DUP3 ADD SLOAD DUP2 MSTORE PUSH1 0x20 ADD PUSH1 0x5 DUP3 ADD SLOAD DUP2 MSTORE PUSH1 0x20 ADD PUSH1 0x6 DUP3 ADD SLOAD DUP2 MSTORE PUSH1 0x20 ADD PUSH1 0x7 DUP3 ADD PUSH1 0x0 SWAP1 SLOAD SWAP1 PUSH2 0x100 EXP SWAP1 DIV PUSH1 0xFF AND ISZERO ISZERO ISZERO ISZERO DUP2 MSTORE POP POP SWAP1 POP SWAP2 SWAP1 POP JUMP JUMPDEST PUSH1 0x0 DUP1 PUSH1 0x0 SWAP1 SLOAD SWAP1 PUSH2 0x100 EXP SWAP1 DIV PUSH20 0xFFFFFFFFFFFFFFFFFFFFFFFFFFFFFFFFFFFFFFFF AND PUSH20 0xFFFFFFFFFFFFFFFFFFFFFFFFFFFFFFFFFFFFFFFF AND CALLER PUSH20 0xFFFFFFFFFFFFFFFFFFFFFFFFFFFFFFFFFFFFFFFF AND EQ PUSH2 0xD0F JUMPI PUSH1 0x40 MLOAD PUSH32 0x8481E97E00000000000000000000000000000000000000000000000000000000 DUP2 MSTORE PUSH1 0x4 ADD PUSH1 0x40 MLOAD DUP1 SWAP2 SUB SWAP1 REVERT JUMPDEST PUSH1 0x0 PUSH1 0x3 DUP5 PUSH1 0x40 MLOAD PUSH2 0xD21 SWAP2 SWAP1 PUSH2 0x1F4F JUMP JUMPDEST SWAP1 DUP2 MSTORE PUSH1 0x20 ADD PUSH1 0x40 MLOAD DUP1 SWAP2 SUB SWAP1 KECCAK256 SWAP1 POP DUP1 PUSH1 0x0 ADD PUSH1 0x0 SWAP1 SLOAD SWAP1 PUSH2 0x100 EXP SWAP1 DIV PUSH1 0xFF AND PUSH2 0xD79 JUMPI PUSH1 0x40 MLOAD PUSH32 0xD63D1E4800000000000000000000000000000000000000000000000000000000 DUP2 MSTORE PUSH1 0x4 ADD PUSH1 0x40 MLOAD DUP1 SWAP2 SUB SWAP1 REVERT JUMPDEST DUP1 PUSH1 0x6 ADD SLOAD TIMESTAMP GT ISZERO PUSH2 0xDB7 JUMPI PUSH1 0x40 MLOAD PUSH32 0x6F7EAC2600000000000000000000000000000000000000000000000000000000 DUP2 MSTORE PUSH1 0x4 ADD PUSH1 0x40 MLOAD DUP1 SWAP2 SUB SWAP1 REVERT JUMPDEST DUP1 PUSH1 0x7 ADD PUSH1 0x0 SWAP1 SLOAD SWAP1 PUSH2 0x100 EXP SWAP1 DIV PUSH1 0xFF AND ISZERO PUSH2 0xDFF JUMPI PUSH2 0xDFA PUSH1 0x2 PUSH1 0x0 SWAP1 SLOAD SWAP1 PUSH2 0x100 EXP SWAP1 DIV PUSH20 0xFFFFFFFFFFFFFFFFFFFFFFFFFFFFFFFFFFFFFFFF AND DUP5 PUSH2 0x1283 JUMP JUMPDEST PUSH2 0xE2E JUMP JUMPDEST PUSH2 0xE2D DUP2 PUSH1 0x2 ADD PUSH1 0x0 SWAP1 SLOAD SWAP1 PUSH2 0x100 EXP SWAP1 DIV PUSH20 0xFFFFFFFFFFFFFFFFFFFFFFFFFFFFFFFFFFFFFFFF AND DUP5 PUSH2 0x1283 JUMP JUMPDEST JUMPDEST PUSH1 0x0 PUSH1 0x1 SWAP1 POP DUP1 DUP3 PUSH1 0x3 ADD SLOAD PUSH2 0xE44 SWAP2 SWAP1 PUSH2 0x22E4 JUMP JUMPDEST DUP3 PUSH1 0x3 ADD DUP2 SWAP1 SSTORE POP DUP4 DUP3 PUSH1 0x1 ADD SLOAD PUSH2 0xE5C SWAP2 SWAP1 PUSH2 0x22E4 JUMP JUMPDEST DUP3 PUSH1 0x1 ADD DUP2 SWAP1 SSTORE POP DUP2 PUSH1 0x3 DUP7 PUSH1 0x40 MLOAD PUSH2 0xE75 SWAP2 SWAP1 PUSH2 0x1F4F JUMP JUMPDEST SWAP1 DUP2 MSTORE PUSH1 0x20 ADD PUSH1 0x40 MLOAD DUP1 SWAP2 SUB SWAP1 KECCAK256 PUSH1 0x0 DUP3 ADD PUSH1 0x0 SWAP1 SLOAD SWAP1 PUSH2 0x100 EXP SWAP1 DIV PUSH1 0xFF AND DUP2 PUSH1 0x0 ADD PUSH1 0x0 PUSH2 0x100 EXP DUP2 SLOAD DUP2 PUSH1 0xFF MUL NOT AND SWAP1 DUP4 ISZERO ISZERO MUL OR SWAP1 SSTORE POP PUSH1 0x1 DUP3 ADD SLOAD DUP2 PUSH1 0x1 ADD SSTORE PUSH1 0x2 DUP3 ADD PUSH1 0x0 SWAP1 SLOAD SWAP1 PUSH2 0x100 EXP SWAP1 DIV PUSH20 0xFFFFFFFFFFFFFFFFFFFFFFFFFFFFFFFFFFFFFFFF AND DUP2 PUSH1 0x2 ADD PUSH1 0x0 PUSH2 0x100 EXP DUP2 SLOAD DUP2 PUSH20 0xFFFFFFFFFFFFFFFFFFFFFFFFFFFFFFFFFFFFFFFF MUL NOT AND SWAP1 DUP4 PUSH20 0xFFFFFFFFFFFFFFFFFFFFFFFFFFFFFFFFFFFFFFFF AND MUL OR SWAP1 SSTORE POP PUSH1 0x3 DUP3 ADD SLOAD DUP2 PUSH1 0x3 ADD SSTORE PUSH1 0x4 DUP3 ADD SLOAD DUP2 PUSH1 0x4 ADD SSTORE PUSH1 0x5 DUP3 ADD SLOAD DUP2 PUSH1 0x5 ADD SSTORE PUSH1 0x6 DUP3 ADD SLOAD DUP2 PUSH1 0x6 ADD SSTORE PUSH1 0x7 DUP3 ADD PUSH1 0x0 SWAP1 SLOAD SWAP1 PUSH2 0x100 EXP SWAP1 DIV PUSH1 0xFF AND DUP2 PUSH1 0x7 ADD PUSH1 0x0 PUSH2 0x100 EXP DUP2 SLOAD DUP2 PUSH1 0xFF MUL NOT AND SWAP1 DUP4 ISZERO ISZERO MUL OR SWAP1 SSTORE POP SWAP1 POP POP PUSH32 0xF6B98D8E0D83F8B1D1FF03A2FA36ABA2C77CCF20E4FF035C0CF4AA92762E9EEC DUP6 DUP6 DUP5 PUSH1 0x1 ADD SLOAD DUP6 PUSH1 0x2 ADD PUSH1 0x0 SWAP1 SLOAD SWAP1 PUSH2 0x100 EXP SWAP1 DIV PUSH20 0xFFFFFFFFFFFFFFFFFFFFFFFFFFFFFFFFFFFFFFFF AND PUSH1 0x40 MLOAD PUSH2 0xFD6 SWAP5 SWAP4 SWAP3 SWAP2 SWAP1 PUSH2 0x215C JUMP JUMPDEST PUSH1 0x40 MLOAD DUP1 SWAP2 SUB SWAP1 LOG1 DUP2 PUSH1 0x3 ADD SLOAD SWAP3 POP POP POP SWAP3 SWAP2 POP POP JUMP JUMPDEST PUSH1 0x2 PUSH1 0x0 SWAP1 SLOAD SWAP1 PUSH2 0x100 EXP SWAP1 DIV PUSH20 0xFFFFFFFFFFFFFFFFFFFFFFFFFFFFFFFFFFFFFFFF AND DUP2 JUMP JUMPDEST PUSH2 0x101B PUSH2 0x18EB JUMP JUMPDEST PUSH1 0x4 PUSH1 0x40 MLOAD DUP1 PUSH1 0x20 ADD PUSH1 0x40 MSTORE SWAP1 DUP2 PUSH1 0x0 DUP3 ADD DUP1 SLOAD DUP1 PUSH1 0x20 MUL PUSH1 0x20 ADD PUSH1 0x40 MLOAD SWAP1 DUP2 ADD PUSH1 0x40 MSTORE DUP1 SWAP3 SWAP2 SWAP1 DUP2 DUP2 MSTORE PUSH1 0x20 ADD PUSH1 0x0 SWAP1 JUMPDEST DUP3 DUP3 LT ISZERO PUSH2 0x10F9 JUMPI DUP4 DUP3 SWAP1 PUSH1 0x0 MSTORE PUSH1 0x20 PUSH1 0x0 KECCAK256 ADD DUP1 SLOAD PUSH2 0x106C SWAP1 PUSH2 0x24E2 JUMP JUMPDEST DUP1 PUSH1 0x1F ADD PUSH1 0x20 DUP1 SWAP2 DIV MUL PUSH1 0x20 ADD PUSH1 0x40 MLOAD SWAP1 DUP2 ADD PUSH1 0x40 MSTORE DUP1 SWAP3 SWAP2 SWAP1 DUP2 DUP2 MSTORE PUSH1 0x20 ADD DUP3 DUP1 SLOAD PUSH2 0x1098 SWAP1 PUSH2 0x24E2 JUMP JUMPDEST DUP1 ISZERO PUSH2 0x10E5 JUMPI DUP1 PUSH1 0x1F LT PUSH2 0x10BA JUMPI PUSH2 0x100 DUP1 DUP4 SLOAD DIV MUL DUP4 MSTORE SWAP2 PUSH1 0x20 ADD SWAP2 PUSH2 0x10E5 JUMP JUMPDEST DUP3 ADD SWAP2 SWAP1 PUSH1 0x0 MSTORE PUSH1 0x20 PUSH1 0x0 KECCAK256 SWAP1 JUMPDEST DUP2 SLOAD DUP2 MSTORE SWAP1 PUSH1 0x1 ADD SWAP1 PUSH1 0x20 ADD DUP1 DUP4 GT PUSH2 0x10C8 JUMPI DUP3 SWAP1 SUB PUSH1 0x1F AND DUP3 ADD SWAP2 JUMPDEST POP POP POP POP POP DUP2 MSTORE PUSH1 0x20 ADD SWAP1 PUSH1 0x1 ADD SWAP1 PUSH2 0x104D JUMP JUMPDEST POP POP POP POP DUP2 MSTORE POP POP SWAP1 POP SWAP1 JUMP JUMPDEST PUSH1 0x0 PUSH1 0x3 DUP3 PUSH1 0x40 MLOAD PUSH2 0x1118 SWAP2 SWAP1 PUSH2 0x1F4F JUMP JUMPDEST SWAP1 DUP2 MSTORE PUSH1 0x20 ADD PUSH1 0x40 MLOAD DUP1 SWAP2 SUB SWAP1 KECCAK256 PUSH1 0x2 ADD PUSH1 0x0 SWAP1 SLOAD SWAP1 PUSH2 0x100 EXP SWAP1 DIV PUSH20 0xFFFFFFFFFFFFFFFFFFFFFFFFFFFFFFFFFFFFFFFF AND SWAP1 POP SWAP2 SWAP1 POP JUMP JUMPDEST PUSH2 0x11E7 DUP2 PUSH1 0x40 MLOAD PUSH1 0x24 ADD PUSH2 0x1165 SWAP2 SWAP1 PUSH2 0x20FC JUMP JUMPDEST PUSH1 0x40 MLOAD PUSH1 0x20 DUP2 DUP4 SUB SUB DUP2 MSTORE SWAP1 PUSH1 0x40 MSTORE PUSH32 0x41304FAC00000000000000000000000000000000000000000000000000000000 PUSH28 0xFFFFFFFFFFFFFFFFFFFFFFFFFFFFFFFFFFFFFFFFFFFFFFFFFFFFFFFF NOT AND PUSH1 0x20 DUP3 ADD DUP1 MLOAD PUSH28 0xFFFFFFFFFFFFFFFFFFFFFFFFFFFFFFFFFFFFFFFFFFFFFFFFFFFFFFFF DUP4 DUP2 DUP4 AND OR DUP4 MSTORE POP POP POP POP PUSH2 0x1784 JUMP JUMPDEST POP JUMP JUMPDEST PUSH2 0x1280 DUP2 PUSH1 0x40 MLOAD PUSH1 0x24 ADD PUSH2 0x11FE SWAP2 SWAP1 PUSH2 0x1F66 JUMP JUMPDEST PUSH1 0x40 MLOAD PUSH1 0x20 DUP2 DUP4 SUB SUB DUP2 MSTORE SWAP1 PUSH1 0x40 MSTORE PUSH32 0x2C2ECBC200000000000000000000000000000000000000000000000000000000 PUSH28 0xFFFFFFFFFFFFFFFFFFFFFFFFFFFFFFFFFFFFFFFFFFFFFFFFFFFFFFFF NOT AND PUSH1 0x20 DUP3 ADD DUP1 MLOAD PUSH28 0xFFFFFFFFFFFFFFFFFFFFFFFFFFFFFFFFFFFFFFFFFFFFFFFFFFFFFFFF DUP4 DUP2 DUP4 AND OR DUP4 MSTORE POP POP POP POP PUSH2 0x1784 JUMP JUMPDEST POP JUMP JUMPDEST PUSH1 0x0 SELFBALANCE SWAP1 POP PUSH2 0x12B3 PUSH1 0x0 DUP1 SLOAD SWAP1 PUSH2 0x100 EXP SWAP1 DIV PUSH20 0xFFFFFFFFFFFFFFFFFFFFFFFFFFFFFFFFFFFFFFFF AND DUP5 DUP5 PUSH2 0x17A5 JUMP JUMPDEST PUSH1 0x0 SELFBALANCE SWAP1 POP DUP1 DUP4 DUP4 PUSH2 0x12C5 SWAP2 SWAP1 PUSH2 0x22E4 JUMP JUMPDEST GT PUSH2 0x12FC JUMPI PUSH1 0x40 MLOAD PUSH32 0xCB6E851C00000000000000000000000000000000000000000000000000000000 DUP2 MSTORE PUSH1 0x4 ADD PUSH1 0x40 MLOAD DUP1 SWAP2 SUB SWAP1 REVERT JUMPDEST POP POP POP POP JUMP JUMPDEST PUSH1 0x4 PUSH1 0x0 ADD DUP2 SWAP1 DUP1 PUSH1 0x1 DUP2 SLOAD ADD DUP1 DUP3 SSTORE DUP1 SWAP2 POP POP PUSH1 0x1 SWAP1 SUB SWAP1 PUSH1 0x0 MSTORE PUSH1 0x20 PUSH1 0x0 KECCAK256 ADD PUSH1 0x0 SWAP1 SWAP2 SWAP1 SWAP2 SWAP1 SWAP2 POP SWAP1 DUP1 MLOAD SWAP1 PUSH1 0x20 ADD SWAP1 PUSH2 0x1340 SWAP3 SWAP2 SWAP1 PUSH2 0x18FE JUMP JUMPDEST POP POP JUMP JUMPDEST PUSH1 0x0 DUP1 PUSH1 0x0 DUP4 PUSH20 0xFFFFFFFFFFFFFFFFFFFFFFFFFFFFFFFFFFFFFFFF AND PUSH4 0xD9EEEBED PUSH1 0x40 MLOAD DUP2 PUSH4 0xFFFFFFFF AND PUSH1 0xE0 SHL DUP2 MSTORE PUSH1 0x4 ADD PUSH1 0x40 DUP1 MLOAD DUP1 DUP4 SUB DUP2 DUP7 DUP1 EXTCODESIZE ISZERO DUP1 ISZERO PUSH2 0x138E JUMPI PUSH1 0x0 DUP1 REVERT JUMPDEST POP GAS STATICCALL ISZERO DUP1 ISZERO PUSH2 0x13A2 JUMPI RETURNDATASIZE PUSH1 0x0 DUP1 RETURNDATACOPY RETURNDATASIZE PUSH1 0x0 REVERT JUMPDEST POP POP POP POP PUSH1 0x40 MLOAD RETURNDATASIZE PUSH1 0x1F NOT PUSH1 0x1F DUP3 ADD AND DUP3 ADD DUP1 PUSH1 0x40 MSTORE POP DUP2 ADD SWAP1 PUSH2 0x13C6 SWAP2 SWAP1 PUSH2 0x1AA4 JUMP JUMPDEST SWAP2 POP SWAP2 POP PUSH1 0x2 DUP2 PUSH2 0x13D7 SWAP2 SWAP1 PUSH2 0x236B JUMP JUMPDEST SWAP1 POP DUP4 PUSH20 0xFFFFFFFFFFFFFFFFFFFFFFFFFFFFFFFFFFFFFFFF AND DUP3 PUSH20 0xFFFFFFFFFFFFFFFFFFFFFFFFFFFFFFFFFFFFFFFF AND EQ PUSH2 0x143E JUMPI PUSH1 0x40 MLOAD PUSH32 0xCAAA35E700000000000000000000000000000000000000000000000000000000 DUP2 MSTORE PUSH1 0x4 ADD PUSH1 0x40 MLOAD DUP1 SWAP2 SUB SWAP1 REVERT JUMPDEST DUP5 DUP2 LT PUSH2 0x1477 JUMPI PUSH1 0x40 MLOAD PUSH32 0xD0C279A200000000000000000000000000000000000000000000000000000000 DUP2 MSTORE PUSH1 0x4 ADD PUSH1 0x40 MLOAD DUP1 SWAP2 SUB SWAP1 REVERT JUMPDEST PUSH1 0x0 DUP2 DUP7 PUSH2 0x1485 SWAP2 SWAP1 PUSH2 0x23C5 JUMP JUMPDEST SWAP1 POP DUP5 PUSH20 0xFFFFFFFFFFFFFFFFFFFFFFFFFFFFFFFFFFFFFFFF AND PUSH4 0x95EA7B3 DUP7 DUP5 PUSH1 0x40 MLOAD DUP4 PUSH4 0xFFFFFFFF AND PUSH1 0xE0 SHL DUP2 MSTORE PUSH1 0x4 ADD PUSH2 0x14C2 SWAP3 SWAP2 SWAP1 PUSH2 0x1FD3 JUMP JUMPDEST PUSH1 0x20 PUSH1 0x40 MLOAD DUP1 DUP4 SUB DUP2 PUSH1 0x0 DUP8 DUP1 EXTCODESIZE ISZERO DUP1 ISZERO PUSH2 0x14DC JUMPI PUSH1 0x0 DUP1 REVERT JUMPDEST POP GAS CALL ISZERO DUP1 ISZERO PUSH2 0x14F0 JUMPI RETURNDATASIZE PUSH1 0x0 DUP1 RETURNDATACOPY RETURNDATASIZE PUSH1 0x0 REVERT JUMPDEST POP POP POP POP PUSH1 0x40 MLOAD RETURNDATASIZE PUSH1 0x1F NOT PUSH1 0x1F DUP3 ADD AND DUP3 ADD DUP1 PUSH1 0x40 MSTORE POP DUP2 ADD SWAP1 PUSH2 0x1514 SWAP2 SWAP1 PUSH2 0x1AE4 JUMP JUMPDEST POP DUP5 PUSH20 0xFFFFFFFFFFFFFFFFFFFFFFFFFFFFFFFFFFFFFFFF AND PUSH4 0x95EA7B3 DUP9 DUP4 PUSH1 0x40 MLOAD DUP4 PUSH4 0xFFFFFFFF AND PUSH1 0xE0 SHL DUP2 MSTORE PUSH1 0x4 ADD PUSH2 0x1550 SWAP3 SWAP2 SWAP1 PUSH2 0x1FD3 JUMP JUMPDEST PUSH1 0x20 PUSH1 0x40 MLOAD DUP1 DUP4 SUB DUP2 PUSH1 0x0 DUP8 DUP1 EXTCODESIZE ISZERO DUP1 ISZERO PUSH2 0x156A JUMPI PUSH1 0x0 DUP1 REVERT JUMPDEST POP GAS CALL ISZERO DUP1 ISZERO PUSH2 0x157E JUMPI RETURNDATASIZE PUSH1 0x0 DUP1 RETURNDATACOPY RETURNDATASIZE PUSH1 0x0 REVERT JUMPDEST POP POP POP POP PUSH1 0x40 MLOAD RETURNDATASIZE PUSH1 0x1F NOT PUSH1 0x1F DUP3 ADD AND DUP3 ADD DUP1 PUSH1 0x40 MSTORE POP DUP2 ADD SWAP1 PUSH2 0x15A2 SWAP2 SWAP1 PUSH2 0x1AE4 JUMP JUMPDEST POP DUP1 SWAP4 POP POP POP POP SWAP4 SWAP3 POP POP POP JUMP JUMPDEST PUSH1 0x0 DUP4 SWAP1 POP PUSH1 0x0 DUP1 DUP3 PUSH20 0xFFFFFFFFFFFFFFFFFFFFFFFFFFFFFFFFFFFFFFFF AND PUSH4 0xD9EEEBED PUSH1 0x40 MLOAD DUP2 PUSH4 0xFFFFFFFF AND PUSH1 0xE0 SHL DUP2 MSTORE PUSH1 0x4 ADD PUSH1 0x40 DUP1 MLOAD DUP1 DUP4 SUB DUP2 DUP7 DUP1 EXTCODESIZE ISZERO DUP1 ISZERO PUSH2 0x15FD JUMPI PUSH1 0x0 DUP1 REVERT JUMPDEST POP GAS STATICCALL ISZERO DUP1 ISZERO PUSH2 0x1611 JUMPI RETURNDATASIZE PUSH1 0x0 DUP1 RETURNDATACOPY RETURNDATASIZE PUSH1 0x0 REVERT JUMPDEST POP POP POP POP PUSH1 0x40 MLOAD RETURNDATASIZE PUSH1 0x1F NOT PUSH1 0x1F DUP3 ADD AND DUP3 ADD DUP1 PUSH1 0x40 MSTORE POP DUP2 ADD SWAP1 PUSH2 0x1635 SWAP2 SWAP1 PUSH2 0x1AA4 JUMP JUMPDEST SWAP2 POP SWAP2 POP PUSH1 0x2 DUP2 PUSH2 0x1646 SWAP2 SWAP1 PUSH2 0x236B JUMP JUMPDEST SWAP1 POP DUP4 DUP2 GT ISZERO PUSH2 0x1682 JUMPI PUSH1 0x40 MLOAD PUSH32 0xD0C279A200000000000000000000000000000000000000000000000000000000 DUP2 MSTORE PUSH1 0x4 ADD PUSH1 0x40 MLOAD DUP1 SWAP2 SUB SWAP1 REVERT JUMPDEST PUSH1 0x0 PUSH2 0x168D DUP7 PUSH2 0x1840 JUMP JUMPDEST SWAP1 POP PUSH1 0x0 PUSH2 0x169A DUP3 PUSH2 0x1863 JUMP JUMPDEST SWAP1 POP DUP5 PUSH20 0xFFFFFFFFFFFFFFFFFFFFFFFFFFFFFFFFFFFFFFFF AND PUSH4 0xC7012626 DUP3 DUP9 PUSH1 0x40 MLOAD DUP4 PUSH4 0xFFFFFFFF AND PUSH1 0xE0 SHL DUP2 MSTORE PUSH1 0x4 ADD PUSH2 0x16D7 SWAP3 SWAP2 SWAP1 PUSH2 0x20CC JUMP JUMPDEST PUSH1 0x20 PUSH1 0x40 MLOAD DUP1 DUP4 SUB DUP2 PUSH1 0x0 DUP8 DUP1 EXTCODESIZE ISZERO DUP1 ISZERO PUSH2 0x16F1 JUMPI PUSH1 0x0 DUP1 REVERT JUMPDEST POP GAS CALL ISZERO DUP1 ISZERO PUSH2 0x1705 JUMPI RETURNDATASIZE PUSH1 0x0 DUP1 RETURNDATACOPY RETURNDATASIZE PUSH1 0x0 REVERT JUMPDEST POP POP POP POP PUSH1 0x40 MLOAD RETURNDATASIZE PUSH1 0x1F NOT PUSH1 0x1F DUP3 ADD AND DUP3 ADD DUP1 PUSH1 0x40 MSTORE POP DUP2 ADD SWAP1 PUSH2 0x1729 SWAP2 SWAP1 PUSH2 0x1AE4 JUMP JUMPDEST POP ADDRESS PUSH20 0xFFFFFFFFFFFFFFFFFFFFFFFFFFFFFFFFFFFFFFFF AND PUSH32 0x5A728B1F316A097EC4F8A742082E66F5C4721E46906F187BE4DE147365187152 DUP3 DUP9 PUSH1 0x40 MLOAD PUSH2 0x1772 SWAP3 SWAP2 SWAP1 PUSH2 0x20CC JUMP JUMPDEST PUSH1 0x40 MLOAD DUP1 SWAP2 SUB SWAP1 LOG2 POP POP POP POP POP POP POP POP JUMP JUMPDEST PUSH1 0x0 PUSH11 0x636F6E736F6C652E6C6F67 SWAP1 POP PUSH1 0x0 DUP1 DUP4 MLOAD PUSH1 0x20 DUP6 ADD DUP5 GAS STATICCALL POP POP POP JUMP JUMPDEST PUSH1 0x0 ADDRESS SWAP1 POP DUP3 PUSH20 0xFFFFFFFFFFFFFFFFFFFFFFFFFFFFFFFFFFFFFFFF AND PUSH4 0x23B872DD DUP6 DUP4 DUP6 PUSH1 0x40 MLOAD DUP5 PUSH4 0xFFFFFFFF AND PUSH1 0xE0 SHL DUP2 MSTORE PUSH1 0x4 ADD PUSH2 0x17E7 SWAP4 SWAP3 SWAP2 SWAP1 PUSH2 0x1F9C JUMP JUMPDEST PUSH1 0x20 PUSH1 0x40 MLOAD DUP1 DUP4 SUB DUP2 PUSH1 0x0 DUP8 DUP1 EXTCODESIZE ISZERO DUP1 ISZERO PUSH2 0x1801 JUMPI PUSH1 0x0 DUP1 REVERT JUMPDEST POP GAS CALL ISZERO DUP1 ISZERO PUSH2 0x1815 JUMPI RETURNDATASIZE PUSH1 0x0 DUP1 RETURNDATACOPY RETURNDATASIZE PUSH1 0x0 REVERT JUMPDEST POP POP POP POP PUSH1 0x40 MLOAD RETURNDATASIZE PUSH1 0x1F NOT PUSH1 0x1F DUP3 ADD AND DUP3 ADD DUP1 PUSH1 0x40 MSTORE POP DUP2 ADD SWAP1 PUSH2 0x1839 SWAP2 SWAP1 PUSH2 0x1AE4 JUMP JUMPDEST POP POP POP POP POP JUMP JUMPDEST PUSH1 0x0 DUP2 PUSH20 0xFFFFFFFFFFFFFFFFFFFFFFFFFFFFFFFFFFFFFFFF AND PUSH1 0x0 SHL SWAP1 POP SWAP2 SWAP1 POP JUMP JUMPDEST PUSH1 0x60 DUP2 PUSH1 0x40 MLOAD PUSH1 0x20 ADD PUSH2 0x1876 SWAP2 SWAP1 PUSH2 0x1F34 JUMP JUMPDEST PUSH1 0x40 MLOAD PUSH1 0x20 DUP2 DUP4 SUB SUB DUP2 MSTORE SWAP1 PUSH1 0x40 MSTORE SWAP1 POP SWAP2 SWAP1 POP JUMP JUMPDEST PUSH1 0x40 MLOAD DUP1 PUSH2 0x100 ADD PUSH1 0x40 MSTORE DUP1 PUSH1 0x0 ISZERO ISZERO DUP2 MSTORE PUSH1 0x20 ADD PUSH1 0x0 DUP2 MSTORE PUSH1 0x20 ADD PUSH1 0x0 PUSH20 0xFFFFFFFFFFFFFFFFFFFFFFFFFFFFFFFFFFFFFFFF AND DUP2 MSTORE PUSH1 0x20 ADD PUSH1 0x0 DUP2 MSTORE PUSH1 0x20 ADD PUSH1 0x0 DUP2 MSTORE PUSH1 0x20 ADD PUSH1 0x0 DUP2 MSTORE PUSH1 0x20 ADD PUSH1 0x0 DUP2 MSTORE PUSH1 0x20 ADD PUSH1 0x0 ISZERO ISZERO DUP2 MSTORE POP SWAP1 JUMP JUMPDEST PUSH1 0x40 MLOAD DUP1 PUSH1 0x20 ADD PUSH1 0x40 MSTORE DUP1 PUSH1 0x60 DUP2 MSTORE POP SWAP1 JUMP JUMPDEST DUP3 DUP1 SLOAD PUSH2 0x190A SWAP1 PUSH2 0x24E2 JUMP JUMPDEST SWAP1 PUSH1 0x0 MSTORE PUSH1 0x20 PUSH1 0x0 KECCAK256 SWAP1 PUSH1 0x1F ADD PUSH1 0x20 SWAP1 DIV DUP2 ADD SWAP3 DUP3 PUSH2 0x192C JUMPI PUSH1 0x0 DUP6 SSTORE PUSH2 0x1973 JUMP JUMPDEST DUP3 PUSH1 0x1F LT PUSH2 0x1945 JUMPI DUP1 MLOAD PUSH1 0xFF NOT AND DUP4 DUP1 ADD OR DUP6 SSTORE PUSH2 0x1973 JUMP JUMPDEST DUP3 DUP1 ADD PUSH1 0x1 ADD DUP6 SSTORE DUP3 ISZERO PUSH2 0x1973 JUMPI SWAP2 DUP3 ADD JUMPDEST DUP3 DUP2 GT ISZERO PUSH2 0x1972 JUMPI DUP3 MLOAD DUP3 SSTORE SWAP2 PUSH1 0x20 ADD SWAP2 SWAP1 PUSH1 0x1 ADD SWAP1 PUSH2 0x1957 JUMP JUMPDEST JUMPDEST POP SWAP1 POP PUSH2 0x1980 SWAP2 SWAP1 PUSH2 0x1984 JUMP JUMPDEST POP SWAP1 JUMP JUMPDEST JUMPDEST DUP1 DUP3 GT ISZERO PUSH2 0x199D JUMPI PUSH1 0x0 DUP2 PUSH1 0x0 SWAP1 SSTORE POP PUSH1 0x1 ADD PUSH2 0x1985 JUMP JUMPDEST POP SWAP1 JUMP JUMPDEST PUSH1 0x0 PUSH2 0x19B4 PUSH2 0x19AF DUP5 PUSH2 0x2226 JUMP JUMPDEST PUSH2 0x2201 JUMP JUMPDEST SWAP1 POP DUP3 DUP2 MSTORE PUSH1 0x20 DUP2 ADD DUP5 DUP5 DUP5 ADD GT ISZERO PUSH2 0x19D0 JUMPI PUSH2 0x19CF PUSH2 0x2610 JUMP JUMPDEST JUMPDEST PUSH2 0x19DB DUP5 DUP3 DUP6 PUSH2 0x24A0 JUMP JUMPDEST POP SWAP4 SWAP3 POP POP POP JUMP JUMPDEST PUSH1 0x0 DUP2 CALLDATALOAD SWAP1 POP PUSH2 0x19F2 DUP2 PUSH2 0x2630 JUMP JUMPDEST SWAP3 SWAP2 POP POP JUMP JUMPDEST PUSH1 0x0 DUP2 MLOAD SWAP1 POP PUSH2 0x1A07 DUP2 PUSH2 0x2630 JUMP JUMPDEST SWAP3 SWAP2 POP POP JUMP JUMPDEST PUSH1 0x0 DUP2 CALLDATALOAD SWAP1 POP PUSH2 0x1A1C DUP2 PUSH2 0x2647 JUMP JUMPDEST SWAP3 SWAP2 POP POP JUMP JUMPDEST PUSH1 0x0 DUP2 MLOAD SWAP1 POP PUSH2 0x1A31 DUP2 PUSH2 0x2647 JUMP JUMPDEST SWAP3 SWAP2 POP POP JUMP JUMPDEST PUSH1 0x0 DUP3 PUSH1 0x1F DUP4 ADD SLT PUSH2 0x1A4C JUMPI PUSH2 0x1A4B PUSH2 0x260B JUMP JUMPDEST JUMPDEST DUP2 CALLDATALOAD PUSH2 0x1A5C DUP5 DUP3 PUSH1 0x20 DUP7 ADD PUSH2 0x19A1 JUMP JUMPDEST SWAP2 POP POP SWAP3 SWAP2 POP POP JUMP JUMPDEST PUSH1 0x0 DUP2 CALLDATALOAD SWAP1 POP PUSH2 0x1A74 DUP2 PUSH2 0x265E JUMP JUMPDEST SWAP3 SWAP2 POP POP JUMP JUMPDEST PUSH1 0x0 DUP2 MLOAD SWAP1 POP PUSH2 0x1A89 DUP2 PUSH2 0x265E JUMP JUMPDEST SWAP3 SWAP2 POP POP JUMP JUMPDEST PUSH1 0x0 DUP2 CALLDATALOAD SWAP1 POP PUSH2 0x1A9E DUP2 PUSH2 0x2675 JUMP JUMPDEST SWAP3 SWAP2 POP POP JUMP JUMPDEST PUSH1 0x0 DUP1 PUSH1 0x40 DUP4 DUP6 SUB SLT ISZERO PUSH2 0x1ABB JUMPI PUSH2 0x1ABA PUSH2 0x261A JUMP JUMPDEST JUMPDEST PUSH1 0x0 PUSH2 0x1AC9 DUP6 DUP3 DUP7 ADD PUSH2 0x19F8 JUMP JUMPDEST SWAP3 POP POP PUSH1 0x20 PUSH2 0x1ADA DUP6 DUP3 DUP7 ADD PUSH2 0x1A7A JUMP JUMPDEST SWAP2 POP POP SWAP3 POP SWAP3 SWAP1 POP JUMP JUMPDEST PUSH1 0x0 PUSH1 0x20 DUP3 DUP5 SUB SLT ISZERO PUSH2 0x1AFA JUMPI PUSH2 0x1AF9 PUSH2 0x261A JUMP JUMPDEST JUMPDEST PUSH1 0x0 PUSH2 0x1B08 DUP5 DUP3 DUP6 ADD PUSH2 0x1A22 JUMP JUMPDEST SWAP2 POP POP SWAP3 SWAP2 POP POP JUMP JUMPDEST PUSH1 0x0 PUSH1 0x20 DUP3 DUP5 SUB SLT ISZERO PUSH2 0x1B27 JUMPI PUSH2 0x1B26 PUSH2 0x261A JUMP JUMPDEST JUMPDEST PUSH1 0x0 DUP3 ADD CALLDATALOAD PUSH8 0xFFFFFFFFFFFFFFFF DUP2 GT ISZERO PUSH2 0x1B45 JUMPI PUSH2 0x1B44 PUSH2 0x2615 JUMP JUMPDEST JUMPDEST PUSH2 0x1B51 DUP5 DUP3 DUP6 ADD PUSH2 0x1A37 JUMP JUMPDEST SWAP2 POP POP SWAP3 SWAP2 POP POP JUMP JUMPDEST PUSH1 0x0 DUP1 PUSH1 0x40 DUP4 DUP6 SUB SLT ISZERO PUSH2 0x1B71 JUMPI PUSH2 0x1B70 PUSH2 0x261A JUMP JUMPDEST JUMPDEST PUSH1 0x0 DUP4 ADD CALLDATALOAD PUSH8 0xFFFFFFFFFFFFFFFF DUP2 GT ISZERO PUSH2 0x1B8F JUMPI PUSH2 0x1B8E PUSH2 0x2615 JUMP JUMPDEST JUMPDEST PUSH2 0x1B9B DUP6 DUP3 DUP7 ADD PUSH2 0x1A37 JUMP JUMPDEST SWAP3 POP POP PUSH1 0x20 PUSH2 0x1BAC DUP6 DUP3 DUP7 ADD PUSH2 0x1A65 JUMP JUMPDEST SWAP2 POP POP SWAP3 POP SWAP3 SWAP1 POP JUMP JUMPDEST PUSH1 0x0 DUP1 PUSH1 0x0 DUP1 PUSH1 0x0 DUP1 PUSH1 0x0 PUSH1 0xE0 DUP9 DUP11 SUB SLT ISZERO PUSH2 0x1BD5 JUMPI PUSH2 0x1BD4 PUSH2 0x261A JUMP JUMPDEST JUMPDEST PUSH1 0x0 DUP9 ADD CALLDATALOAD PUSH8 0xFFFFFFFFFFFFFFFF DUP2 GT ISZERO PUSH2 0x1BF3 JUMPI PUSH2 0x1BF2 PUSH2 0x2615 JUMP JUMPDEST JUMPDEST PUSH2 0x1BFF DUP11 DUP3 DUP12 ADD PUSH2 0x1A37 JUMP JUMPDEST SWAP8 POP POP PUSH1 0x20 PUSH2 0x1C10 DUP11 DUP3 DUP12 ADD PUSH2 0x1A65 JUMP JUMPDEST SWAP7 POP POP PUSH1 0x40 PUSH2 0x1C21 DUP11 DUP3 DUP12 ADD PUSH2 0x1A65 JUMP JUMPDEST SWAP6 POP POP PUSH1 0x60 PUSH2 0x1C32 DUP11 DUP3 DUP12 ADD PUSH2 0x1A8F JUMP JUMPDEST SWAP5 POP POP PUSH1 0x80 PUSH2 0x1C43 DUP11 DUP3 DUP12 ADD PUSH2 0x19E3 JUMP JUMPDEST SWAP4 POP POP PUSH1 0xA0 PUSH2 0x1C54 DUP11 DUP3 DUP12 ADD PUSH2 0x1A65 JUMP JUMPDEST SWAP3 POP POP PUSH1 0xC0 PUSH2 0x1C65 DUP11 DUP3 DUP12 ADD PUSH2 0x1A0D JUMP JUMPDEST SWAP2 POP POP SWAP3 SWAP6 SWAP9 SWAP2 SWAP5 SWAP8 POP SWAP3 SWAP6 POP JUMP JUMPDEST PUSH1 0x0 PUSH2 0x1C80 DUP4 DUP4 PUSH2 0x1DA7 JUMP JUMPDEST SWAP1 POP SWAP3 SWAP2 POP POP JUMP JUMPDEST PUSH2 0x1C91 DUP2 PUSH2 0x246A JUMP JUMPDEST DUP3 MSTORE POP POP JUMP JUMPDEST PUSH2 0x1CA0 DUP2 PUSH2 0x240B JUMP JUMPDEST DUP3 MSTORE POP POP JUMP JUMPDEST PUSH2 0x1CAF DUP2 PUSH2 0x23F9 JUMP JUMPDEST DUP3 MSTORE POP POP JUMP JUMPDEST PUSH2 0x1CBE DUP2 PUSH2 0x23F9 JUMP JUMPDEST DUP3 MSTORE POP POP JUMP JUMPDEST PUSH1 0x0 PUSH2 0x1CCF DUP3 PUSH2 0x2267 JUMP JUMPDEST PUSH2 0x1CD9 DUP2 DUP6 PUSH2 0x2295 JUMP JUMPDEST SWAP4 POP DUP4 PUSH1 0x20 DUP3 MUL DUP6 ADD PUSH2 0x1CEB DUP6 PUSH2 0x2257 JUMP JUMPDEST DUP1 PUSH1 0x0 JUMPDEST DUP6 DUP2 LT ISZERO PUSH2 0x1D27 JUMPI DUP5 DUP5 SUB DUP10 MSTORE DUP2 MLOAD PUSH2 0x1D08 DUP6 DUP3 PUSH2 0x1C74 JUMP JUMPDEST SWAP5 POP PUSH2 0x1D13 DUP4 PUSH2 0x2288 JUMP JUMPDEST SWAP3 POP PUSH1 0x20 DUP11 ADD SWAP10 POP POP PUSH1 0x1 DUP2 ADD SWAP1 POP PUSH2 0x1CEF JUMP JUMPDEST POP DUP3 SWAP8 POP DUP8 SWAP6 POP POP POP POP POP POP SWAP3 SWAP2 POP POP JUMP JUMPDEST PUSH2 0x1D42 DUP2 PUSH2 0x241D JUMP JUMPDEST DUP3 MSTORE POP POP JUMP JUMPDEST PUSH2 0x1D51 DUP2 PUSH2 0x241D JUMP JUMPDEST DUP3 MSTORE POP POP JUMP JUMPDEST PUSH2 0x1D68 PUSH2 0x1D63 DUP3 PUSH2 0x2429 JUMP JUMPDEST PUSH2 0x2545 JUMP JUMPDEST DUP3 MSTORE POP POP JUMP JUMPDEST PUSH1 0x0 PUSH2 0x1D79 DUP3 PUSH2 0x2272 JUMP JUMPDEST PUSH2 0x1D83 DUP2 DUP6 PUSH2 0x22A6 JUMP JUMPDEST SWAP4 POP PUSH2 0x1D93 DUP2 DUP6 PUSH1 0x20 DUP7 ADD PUSH2 0x24AF JUMP JUMPDEST PUSH2 0x1D9C DUP2 PUSH2 0x261F JUMP JUMPDEST DUP5 ADD SWAP2 POP POP SWAP3 SWAP2 POP POP JUMP JUMPDEST PUSH1 0x0 PUSH2 0x1DB2 DUP3 PUSH2 0x227D JUMP JUMPDEST PUSH2 0x1DBC DUP2 DUP6 PUSH2 0x22B7 JUMP JUMPDEST SWAP4 POP PUSH2 0x1DCC DUP2 DUP6 PUSH1 0x20 DUP7 ADD PUSH2 0x24AF JUMP JUMPDEST PUSH2 0x1DD5 DUP2 PUSH2 0x261F JUMP JUMPDEST DUP5 ADD SWAP2 POP POP SWAP3 SWAP2 POP POP JUMP JUMPDEST PUSH1 0x0 PUSH2 0x1DEB DUP3 PUSH2 0x227D JUMP JUMPDEST PUSH2 0x1DF5 DUP2 DUP6 PUSH2 0x22C8 JUMP JUMPDEST SWAP4 POP PUSH2 0x1E05 DUP2 DUP6 PUSH1 0x20 DUP7 ADD PUSH2 0x24AF JUMP JUMPDEST PUSH2 0x1E0E DUP2 PUSH2 0x261F JUMP JUMPDEST DUP5 ADD SWAP2 POP POP SWAP3 SWAP2 POP POP JUMP JUMPDEST PUSH1 0x0 PUSH2 0x1E24 DUP3 PUSH2 0x227D JUMP JUMPDEST PUSH2 0x1E2E DUP2 DUP6 PUSH2 0x22D9 JUMP JUMPDEST SWAP4 POP PUSH2 0x1E3E DUP2 DUP6 PUSH1 0x20 DUP7 ADD PUSH2 0x24AF JUMP JUMPDEST DUP1 DUP5 ADD SWAP2 POP POP SWAP3 SWAP2 POP POP JUMP JUMPDEST PUSH2 0x100 DUP3 ADD PUSH1 0x0 DUP3 ADD MLOAD PUSH2 0x1E61 PUSH1 0x0 DUP6 ADD DUP3 PUSH2 0x1D39 JUMP JUMPDEST POP PUSH1 0x20 DUP3 ADD MLOAD PUSH2 0x1E74 PUSH1 0x20 DUP6 ADD DUP3 PUSH2 0x1F16 JUMP JUMPDEST POP PUSH1 0x40 DUP3 ADD MLOAD PUSH2 0x1E87 PUSH1 0x40 DUP6 ADD DUP3 PUSH2 0x1CA6 JUMP JUMPDEST POP PUSH1 0x60 DUP3 ADD MLOAD PUSH2 0x1E9A PUSH1 0x60 DUP6 ADD DUP3 PUSH2 0x1F16 JUMP JUMPDEST POP PUSH1 0x80 DUP3 ADD MLOAD PUSH2 0x1EAD PUSH1 0x80 DUP6 ADD DUP3 PUSH2 0x1F16 JUMP JUMPDEST POP PUSH1 0xA0 DUP3 ADD MLOAD PUSH2 0x1EC0 PUSH1 0xA0 DUP6 ADD DUP3 PUSH2 0x1F16 JUMP JUMPDEST POP PUSH1 0xC0 DUP3 ADD MLOAD PUSH2 0x1ED3 PUSH1 0xC0 DUP6 ADD DUP3 PUSH2 0x1F16 JUMP JUMPDEST POP PUSH1 0xE0 DUP3 ADD MLOAD PUSH2 0x1EE6 PUSH1 0xE0 DUP6 ADD DUP3 PUSH2 0x1D39 JUMP JUMPDEST POP POP POP POP JUMP JUMPDEST PUSH1 0x0 PUSH1 0x20 DUP4 ADD PUSH1 0x0 DUP4 ADD MLOAD DUP5 DUP3 SUB PUSH1 0x0 DUP7 ADD MSTORE PUSH2 0x1F09 DUP3 DUP3 PUSH2 0x1CC4 JUMP JUMPDEST SWAP2 POP POP DUP1 SWAP2 POP POP SWAP3 SWAP2 POP POP JUMP JUMPDEST PUSH2 0x1F1F DUP2 PUSH2 0x2453 JUMP JUMPDEST DUP3 MSTORE POP POP JUMP JUMPDEST PUSH2 0x1F2E DUP2 PUSH2 0x2453 JUMP JUMPDEST DUP3 MSTORE POP POP JUMP JUMPDEST PUSH1 0x0 PUSH2 0x1F40 DUP3 DUP5 PUSH2 0x1D57 JUMP JUMPDEST PUSH1 0x20 DUP3 ADD SWAP2 POP DUP2 SWAP1 POP SWAP3 SWAP2 POP POP JUMP JUMPDEST PUSH1 0x0 PUSH2 0x1F5B DUP3 DUP5 PUSH2 0x1E19 JUMP JUMPDEST SWAP2 POP DUP2 SWAP1 POP SWAP3 SWAP2 POP POP JUMP JUMPDEST PUSH1 0x0 PUSH1 0x20 DUP3 ADD SWAP1 POP PUSH2 0x1F7B PUSH1 0x0 DUP4 ADD DUP5 PUSH2 0x1CB5 JUMP JUMPDEST SWAP3 SWAP2 POP POP JUMP JUMPDEST PUSH1 0x0 PUSH1 0x20 DUP3 ADD SWAP1 POP PUSH2 0x1F96 PUSH1 0x0 DUP4 ADD DUP5 PUSH2 0x1C97 JUMP JUMPDEST SWAP3 SWAP2 POP POP JUMP JUMPDEST PUSH1 0x0 PUSH1 0x60 DUP3 ADD SWAP1 POP PUSH2 0x1FB1 PUSH1 0x0 DUP4 ADD DUP7 PUSH2 0x1CB5 JUMP JUMPDEST PUSH2 0x1FBE PUSH1 0x20 DUP4 ADD DUP6 PUSH2 0x1CB5 JUMP JUMPDEST PUSH2 0x1FCB PUSH1 0x40 DUP4 ADD DUP5 PUSH2 0x1F25 JUMP JUMPDEST SWAP5 SWAP4 POP POP POP POP JUMP JUMPDEST PUSH1 0x0 PUSH1 0x40 DUP3 ADD SWAP1 POP PUSH2 0x1FE8 PUSH1 0x0 DUP4 ADD DUP6 PUSH2 0x1CB5 JUMP JUMPDEST PUSH2 0x1FF5 PUSH1 0x20 DUP4 ADD DUP5 PUSH2 0x1F25 JUMP JUMPDEST SWAP4 SWAP3 POP POP POP JUMP JUMPDEST PUSH1 0x0 PUSH1 0x60 DUP3 ADD SWAP1 POP PUSH2 0x2011 PUSH1 0x0 DUP4 ADD DUP7 PUSH2 0x1CB5 JUMP JUMPDEST PUSH2 0x201E PUSH1 0x20 DUP4 ADD DUP6 PUSH2 0x1F25 JUMP JUMPDEST PUSH2 0x202B PUSH1 0x40 DUP4 ADD DUP5 PUSH2 0x1C88 JUMP JUMPDEST SWAP5 SWAP4 POP POP POP POP JUMP JUMPDEST PUSH1 0x0 PUSH1 0x20 DUP3 ADD SWAP1 POP PUSH2 0x2048 PUSH1 0x0 DUP4 ADD DUP5 PUSH2 0x1D48 JUMP JUMPDEST SWAP3 SWAP2 POP POP JUMP JUMPDEST PUSH1 0x0 PUSH2 0x100 DUP3 ADD SWAP1 POP PUSH2 0x2064 PUSH1 0x0 DUP4 ADD DUP12 PUSH2 0x1D48 JUMP JUMPDEST PUSH2 0x2071 PUSH1 0x20 DUP4 ADD DUP11 PUSH2 0x1F25 JUMP JUMPDEST PUSH2 0x207E PUSH1 0x40 DUP4 ADD DUP10 PUSH2 0x1CB5 JUMP JUMPDEST PUSH2 0x208B PUSH1 0x60 DUP4 ADD DUP9 PUSH2 0x1F25 JUMP JUMPDEST PUSH2 0x2098 PUSH1 0x80 DUP4 ADD DUP8 PUSH2 0x1F25 JUMP JUMPDEST PUSH2 0x20A5 PUSH1 0xA0 DUP4 ADD DUP7 PUSH2 0x1F25 JUMP JUMPDEST PUSH2 0x20B2 PUSH1 0xC0 DUP4 ADD DUP6 PUSH2 0x1F25 JUMP JUMPDEST PUSH2 0x20BF PUSH1 0xE0 DUP4 ADD DUP5 PUSH2 0x1D48 JUMP JUMPDEST SWAP10 SWAP9 POP POP POP POP POP POP POP POP POP JUMP JUMPDEST PUSH1 0x0 PUSH1 0x40 DUP3 ADD SWAP1 POP DUP2 DUP2 SUB PUSH1 0x0 DUP4 ADD MSTORE PUSH2 0x20E6 DUP2 DUP6 PUSH2 0x1D6E JUMP JUMPDEST SWAP1 POP PUSH2 0x20F5 PUSH1 0x20 DUP4 ADD DUP5 PUSH2 0x1F25 JUMP JUMPDEST SWAP4 SWAP3 POP POP POP JUMP JUMPDEST PUSH1 0x0 PUSH1 0x20 DUP3 ADD SWAP1 POP DUP2 DUP2 SUB PUSH1 0x0 DUP4 ADD MSTORE PUSH2 0x2116 DUP2 DUP5 PUSH2 0x1DE0 JUMP JUMPDEST SWAP1 POP SWAP3 SWAP2 POP POP JUMP JUMPDEST PUSH1 0x0 PUSH1 0x60 DUP3 ADD SWAP1 POP DUP2 DUP2 SUB PUSH1 0x0 DUP4 ADD MSTORE PUSH2 0x2138 DUP2 DUP7 PUSH2 0x1DE0 JUMP JUMPDEST SWAP1 POP PUSH2 0x2147 PUSH1 0x20 DUP4 ADD DUP6 PUSH2 0x1F25 JUMP JUMPDEST PUSH2 0x2154 PUSH1 0x40 DUP4 ADD DUP5 PUSH2 0x1CB5 JUMP JUMPDEST SWAP5 SWAP4 POP POP POP POP JUMP JUMPDEST PUSH1 0x0 PUSH1 0x80 DUP3 ADD SWAP1 POP DUP2 DUP2 SUB PUSH1 0x0 DUP4 ADD MSTORE PUSH2 0x2176 DUP2 DUP8 PUSH2 0x1DE0 JUMP JUMPDEST SWAP1 POP PUSH2 0x2185 PUSH1 0x20 DUP4 ADD DUP7 PUSH2 0x1F25 JUMP JUMPDEST PUSH2 0x2192 PUSH1 0x40 DUP4 ADD DUP6 PUSH2 0x1F25 JUMP JUMPDEST PUSH2 0x219F PUSH1 0x60 DUP4 ADD DUP5 PUSH2 0x1CB5 JUMP JUMPDEST SWAP6 SWAP5 POP POP POP POP POP JUMP JUMPDEST PUSH1 0x0 PUSH2 0x100 DUP3 ADD SWAP1 POP PUSH2 0x21BE PUSH1 0x0 DUP4 ADD DUP5 PUSH2 0x1E4A JUMP JUMPDEST SWAP3 SWAP2 POP POP JUMP JUMPDEST PUSH1 0x0 PUSH1 0x20 DUP3 ADD SWAP1 POP DUP2 DUP2 SUB PUSH1 0x0 DUP4 ADD MSTORE PUSH2 0x21DE DUP2 DUP5 PUSH2 0x1EEC JUMP JUMPDEST SWAP1 POP SWAP3 SWAP2 POP POP JUMP JUMPDEST PUSH1 0x0 PUSH1 0x20 DUP3 ADD SWAP1 POP PUSH2 0x21FB PUSH1 0x0 DUP4 ADD DUP5 PUSH2 0x1F25 JUMP JUMPDEST SWAP3 SWAP2 POP POP JUMP JUMPDEST PUSH1 0x0 PUSH2 0x220B PUSH2 0x221C JUMP JUMPDEST SWAP1 POP PUSH2 0x2217 DUP3 DUP3 PUSH2 0x2514 JUMP JUMPDEST SWAP2 SWAP1 POP JUMP JUMPDEST PUSH1 0x0 PUSH1 0x40 MLOAD SWAP1 POP SWAP1 JUMP JUMPDEST PUSH1 0x0 PUSH8 0xFFFFFFFFFFFFFFFF DUP3 GT ISZERO PUSH2 0x2241 JUMPI PUSH2 0x2240 PUSH2 0x25DC JUMP JUMPDEST JUMPDEST PUSH2 0x224A DUP3 PUSH2 0x261F JUMP JUMPDEST SWAP1 POP PUSH1 0x20 DUP2 ADD SWAP1 POP SWAP2 SWAP1 POP JUMP JUMPDEST PUSH1 0x0 DUP2 SWAP1 POP PUSH1 0x20 DUP3 ADD SWAP1 POP SWAP2 SWAP1 POP JUMP JUMPDEST PUSH1 0x0 DUP2 MLOAD SWAP1 POP SWAP2 SWAP1 POP JUMP JUMPDEST PUSH1 0x0 DUP2 MLOAD SWAP1 POP SWAP2 SWAP1 POP JUMP JUMPDEST PUSH1 0x0 DUP2 MLOAD SWAP1 POP SWAP2 SWAP1 POP JUMP JUMPDEST PUSH1 0x0 PUSH1 0x20 DUP3 ADD SWAP1 POP SWAP2 SWAP1 POP JUMP JUMPDEST PUSH1 0x0 DUP3 DUP3 MSTORE PUSH1 0x20 DUP3 ADD SWAP1 POP SWAP3 SWAP2 POP POP JUMP JUMPDEST PUSH1 0x0 DUP3 DUP3 MSTORE PUSH1 0x20 DUP3 ADD SWAP1 POP SWAP3 SWAP2 POP POP JUMP JUMPDEST PUSH1 0x0 DUP3 DUP3 MSTORE PUSH1 0x20 DUP3 ADD SWAP1 POP SWAP3 SWAP2 POP POP JUMP JUMPDEST PUSH1 0x0 DUP3 DUP3 MSTORE PUSH1 0x20 DUP3 ADD SWAP1 POP SWAP3 SWAP2 POP POP JUMP JUMPDEST PUSH1 0x0 DUP2 SWAP1 POP SWAP3 SWAP2 POP POP JUMP JUMPDEST PUSH1 0x0 PUSH2 0x22EF DUP3 PUSH2 0x2453 JUMP JUMPDEST SWAP2 POP PUSH2 0x22FA DUP4 PUSH2 0x2453 JUMP JUMPDEST SWAP3 POP DUP3 PUSH32 0xFFFFFFFFFFFFFFFFFFFFFFFFFFFFFFFFFFFFFFFFFFFFFFFFFFFFFFFFFFFFFFFF SUB DUP3 GT ISZERO PUSH2 0x232F JUMPI PUSH2 0x232E PUSH2 0x254F JUMP JUMPDEST JUMPDEST DUP3 DUP3 ADD SWAP1 POP SWAP3 SWAP2 POP POP JUMP JUMPDEST PUSH1 0x0 PUSH2 0x2345 DUP3 PUSH2 0x2453 JUMP JUMPDEST SWAP2 POP PUSH2 0x2350 DUP4 PUSH2 0x2453 JUMP JUMPDEST SWAP3 POP DUP3 PUSH2 0x2360 JUMPI PUSH2 0x235F PUSH2 0x257E JUMP JUMPDEST JUMPDEST DUP3 DUP3 DIV SWAP1 POP SWAP3 SWAP2 POP POP JUMP JUMPDEST PUSH1 0x0 PUSH2 0x2376 DUP3 PUSH2 0x2453 JUMP JUMPDEST SWAP2 POP PUSH2 0x2381 DUP4 PUSH2 0x2453 JUMP JUMPDEST SWAP3 POP DUP2 PUSH32 0xFFFFFFFFFFFFFFFFFFFFFFFFFFFFFFFFFFFFFFFFFFFFFFFFFFFFFFFFFFFFFFFF DIV DUP4 GT DUP3 ISZERO ISZERO AND ISZERO PUSH2 0x23BA JUMPI PUSH2 0x23B9 PUSH2 0x254F JUMP JUMPDEST JUMPDEST DUP3 DUP3 MUL SWAP1 POP SWAP3 SWAP2 POP POP JUMP JUMPDEST PUSH1 0x0 PUSH2 0x23D0 DUP3 PUSH2 0x2453 JUMP JUMPDEST SWAP2 POP PUSH2 0x23DB DUP4 PUSH2 0x2453 JUMP JUMPDEST SWAP3 POP DUP3 DUP3 LT ISZERO PUSH2 0x23EE JUMPI PUSH2 0x23ED PUSH2 0x254F JUMP JUMPDEST JUMPDEST DUP3 DUP3 SUB SWAP1 POP SWAP3 SWAP2 POP POP JUMP JUMPDEST PUSH1 0x0 PUSH2 0x2404 DUP3 PUSH2 0x2433 JUMP JUMPDEST SWAP1 POP SWAP2 SWAP1 POP JUMP JUMPDEST PUSH1 0x0 PUSH2 0x2416 DUP3 PUSH2 0x2433 JUMP JUMPDEST SWAP1 POP SWAP2 SWAP1 POP JUMP JUMPDEST PUSH1 0x0 DUP2 ISZERO ISZERO SWAP1 POP SWAP2 SWAP1 POP JUMP JUMPDEST PUSH1 0x0 DUP2 SWAP1 POP SWAP2 SWAP1 POP JUMP JUMPDEST PUSH1 0x0 PUSH20 0xFFFFFFFFFFFFFFFFFFFFFFFFFFFFFFFFFFFFFFFF DUP3 AND SWAP1 POP SWAP2 SWAP1 POP JUMP JUMPDEST PUSH1 0x0 DUP2 SWAP1 POP SWAP2 SWAP1 POP JUMP JUMPDEST PUSH1 0x0 PUSH1 0xFF DUP3 AND SWAP1 POP SWAP2 SWAP1 POP JUMP JUMPDEST PUSH1 0x0 PUSH2 0x2475 DUP3 PUSH2 0x247C JUMP JUMPDEST SWAP1 POP SWAP2 SWAP1 POP JUMP JUMPDEST PUSH1 0x0 PUSH2 0x2487 DUP3 PUSH2 0x248E JUMP JUMPDEST SWAP1 POP SWAP2 SWAP1 POP JUMP JUMPDEST PUSH1 0x0 PUSH2 0x2499 DUP3 PUSH2 0x2433 JUMP JUMPDEST SWAP1 POP SWAP2 SWAP1 POP JUMP JUMPDEST DUP3 DUP2 DUP4 CALLDATACOPY PUSH1 0x0 DUP4 DUP4 ADD MSTORE POP POP POP JUMP JUMPDEST PUSH1 0x0 JUMPDEST DUP4 DUP2 LT ISZERO PUSH2 0x24CD JUMPI DUP1 DUP3 ADD MLOAD DUP2 DUP5 ADD MSTORE PUSH1 0x20 DUP2 ADD SWAP1 POP PUSH2 0x24B2 JUMP JUMPDEST DUP4 DUP2 GT ISZERO PUSH2 0x24DC JUMPI PUSH1 0x0 DUP5 DUP5 ADD MSTORE JUMPDEST POP POP POP POP JUMP JUMPDEST PUSH1 0x0 PUSH1 0x2 DUP3 DIV SWAP1 POP PUSH1 0x1 DUP3 AND DUP1 PUSH2 0x24FA JUMPI PUSH1 0x7F DUP3 AND SWAP2 POP JUMPDEST PUSH1 0x20 DUP3 LT DUP2 EQ ISZERO PUSH2 0x250E JUMPI PUSH2 0x250D PUSH2 0x25AD JUMP JUMPDEST JUMPDEST POP SWAP2 SWAP1 POP JUMP JUMPDEST PUSH2 0x251D DUP3 PUSH2 0x261F JUMP JUMPDEST DUP2 ADD DUP2 DUP2 LT PUSH8 0xFFFFFFFFFFFFFFFF DUP3 GT OR ISZERO PUSH2 0x253C JUMPI PUSH2 0x253B PUSH2 0x25DC JUMP JUMPDEST JUMPDEST DUP1 PUSH1 0x40 MSTORE POP POP POP JUMP JUMPDEST PUSH1 0x0 DUP2 SWAP1 POP SWAP2 SWAP1 POP JUMP JUMPDEST PUSH32 0x4E487B7100000000000000000000000000000000000000000000000000000000 PUSH1 0x0 MSTORE PUSH1 0x11 PUSH1 0x4 MSTORE PUSH1 0x24 PUSH1 0x0 REVERT JUMPDEST PUSH32 0x4E487B7100000000000000000000000000000000000000000000000000000000 PUSH1 0x0 MSTORE PUSH1 0x12 PUSH1 0x4 MSTORE PUSH1 0x24 PUSH1 0x0 REVERT JUMPDEST PUSH32 0x4E487B7100000000000000000000000000000000000000000000000000000000 PUSH1 0x0 MSTORE PUSH1 0x22 PUSH1 0x4 MSTORE PUSH1 0x24 PUSH1 0x0 REVERT JUMPDEST PUSH32 0x4E487B7100000000000000000000000000000000000000000000000000000000 PUSH1 0x0 MSTORE PUSH1 0x41 PUSH1 0x4 MSTORE PUSH1 0x24 PUSH1 0x0 REVERT JUMPDEST PUSH1 0x0 DUP1 REVERT JUMPDEST PUSH1 0x0 DUP1 REVERT JUMPDEST PUSH1 0x0 DUP1 REVERT JUMPDEST PUSH1 0x0 DUP1 REVERT JUMPDEST PUSH1 0x0 PUSH1 0x1F NOT PUSH1 0x1F DUP4 ADD AND SWAP1 POP SWAP2 SWAP1 POP JUMP JUMPDEST PUSH2 0x2639 DUP2 PUSH2 0x23F9 JUMP JUMPDEST DUP2 EQ PUSH2 0x2644 JUMPI PUSH1 0x0 DUP1 REVERT JUMPDEST POP JUMP JUMPDEST PUSH2 0x2650 DUP2 PUSH2 0x241D JUMP JUMPDEST DUP2 EQ PUSH2 0x265B JUMPI PUSH1 0x0 DUP1 REVERT JUMPDEST POP JUMP JUMPDEST PUSH2 0x2667 DUP2 PUSH2 0x2453 JUMP JUMPDEST DUP2 EQ PUSH2 0x2672 JUMPI PUSH1 0x0 DUP1 REVERT JUMPDEST POP JUMP JUMPDEST PUSH2 0x267E DUP2 PUSH2 0x245D JUMP JUMPDEST DUP2 EQ PUSH2 0x2689 JUMPI PUSH1 0x0 DUP1 REVERT JUMPDEST POP JUMP INVALID LOG2 PUSH5 0x6970667358 0x22 SLT KECCAK256 DUP9 0x4E PUSH3 0x27FC78 0xBF DUP14 MOD 0xD8 0x2D SWAP3 0xDF 0xC 0x24 0xD5 MLOAD 0xA7 MSTORE8 PUSH11 0x11A5B7350C9C4225BE4C0F COINBASE PUSH5 0x736F6C6343 STOP ADDMOD SMOD STOP CALLER LOG2 PUSH5 0x6970667358 0x22 SLT KECCAK256 0xE0 CALL RETURN LOG3 LOG3 0xCB SWAP4 0xDE DUP7 SUB PUSH29 0xC2F1A2C279C81CD902E89B2B1D573C9731E455168364736F6C63430008 SMOD STOP CALLER "},"methodIdentifiers":{"CRT()":"2aa0a5c8","INC()":"e4932abe","JON()":"b88ab348","WTD()":"4cc431e2","getStableCoin()":"1bd817c9","getUserChildContractAddress()":"ea413672","joinBitsave(uint256)":"e4e224fa","onCrossChainCall(address,uint256,bytes)":"c8522691","poolFee()":"089fe6aa","sendAsOriginalToken(address,uint256,address)":"de35c372","stableCoin()":"992642e5","systemContract()":"bb88b769","withdrawSaving(string)":"372f9101"}}}}}